{
  "_format": "hh-sol-artifact-1",
  "contractName": "DaemonsToken",
  "sourceName": "contracts/DaemonsToken.sol",
  "abi": [
    {
      "inputs": [],
      "stateMutability": "nonpayable",
      "type": "constructor"
    },
    {
      "anonymous": false,
      "inputs": [
        {
          "indexed": true,
          "internalType": "address",
          "name": "owner",
          "type": "address"
        },
        {
          "indexed": true,
          "internalType": "address",
          "name": "spender",
          "type": "address"
        },
        {
          "indexed": false,
          "internalType": "uint256",
          "name": "value",
          "type": "uint256"
        }
      ],
      "name": "Approval",
      "type": "event"
    },
    {
      "anonymous": false,
      "inputs": [
        {
          "indexed": true,
          "internalType": "address",
          "name": "previousOwner",
          "type": "address"
        },
        {
          "indexed": true,
          "internalType": "address",
          "name": "newOwner",
          "type": "address"
        }
      ],
      "name": "OwnershipTransferred",
      "type": "event"
    },
    {
      "anonymous": false,
      "inputs": [
        {
          "indexed": true,
          "internalType": "address",
          "name": "from",
          "type": "address"
        },
        {
          "indexed": true,
          "internalType": "address",
          "name": "to",
          "type": "address"
        },
        {
          "indexed": false,
          "internalType": "uint256",
          "name": "value",
          "type": "uint256"
        }
      ],
      "name": "Transfer",
      "type": "event"
    },
    {
      "inputs": [],
      "name": "MAX_SUPPLY",
      "outputs": [
        {
          "internalType": "uint256",
          "name": "",
          "type": "uint256"
        }
      ],
      "stateMutability": "view",
      "type": "function"
    },
    {
      "inputs": [
        {
          "internalType": "address",
          "name": "owner",
          "type": "address"
        },
        {
          "internalType": "address",
          "name": "spender",
          "type": "address"
        }
      ],
      "name": "allowance",
      "outputs": [
        {
          "internalType": "uint256",
          "name": "",
          "type": "uint256"
        }
      ],
      "stateMutability": "view",
      "type": "function"
    },
    {
      "inputs": [
        {
          "internalType": "address",
          "name": "spender",
          "type": "address"
        },
        {
          "internalType": "uint256",
          "name": "amount",
          "type": "uint256"
        }
      ],
      "name": "approve",
      "outputs": [
        {
          "internalType": "bool",
          "name": "",
          "type": "bool"
        }
      ],
      "stateMutability": "nonpayable",
      "type": "function"
    },
    {
      "inputs": [
        {
          "internalType": "address",
          "name": "account",
          "type": "address"
        }
      ],
      "name": "balanceOf",
      "outputs": [
        {
          "internalType": "uint256",
          "name": "",
          "type": "uint256"
        }
      ],
      "stateMutability": "view",
      "type": "function"
    },
    {
      "inputs": [],
      "name": "circulatingSupply",
      "outputs": [
        {
          "internalType": "uint256",
          "name": "",
          "type": "uint256"
        }
      ],
      "stateMutability": "view",
      "type": "function"
    },
    {
      "inputs": [],
      "name": "decimals",
      "outputs": [
        {
          "internalType": "uint8",
          "name": "",
          "type": "uint8"
        }
      ],
      "stateMutability": "view",
      "type": "function"
    },
    {
      "inputs": [
        {
          "internalType": "address",
          "name": "spender",
          "type": "address"
        },
        {
          "internalType": "uint256",
          "name": "subtractedValue",
          "type": "uint256"
        }
      ],
      "name": "decreaseAllowance",
      "outputs": [
        {
          "internalType": "bool",
          "name": "",
          "type": "bool"
        }
      ],
      "stateMutability": "nonpayable",
      "type": "function"
    },
    {
      "inputs": [
        {
          "internalType": "address",
          "name": "spender",
          "type": "address"
        },
        {
          "internalType": "uint256",
          "name": "addedValue",
          "type": "uint256"
        }
      ],
      "name": "increaseAllowance",
      "outputs": [
        {
          "internalType": "bool",
          "name": "",
          "type": "bool"
        }
      ],
      "stateMutability": "nonpayable",
      "type": "function"
    },
    {
      "inputs": [
        {
          "internalType": "address",
          "name": "_treasury",
          "type": "address"
        },
        {
          "internalType": "address",
          "name": "_vesting",
          "type": "address"
        }
      ],
      "name": "initialize",
      "outputs": [],
      "stateMutability": "nonpayable",
      "type": "function"
    },
    {
      "inputs": [],
      "name": "name",
      "outputs": [
        {
          "internalType": "string",
          "name": "",
          "type": "string"
        }
      ],
      "stateMutability": "view",
      "type": "function"
    },
    {
      "inputs": [],
      "name": "owner",
      "outputs": [
        {
          "internalType": "address",
          "name": "",
          "type": "address"
        }
      ],
      "stateMutability": "view",
      "type": "function"
    },
    {
      "inputs": [],
      "name": "renounceOwnership",
      "outputs": [],
      "stateMutability": "nonpayable",
      "type": "function"
    },
    {
      "inputs": [],
      "name": "symbol",
      "outputs": [
        {
          "internalType": "string",
          "name": "",
          "type": "string"
        }
      ],
      "stateMutability": "view",
      "type": "function"
    },
    {
      "inputs": [],
      "name": "totalSupply",
      "outputs": [
        {
          "internalType": "uint256",
          "name": "",
          "type": "uint256"
        }
      ],
      "stateMutability": "view",
      "type": "function"
    },
    {
      "inputs": [
        {
          "internalType": "address",
          "name": "recipient",
          "type": "address"
        },
        {
          "internalType": "uint256",
          "name": "amount",
          "type": "uint256"
        }
      ],
      "name": "transfer",
      "outputs": [
        {
          "internalType": "bool",
          "name": "",
          "type": "bool"
        }
      ],
      "stateMutability": "nonpayable",
      "type": "function"
    },
    {
      "inputs": [
        {
          "internalType": "address",
          "name": "sender",
          "type": "address"
        },
        {
          "internalType": "address",
          "name": "recipient",
          "type": "address"
        },
        {
          "internalType": "uint256",
          "name": "amount",
          "type": "uint256"
        }
      ],
      "name": "transferFrom",
      "outputs": [
        {
          "internalType": "bool",
          "name": "",
          "type": "bool"
        }
      ],
      "stateMutability": "nonpayable",
      "type": "function"
    },
    {
      "inputs": [
        {
          "internalType": "address",
          "name": "newOwner",
          "type": "address"
        }
      ],
      "name": "transferOwnership",
      "outputs": [],
      "stateMutability": "nonpayable",
      "type": "function"
    }
  ],
  "bytecode": "0x60806040526b033b2e3c9fd0803ce80000006006553480156200002157600080fd5b5060408051808201825260078152664461656d6f6e7360c81b6020808301918252835180850190945260048452634441454d60e01b9084015281519192916200006d91600391620000fc565b50805162000083906004906020840190620000fc565b505050620000a06200009a620000a660201b60201c565b620000aa565b620001df565b3390565b600580546001600160a01b038381166001600160a01b0319831681179093556040519116919082907f8be0079c531659141344cd1fd0a4f28419497f9722a3daafe3b4186f6b6457e090600090a35050565b8280546200010a90620001a2565b90600052602060002090601f0160209004810192826200012e576000855562000179565b82601f106200014957805160ff191683800117855562000179565b8280016001018555821562000179579182015b82811115620001795782518255916020019190600101906200015c565b50620001879291506200018b565b5090565b5b808211156200018757600081556001016200018c565b600181811c90821680620001b757607f821691505b60208210811415620001d957634e487b7160e01b600052602260045260246000fd5b50919050565b610ff080620001ef6000396000f3fe608060405234801561001057600080fd5b506004361061011b5760003560e01c806370a08231116100b257806395d89b4111610081578063a9059cbb11610066578063a9059cbb14610235578063dd62ed3e14610248578063f2fde38b1461028157600080fd5b806395d89b411461021a578063a457c2d71461022257600080fd5b806370a08231146101c6578063715018a6146101ef5780638da5cb5b146101f75780639358928b1461021257600080fd5b8063313ce567116100ee578063313ce5671461018657806332cb6b0c14610195578063395093511461019e578063485cc955146101b157600080fd5b806306fdde0314610120578063095ea7b31461013e57806318160ddd1461016157806323b872dd14610173575b600080fd5b610128610294565b6040516101359190610ea8565b60405180910390f35b61015161014c366004610e67565b610326565b6040519015158152602001610135565b6002545b604051908152602001610135565b610151610181366004610e2c565b61033c565b60405160128152602001610135565b61016560065481565b6101516101ac366004610e67565b610400565b6101c46101bf366004610dfa565b61043c565b005b6101656101d4366004610dd9565b6001600160a01b031660009081526020819052604090205490565b6101c461063e565b6005546040516001600160a01b039091168152602001610135565b6101656106a4565b610128610761565b610151610230366004610e67565b610770565b610151610243366004610e67565b610821565b610165610256366004610dfa565b6001600160a01b03918216600090815260016020908152604080832093909416825291909152205490565b6101c461028f366004610dd9565b61082e565b6060600380546102a390610f69565b80601f01602080910402602001604051908101604052809291908181526020018280546102cf90610f69565b801561031c5780601f106102f15761010080835404028352916020019161031c565b820191906000526020600020905b8154815290600101906020018083116102ff57829003601f168201915b5050505050905090565b6000610333338484610910565b50600192915050565b6000610349848484610a68565b6001600160a01b0384166000908152600160209081526040808320338452909152902054828110156103e85760405162461bcd60e51b815260206004820152602860248201527f45524332303a207472616e7366657220616d6f756e742065786365656473206160448201527f6c6c6f77616e636500000000000000000000000000000000000000000000000060648201526084015b60405180910390fd5b6103f58533858403610910565b506001949350505050565b3360008181526001602090815260408083206001600160a01b03871684529091528120549091610333918590610437908690610efb565b610910565b6005546001600160a01b031633146104965760405162461bcd60e51b815260206004820181905260248201527f4f776e61626c653a2063616c6c6572206973206e6f7420746865206f776e657260448201526064016103df565b6007546001600160a01b0316156104ef5760405162461bcd60e51b815260206004820152601860248201527f43616e206f6e6c7920696e697469616c697a65206f6e6365000000000000000060448201526064016103df565b6001600160a01b0382166105455760405162461bcd60e51b815260206004820152601860248201527f496e76616c69642074726561737572792061646472657373000000000000000060448201526064016103df565b6001600160a01b03811661059b5760405162461bcd60e51b815260206004820152601760248201527f496e76616c69642076657374696e67206164647265737300000000000000000060448201526064016103df565b600780546001600160a01b0380851673ffffffffffffffffffffffffffffffffffffffff199283161790925560088054928416929091169190911790556006546000906064906105ec90604b610f33565b6105f69190610f13565b60075490915061060f906001600160a01b031682610c7f565b6000606460065460196106229190610f33565b61062c9190610f13565b90506106383382610c7f565b50505050565b6005546001600160a01b031633146106985760405162461bcd60e51b815260206004820181905260248201527f4f776e61626c653a2063616c6c6572206973206e6f7420746865206f776e657260448201526064016103df565b6106a26000610d5e565b565b6008546001600160a01b0316600090815260208190526040812054600760009054906101000a90046001600160a01b03166001600160a01b0316634b1a4c0c6040518163ffffffff1660e01b815260040160206040518083038186803b15801561070d57600080fd5b505afa158015610721573d6000803e3d6000fd5b505050506040513d601f19601f820116820180604052508101906107459190610e90565b6002546107529190610f52565b61075c9190610f52565b905090565b6060600480546102a390610f69565b3360009081526001602090815260408083206001600160a01b03861684529091528120548281101561080a5760405162461bcd60e51b815260206004820152602560248201527f45524332303a2064656372656173656420616c6c6f77616e63652062656c6f7760448201527f207a65726f00000000000000000000000000000000000000000000000000000060648201526084016103df565b6108173385858403610910565b5060019392505050565b6000610333338484610a68565b6005546001600160a01b031633146108885760405162461bcd60e51b815260206004820181905260248201527f4f776e61626c653a2063616c6c6572206973206e6f7420746865206f776e657260448201526064016103df565b6001600160a01b0381166109045760405162461bcd60e51b815260206004820152602660248201527f4f776e61626c653a206e6577206f776e657220697320746865207a65726f206160448201527f646472657373000000000000000000000000000000000000000000000000000060648201526084016103df565b61090d81610d5e565b50565b6001600160a01b03831661098b5760405162461bcd60e51b8152602060048201526024808201527f45524332303a20617070726f76652066726f6d20746865207a65726f2061646460448201527f726573730000000000000000000000000000000000000000000000000000000060648201526084016103df565b6001600160a01b038216610a075760405162461bcd60e51b815260206004820152602260248201527f45524332303a20617070726f766520746f20746865207a65726f20616464726560448201527f737300000000000000000000000000000000000000000000000000000000000060648201526084016103df565b6001600160a01b0383811660008181526001602090815260408083209487168084529482529182902085905590518481527f8c5be1e5ebec7d5bd14f71427d1e84f3dd0314c0f7b2291e5b200ac8c7c3b925910160405180910390a3505050565b6001600160a01b038316610ae45760405162461bcd60e51b815260206004820152602560248201527f45524332303a207472616e736665722066726f6d20746865207a65726f20616460448201527f647265737300000000000000000000000000000000000000000000000000000060648201526084016103df565b6001600160a01b038216610b605760405162461bcd60e51b815260206004820152602360248201527f45524332303a207472616e7366657220746f20746865207a65726f206164647260448201527f657373000000000000000000000000000000000000000000000000000000000060648201526084016103df565b6001600160a01b03831660009081526020819052604090205481811015610bef5760405162461bcd60e51b815260206004820152602660248201527f45524332303a207472616e7366657220616d6f756e742065786365656473206260448201527f616c616e6365000000000000000000000000000000000000000000000000000060648201526084016103df565b6001600160a01b03808516600090815260208190526040808220858503905591851681529081208054849290610c26908490610efb565b92505081905550826001600160a01b0316846001600160a01b03167fddf252ad1be2c89b69c2b068fc378daa952ba7f163c4a11628f55a4df523b3ef84604051610c7291815260200190565b60405180910390a3610638565b6001600160a01b038216610cd55760405162461bcd60e51b815260206004820152601f60248201527f45524332303a206d696e7420746f20746865207a65726f20616464726573730060448201526064016103df565b8060026000828254610ce79190610efb565b90915550506001600160a01b03821660009081526020819052604081208054839290610d14908490610efb565b90915550506040518181526001600160a01b038316906000907fddf252ad1be2c89b69c2b068fc378daa952ba7f163c4a11628f55a4df523b3ef9060200160405180910390a35050565b600580546001600160a01b0383811673ffffffffffffffffffffffffffffffffffffffff19831681179093556040519116919082907f8be0079c531659141344cd1fd0a4f28419497f9722a3daafe3b4186f6b6457e090600090a35050565b80356001600160a01b0381168114610dd457600080fd5b919050565b600060208284031215610dea578081fd5b610df382610dbd565b9392505050565b60008060408385031215610e0c578081fd5b610e1583610dbd565b9150610e2360208401610dbd565b90509250929050565b600080600060608486031215610e40578081fd5b610e4984610dbd565b9250610e5760208501610dbd565b9150604084013590509250925092565b60008060408385031215610e79578182fd5b610e8283610dbd565b946020939093013593505050565b600060208284031215610ea1578081fd5b5051919050565b6000602080835283518082850152825b81811015610ed457858101830151858201604001528201610eb8565b81811115610ee55783604083870101525b50601f01601f1916929092016040019392505050565b60008219821115610f0e57610f0e610fa4565b500190565b600082610f2e57634e487b7160e01b81526012600452602481fd5b500490565b6000816000190483118215151615610f4d57610f4d610fa4565b500290565b600082821015610f6457610f64610fa4565b500390565b600181811c90821680610f7d57607f821691505b60208210811415610f9e57634e487b7160e01b600052602260045260246000fd5b50919050565b634e487b7160e01b600052601160045260246000fdfea26469706673582212207aa80edd6c2edb02b078413998d4262f63339ffa8c64606f21da4666ece3578964736f6c63430008040033",
  "linkReferences": {},
  "deployedLinkReferences": {}
}