{
  "_format": "hh-sol-artifact-1",
  "contractName": "GasPriceFeed",
  "sourceName": "contracts/GasPriceFeed.sol",
  "abi": [
    {
      "anonymous": false,
      "inputs": [
        {
          "indexed": true,
          "internalType": "address",
          "name": "previousOwner",
          "type": "address"
        },
        {
          "indexed": true,
          "internalType": "address",
          "name": "newOwner",
          "type": "address"
        }
      ],
      "name": "OwnershipTransferred",
      "type": "event"
    },
    {
      "inputs": [],
      "name": "lastGasPrice",
      "outputs": [
        {
          "internalType": "uint256",
          "name": "",
          "type": "uint256"
        }
      ],
      "stateMutability": "view",
      "type": "function"
    },
    {
      "inputs": [],
      "name": "owner",
      "outputs": [
        {
          "internalType": "address",
          "name": "",
          "type": "address"
        }
      ],
      "stateMutability": "view",
      "type": "function"
    },
    {
      "inputs": [],
      "name": "renounceOwnership",
      "outputs": [],
      "stateMutability": "nonpayable",
      "type": "function"
    },
    {
      "inputs": [
        {
          "internalType": "uint256",
          "name": "gasPrice",
          "type": "uint256"
        }
      ],
      "name": "setGasPrice",
      "outputs": [],
      "stateMutability": "nonpayable",
      "type": "function"
    },
    {
      "inputs": [
        {
          "internalType": "address",
          "name": "newOwner",
          "type": "address"
        }
      ],
      "name": "transferOwnership",
      "outputs": [],
      "stateMutability": "nonpayable",
      "type": "function"
    }
  ],
  "bytecode": "0x60806040526001805534801561001457600080fd5b5061001e33610023565b610073565b600080546001600160a01b038381166001600160a01b0319831681178455604051919092169283917f8be0079c531659141344cd1fd0a4f28419497f9722a3daafe3b4186f6b6457e09190a35050565b61031d806100826000396000f3fe608060405234801561001057600080fd5b50600436106100575760003560e01c8063715018a61461005c5780637a95c808146100665780638da5cb5b14610082578063bf1fe4201461009d578063f2fde38b146100b0575b600080fd5b6100646100c3565b005b61006f60015481565b6040519081526020015b60405180910390f35b6000546040516001600160a01b039091168152602001610079565b6100646100ab36600461029a565b610102565b6100646100be36600461026c565b610181565b6000546001600160a01b031633146100f65760405162461bcd60e51b81526004016100ed906102b2565b60405180910390fd5b610100600061021c565b565b6000546001600160a01b0316331461012c5760405162461bcd60e51b81526004016100ed906102b2565b6000811161017c5760405162461bcd60e51b815260206004820152601f60248201527f4761735072696365206d7573742062652067726561746572207468616e20300060448201526064016100ed565b600155565b6000546001600160a01b031633146101ab5760405162461bcd60e51b81526004016100ed906102b2565b6001600160a01b0381166102105760405162461bcd60e51b815260206004820152602660248201527f4f776e61626c653a206e6577206f776e657220697320746865207a65726f206160448201526564647265737360d01b60648201526084016100ed565b6102198161021c565b50565b600080546001600160a01b038381166001600160a01b0319831681178455604051919092169283917f8be0079c531659141344cd1fd0a4f28419497f9722a3daafe3b4186f6b6457e09190a35050565b60006020828403121561027d578081fd5b81356001600160a01b0381168114610293578182fd5b9392505050565b6000602082840312156102ab578081fd5b5035919050565b6020808252818101527f4f776e61626c653a2063616c6c6572206973206e6f7420746865206f776e657260408201526060019056fea2646970667358221220358558aa458738287b67e96a35fe6436fb44cbcf964c3ba4f0b194a7b9b19a9964736f6c63430008040033",
  "linkReferences": {},
  "deployedLinkReferences": {}
}