{
  "_format": "hh-sol-artifact-1",
  "contractName": "GasTank",
  "sourceName": "contracts/GasTank.sol",
  "abi": [
    {
      "anonymous": false,
      "inputs": [
        {
          "indexed": true,
          "internalType": "address",
          "name": "previousOwner",
          "type": "address"
        },
        {
          "indexed": true,
          "internalType": "address",
          "name": "newOwner",
          "type": "address"
        }
      ],
      "name": "OwnershipTransferred",
      "type": "event"
    },
    {
      "inputs": [
        {
          "internalType": "address",
          "name": "executor",
          "type": "address"
        }
      ],
      "name": "addExecutor",
      "outputs": [],
      "stateMutability": "nonpayable",
      "type": "function"
    },
    {
      "inputs": [
        {
          "internalType": "uint256",
          "name": "amount",
          "type": "uint256"
        },
        {
          "internalType": "address",
          "name": "user",
          "type": "address"
        },
        {
          "internalType": "address",
          "name": "executor",
          "type": "address"
        }
      ],
      "name": "addReward",
      "outputs": [],
      "stateMutability": "nonpayable",
      "type": "function"
    },
    {
      "inputs": [
        {
          "internalType": "address",
          "name": "user",
          "type": "address"
        }
      ],
      "name": "balanceOf",
      "outputs": [
        {
          "internalType": "uint256",
          "name": "",
          "type": "uint256"
        }
      ],
      "stateMutability": "view",
      "type": "function"
    },
    {
      "inputs": [],
      "name": "claimAndStakeReward",
      "outputs": [],
      "stateMutability": "nonpayable",
      "type": "function"
    },
    {
      "inputs": [],
      "name": "claimReward",
      "outputs": [],
      "stateMutability": "nonpayable",
      "type": "function"
    },
    {
      "inputs": [
        {
          "internalType": "address",
          "name": "user",
          "type": "address"
        }
      ],
      "name": "claimable",
      "outputs": [
        {
          "internalType": "uint256",
          "name": "",
          "type": "uint256"
        }
      ],
      "stateMutability": "view",
      "type": "function"
    },
    {
      "inputs": [],
      "name": "deposit",
      "outputs": [],
      "stateMutability": "payable",
      "type": "function"
    },
    {
      "inputs": [],
      "name": "owner",
      "outputs": [
        {
          "internalType": "address",
          "name": "",
          "type": "address"
        }
      ],
      "stateMutability": "view",
      "type": "function"
    },
    {
      "inputs": [],
      "name": "preliminaryCheck",
      "outputs": [],
      "stateMutability": "view",
      "type": "function"
    },
    {
      "inputs": [
        {
          "internalType": "address",
          "name": "executor",
          "type": "address"
        }
      ],
      "name": "removeExecutor",
      "outputs": [],
      "stateMutability": "nonpayable",
      "type": "function"
    },
    {
      "inputs": [],
      "name": "renounceOwnership",
      "outputs": [],
      "stateMutability": "nonpayable",
      "type": "function"
    },
    {
      "inputs": [
        {
          "internalType": "address",
          "name": "_treasury",
          "type": "address"
        }
      ],
      "name": "setTreasury",
      "outputs": [],
      "stateMutability": "nonpayable",
      "type": "function"
    },
    {
      "inputs": [
        {
          "internalType": "address",
          "name": "newOwner",
          "type": "address"
        }
      ],
      "name": "transferOwnership",
      "outputs": [],
      "stateMutability": "nonpayable",
      "type": "function"
    },
    {
      "inputs": [],
      "name": "treasury",
      "outputs": [
        {
          "internalType": "contract ITreasury",
          "name": "",
          "type": "address"
        }
      ],
      "stateMutability": "view",
      "type": "function"
    },
    {
      "inputs": [
        {
          "internalType": "uint256",
          "name": "amount",
          "type": "uint256"
        }
      ],
      "name": "withdraw",
      "outputs": [],
      "stateMutability": "nonpayable",
      "type": "function"
    },
    {
      "inputs": [],
      "name": "withdrawAll",
      "outputs": [],
      "stateMutability": "nonpayable",
      "type": "function"
    }
  ],
  "bytecode": "0x608060405234801561001057600080fd5b5061001a3361001f565b61006f565b600080546001600160a01b038381166001600160a01b0319831681178455604051919092169283917f8be0079c531659141344cd1fd0a4f28419497f9722a3daafe3b4186f6b6457e09190a35050565b610af48061007e6000396000f3fe6080604052600436106100f35760003560e01c8063715018a61161008a578063b88a802f11610059578063b88a802f146102a3578063d0e30db0146102b8578063f0f44260146102c0578063f2fde38b146102e057600080fd5b8063715018a61461023b578063853828b6146102505780638da5cb5b1461026557806398094b3d1461028357600080fd5b80632e1a7d4d116100c65780632e1a7d4d14610164578063402914f51461018457806361d027b3146101cd57806370a082311461020557600080fd5b806301ff45aa146100f85780631505fd3d1461010f5780631f5a0bbe146101245780632478842914610144575b600080fd5b34801561010457600080fd5b5061010d610300565b005b34801561011b57600080fd5b5061010d61035f565b34801561013057600080fd5b5061010d61013f3660046109ec565b61044b565b34801561015057600080fd5b5061010d61015f3660046109ec565b6104c9565b34801561017057600080fd5b5061010d61017f366004610a0d565b610544565b34801561019057600080fd5b506101ba61019f3660046109ec565b6001600160a01b031660009081526003602052604090205490565b6040519081526020015b60405180910390f35b3480156101d957600080fd5b506001546101ed906001600160a01b031681565b6040516001600160a01b0390911681526020016101c4565b34801561021157600080fd5b506101ba6102203660046109ec565b6001600160a01b031660009081526002602052604090205490565b34801561024757600080fd5b5061010d6105bd565b34801561025c57600080fd5b5061010d610621565b34801561027157600080fd5b506000546001600160a01b03166101ed565b34801561028f57600080fd5b5061010d61029e366004610a25565b610662565b3480156102af57600080fd5b5061010d610720565b61010d6107db565b3480156102cc57600080fd5b5061010d6102db3660046109ec565b610808565b3480156102ec57600080fd5b5061010d6102fb3660046109ec565b610891565b6001546001600160a01b031661035d5760405162461bcd60e51b815260206004820152600860248201527f547265617375727900000000000000000000000000000000000000000000000060448201526064015b60405180910390fd5b565b33600090815260036020526040902054806103bc5760405162461bcd60e51b815260206004820152601060248201527f4e6f7468696e6720746f20636c61696d000000000000000000000000000000006044820152606401610354565b336000818152600360205260408082209190915560015490517fb4f5d39500000000000000000000000000000000000000000000000000000000815260048101929092526001600160a01b03169063b4f5d3959083906024015b6000604051808303818588803b15801561042f57600080fd5b505af1158015610443573d6000803e3d6000fd5b505050505050565b6000546001600160a01b031633146104a55760405162461bcd60e51b815260206004820181905260248201527f4f776e61626c653a2063616c6c6572206973206e6f7420746865206f776e65726044820152606401610354565b6001600160a01b03166000908152600460205260409020805460ff19166001179055565b6000546001600160a01b031633146105235760405162461bcd60e51b815260206004820181905260248201527f4f776e61626c653a2063616c6c6572206973206e6f7420746865206f776e65726044820152606401610354565b6001600160a01b03166000908152600460205260409020805460ff19169055565b3360009081526002602052604090205481111561056057600080fd5b3360009081526002602052604090205461057b908290610a78565b33600081815260026020526040808220939093559151909183156108fc02918491818181858888f193505050501580156105b9573d6000803e3d6000fd5b5050565b6000546001600160a01b031633146106175760405162461bcd60e51b815260206004820181905260248201527f4f776e61626c653a2063616c6c6572206973206e6f7420746865206f776e65726044820152606401610354565b61035d6000610973565b33600081815260026020526040808220805490839055905190929183156108fc02918491818181858888f193505050501580156105b9573d6000803e3d6000fd5b3360009081526004602052604090205460ff166106c15760405162461bcd60e51b815260206004820152601c60248201527f556e617574686f72697a65642e204f6e6c79204578656375746f7273000000006044820152606401610354565b6001600160a01b038216600090815260026020526040812080548592906106e9908490610a78565b90915550506001600160a01b03811660009081526003602052604081208054859290610716908490610a60565b9091555050505050565b336000908152600360205260409020548061077d5760405162461bcd60e51b815260206004820152601060248201527f4e6f7468696e6720746f20636c61696d000000000000000000000000000000006044820152606401610354565b336000818152600360205260408082209190915560015490517f5d6f113700000000000000000000000000000000000000000000000000000000815260048101929092526001600160a01b031690635d6f1137908390602401610416565b336000908152600260205260409020546107f6903490610a60565b33600090815260026020526040902055565b6000546001600160a01b031633146108625760405162461bcd60e51b815260206004820181905260248201527f4f776e61626c653a2063616c6c6572206973206e6f7420746865206f776e65726044820152606401610354565b6001805473ffffffffffffffffffffffffffffffffffffffff19166001600160a01b0392909216919091179055565b6000546001600160a01b031633146108eb5760405162461bcd60e51b815260206004820181905260248201527f4f776e61626c653a2063616c6c6572206973206e6f7420746865206f776e65726044820152606401610354565b6001600160a01b0381166109675760405162461bcd60e51b815260206004820152602660248201527f4f776e61626c653a206e6577206f776e657220697320746865207a65726f206160448201527f64647265737300000000000000000000000000000000000000000000000000006064820152608401610354565b61097081610973565b50565b600080546001600160a01b0383811673ffffffffffffffffffffffffffffffffffffffff19831681178455604051919092169283917f8be0079c531659141344cd1fd0a4f28419497f9722a3daafe3b4186f6b6457e09190a35050565b80356001600160a01b03811681146109e757600080fd5b919050565b6000602082840312156109fd578081fd5b610a06826109d0565b9392505050565b600060208284031215610a1e578081fd5b5035919050565b600080600060608486031215610a39578182fd5b83359250610a49602085016109d0565b9150610a57604085016109d0565b90509250925092565b60008219821115610a7357610a73610a8f565b500190565b600082821015610a8a57610a8a610a8f565b500390565b7f4e487b7100000000000000000000000000000000000000000000000000000000600052601160045260246000fdfea264697066735822122028cafe2815c1157e05bb8c8f08152892b9f9bd103cd4b9f7d8e034076bb2f82864736f6c63430008040033",
  "linkReferences": {},
  "deployedLinkReferences": {}
}