{
  "_format": "hh-sol-artifact-1",
  "contractName": "GasTank",
  "sourceName": "contracts/GasTank.sol",
  "abi": [
    {
      "inputs": [
        {
          "internalType": "address",
          "name": "user",
          "type": "address"
        }
      ],
      "name": "balanceOf",
      "outputs": [
        {
          "internalType": "uint256",
          "name": "",
          "type": "uint256"
        }
      ],
      "stateMutability": "view",
      "type": "function"
    },
    {
      "inputs": [],
      "name": "deposit",
      "outputs": [],
      "stateMutability": "payable",
      "type": "function"
    },
    {
      "inputs": [
        {
          "internalType": "uint256",
          "name": "amount",
          "type": "uint256"
        }
      ],
      "name": "withdraw",
      "outputs": [],
      "stateMutability": "nonpayable",
      "type": "function"
    },
    {
      "inputs": [],
      "name": "withdrawAll",
      "outputs": [],
      "stateMutability": "nonpayable",
      "type": "function"
    }
  ],
  "bytecode": "0x608060405234801561001057600080fd5b50610289806100206000396000f3fe60806040526004361061003f5760003560e01c80632e1a7d4d1461004457806370a0823114610066578063853828b6146100ae578063d0e30db0146100c3575b600080fd5b34801561005057600080fd5b5061006461005f3660046101f6565b6100cb565b005b34801561007257600080fd5b5061009c6100813660046101cf565b6001600160a01b031660009081526020819052604090205490565b60405190815260200160405180910390f35b3480156100ba57600080fd5b50610064610143565b610064610184565b336000908152602081905260409020548111156100e757600080fd5b3360009081526020819052604090205461010190826101b0565b33600081815260208190526040808220939093559151909183156108fc02918491818181858888f1935050505015801561013f573d6000803e3d6000fd5b5050565b33600081815260208190526040808220805490839055905190929183156108fc02918491818181858888f1935050505015801561013f573d6000803e3d6000fd5b3360009081526020819052604090205461019e90346101c3565b33600090815260208190526040902055565b60006101bc8284610226565b9392505050565b60006101bc828461020e565b6000602082840312156101e0578081fd5b81356001600160a01b03811681146101bc578182fd5b600060208284031215610207578081fd5b5035919050565b600082198211156102215761022161023d565b500190565b6000828210156102385761023861023d565b500390565b634e487b7160e01b600052601160045260246000fdfea26469706673582212202b770c9c06b3001cb88dc3b5282596d367d2669b7ab25cce34f8605a9dac315064736f6c63430008040033",
  "linkReferences": {},
  "deployedLinkReferences": {}
}