{
  "_format": "hh-sol-artifact-1",
  "contractName": "GasTank",
  "sourceName": "contracts/GasTank.sol",
  "abi": [
    {
      "anonymous": false,
      "inputs": [
        {
          "indexed": true,
          "internalType": "address",
          "name": "previousOwner",
          "type": "address"
        },
        {
          "indexed": true,
          "internalType": "address",
          "name": "newOwner",
          "type": "address"
        }
      ],
      "name": "OwnershipTransferred",
      "type": "event"
    },
    {
      "inputs": [
        {
          "internalType": "address",
          "name": "executor",
          "type": "address"
        }
      ],
      "name": "addExecutor",
      "outputs": [],
      "stateMutability": "nonpayable",
      "type": "function"
    },
    {
      "inputs": [
        {
          "internalType": "uint256",
          "name": "amount",
          "type": "uint256"
        },
        {
          "internalType": "address",
          "name": "user",
          "type": "address"
        },
        {
          "internalType": "address",
          "name": "executor",
          "type": "address"
        }
      ],
      "name": "addReward",
      "outputs": [],
      "stateMutability": "nonpayable",
      "type": "function"
    },
    {
      "inputs": [
        {
          "internalType": "address",
          "name": "user",
          "type": "address"
        }
      ],
      "name": "balanceOf",
      "outputs": [
        {
          "internalType": "uint256",
          "name": "",
          "type": "uint256"
        }
      ],
      "stateMutability": "view",
      "type": "function"
    },
    {
      "inputs": [],
      "name": "claimReward",
      "outputs": [],
      "stateMutability": "nonpayable",
      "type": "function"
    },
    {
      "inputs": [
        {
          "internalType": "address",
          "name": "user",
          "type": "address"
        }
      ],
      "name": "claimable",
      "outputs": [
        {
          "internalType": "uint256",
          "name": "",
          "type": "uint256"
        }
      ],
      "stateMutability": "view",
      "type": "function"
    },
    {
      "inputs": [],
      "name": "deposit",
      "outputs": [],
      "stateMutability": "payable",
      "type": "function"
    },
    {
      "inputs": [],
      "name": "owner",
      "outputs": [
        {
          "internalType": "address",
          "name": "",
          "type": "address"
        }
      ],
      "stateMutability": "view",
      "type": "function"
    },
    {
      "inputs": [],
      "name": "preliminaryCheck",
      "outputs": [],
      "stateMutability": "view",
      "type": "function"
    },
    {
      "inputs": [
        {
          "internalType": "address",
          "name": "executor",
          "type": "address"
        }
      ],
      "name": "removeExecutor",
      "outputs": [],
      "stateMutability": "nonpayable",
      "type": "function"
    },
    {
      "inputs": [],
      "name": "renounceOwnership",
      "outputs": [],
      "stateMutability": "nonpayable",
      "type": "function"
    },
    {
      "inputs": [
        {
          "internalType": "address",
          "name": "_treasury",
          "type": "address"
        }
      ],
      "name": "setTreasury",
      "outputs": [],
      "stateMutability": "nonpayable",
      "type": "function"
    },
    {
      "inputs": [
        {
          "internalType": "address",
          "name": "newOwner",
          "type": "address"
        }
      ],
      "name": "transferOwnership",
      "outputs": [],
      "stateMutability": "nonpayable",
      "type": "function"
    },
    {
      "inputs": [],
      "name": "treasury",
      "outputs": [
        {
          "internalType": "contract ITreasury",
          "name": "",
          "type": "address"
        }
      ],
      "stateMutability": "view",
      "type": "function"
    },
    {
      "inputs": [
        {
          "internalType": "uint256",
          "name": "amount",
          "type": "uint256"
        }
      ],
      "name": "withdraw",
      "outputs": [],
      "stateMutability": "nonpayable",
      "type": "function"
    },
    {
      "inputs": [],
      "name": "withdrawAll",
      "outputs": [],
      "stateMutability": "nonpayable",
      "type": "function"
    }
  ],
  "bytecode": "0x608060405234801561001057600080fd5b5061001a3361001f565b61006f565b600080546001600160a01b038381166001600160a01b0319831681178455604051919092169283917f8be0079c531659141344cd1fd0a4f28419497f9722a3daafe3b4186f6b6457e09190a35050565b610a188061007e6000396000f3fe6080604052600436106100e85760003560e01c8063715018a61161008a578063b88a802f11610059578063b88a802f14610283578063d0e30db014610298578063f0f44260146102a0578063f2fde38b146102c057600080fd5b8063715018a61461021b578063853828b6146102305780638da5cb5b1461024557806398094b3d1461026357600080fd5b80632e1a7d4d116100c65780632e1a7d4d14610144578063402914f51461016457806361d027b3146101ad57806370a08231146101e557600080fd5b806301ff45aa146100ed5780631f5a0bbe146101045780632478842914610124575b600080fd5b3480156100f957600080fd5b506101026102e0565b005b34801561011057600080fd5b5061010261011f366004610910565b61033f565b34801561013057600080fd5b5061010261013f366004610910565b6103bd565b34801561015057600080fd5b5061010261015f366004610931565b610438565b34801561017057600080fd5b5061019a61017f366004610910565b6001600160a01b031660009081526003602052604090205490565b6040519081526020015b60405180910390f35b3480156101b957600080fd5b506001546101cd906001600160a01b031681565b6040516001600160a01b0390911681526020016101a4565b3480156101f157600080fd5b5061019a610200366004610910565b6001600160a01b031660009081526002602052604090205490565b34801561022757600080fd5b506101026104b1565b34801561023c57600080fd5b50610102610515565b34801561025157600080fd5b506000546001600160a01b03166101cd565b34801561026f57600080fd5b5061010261027e366004610949565b610556565b34801561028f57600080fd5b50610102610614565b6101026106ff565b3480156102ac57600080fd5b506101026102bb366004610910565b61072c565b3480156102cc57600080fd5b506101026102db366004610910565b6107b5565b6001546001600160a01b031661033d5760405162461bcd60e51b815260206004820152600860248201527f547265617375727900000000000000000000000000000000000000000000000060448201526064015b60405180910390fd5b565b6000546001600160a01b031633146103995760405162461bcd60e51b815260206004820181905260248201527f4f776e61626c653a2063616c6c6572206973206e6f7420746865206f776e65726044820152606401610334565b6001600160a01b03166000908152600460205260409020805460ff19166001179055565b6000546001600160a01b031633146104175760405162461bcd60e51b815260206004820181905260248201527f4f776e61626c653a2063616c6c6572206973206e6f7420746865206f776e65726044820152606401610334565b6001600160a01b03166000908152600460205260409020805460ff19169055565b3360009081526002602052604090205481111561045457600080fd5b3360009081526002602052604090205461046f90829061099c565b33600081815260026020526040808220939093559151909183156108fc02918491818181858888f193505050501580156104ad573d6000803e3d6000fd5b5050565b6000546001600160a01b0316331461050b5760405162461bcd60e51b815260206004820181905260248201527f4f776e61626c653a2063616c6c6572206973206e6f7420746865206f776e65726044820152606401610334565b61033d6000610897565b33600081815260026020526040808220805490839055905190929183156108fc02918491818181858888f193505050501580156104ad573d6000803e3d6000fd5b3360009081526004602052604090205460ff166105b55760405162461bcd60e51b815260206004820152601c60248201527f556e617574686f72697a65642e204f6e6c79204578656375746f7273000000006044820152606401610334565b6001600160a01b038216600090815260026020526040812080548592906105dd90849061099c565b90915550506001600160a01b0381166000908152600360205260408120805485929061060a908490610984565b9091555050505050565b33600090815260036020526040902054806106715760405162461bcd60e51b815260206004820152601060248201527f4e6f7468696e6720746f20636c61696d000000000000000000000000000000006044820152606401610334565b336000818152600360205260408082209190915560015490517f5d6f113700000000000000000000000000000000000000000000000000000000815260048101929092526001600160a01b031690635d6f11379083906024016000604051808303818588803b1580156106e357600080fd5b505af11580156106f7573d6000803e3d6000fd5b505050505050565b3360009081526002602052604090205461071a903490610984565b33600090815260026020526040902055565b6000546001600160a01b031633146107865760405162461bcd60e51b815260206004820181905260248201527f4f776e61626c653a2063616c6c6572206973206e6f7420746865206f776e65726044820152606401610334565b6001805473ffffffffffffffffffffffffffffffffffffffff19166001600160a01b0392909216919091179055565b6000546001600160a01b0316331461080f5760405162461bcd60e51b815260206004820181905260248201527f4f776e61626c653a2063616c6c6572206973206e6f7420746865206f776e65726044820152606401610334565b6001600160a01b03811661088b5760405162461bcd60e51b815260206004820152602660248201527f4f776e61626c653a206e6577206f776e657220697320746865207a65726f206160448201527f64647265737300000000000000000000000000000000000000000000000000006064820152608401610334565b61089481610897565b50565b600080546001600160a01b0383811673ffffffffffffffffffffffffffffffffffffffff19831681178455604051919092169283917f8be0079c531659141344cd1fd0a4f28419497f9722a3daafe3b4186f6b6457e09190a35050565b80356001600160a01b038116811461090b57600080fd5b919050565b600060208284031215610921578081fd5b61092a826108f4565b9392505050565b600060208284031215610942578081fd5b5035919050565b60008060006060848603121561095d578182fd5b8335925061096d602085016108f4565b915061097b604085016108f4565b90509250925092565b60008219821115610997576109976109b3565b500190565b6000828210156109ae576109ae6109b3565b500390565b7f4e487b7100000000000000000000000000000000000000000000000000000000600052601160045260246000fdfea264697066735822122016d371eaf2de4880b4aea712900711b12bef02c2727e4b5ad5428e0662f7e35164736f6c63430008040033",
  "linkReferences": {},
  "deployedLinkReferences": {}
}