{
  "_format": "hh-sol-artifact-1",
  "contractName": "GasTank",
  "sourceName": "contracts/GasTank.sol",
  "abi": [
    {
      "anonymous": false,
      "inputs": [
        {
          "indexed": true,
          "internalType": "address",
          "name": "previousOwner",
          "type": "address"
        },
        {
          "indexed": true,
          "internalType": "address",
          "name": "newOwner",
          "type": "address"
        }
      ],
      "name": "OwnershipTransferred",
      "type": "event"
    },
    {
      "inputs": [
        {
          "internalType": "address",
          "name": "executor",
          "type": "address"
        }
      ],
      "name": "addExecutor",
      "outputs": [],
      "stateMutability": "nonpayable",
      "type": "function"
    },
    {
      "inputs": [
        {
          "internalType": "uint256",
          "name": "amount",
          "type": "uint256"
        },
        {
          "internalType": "address",
          "name": "user",
          "type": "address"
        },
        {
          "internalType": "address",
          "name": "executor",
          "type": "address"
        }
      ],
      "name": "addReward",
      "outputs": [],
      "stateMutability": "nonpayable",
      "type": "function"
    },
    {
      "inputs": [
        {
          "internalType": "address",
          "name": "user",
          "type": "address"
        }
      ],
      "name": "balanceOf",
      "outputs": [
        {
          "internalType": "uint256",
          "name": "",
          "type": "uint256"
        }
      ],
      "stateMutability": "view",
      "type": "function"
    },
    {
      "inputs": [],
      "name": "claimReward",
      "outputs": [],
      "stateMutability": "nonpayable",
      "type": "function"
    },
    {
      "inputs": [
        {
          "internalType": "address",
          "name": "user",
          "type": "address"
        }
      ],
      "name": "claimable",
      "outputs": [
        {
          "internalType": "uint256",
          "name": "",
          "type": "uint256"
        }
      ],
      "stateMutability": "view",
      "type": "function"
    },
    {
      "inputs": [],
      "name": "deposit",
      "outputs": [],
      "stateMutability": "payable",
      "type": "function"
    },
    {
      "inputs": [],
      "name": "owner",
      "outputs": [
        {
          "internalType": "address",
          "name": "",
          "type": "address"
        }
      ],
      "stateMutability": "view",
      "type": "function"
    },
    {
      "inputs": [],
      "name": "preliminaryCheck",
      "outputs": [],
      "stateMutability": "view",
      "type": "function"
    },
    {
      "inputs": [
        {
          "internalType": "address",
          "name": "executor",
          "type": "address"
        }
      ],
      "name": "removeExecutor",
      "outputs": [],
      "stateMutability": "nonpayable",
      "type": "function"
    },
    {
      "inputs": [],
      "name": "renounceOwnership",
      "outputs": [],
      "stateMutability": "nonpayable",
      "type": "function"
    },
    {
      "inputs": [
        {
          "internalType": "address",
          "name": "_treasury",
          "type": "address"
        }
      ],
      "name": "setTreasury",
      "outputs": [],
      "stateMutability": "nonpayable",
      "type": "function"
    },
    {
      "inputs": [
        {
          "internalType": "address",
          "name": "newOwner",
          "type": "address"
        }
      ],
      "name": "transferOwnership",
      "outputs": [],
      "stateMutability": "nonpayable",
      "type": "function"
    },
    {
      "inputs": [],
      "name": "treasury",
      "outputs": [
        {
          "internalType": "contract ITreasury",
          "name": "",
          "type": "address"
        }
      ],
      "stateMutability": "view",
      "type": "function"
    },
    {
      "inputs": [
        {
          "internalType": "uint256",
          "name": "amount",
          "type": "uint256"
        }
      ],
      "name": "withdraw",
      "outputs": [],
      "stateMutability": "nonpayable",
      "type": "function"
    },
    {
      "inputs": [],
      "name": "withdrawAll",
      "outputs": [],
      "stateMutability": "nonpayable",
      "type": "function"
    }
  ],
  "bytecode": "0x608060405234801561001057600080fd5b5061001a3361001f565b61006f565b600080546001600160a01b038381166001600160a01b0319831681178455604051919092169283917f8be0079c531659141344cd1fd0a4f28419497f9722a3daafe3b4186f6b6457e09190a35050565b6108d88061007e6000396000f3fe6080604052600436106100e85760003560e01c8063715018a61161008a578063b88a802f11610059578063b88a802f14610283578063d0e30db014610298578063f0f44260146102a0578063f2fde38b146102c057600080fd5b8063715018a61461021b578063853828b6146102305780638da5cb5b1461024557806398094b3d1461026357600080fd5b80632e1a7d4d116100c65780632e1a7d4d14610144578063402914f51461016457806361d027b3146101ad57806370a08231146101e557600080fd5b806301ff45aa146100ed5780631f5a0bbe146101045780632478842914610124575b600080fd5b3480156100f957600080fd5b506101026102e0565b005b34801561011057600080fd5b5061010261011f3660046107b4565b61032a565b34801561013057600080fd5b5061010261013f3660046107b4565b610378565b34801561015057600080fd5b5061010261015f3660046107d5565b6103c3565b34801561017057600080fd5b5061019a61017f3660046107b4565b6001600160a01b031660009081526003602052604090205490565b6040519081526020015b60405180910390f35b3480156101b957600080fd5b506001546101cd906001600160a01b031681565b6040516001600160a01b0390911681526020016101a4565b3480156101f157600080fd5b5061019a6102003660046107b4565b6001600160a01b031660009081526002602052604090205490565b34801561022757600080fd5b5061010261043c565b34801561023c57600080fd5b50610102610470565b34801561025157600080fd5b506000546001600160a01b03166101cd565b34801561026f57600080fd5b5061010261027e3660046107ed565b6104b1565b34801561028f57600080fd5b5061010261056f565b610102610634565b3480156102ac57600080fd5b506101026102bb3660046107b4565b610661565b3480156102cc57600080fd5b506101026102db3660046107b4565b6106ad565b6001546001600160a01b03166103285760405162461bcd60e51b8152602060048201526008602482015267547265617375727960c01b60448201526064015b60405180910390fd5b565b6000546001600160a01b031633146103545760405162461bcd60e51b815260040161031f90610828565b6001600160a01b03166000908152600460205260409020805460ff19166001179055565b6000546001600160a01b031633146103a25760405162461bcd60e51b815260040161031f90610828565b6001600160a01b03166000908152600460205260409020805460ff19169055565b336000908152600260205260409020548111156103df57600080fd5b336000908152600260205260409020546103fa908290610875565b33600081815260026020526040808220939093559151909183156108fc02918491818181858888f19350505050158015610438573d6000803e3d6000fd5b5050565b6000546001600160a01b031633146104665760405162461bcd60e51b815260040161031f90610828565b6103286000610748565b33600081815260026020526040808220805490839055905190929183156108fc02918491818181858888f19350505050158015610438573d6000803e3d6000fd5b3360009081526004602052604090205460ff166105105760405162461bcd60e51b815260206004820152601c60248201527f556e617574686f72697a65642e204f6e6c79204578656375746f727300000000604482015260640161031f565b6001600160a01b03821660009081526002602052604081208054859290610538908490610875565b90915550506001600160a01b0381166000908152600360205260408120805485929061056590849061085d565b9091555050505050565b33600090815260036020526040902054806105bf5760405162461bcd60e51b815260206004820152601060248201526f4e6f7468696e6720746f20636c61696d60801b604482015260640161031f565b33600081815260036020526040808220919091556001549051635d6f113760e01b815260048101929092526001600160a01b031690635d6f11379083906024016000604051808303818588803b15801561061857600080fd5b505af115801561062c573d6000803e3d6000fd5b505050505050565b3360009081526002602052604090205461064f90349061085d565b33600090815260026020526040902055565b6000546001600160a01b0316331461068b5760405162461bcd60e51b815260040161031f90610828565b600180546001600160a01b0319166001600160a01b0392909216919091179055565b6000546001600160a01b031633146106d75760405162461bcd60e51b815260040161031f90610828565b6001600160a01b03811661073c5760405162461bcd60e51b815260206004820152602660248201527f4f776e61626c653a206e6577206f776e657220697320746865207a65726f206160448201526564647265737360d01b606482015260840161031f565b61074581610748565b50565b600080546001600160a01b038381166001600160a01b0319831681178455604051919092169283917f8be0079c531659141344cd1fd0a4f28419497f9722a3daafe3b4186f6b6457e09190a35050565b80356001600160a01b03811681146107af57600080fd5b919050565b6000602082840312156107c5578081fd5b6107ce82610798565b9392505050565b6000602082840312156107e6578081fd5b5035919050565b600080600060608486031215610801578182fd5b8335925061081160208501610798565b915061081f60408501610798565b90509250925092565b6020808252818101527f4f776e61626c653a2063616c6c6572206973206e6f7420746865206f776e6572604082015260600190565b600082198211156108705761087061088c565b500190565b6000828210156108875761088761088c565b500390565b634e487b7160e01b600052601160045260246000fdfea26469706673582212205d4c29d8594634ff1b2a2c6c292d780d7135cda88deb5ac2fa81eecba3e45ebf64736f6c63430008040033",
  "linkReferences": {},
  "deployedLinkReferences": {}
}