{
  "_format": "hh-sol-artifact-1",
  "contractName": "MmAdvancedScriptExecutor",
  "sourceName": "contracts/MmAdvancedScriptExecutor.sol",
  "abi": [
    {
      "anonymous": false,
      "inputs": [
        {
          "indexed": false,
          "internalType": "bytes32",
          "name": "id",
          "type": "bytes32"
        },
        {
          "indexed": false,
          "internalType": "uint256",
          "name": "cost",
          "type": "uint256"
        }
      ],
      "name": "Executed",
      "type": "event"
    },
    {
      "anonymous": false,
      "inputs": [
        {
          "indexed": true,
          "internalType": "address",
          "name": "previousOwner",
          "type": "address"
        },
        {
          "indexed": true,
          "internalType": "address",
          "name": "newOwner",
          "type": "address"
        }
      ],
      "name": "OwnershipTransferred",
      "type": "event"
    },
    {
      "inputs": [],
      "name": "GAS_COST",
      "outputs": [
        {
          "internalType": "uint256",
          "name": "",
          "type": "uint256"
        }
      ],
      "stateMutability": "view",
      "type": "function"
    },
    {
      "inputs": [],
      "name": "MINIMUM_GAS_FOR_SCRIPT_EXECUTION",
      "outputs": [
        {
          "internalType": "uint256",
          "name": "",
          "type": "uint256"
        }
      ],
      "stateMutability": "view",
      "type": "function"
    },
    {
      "inputs": [
        {
          "components": [
            {
              "internalType": "bytes32",
              "name": "scriptId",
              "type": "bytes32"
            },
            {
              "internalType": "address",
              "name": "token",
              "type": "address"
            },
            {
              "internalType": "address",
              "name": "debtToken",
              "type": "address"
            },
            {
              "internalType": "bytes1",
              "name": "action",
              "type": "bytes1"
            },
            {
              "internalType": "bytes1",
              "name": "typeAmt",
              "type": "bytes1"
            },
            {
              "internalType": "bytes1",
              "name": "rateMode",
              "type": "bytes1"
            },
            {
              "internalType": "uint256",
              "name": "amount",
              "type": "uint256"
            },
            {
              "internalType": "address",
              "name": "user",
              "type": "address"
            },
            {
              "internalType": "address",
              "name": "kontract",
              "type": "address"
            },
            {
              "internalType": "address",
              "name": "executor",
              "type": "address"
            },
            {
              "internalType": "uint256",
              "name": "chainId",
              "type": "uint256"
            },
            {
              "components": [
                {
                  "internalType": "bool",
                  "name": "enabled",
                  "type": "bool"
                },
                {
                  "internalType": "address",
                  "name": "token",
                  "type": "address"
                },
                {
                  "internalType": "bytes1",
                  "name": "comparison",
                  "type": "bytes1"
                },
                {
                  "internalType": "uint256",
                  "name": "amount",
                  "type": "uint256"
                }
              ],
              "internalType": "struct Balance",
              "name": "balance",
              "type": "tuple"
            },
            {
              "components": [
                {
                  "internalType": "bool",
                  "name": "enabled",
                  "type": "bool"
                },
                {
                  "internalType": "uint256",
                  "name": "delay",
                  "type": "uint256"
                },
                {
                  "internalType": "uint256",
                  "name": "start",
                  "type": "uint256"
                }
              ],
              "internalType": "struct Frequency",
              "name": "frequency",
              "type": "tuple"
            },
            {
              "components": [
                {
                  "internalType": "bool",
                  "name": "enabled",
                  "type": "bool"
                },
                {
                  "internalType": "address",
                  "name": "token",
                  "type": "address"
                },
                {
                  "internalType": "bytes1",
                  "name": "comparison",
                  "type": "bytes1"
                },
                {
                  "internalType": "uint256",
                  "name": "value",
                  "type": "uint256"
                }
              ],
              "internalType": "struct Price",
              "name": "price",
              "type": "tuple"
            },
            {
              "components": [
                {
                  "internalType": "bool",
                  "name": "enabled",
                  "type": "bool"
                },
                {
                  "internalType": "uint32",
                  "name": "amount",
                  "type": "uint32"
                }
              ],
              "internalType": "struct Repetitions",
              "name": "repetitions",
              "type": "tuple"
            },
            {
              "components": [
                {
                  "internalType": "bool",
                  "name": "enabled",
                  "type": "bool"
                },
                {
                  "internalType": "uint256",
                  "name": "shift",
                  "type": "uint256"
                },
                {
                  "internalType": "bytes32",
                  "name": "scriptId",
                  "type": "bytes32"
                },
                {
                  "internalType": "address",
                  "name": "executor",
                  "type": "address"
                }
              ],
              "internalType": "struct Follow",
              "name": "follow",
              "type": "tuple"
            },
            {
              "components": [
                {
                  "internalType": "bool",
                  "name": "enabled",
                  "type": "bool"
                },
                {
                  "internalType": "address",
                  "name": "kontract",
                  "type": "address"
                },
                {
                  "internalType": "bytes1",
                  "name": "comparison",
                  "type": "bytes1"
                },
                {
                  "internalType": "uint256",
                  "name": "amount",
                  "type": "uint256"
                }
              ],
              "internalType": "struct HealthFactor",
              "name": "healthFactor",
              "type": "tuple"
            }
          ],
          "internalType": "struct MmAdvanced",
          "name": "message",
          "type": "tuple"
        },
        {
          "internalType": "bytes32",
          "name": "r",
          "type": "bytes32"
        },
        {
          "internalType": "bytes32",
          "name": "s",
          "type": "bytes32"
        },
        {
          "internalType": "uint8",
          "name": "v",
          "type": "uint8"
        }
      ],
      "name": "execute",
      "outputs": [],
      "stateMutability": "nonpayable",
      "type": "function"
    },
    {
      "inputs": [
        {
          "internalType": "bytes32",
          "name": "_id",
          "type": "bytes32"
        }
      ],
      "name": "getRepetitions",
      "outputs": [
        {
          "internalType": "uint32",
          "name": "",
          "type": "uint32"
        }
      ],
      "stateMutability": "view",
      "type": "function"
    },
    {
      "inputs": [],
      "name": "owner",
      "outputs": [
        {
          "internalType": "address",
          "name": "",
          "type": "address"
        }
      ],
      "stateMutability": "view",
      "type": "function"
    },
    {
      "inputs": [],
      "name": "preliminaryCheck",
      "outputs": [],
      "stateMutability": "view",
      "type": "function"
    },
    {
      "inputs": [],
      "name": "priceOracle",
      "outputs": [
        {
          "internalType": "contract IPriceOracleGetter",
          "name": "",
          "type": "address"
        }
      ],
      "stateMutability": "view",
      "type": "function"
    },
    {
      "inputs": [],
      "name": "renounceOwnership",
      "outputs": [],
      "stateMutability": "nonpayable",
      "type": "function"
    },
    {
      "inputs": [
        {
          "internalType": "bytes32",
          "name": "_id",
          "type": "bytes32"
        }
      ],
      "name": "revoke",
      "outputs": [],
      "stateMutability": "nonpayable",
      "type": "function"
    },
    {
      "inputs": [
        {
          "internalType": "address",
          "name": "_priceOracle",
          "type": "address"
        }
      ],
      "name": "setAavePriceOracle",
      "outputs": [],
      "stateMutability": "nonpayable",
      "type": "function"
    },
    {
      "inputs": [
        {
          "internalType": "address",
          "name": "_gasPriceFeed",
          "type": "address"
        }
      ],
      "name": "setGasFeed",
      "outputs": [],
      "stateMutability": "nonpayable",
      "type": "function"
    },
    {
      "inputs": [
        {
          "internalType": "address",
          "name": "_gasTank",
          "type": "address"
        }
      ],
      "name": "setGasTank",
      "outputs": [],
      "stateMutability": "nonpayable",
      "type": "function"
    },
    {
      "inputs": [
        {
          "internalType": "uint256",
          "name": "_amount",
          "type": "uint256"
        }
      ],
      "name": "setMinimumGas",
      "outputs": [],
      "stateMutability": "nonpayable",
      "type": "function"
    },
    {
      "inputs": [
        {
          "internalType": "address",
          "name": "_priceRetriever",
          "type": "address"
        }
      ],
      "name": "setPriceRetriever",
      "outputs": [],
      "stateMutability": "nonpayable",
      "type": "function"
    },
    {
      "inputs": [
        {
          "internalType": "address",
          "name": "newOwner",
          "type": "address"
        }
      ],
      "name": "transferOwnership",
      "outputs": [],
      "stateMutability": "nonpayable",
      "type": "function"
    },
    {
      "inputs": [
        {
          "components": [
            {
              "internalType": "bytes32",
              "name": "scriptId",
              "type": "bytes32"
            },
            {
              "internalType": "address",
              "name": "token",
              "type": "address"
            },
            {
              "internalType": "address",
              "name": "debtToken",
              "type": "address"
            },
            {
              "internalType": "bytes1",
              "name": "action",
              "type": "bytes1"
            },
            {
              "internalType": "bytes1",
              "name": "typeAmt",
              "type": "bytes1"
            },
            {
              "internalType": "bytes1",
              "name": "rateMode",
              "type": "bytes1"
            },
            {
              "internalType": "uint256",
              "name": "amount",
              "type": "uint256"
            },
            {
              "internalType": "address",
              "name": "user",
              "type": "address"
            },
            {
              "internalType": "address",
              "name": "kontract",
              "type": "address"
            },
            {
              "internalType": "address",
              "name": "executor",
              "type": "address"
            },
            {
              "internalType": "uint256",
              "name": "chainId",
              "type": "uint256"
            },
            {
              "components": [
                {
                  "internalType": "bool",
                  "name": "enabled",
                  "type": "bool"
                },
                {
                  "internalType": "address",
                  "name": "token",
                  "type": "address"
                },
                {
                  "internalType": "bytes1",
                  "name": "comparison",
                  "type": "bytes1"
                },
                {
                  "internalType": "uint256",
                  "name": "amount",
                  "type": "uint256"
                }
              ],
              "internalType": "struct Balance",
              "name": "balance",
              "type": "tuple"
            },
            {
              "components": [
                {
                  "internalType": "bool",
                  "name": "enabled",
                  "type": "bool"
                },
                {
                  "internalType": "uint256",
                  "name": "delay",
                  "type": "uint256"
                },
                {
                  "internalType": "uint256",
                  "name": "start",
                  "type": "uint256"
                }
              ],
              "internalType": "struct Frequency",
              "name": "frequency",
              "type": "tuple"
            },
            {
              "components": [
                {
                  "internalType": "bool",
                  "name": "enabled",
                  "type": "bool"
                },
                {
                  "internalType": "address",
                  "name": "token",
                  "type": "address"
                },
                {
                  "internalType": "bytes1",
                  "name": "comparison",
                  "type": "bytes1"
                },
                {
                  "internalType": "uint256",
                  "name": "value",
                  "type": "uint256"
                }
              ],
              "internalType": "struct Price",
              "name": "price",
              "type": "tuple"
            },
            {
              "components": [
                {
                  "internalType": "bool",
                  "name": "enabled",
                  "type": "bool"
                },
                {
                  "internalType": "uint32",
                  "name": "amount",
                  "type": "uint32"
                }
              ],
              "internalType": "struct Repetitions",
              "name": "repetitions",
              "type": "tuple"
            },
            {
              "components": [
                {
                  "internalType": "bool",
                  "name": "enabled",
                  "type": "bool"
                },
                {
                  "internalType": "uint256",
                  "name": "shift",
                  "type": "uint256"
                },
                {
                  "internalType": "bytes32",
                  "name": "scriptId",
                  "type": "bytes32"
                },
                {
                  "internalType": "address",
                  "name": "executor",
                  "type": "address"
                }
              ],
              "internalType": "struct Follow",
              "name": "follow",
              "type": "tuple"
            },
            {
              "components": [
                {
                  "internalType": "bool",
                  "name": "enabled",
                  "type": "bool"
                },
                {
                  "internalType": "address",
                  "name": "kontract",
                  "type": "address"
                },
                {
                  "internalType": "bytes1",
                  "name": "comparison",
                  "type": "bytes1"
                },
                {
                  "internalType": "uint256",
                  "name": "amount",
                  "type": "uint256"
                }
              ],
              "internalType": "struct HealthFactor",
              "name": "healthFactor",
              "type": "tuple"
            }
          ],
          "internalType": "struct MmAdvanced",
          "name": "message",
          "type": "tuple"
        },
        {
          "internalType": "bytes32",
          "name": "r",
          "type": "bytes32"
        },
        {
          "internalType": "bytes32",
          "name": "s",
          "type": "bytes32"
        },
        {
          "internalType": "uint8",
          "name": "v",
          "type": "uint8"
        }
      ],
      "name": "verify",
      "outputs": [],
      "stateMutability": "view",
      "type": "function"
    },
    {
      "inputs": [
        {
          "internalType": "address",
          "name": "user",
          "type": "address"
        }
      ],
      "name": "verifyGasTank",
      "outputs": [],
      "stateMutability": "view",
      "type": "function"
    },
    {
      "inputs": [
        {
          "internalType": "address",
          "name": "user",
          "type": "address"
        },
        {
          "internalType": "bytes32",
          "name": "id",
          "type": "bytes32"
        }
      ],
      "name": "verifyRevocation",
      "outputs": [],
      "stateMutability": "view",
      "type": "function"
    }
  ],
  "bytecode": "0x60806040526706f05b59d3b2000060085566012795f58d500060095534801561002757600080fd5b506100313361003a565b4660045561008a565b600080546001600160a01b038381166001600160a01b0319831681178455604051919092169283917f8be0079c531659141344cd1fd0a4f28419497f9722a3daafe3b4186f6b6457e09190a35050565b613632806200009a6000396000f3fe608060405234801561001057600080fd5b50600436106101365760003560e01c80637ea42ebe116100b2578063985420f411610081578063ca7f103b11610066578063ca7f103b146102ac578063f2fde38b146102b5578063f87d5781146102c857600080fd5b8063985420f414610265578063b75c7dc61461027857600080fd5b80637ea42ebe146101f35780637eb4e4471461022e5780638d2869f2146102415780638da5cb5b1461025457600080fd5b806344e1c47a1161010957806358a346dc116100ee57806358a346dc146101c5578063715018a6146101d85780637ca65cdc146101e057600080fd5b806344e1c47a1461019f5780634ead94a3146101b257600080fd5b806301ff45aa1461013b578063080e4691146101455780632630c12f1461016157806343e297b21461018c575b600080fd5b6101436102db565b005b61014e60085481565b6040519081526020015b60405180910390f35b600b54610174906001600160a01b031681565b6040516001600160a01b039091168152602001610158565b61014361019a366004612df6565b6103ea565b6101436101ad366004612eb8565b610479565b6101436101c0366004612e17565b610731565b6101436101d3366004612df6565b6107a9565b610143610838565b6101436101ee366004612df6565b61089c565b610219610201366004612ea0565b60009081526002602052604090205463ffffffff1690565b60405163ffffffff9091168152602001610158565b61014361023c366004612eb8565b61096d565b61014361024f366004612ea0565b610cca565b6000546001600160a01b0316610174565b610143610273366004612df6565b610d79565b610143610286366004612ea0565b33600090815260036020908152604080832093835292905220805460ff19166001179055565b61014e60095481565b6101436102c3366004612df6565b610e08565b6101436102d6366004612df6565b610ee7565b6005546001600160a01b03166103385760405162461bcd60e51b815260206004820152600760248201527f47617354616e6b0000000000000000000000000000000000000000000000000060448201526064015b60405180910390fd5b6007546001600160a01b03166103905760405162461bcd60e51b815260206004820152600f60248201527f5072696365735265747269657665720000000000000000000000000000000000604482015260640161032f565b6006546001600160a01b03166103e85760405162461bcd60e51b815260206004820152600c60248201527f4761735072696365466565640000000000000000000000000000000000000000604482015260640161032f565b565b6000546001600160a01b031633146104445760405162461bcd60e51b815260206004820181905260248201527f4f776e61626c653a2063616c6c6572206973206e6f7420746865206f776e6572604482015260640161032f565b6001600160a01b03811661045757600080fd5b600580546001600160a01b0319166001600160a01b0392909216919091179055565b6104858484848461096d565b83356000908152600160208181526040808420429055600290915282208054919290916104b990849063ffffffff16613021565b92506101000a81548163ffffffff021916908363ffffffff1602179055508360600160208101906104ea9190612e78565b6001600160f81b0319166105065761050184610f76565b610534565b6105166080850160608601612e78565b6001600160f81b031916600160f81b14156105345761053484611357565b600554600654604080517f7a95c80800000000000000000000000000000000000000000000000000000000815290516001600160a01b03938416936398094b3d931691637a95c808916004808301926020929190829003018186803b15801561059c57600080fd5b505afa1580156105b0573d6000803e3d6000fd5b505050506040513d601f19601f820116820180604052508101906105d49190612f09565b6009546105e19190613150565b6105f2610100880160e08901612df6565b336040516001600160e01b031960e086901b16815260048101939093526001600160a01b039182166024840152166044820152606401600060405180830381600087803b15801561064257600080fd5b505af1158015610656573d6000803e3d6000fd5b505050507f3a7a2319bce6d060c98aa49682d12788f621b7e2e68701a9a082398b39da0f978460000135600660009054906101000a90046001600160a01b03166001600160a01b0316637a95c8086040518163ffffffff1660e01b815260040160206040518083038186803b1580156106ce57600080fd5b505afa1580156106e2573d6000803e3d6000fd5b505050506040513d601f19601f820116820180604052508101906107069190612f09565b6009546107139190613150565b6040805192835260208301919091520160405180910390a150505050565b6001600160a01b038216600090815260036020908152604080832084845290915290205460ff16156107a55760405162461bcd60e51b815260206004820152601060248201527f5b5245564f4b45445d5b46494e414c5d00000000000000000000000000000000604482015260640161032f565b5050565b6000546001600160a01b031633146108035760405162461bcd60e51b815260206004820181905260248201527f4f776e61626c653a2063616c6c6572206973206e6f7420746865206f776e6572604482015260640161032f565b6001600160a01b03811661081657600080fd5b600680546001600160a01b0319166001600160a01b0392909216919091179055565b6000546001600160a01b031633146108925760405162461bcd60e51b815260206004820181905260248201527f4f776e61626c653a2063616c6c6572206973206e6f7420746865206f776e6572604482015260640161032f565b6103e86000611508565b6008546005546040516370a0823160e01b81526001600160a01b038481166004830152909116906370a082319060240160206040518083038186803b1580156108e457600080fd5b505afa1580156108f8573d6000803e3d6000fd5b505050506040513d601f19601f8201168201806040525081019061091c9190612f09565b101561096a5760405162461bcd60e51b815260206004820152600a60248201527f5b4741535d5b544d505d00000000000000000000000000000000000000000000604482015260640161032f565b50565b600b546001600160a01b03166109c55760405162461bcd60e51b815260206004820152601460248201527f5072696365206f7261636c65206e6f7420736574000000000000000000000000604482015260640161032f565b6109e06109d9610100860160e08701612df6565b8535610731565b6109ec84848484611558565b6109fb61030085018535611683565b610a0a6102c0850185356117f4565b610a196101e08501853561187f565b610a296080850160608601612e78565b6001600160f81b031916610c55576000610a496060860160408701612df6565b6001600160a01b03166370a08231610a68610100880160e08901612df6565b6040516001600160e01b031960e084901b1681526001600160a01b03909116600482015260240160206040518083038186803b158015610aa757600080fd5b505afa158015610abb573d6000803e3d6000fd5b505050506040513d601f19601f82011682018060405250810190610adf9190612f09565b11610b2c5760405162461bcd60e51b815260206004820152600e60248201527f5b4e4f5f444542545d5b544d505d000000000000000000000000000000000000604482015260640161032f565b610b3584611927565b6000610b4760a0860160808701612e78565b6001600160f81b03191615610c1d5761271060c0860135610b6e6060880160408901612df6565b6001600160a01b03166370a08231610b8d6101008a0160e08b01612df6565b6040516001600160e01b031960e084901b1681526001600160a01b03909116600482015260240160206040518083038186803b158015610bcc57600080fd5b505afa158015610be0573d6000803e3d6000fd5b505050506040513d601f19601f82011682018060405250810190610c049190612f09565b610c0e9190613150565b610c189190613040565b610c23565b8460c001355b9050610c4f610c39610100870160e08801612df6565b610c496040880160208901612df6565b83611b0c565b50610c67565b610c5e84611bf5565b610c6784611ed0565b610c856101608501610c80610100870160e08801612df6565b611fd3565b610c928461024001612169565b610ca66101ee610100860160e08701612df6565b610cc46103808501610cbf610100870160e08801612df6565b612303565b50505050565b6000546001600160a01b03163314610d245760405162461bcd60e51b815260206004820181905260248201527f4f776e61626c653a2063616c6c6572206973206e6f7420746865206f776e6572604482015260640161032f565b60008111610d745760405162461bcd60e51b815260206004820152601d60248201527f416d6f756e74206d7573742062652067726561746572207468616e2030000000604482015260640161032f565b600855565b6000546001600160a01b03163314610dd35760405162461bcd60e51b815260206004820181905260248201527f4f776e61626c653a2063616c6c6572206973206e6f7420746865206f776e6572604482015260640161032f565b6001600160a01b038116610de657600080fd5b600b80546001600160a01b0319166001600160a01b0392909216919091179055565b6000546001600160a01b03163314610e625760405162461bcd60e51b815260206004820181905260248201527f4f776e61626c653a2063616c6c6572206973206e6f7420746865206f776e6572604482015260640161032f565b6001600160a01b038116610ede5760405162461bcd60e51b815260206004820152602660248201527f4f776e61626c653a206e6577206f776e657220697320746865207a65726f206160448201527f6464726573730000000000000000000000000000000000000000000000000000606482015260840161032f565b61096a81611508565b6000546001600160a01b03163314610f415760405162461bcd60e51b815260206004820181905260248201527f4f776e61626c653a2063616c6c6572206973206e6f7420746865206f776e6572604482015260640161032f565b6001600160a01b038116610f5457600080fd5b600780546001600160a01b0319166001600160a01b0392909216919091179055565b6000610f8860a0830160808401612e78565b6001600160f81b0319161561105e5761271060c0830135610faf6060850160408601612df6565b6001600160a01b03166370a08231610fce610100870160e08801612df6565b6040516001600160e01b031960e084901b1681526001600160a01b03909116600482015260240160206040518083038186803b15801561100d57600080fd5b505afa158015611021573d6000803e3d6000fd5b505050506040513d601f19601f820116820180604052508101906110459190612f09565b61104f9190613150565b6110599190613040565b611064565b8160c001355b905060006110786040840160208501612df6565b90506001600160a01b0381166323b872dd61109a610100860160e08701612df6565b6040516001600160e01b031960e084901b1681526001600160a01b03909116600482015230602482015260448101859052606401602060405180830381600087803b1580156110e857600080fd5b505af11580156110fc573d6000803e3d6000fd5b505050506040513d601f19601f820116820180604052508101906111209190612e5c565b50600a600061113761012086016101008701612df6565b6001600160a01b039081168252602080830193909352604091820160009081209185168152925290205460ff16611183576111838161117e61012086016101008701612df6565b6124b1565b600061119761012085016101008601612df6565b6001600160a01b031663573ade816111b56040870160208801612df6565b856111c660c0890160a08a01612e78565b6001600160f81b031916600160f81b146111e15760026111e4565b60015b6111f56101008a0160e08b01612df6565b6040516001600160e01b031960e087901b1681526001600160a01b039485166004820152602481019390935260ff9091166044830152919091166064820152608401602060405180830381600087803b15801561125157600080fd5b505af1158015611265573d6000803e3d6000fd5b505050506040513d601f19601f820116820180604052508101906112899190612f09565b90506000611297828561316f565b90508015611350576112af6040860160208701612df6565b6001600160a01b031663a9059cbb6112ce610100880160e08901612df6565b6040516001600160e01b031960e084901b1681526001600160a01b03909116600482015260248101849052604401602060405180830381600087803b15801561131657600080fd5b505af115801561132a573d6000803e3d6000fd5b505050506040513d601f19601f8201168201806040525081019061134e9190612e5c565b505b5050505050565b600061136282612583565b905061137661012083016101008401612df6565b6001600160a01b031663a415bcad6113946040850160208601612df6565b836113a560c0870160a08801612e78565b6001600160f81b031916600160f81b146113c05760026113c3565b60015b60006113d6610100890160e08a01612df6565b6040516001600160e01b031960e088901b1681526001600160a01b039586166004820152602481019490945260ff909216604484015261ffff16606483015291909116608482015260a401600060405180830381600087803b15801561143b57600080fd5b505af115801561144f573d6000803e3d6000fd5b50611464925050506040830160208401612df6565b6001600160a01b031663a9059cbb611483610100850160e08601612df6565b6040516001600160e01b031960e084901b1681526001600160a01b03909116600482015260248101849052604401602060405180830381600087803b1580156114cb57600080fd5b505af11580156114df573d6000803e3d6000fd5b505050506040513d601f19601f820116820180604052508101906115039190612e5c565b505050565b600080546001600160a01b038381166001600160a01b0319831681178455604051919092169283917f8be0079c531659141344cd1fd0a4f28419497f9722a3daafe3b4186f6b6457e09190a35050565b600454846101400135146115ae5760405162461bcd60e51b815260206004820152600e60248201527f5b434841494e5d5b4552524f525d000000000000000000000000000000000000604482015260640161032f565b60016115b9856127bf565b6040805160008152602081018083529290925260ff841690820152606081018590526080810184905260a0016020604051602081039080840390855afa158015611607573d6000803e3d6000fd5b5050604051601f1901516001600160a01b0316905061162d610100860160e08701612df6565b6001600160a01b031614610cc45760405162461bcd60e51b815260206004820152601260248201527f5b5349474e41545552455d5b46494e414c5d0000000000000000000000000000604482015260640161032f565b6116906020830183612e40565b611698575050565b6000306116ab6080850160608601612df6565b6001600160a01b03161461174f576116c96080840160608501612df6565b6001600160a01b0316637ea42ebe84604001356040518263ffffffff1660e01b81526004016116fa91815260200190565b60206040518083038186803b15801561171257600080fd5b505afa158015611726573d6000803e3d6000fd5b505050506040513d601f19601f8201168201806040525081019061174a9190612f86565b611768565b60408084013560009081526002602052205463ffffffff165b60008381526002602052604090205490915061178b9063ffffffff166001613021565b63ffffffff1683602001358263ffffffff166117a79190613009565b146115035760405162461bcd60e51b815260206004820152601760248201527f5b464f4c4c4f575f434f4e444954494f4e5d5b544d505d000000000000000000604482015260640161032f565b6118016020830183612e40565b611809575050565b6118196040830160208401612f6a565b60008281526002602052604090205463ffffffff9182169116106107a55760405162461bcd60e51b815260206004820152601e60248201527f5b52455045544954494f4e535f434f4e444954494f4e5d5b46494e414c5d0000604482015260640161032f565b61188c6020830183612e40565b611894575050565b60008181526001602052604090205415611915576000818152600160209081526040909120546118c79184013590613009565b42116107a55760405162461bcd60e51b815260206004820152601a60248201527f5b4652455155454e43595f434f4e444954494f4e5d5b544d505d000000000000604482015260640161032f565b6118c760208301356040840135613009565b600061193960a0830160808401612e78565b6001600160f81b03191615611a0f5761271060c08301356119606060850160408601612df6565b6001600160a01b03166370a0823161197f610100870160e08801612df6565b6040516001600160e01b031960e084901b1681526001600160a01b03909116600482015260240160206040518083038186803b1580156119be57600080fd5b505afa1580156119d2573d6000803e3d6000fd5b505050506040513d601f19601f820116820180604052508101906119f69190612f09565b611a009190613150565b611a0a9190613040565b611a15565b8160c001355b905080611a286040840160208501612df6565b6001600160a01b03166370a08231611a47610100860160e08701612df6565b6040516001600160e01b031960e084901b1681526001600160a01b03909116600482015260240160206040518083038186803b158015611a8657600080fd5b505afa158015611a9a573d6000803e3d6000fd5b505050506040513d601f19601f82011682018060405250810190611abe9190612f09565b10156107a55760405162461bcd60e51b815260206004820152601560248201527f5b5343524950545f42414c414e43455d5b544d505d0000000000000000000000604482015260640161032f565b6040517fdd62ed3e0000000000000000000000000000000000000000000000000000000081526001600160a01b03848116600483015230602483015282919084169063dd62ed3e9060440160206040518083038186803b158015611b6f57600080fd5b505afa158015611b83573d6000803e3d6000fd5b505050506040513d601f19601f82011682018060405250810190611ba79190612f09565b10156115035760405162461bcd60e51b815260206004820152601360248201527f5b414c4c4f57414e43455d5b414354494f4e5d00000000000000000000000000604482015260640161032f565b611c0560a0820160808301612e78565b6001600160f81b031916600160f81b1415611c705761251c8160c00135111561096a5760405162461bcd60e51b815260206004820152601860248201527f5b424f52524f575f544f4f5f484947485d5b46494e414c5d0000000000000000604482015260640161032f565b600b546000906001600160a01b031663b3596f07611c946040850160208601612df6565b6040516001600160e01b031960e084901b1681526001600160a01b03909116600482015260240160206040518083038186803b158015611cd357600080fd5b505afa158015611ce7573d6000803e3d6000fd5b505050506040513d601f19601f82011682018060405250810190611d0b9190612f09565b90506000611d2161012084016101008501612df6565b6001600160a01b031663bf92857c611d40610100860160e08701612df6565b6040516001600160e01b031960e084901b1681526001600160a01b03909116600482015260240160c06040518083038186803b158015611d7f57600080fd5b505afa158015611d93573d6000803e3d6000fd5b505050506040513d601f19601f82011682018060405250810190611db79190612f21565b50505092505050600082846020016020810190611dd49190612df6565b6001600160a01b031663313ce5676040518163ffffffff1660e01b815260040160206040518083038186803b158015611e0c57600080fd5b505afa158015611e20573d6000803e3d6000fd5b505050506040513d601f19601f82011682018060405250810190611e449190612fa2565b611e4f90600a6130a3565b6064611e5c85605f613150565b611e669190613040565b611e709190613150565b611e7a9190613040565b9050808460c001351115610cc45760405162461bcd60e51b815260206004820152601660248201527f5b424f52524f575f544f4f5f484947485d5b544d505d00000000000000000000604482015260640161032f565b611ed981612583565b611ee96060830160408401612df6565b6001600160a01b0316636bd76d24611f08610100850160e08601612df6565b6040516001600160e01b031960e084901b1681526001600160a01b03909116600482015230602482015260440160206040518083038186803b158015611f4d57600080fd5b505afa158015611f61573d6000803e3d6000fd5b505050506040513d601f19601f82011682018060405250810190611f859190612f09565b101561096a5760405162461bcd60e51b815260206004820152601360248201527f5b414c4c4f57414e43455d5b414354494f4e5d00000000000000000000000000604482015260640161032f565b611fe06020830183612e40565b611fe8575050565b6000611ffa6040840160208501612df6565b6040516370a0823160e01b81526001600160a01b0384811660048301529192506000918316906370a082319060240160206040518083038186803b15801561204157600080fd5b505afa158015612055573d6000803e3d6000fd5b505050506040513d601f19601f820116820180604052508101906120799190612f09565b905061208b6060850160408601612e78565b6001600160f81b0319166120f157836060013581116120ec5760405162461bcd60e51b815260206004820152601c60248201527f5b42414c414e43455f434f4e444954494f4e5f4c4f575d5b544d505d00000000604482015260640161032f565b610cc4565b6121016060850160408601612e78565b6001600160f81b031916600160f81b1415610cc45783606001358110610cc45760405162461bcd60e51b815260206004820152601d60248201527f5b42414c414e43455f434f4e444954494f4e5f484947485d5b544d505d000000604482015260640161032f565b6121766020820182612e40565b61217d5750565b6007546000906001600160a01b031663b95ed06f6121a16040850160208601612df6565b6040516001600160e01b031960e084901b1681526001600160a01b03909116600482015260240160206040518083038186803b1580156121e057600080fd5b505afa1580156121f4573d6000803e3d6000fd5b505050506040513d601f19601f820116820180604052508101906122189190612f09565b905061222a6060830160408401612e78565b6001600160f81b03191661228b57816060013581116107a55760405162461bcd60e51b815260206004820152601a60248201527f5b50524943455f434f4e444954494f4e5f4c4f575d5b544d505d000000000000604482015260640161032f565b61229b6060830160408401612e78565b6001600160f81b031916600160f81b14156107a557816060013581106107a55760405162461bcd60e51b815260206004820152601b60248201527f5b50524943455f434f4e444954494f4e5f484947485d5b544d505d0000000000604482015260640161032f565b6123106020830183612e40565b612318575050565b600061232a6040840160208501612df6565b6040517fbf92857c0000000000000000000000000000000000000000000000000000000081526001600160a01b038481166004830152919091169063bf92857c9060240160c06040518083038186803b15801561238657600080fd5b505afa15801561239a573d6000803e3d6000fd5b505050506040513d601f19601f820116820180604052508101906123be9190612f21565b955050505050508260400160208101906123d89190612e78565b6001600160f81b03191661243957826060013581116115035760405162461bcd60e51b815260206004820152601860248201527f5b4845414c54485f464143544f525f4c4f575d5b544d505d0000000000000000604482015260640161032f565b6124496060840160408501612e78565b6001600160f81b031916600160f81b141561150357826060013581106115035760405162461bcd60e51b815260206004820152601960248201527f5b4845414c54485f464143544f525f484947485d5b544d505d00000000000000604482015260640161032f565b6040517f095ea7b30000000000000000000000000000000000000000000000000000000081526001600160a01b038281166004830152600019602483015283169063095ea7b390604401602060405180830381600087803b15801561251557600080fd5b505af1158015612529573d6000803e3d6000fd5b505050506040513d601f19601f8201168201806040525081019061254d9190612e5c565b506001600160a01b039081166000908152600a60209081526040808320949093168252929092529020805460ff19166001179055565b600061259560a0830160808401612e78565b6001600160f81b0319166125ab575060c0013590565b600b546000906001600160a01b031663b3596f076125cf6040860160208701612df6565b6040516001600160e01b031960e084901b1681526001600160a01b03909116600482015260240160206040518083038186803b15801561260e57600080fd5b505afa158015612622573d6000803e3d6000fd5b505050506040513d601f19601f820116820180604052508101906126469190612f09565b9050600061265c61012085016101008601612df6565b6001600160a01b031663bf92857c61267b610100870160e08801612df6565b6040516001600160e01b031960e084901b1681526001600160a01b03909116600482015260240160c06040518083038186803b1580156126ba57600080fd5b505afa1580156126ce573d6000803e3d6000fd5b505050506040513d601f19601f820116820180604052508101906126f29190612f21565b505050925050508184602001602081019061270d9190612df6565b6001600160a01b031663313ce5676040518163ffffffff1660e01b815260040160206040518083038186803b15801561274557600080fd5b505afa158015612759573d6000803e3d6000fd5b505050506040513d601f19601f8201168201806040525081019061277d9190612fa2565b61278890600a6130a3565b61271061279960c088013585613150565b6127a39190613040565b6127ad9190613150565b6127b79190613040565b949350505050565b6000806040518060400160405280601981526020017f454950373132446f6d61696e28737472696e67206e616d6529000000000000008152506040516020016128089190612fed565b60408051808303601f1901815282825280516020918201208383018352601784527f4461656d6f6e732d4d4d2d416476616e6365642d763031000000000000000000938201939093528151908101929092527fedf955e4b9d9d482215326d30e305c44e33a892610102c33b852c5d5b8cc0f6a908201526060016040516020818303038152906040528051906020012090506000604051806102c0016040528061029681526020016131f861029691396040516020016128c89190612fed565b6040516020818303038152906040528051906020012084600001358560200160208101906128f69190612df6565b6129066060880160408901612df6565b6129166080890160608a01612e78565b61292660a08a0160808b01612e78565b61293660c08b0160a08c01612e78565b60c08b013561294c6101008d0160e08e01612df6565b61295e6101208e016101008f01612df6565b8d6101200160208101906129729190612df6565b60408051602081019c909c528b01999099526001600160a01b0397881660608b015295871660808a01526001600160f81b031994851660a08a015292841660c0890152921660e0870152610100860191909152821661012085015281166101408481019190915291166101608301528501356101808201526101a001604051602081830303815290604052612a0a8561016001612b03565b612a17866101e001612bda565b612a248761024001612c58565b612a31886102c001612c83565b612a3e8961030001612d0c565b612a4b8a61038001612daf565b6040805160208101979097528601949094526060850192909252608084015260a083015260c082015260e00160408051601f1981840301815290829052612a959291602001612fbe565b60408051808303601f1901815282825280516020918201207f1901000000000000000000000000000000000000000000000000000000000000828501526022840195909552604280840195909552815180840390950185526062909201905282519201919091209392505050565b600060405180608001604052806044815260200161355160449139604051602001612b2e9190612fed565b60408051601f19818403018152919052805160209182012090612b5390840184612e40565b612b636040850160208601612df6565b612b736060860160408701612e78565b8560600135604051602001612bbd95949392919094855292151560208501526001600160a01b039190911660408401526001600160f81b0319166060830152608082015260a00190565b604051602081830303815290604052805190602001209050919050565b600060405180606001604052806033815260200161348e60339139604051602001612c059190612fed565b60408051601f19818403018152919052805160209182012090612c2a90840184612e40565b604080516020818101949094529115158282015291840135606082015290830135608082015260a001612bbd565b60006040518060800160405280604181526020016135bc60419139604051602001612b2e9190612fed565b600060405180606001604052806027815260200161359560279139604051602001612cae9190612fed565b60408051601f19818403018152919052805160209182012090612cd390840184612e40565b612ce36040850160208601612f6a565b604051602001612bbd93929190928352901515602083015263ffffffff16604082015260600190565b60006040518060800160405280604481526020016134c160449139604051602001612d379190612fed565b60408051601f19818403018152919052805160209182012090612d5c90840184612e40565b60208401356040850135612d766080870160608801612df6565b60408051602081019690965293151593850193909352606084019190915260808301526001600160a01b031660a082015260c001612bbd565b60006040518060800160405280604c8152602001613505604c9139604051602001612b2e9190612fed565b80356001600160a01b0381168114612df157600080fd5b919050565b600060208284031215612e07578081fd5b612e1082612dda565b9392505050565b60008060408385031215612e29578081fd5b612e3283612dda565b946020939093013593505050565b600060208284031215612e51578081fd5b8135612e10816131c8565b600060208284031215612e6d578081fd5b8151612e10816131c8565b600060208284031215612e89578081fd5b81356001600160f81b031981168114612e10578182fd5b600060208284031215612eb1578081fd5b5035919050565b600080600080848603610460811215612ecf578283fd5b61040080821215612ede578384fd5b8695508501359350506104208401359150610440840135612efe816131e8565b939692955090935050565b600060208284031215612f1a578081fd5b5051919050565b60008060008060008060c08789031215612f39578182fd5b865195506020870151945060408701519350606087015192506080870151915060a087015190509295509295509295565b600060208284031215612f7b578081fd5b8135612e10816131d6565b600060208284031215612f97578081fd5b8151612e10816131d6565b600060208284031215612fb3578081fd5b8151612e10816131e8565b60008351612fd0818460208801613186565b835190830190612fe4818360208801613186565b01949350505050565b60008251612fff818460208701613186565b9190910192915050565b6000821982111561301c5761301c6131b2565b500190565b600063ffffffff808316818516808303821115612fe457612fe46131b2565b60008261305b57634e487b7160e01b81526012600452602481fd5b500490565b600181815b8085111561309b578160001904821115613081576130816131b2565b8085161561308e57918102915b93841c9390800290613065565b509250929050565b6000612e1060ff8416836000826130bc5750600161314a565b816130c95750600061314a565b81600181146130df57600281146130e957613105565b600191505061314a565b60ff8411156130fa576130fa6131b2565b50506001821b61314a565b5060208310610133831016604e8410600b8410161715613128575081810a61314a565b6131328383613060565b8060001904821115613146576131466131b2565b0290505b92915050565b600081600019048311821515161561316a5761316a6131b2565b500290565b600082821015613181576131816131b2565b500390565b60005b838110156131a1578181015183820152602001613189565b83811115610cc45750506000910152565b634e487b7160e01b600052601160045260246000fd5b801515811461096a57600080fd5b63ffffffff8116811461096a57600080fd5b60ff8116811461096a57600080fdfe4d6d416476616e63656428627974657333322073637269707449642c6164647265737320746f6b656e2c616464726573732064656274546f6b656e2c62797465733120616374696f6e2c6279746573312074797065416d742c62797465733120726174654d6f64652c75696e7432353620616d6f756e742c6164647265737320757365722c61646472657373206b6f6e74726163742c61646472657373206578656375746f722c75696e7432353620636861696e49642c42616c616e63652062616c616e63652c4672657175656e6379206672657175656e63792c50726963652070726963652c52657065746974696f6e732072657065746974696f6e732c466f6c6c6f7720666f6c6c6f772c4865616c7468466163746f72206865616c7468466163746f722942616c616e636528626f6f6c20656e61626c65642c6164647265737320746f6b656e2c62797465733120636f6d70617269736f6e2c75696e7432353620616d6f756e7429466f6c6c6f7728626f6f6c20656e61626c65642c75696e743235362073686966742c627974657333322073637269707449642c61646472657373206578656375746f72294672657175656e637928626f6f6c20656e61626c65642c75696e743235362064656c61792c75696e74323536207374617274294865616c7468466163746f7228626f6f6c20656e61626c65642c61646472657373206b6f6e74726163742c62797465733120636f6d70617269736f6e2c75696e7432353620616d6f756e7429507269636528626f6f6c20656e61626c65642c6164647265737320746f6b656e2c62797465733120636f6d70617269736f6e2c75696e743235362076616c75652952657065746974696f6e7328626f6f6c20656e61626c65642c75696e74333220616d6f756e74294672657175656e637928626f6f6c20656e61626c65642c75696e743235362064656c61792c75696e7432353620737461727429466f6c6c6f7728626f6f6c20656e61626c65642c75696e743235362073686966742c627974657333322073637269707449642c61646472657373206578656375746f72294865616c7468466163746f7228626f6f6c20656e61626c65642c61646472657373206b6f6e74726163742c62797465733120636f6d70617269736f6e2c75696e7432353620616d6f756e742942616c616e636528626f6f6c20656e61626c65642c6164647265737320746f6b656e2c62797465733120636f6d70617269736f6e2c75696e7432353620616d6f756e742952657065746974696f6e7328626f6f6c20656e61626c65642c75696e74333220616d6f756e7429507269636528626f6f6c20656e61626c65642c6164647265737320746f6b656e2c62797465733120636f6d70617269736f6e2c75696e743235362076616c756529a2646970667358221220ecdcca46bb193f11fa62bb63b61be0dea6056be86c9da222d286b27321c6847564736f6c63430008040033",
  "linkReferences": {},
  "deployedLinkReferences": {}
}