{
  "_format": "hh-sol-artifact-1",
  "contractName": "MmAdvancedScriptExecutor",
  "sourceName": "contracts/MmAdvancedScriptExecutor.sol",
  "abi": [
    {
      "anonymous": false,
      "inputs": [
        {
          "indexed": false,
          "internalType": "bytes32",
          "name": "id",
          "type": "bytes32"
        },
        {
          "indexed": false,
          "internalType": "uint256",
          "name": "cost",
          "type": "uint256"
        }
      ],
      "name": "Executed",
      "type": "event"
    },
    {
      "anonymous": false,
      "inputs": [
        {
          "indexed": true,
          "internalType": "address",
          "name": "previousOwner",
          "type": "address"
        },
        {
          "indexed": true,
          "internalType": "address",
          "name": "newOwner",
          "type": "address"
        }
      ],
      "name": "OwnershipTransferred",
      "type": "event"
    },
    {
      "inputs": [],
      "name": "GAS_COST",
      "outputs": [
        {
          "internalType": "uint256",
          "name": "",
          "type": "uint256"
        }
      ],
      "stateMutability": "view",
      "type": "function"
    },
    {
      "inputs": [],
      "name": "MINIMUM_GAS_FOR_SCRIPT_EXECUTION",
      "outputs": [
        {
          "internalType": "uint256",
          "name": "",
          "type": "uint256"
        }
      ],
      "stateMutability": "view",
      "type": "function"
    },
    {
      "inputs": [
        {
          "components": [
            {
              "internalType": "bytes32",
              "name": "scriptId",
              "type": "bytes32"
            },
            {
              "internalType": "address",
              "name": "token",
              "type": "address"
            },
            {
              "internalType": "bytes1",
              "name": "action",
              "type": "bytes1"
            },
            {
              "internalType": "bytes1",
              "name": "rateMode",
              "type": "bytes1"
            },
            {
              "internalType": "uint256",
              "name": "amount",
              "type": "uint256"
            },
            {
              "internalType": "address",
              "name": "user",
              "type": "address"
            },
            {
              "internalType": "address",
              "name": "kontract",
              "type": "address"
            },
            {
              "internalType": "address",
              "name": "executor",
              "type": "address"
            },
            {
              "internalType": "uint256",
              "name": "chainId",
              "type": "uint256"
            },
            {
              "components": [
                {
                  "internalType": "bool",
                  "name": "enabled",
                  "type": "bool"
                },
                {
                  "internalType": "address",
                  "name": "token",
                  "type": "address"
                },
                {
                  "internalType": "bytes1",
                  "name": "comparison",
                  "type": "bytes1"
                },
                {
                  "internalType": "uint256",
                  "name": "amount",
                  "type": "uint256"
                }
              ],
              "internalType": "struct Balance",
              "name": "balance",
              "type": "tuple"
            },
            {
              "components": [
                {
                  "internalType": "bool",
                  "name": "enabled",
                  "type": "bool"
                },
                {
                  "internalType": "uint256",
                  "name": "delay",
                  "type": "uint256"
                },
                {
                  "internalType": "uint256",
                  "name": "start",
                  "type": "uint256"
                }
              ],
              "internalType": "struct Frequency",
              "name": "frequency",
              "type": "tuple"
            },
            {
              "components": [
                {
                  "internalType": "bool",
                  "name": "enabled",
                  "type": "bool"
                },
                {
                  "internalType": "address",
                  "name": "token",
                  "type": "address"
                },
                {
                  "internalType": "bytes1",
                  "name": "comparison",
                  "type": "bytes1"
                },
                {
                  "internalType": "uint256",
                  "name": "value",
                  "type": "uint256"
                }
              ],
              "internalType": "struct Price",
              "name": "price",
              "type": "tuple"
            },
            {
              "components": [
                {
                  "internalType": "bool",
                  "name": "enabled",
                  "type": "bool"
                },
                {
                  "internalType": "uint32",
                  "name": "amount",
                  "type": "uint32"
                }
              ],
              "internalType": "struct Repetitions",
              "name": "repetitions",
              "type": "tuple"
            },
            {
              "components": [
                {
                  "internalType": "bool",
                  "name": "enabled",
                  "type": "bool"
                },
                {
                  "internalType": "uint256",
                  "name": "shift",
                  "type": "uint256"
                },
                {
                  "internalType": "bytes32",
                  "name": "scriptId",
                  "type": "bytes32"
                },
                {
                  "internalType": "address",
                  "name": "executor",
                  "type": "address"
                }
              ],
              "internalType": "struct Follow",
              "name": "follow",
              "type": "tuple"
            }
          ],
          "internalType": "struct MmAdvanced",
          "name": "message",
          "type": "tuple"
        },
        {
          "internalType": "bytes32",
          "name": "r",
          "type": "bytes32"
        },
        {
          "internalType": "bytes32",
          "name": "s",
          "type": "bytes32"
        },
        {
          "internalType": "uint8",
          "name": "v",
          "type": "uint8"
        }
      ],
      "name": "execute",
      "outputs": [],
      "stateMutability": "nonpayable",
      "type": "function"
    },
    {
      "inputs": [
        {
          "internalType": "bytes32",
          "name": "_id",
          "type": "bytes32"
        }
      ],
      "name": "getRepetitions",
      "outputs": [
        {
          "internalType": "uint32",
          "name": "",
          "type": "uint32"
        }
      ],
      "stateMutability": "view",
      "type": "function"
    },
    {
      "inputs": [],
      "name": "owner",
      "outputs": [
        {
          "internalType": "address",
          "name": "",
          "type": "address"
        }
      ],
      "stateMutability": "view",
      "type": "function"
    },
    {
      "inputs": [],
      "name": "preliminaryCheck",
      "outputs": [],
      "stateMutability": "view",
      "type": "function"
    },
    {
      "inputs": [],
      "name": "renounceOwnership",
      "outputs": [],
      "stateMutability": "nonpayable",
      "type": "function"
    },
    {
      "inputs": [
        {
          "internalType": "bytes32",
          "name": "_id",
          "type": "bytes32"
        }
      ],
      "name": "revoke",
      "outputs": [],
      "stateMutability": "nonpayable",
      "type": "function"
    },
    {
      "inputs": [
        {
          "internalType": "address",
          "name": "_gasPriceFeed",
          "type": "address"
        }
      ],
      "name": "setGasFeed",
      "outputs": [],
      "stateMutability": "nonpayable",
      "type": "function"
    },
    {
      "inputs": [
        {
          "internalType": "address",
          "name": "_gasTank",
          "type": "address"
        }
      ],
      "name": "setGasTank",
      "outputs": [],
      "stateMutability": "nonpayable",
      "type": "function"
    },
    {
      "inputs": [
        {
          "internalType": "uint256",
          "name": "_amount",
          "type": "uint256"
        }
      ],
      "name": "setMinimumGas",
      "outputs": [],
      "stateMutability": "nonpayable",
      "type": "function"
    },
    {
      "inputs": [
        {
          "internalType": "address",
          "name": "_priceRetriever",
          "type": "address"
        }
      ],
      "name": "setPriceRetriever",
      "outputs": [],
      "stateMutability": "nonpayable",
      "type": "function"
    },
    {
      "inputs": [
        {
          "internalType": "address",
          "name": "newOwner",
          "type": "address"
        }
      ],
      "name": "transferOwnership",
      "outputs": [],
      "stateMutability": "nonpayable",
      "type": "function"
    },
    {
      "inputs": [
        {
          "components": [
            {
              "internalType": "bytes32",
              "name": "scriptId",
              "type": "bytes32"
            },
            {
              "internalType": "address",
              "name": "token",
              "type": "address"
            },
            {
              "internalType": "bytes1",
              "name": "action",
              "type": "bytes1"
            },
            {
              "internalType": "bytes1",
              "name": "rateMode",
              "type": "bytes1"
            },
            {
              "internalType": "uint256",
              "name": "amount",
              "type": "uint256"
            },
            {
              "internalType": "address",
              "name": "user",
              "type": "address"
            },
            {
              "internalType": "address",
              "name": "kontract",
              "type": "address"
            },
            {
              "internalType": "address",
              "name": "executor",
              "type": "address"
            },
            {
              "internalType": "uint256",
              "name": "chainId",
              "type": "uint256"
            },
            {
              "components": [
                {
                  "internalType": "bool",
                  "name": "enabled",
                  "type": "bool"
                },
                {
                  "internalType": "address",
                  "name": "token",
                  "type": "address"
                },
                {
                  "internalType": "bytes1",
                  "name": "comparison",
                  "type": "bytes1"
                },
                {
                  "internalType": "uint256",
                  "name": "amount",
                  "type": "uint256"
                }
              ],
              "internalType": "struct Balance",
              "name": "balance",
              "type": "tuple"
            },
            {
              "components": [
                {
                  "internalType": "bool",
                  "name": "enabled",
                  "type": "bool"
                },
                {
                  "internalType": "uint256",
                  "name": "delay",
                  "type": "uint256"
                },
                {
                  "internalType": "uint256",
                  "name": "start",
                  "type": "uint256"
                }
              ],
              "internalType": "struct Frequency",
              "name": "frequency",
              "type": "tuple"
            },
            {
              "components": [
                {
                  "internalType": "bool",
                  "name": "enabled",
                  "type": "bool"
                },
                {
                  "internalType": "address",
                  "name": "token",
                  "type": "address"
                },
                {
                  "internalType": "bytes1",
                  "name": "comparison",
                  "type": "bytes1"
                },
                {
                  "internalType": "uint256",
                  "name": "value",
                  "type": "uint256"
                }
              ],
              "internalType": "struct Price",
              "name": "price",
              "type": "tuple"
            },
            {
              "components": [
                {
                  "internalType": "bool",
                  "name": "enabled",
                  "type": "bool"
                },
                {
                  "internalType": "uint32",
                  "name": "amount",
                  "type": "uint32"
                }
              ],
              "internalType": "struct Repetitions",
              "name": "repetitions",
              "type": "tuple"
            },
            {
              "components": [
                {
                  "internalType": "bool",
                  "name": "enabled",
                  "type": "bool"
                },
                {
                  "internalType": "uint256",
                  "name": "shift",
                  "type": "uint256"
                },
                {
                  "internalType": "bytes32",
                  "name": "scriptId",
                  "type": "bytes32"
                },
                {
                  "internalType": "address",
                  "name": "executor",
                  "type": "address"
                }
              ],
              "internalType": "struct Follow",
              "name": "follow",
              "type": "tuple"
            }
          ],
          "internalType": "struct MmAdvanced",
          "name": "message",
          "type": "tuple"
        },
        {
          "internalType": "bytes32",
          "name": "r",
          "type": "bytes32"
        },
        {
          "internalType": "bytes32",
          "name": "s",
          "type": "bytes32"
        },
        {
          "internalType": "uint8",
          "name": "v",
          "type": "uint8"
        }
      ],
      "name": "verify",
      "outputs": [],
      "stateMutability": "view",
      "type": "function"
    },
    {
      "inputs": [
        {
          "internalType": "address",
          "name": "user",
          "type": "address"
        }
      ],
      "name": "verifyGasTank",
      "outputs": [],
      "stateMutability": "view",
      "type": "function"
    },
    {
      "inputs": [
        {
          "internalType": "address",
          "name": "user",
          "type": "address"
        },
        {
          "internalType": "bytes32",
          "name": "id",
          "type": "bytes32"
        }
      ],
      "name": "verifyRevocation",
      "outputs": [],
      "stateMutability": "view",
      "type": "function"
    }
  ],
  "bytecode": "0x60806040526706f05b59d3b20000600855660110d9316ec00060095534801561002757600080fd5b506100313361003a565b4660045561008a565b600080546001600160a01b038381166001600160a01b0319831681178455604051919092169283917f8be0079c531659141344cd1fd0a4f28419497f9722a3daafe3b4186f6b6457e09190a35050565b61284a806100996000396000f3fe608060405234801561001057600080fd5b50600436106101005760003560e01c80637ea42ebe11610097578063b75c7dc611610066578063b75c7dc61461020e578063ca7f103b14610242578063f2fde38b1461024b578063f87d57811461025e57600080fd5b80637ea42ebe1461019257806384384ec9146101cd5780638d2869f2146101e05780638da5cb5b146101f357600080fd5b806358a346dc116100d357806358a346dc146101515780635e822f9c14610164578063715018a6146101775780637ca65cdc1461017f57600080fd5b806301ff45aa14610105578063080e46911461010f57806343e297b21461012b5780634ead94a31461013e575b600080fd5b61010d610271565b005b61011860085481565b6040519081526020015b60405180910390f35b61010d610139366004612247565b610380565b61010d61014c366004612268565b61041c565b61010d61015f366004612247565b6104ba565b61010d610172366004612309565b610556565b61010d610738565b61010d61018d366004612247565b61079c565b6101b86101a03660046122f1565b60009081526002602052604090205463ffffffff1690565b60405163ffffffff9091168152602001610122565b61010d6101db366004612309565b610893565b61010d6101ee3660046122f1565b610b4a565b6000546040516001600160a01b039091168152602001610122565b61010d61021c3660046122f1565b33600090815260036020908152604080832093835292905220805460ff19166001179055565b61011860095481565b61010d610259366004612247565b610bf9565b61010d61026c366004612247565b610cd8565b6005546001600160a01b03166102ce5760405162461bcd60e51b815260206004820152600760248201527f47617354616e6b0000000000000000000000000000000000000000000000000060448201526064015b60405180910390fd5b6007546001600160a01b03166103265760405162461bcd60e51b815260206004820152600f60248201527f507269636573526574726965766572000000000000000000000000000000000060448201526064016102c5565b6006546001600160a01b031661037e5760405162461bcd60e51b815260206004820152600c60248201527f476173507269636546656564000000000000000000000000000000000000000060448201526064016102c5565b565b6000546001600160a01b031633146103da5760405162461bcd60e51b815260206004820181905260248201527f4f776e61626c653a2063616c6c6572206973206e6f7420746865206f776e657260448201526064016102c5565b6001600160a01b0381166103ed57600080fd5b6005805473ffffffffffffffffffffffffffffffffffffffff19166001600160a01b0392909216919091179055565b6001600160a01b038216600090815260036020908152604080832084845290915290205460ff16156104b65760405162461bcd60e51b815260206004820152602360248201527f53637269707420686173206265656e207265766f6b656420627920746865207560448201527f736572000000000000000000000000000000000000000000000000000000000060648201526084016102c5565b5050565b6000546001600160a01b031633146105145760405162461bcd60e51b815260206004820181905260248201527f4f776e61626c653a2063616c6c6572206973206e6f7420746865206f776e657260448201526064016102c5565b6001600160a01b03811661052757600080fd5b6006805473ffffffffffffffffffffffffffffffffffffffff19166001600160a01b0392909216919091179055565b61057061056960c0860160a08701612247565b853561041c565b61057c84848484610d74565b61058c60608501604086016122c9565b6001600160f81b03191661069b576105a960016080860135612450565b6105b96040860160208701612247565b6001600160a01b03166370a082316105d760c0880160a08901612247565b6040516001600160e01b031960e084901b1681526001600160a01b03909116600482015260240160206040518083038186803b15801561061657600080fd5b505afa15801561062a573d6000803e3d6000fd5b505050506040513d601f19601f8201168201806040525081019061064e919061235f565b1161069b5760405162461bcd60e51b815260206004820181905260248201527f5573657220646f65736e2774206861766520656e6f7567682062616c616e636560448201526064016102c5565b6106aa61028085018535610e9e565b6106b96102c085018535610f75565b6106c86101a085018535611128565b6106e561012085016106e060c0870160a08801612247565b6112b6565b6106f28461020001611498565b61070561018d60c0860160a08701612247565b61073261071860c0860160a08701612247565b6107286040870160208801612247565b866080013561167e565b50505050565b6000546001600160a01b031633146107925760405162461bcd60e51b815260206004820181905260248201527f4f776e61626c653a2063616c6c6572206973206e6f7420746865206f776e657260448201526064016102c5565b61037e60006117b3565b6008546005546040516370a0823160e01b81526001600160a01b038481166004830152909116906370a082319060240160206040518083038186803b1580156107e457600080fd5b505afa1580156107f8573d6000803e3d6000fd5b505050506040513d601f19601f8201168201806040525081019061081c919061235f565b10156108905760405162461bcd60e51b815260206004820152602a60248201527f5b47617320436f6e646974696f6e5d204e6f7420656e6f75676820676173206960448201527f6e207468652074616e6b0000000000000000000000000000000000000000000060648201526084016102c5565b50565b61089f84848484610556565b83356000908152600160208181526040808420429055600290915282208054919290916108d390849063ffffffff16612412565b92506101000a81548163ffffffff021916908363ffffffff16021790555083604001602081019061090491906122c9565b6001600160f81b0319166109205761091b84611810565b61094e565b61093060608501604086016122c9565b6001600160f81b031916600160f81b141561094e5761094e84611a13565b600554600654604080517f7a95c80800000000000000000000000000000000000000000000000000000000815290516001600160a01b03938416936398094b3d931691637a95c808916004808301926020929190829003018186803b1580156109b657600080fd5b505afa1580156109ca573d6000803e3d6000fd5b505050506040513d601f19601f820116820180604052508101906109ee919061235f565b6009546109fb9190612431565b610a0b60c0880160a08901612247565b336040516001600160e01b031960e086901b16815260048101939093526001600160a01b039182166024840152166044820152606401600060405180830381600087803b158015610a5b57600080fd5b505af1158015610a6f573d6000803e3d6000fd5b505050507f3a7a2319bce6d060c98aa49682d12788f621b7e2e68701a9a082398b39da0f978460000135600660009054906101000a90046001600160a01b03166001600160a01b0316637a95c8086040518163ffffffff1660e01b815260040160206040518083038186803b158015610ae757600080fd5b505afa158015610afb573d6000803e3d6000fd5b505050506040513d601f19601f82011682018060405250810190610b1f919061235f565b600954610b2c9190612431565b6040805192835260208301919091520160405180910390a150505050565b6000546001600160a01b03163314610ba45760405162461bcd60e51b815260206004820181905260248201527f4f776e61626c653a2063616c6c6572206973206e6f7420746865206f776e657260448201526064016102c5565b60008111610bf45760405162461bcd60e51b815260206004820152601d60248201527f416d6f756e74206d7573742062652067726561746572207468616e203000000060448201526064016102c5565b600855565b6000546001600160a01b03163314610c535760405162461bcd60e51b815260206004820181905260248201527f4f776e61626c653a2063616c6c6572206973206e6f7420746865206f776e657260448201526064016102c5565b6001600160a01b038116610ccf5760405162461bcd60e51b815260206004820152602660248201527f4f776e61626c653a206e6577206f776e657220697320746865207a65726f206160448201527f646472657373000000000000000000000000000000000000000000000000000060648201526084016102c5565b610890816117b3565b6000546001600160a01b03163314610d325760405162461bcd60e51b815260206004820181905260248201527f4f776e61626c653a2063616c6c6572206973206e6f7420746865206f776e657260448201526064016102c5565b6001600160a01b038116610d4557600080fd5b6007805473ffffffffffffffffffffffffffffffffffffffff19166001600160a01b0392909216919091179055565b60045484610100013514610dca5760405162461bcd60e51b815260206004820152600b60248201527f57726f6e6720636861696e00000000000000000000000000000000000000000060448201526064016102c5565b6001610dd585611bb4565b6040805160008152602081018083529290925260ff841690820152606081018590526080810184905260a0016020604051602081039080840390855afa158015610e23573d6000803e3d6000fd5b5050604051601f1901516001600160a01b03169050610e4860c0860160a08701612247565b6001600160a01b0316146107325760405162461bcd60e51b815260206004820152601860248201527f5369676e617475726520646f6573206e6f74206d61746368000000000000000060448201526064016102c5565b610eab6020830183612291565b610eb3575050565b610ec36040830160208401612377565b60008281526002602052604090205463ffffffff9182169116106104b65760405162461bcd60e51b815260206004820152604f60248201527f5b52657065746974696f6e7320436f6e646974696f6e5d20546865207363726960448201527f707420686173207265616368656420697473206d6178696d756d206e756d626560648201527f72206f6620657865637574696f6e730000000000000000000000000000000000608482015260a4016102c5565b610f826020830183612291565b610f8a575050565b600030610f9d6080850160608601612247565b6001600160a01b03161461104157610fbb6080840160608501612247565b6001600160a01b0316637ea42ebe84604001356040518263ffffffff1660e01b8152600401610fec91815260200190565b60206040518083038186803b15801561100457600080fd5b505afa158015611018573d6000803e3d6000fd5b505050506040513d601f19601f8201168201806040525081019061103c9190612393565b61105a565b60408084013560009081526002602052205463ffffffff165b60008381526002602090815260409091205491925061108391908501359063ffffffff166123fa565b8163ffffffff16116111235760405162461bcd60e51b815260206004820152604260248201527f5b466f6c6c6f7720436f6e646974696f6e5d2054686520706172656e7420736360448201527f7269707420686173206e6f74206265656e20287265296578656375746564207960648201527f6574000000000000000000000000000000000000000000000000000000000000608482015260a4016102c5565b505050565b6111356020830183612291565b61113d575050565b6000818152600160205260409020541561120a5760008181526001602090815260409091205461117091840135906123fa565b42116104b65760405162461bcd60e51b815260206004820152604960248201527f5b4672657175656e637920436f6e646974696f6e5d204e6f7420656e6f75676860448201527f2074696d6520686173207061737365642073696e636520746865206c6173742060648201527f657865637574696f6e0000000000000000000000000000000000000000000000608482015260a4016102c5565b61121c602083013560408401356123fa565b42116104b65760405162461bcd60e51b815260206004820152604660248201527f5b4672657175656e637920436f6e646974696f6e5d204e6f7420656e6f75676860448201527f2074696d6520686173207061737365642073696e63652074686520737461727460648201527f20626c6f636b0000000000000000000000000000000000000000000000000000608482015260a4016102c5565b6112c36020830183612291565b6112cb575050565b60006112dd6040840160208501612247565b6040516370a0823160e01b81526001600160a01b0384811660048301529192506000918316906370a082319060240160206040518083038186803b15801561132457600080fd5b505afa158015611338573d6000803e3d6000fd5b505050506040513d601f19601f8201168201806040525081019061135c919061235f565b905061136e60608501604086016122c9565b6001600160f81b0319166113fa57836060013581116113f55760405162461bcd60e51b815260206004820152603360248201527f5b42616c616e636520436f6e646974696f6e5d205573657220646f6573206e6f60448201527f74206f776e20656e6f75676820746f6b656e730000000000000000000000000060648201526084016102c5565b610732565b61140a60608501604086016122c9565b6001600160f81b031916600160f81b141561073257836060013581106107325760405162461bcd60e51b815260206004820152602d60248201527f5b42616c616e636520436f6e646974696f6e5d2055736572206f776e7320746f60448201527f6f206d616e7920746f6b656e730000000000000000000000000000000000000060648201526084016102c5565b6114a56020820182612291565b6114ac5750565b6007546000906001600160a01b031663b95ed06f6114d06040850160208601612247565b6040516001600160e01b031960e084901b1681526001600160a01b03909116600482015260240160206040518083038186803b15801561150f57600080fd5b505afa158015611523573d6000803e3d6000fd5b505050506040513d601f19601f82011682018060405250810190611547919061235f565b905061155960608301604084016122c9565b6001600160f81b0319166115e057816060013581116104b65760405162461bcd60e51b815260206004820152603a60248201527f5b507269636520436f6e646974696f6e5d20546f6b656e20707269636520697360448201527f206c6f776572207468616e2065787065637465642076616c756500000000000060648201526084016102c5565b6115f060608301604084016122c9565b6001600160f81b031916600160f81b14156104b657816060013581106104b65760405162461bcd60e51b815260206004820152603b60248201527f5b507269636520436f6e646974696f6e5d20546f6b656e20707269636520697360448201527f20686967686572207468616e2065787065637465642076616c7565000000000060648201526084016102c5565b6040517fdd62ed3e0000000000000000000000000000000000000000000000000000000081526001600160a01b03848116600483015230602483015282919084169063dd62ed3e9060440160206040518083038186803b1580156116e157600080fd5b505afa1580156116f5573d6000803e3d6000fd5b505050506040513d601f19601f82011682018060405250810190611719919061235f565b10156111235760405162461bcd60e51b815260206004820152604f60248201527f5b416c6c6f77616e636520436f6e646974696f6e5d205573657220646964206e60448201527f6f74206769766520656e6f75676820616c6c6f77616e636520746f207468652060648201527f736372697074206578656375746f720000000000000000000000000000000000608482015260a4016102c5565b600080546001600160a01b0383811673ffffffffffffffffffffffffffffffffffffffff19831681178455604051919092169283917f8be0079c531659141344cd1fd0a4f28419497f9722a3daafe3b4186f6b6457e09190a35050565b60006118226040830160208401612247565b90506001600160a01b0381166323b872dd61184360c0850160a08601612247565b6040516001600160e01b031960e084901b1681526001600160a01b03909116600482015230602482015260808501356044820152606401602060405180830381600087803b15801561189457600080fd5b505af11580156118a8573d6000803e3d6000fd5b505050506040513d601f19601f820116820180604052508101906118cc91906122ad565b50600a60006118e160e0850160c08601612247565b6001600160a01b039081168252602080830193909352604091820160009081209185168152925290205460ff1661192b5761192b8161192660e0850160c08601612247565b611ead565b61193b60e0830160c08401612247565b6001600160a01b031663573ade816119596040850160208601612247565b6080850180359061196d90606088016122c9565b6001600160f81b031916600160f81b1461198857600261198b565b60015b61199b60c0880160a08901612247565b6040516001600160e01b031960e087901b1681526001600160a01b039485166004820152602481019390935260ff9091166044830152919091166064820152608401600060405180830381600087803b1580156119f757600080fd5b505af1158015611a0b573d6000803e3d6000fd5b505050505050565b611a2360e0820160c08301612247565b6001600160a01b031663a415bcad611a416040840160208501612247565b60808401803590611a5590606087016122c9565b6001600160f81b031916600160f81b14611a70576002611a73565b60015b6000611a8560c0880160a08901612247565b6040516001600160e01b031960e088901b1681526001600160a01b039586166004820152602481019490945260ff909216604484015261ffff16606483015291909116608482015260a401600060405180830381600087803b158015611aea57600080fd5b505af1158015611afe573d6000803e3d6000fd5b50611b13925050506040820160208301612247565b6001600160a01b031663a9059cbb611b3160c0840160a08501612247565b6040516001600160e01b031960e084901b1681526001600160a01b03909116600482015260808401356024820152604401602060405180830381600087803b158015611b7c57600080fd5b505af1158015611b90573d6000803e3d6000fd5b505050506040513d601f19601f820116820180604052508101906104b691906122ad565b6000806040518060400160405280601981526020017f454950373132446f6d61696e28737472696e67206e616d652900000000000000815250604051602001611bfd91906123de565b60408051808303601f1901815282825280516020918201208383018352601784527f4461656d6f6e732d4d4d2d416476616e6365642d763031000000000000000000938201939093528151908101929092527fedf955e4b9d9d482215326d30e305c44e33a892610102c33b852c5d5b8cc0f6a90820152606001604051602081830303815290604052805190602001209050600060405180610240016040528061020f815260200161255a61020f9139604051602001611cbd91906123de565b604051602081830303815290604052805190602001208460000135856020016020810190611ceb9190612247565b611cfb60608801604089016122c9565b611d0b6080890160608a016122c9565b6080890135611d2060c08b0160a08c01612247565b611d3060e08c0160c08d01612247565b611d416101008d0160e08e01612247565b60408051602081019a909a528901979097526001600160a01b0395861660608901526001600160f81b031994851660808901529390921660a087015260c0860152821660e0850152811661010084810191909152911661012083015285013561014082015261016001604051602081830303815290604052611dc68561012001611f7f565b611dd3866101a001612056565b611de087610200016120d4565b611ded88610280016120ff565b611dfa896102c001612188565b6040805160208101969096528501939093526060840191909152608083015260a082015260c00160408051601f1981840301815290829052611e3f92916020016123af565b60408051808303601f1901815282825280516020918201207f1901000000000000000000000000000000000000000000000000000000000000828501526022840195909552604280840195909552815180840390950185526062909201905282519201919091209392505050565b6040517f095ea7b30000000000000000000000000000000000000000000000000000000081526001600160a01b038281166004830152600019602483015283169063095ea7b390604401602060405180830381600087803b158015611f1157600080fd5b505af1158015611f25573d6000803e3d6000fd5b505050506040513d601f19601f82011682018060405250810190611f4991906122ad565b506001600160a01b039081166000908152600a60209081526040808320949093168252929092529020805460ff19166001179055565b600060405180608001604052806044815260200161276960449139604051602001611faa91906123de565b60408051601f19818403018152919052805160209182012090611fcf90840184612291565b611fdf6040850160208601612247565b611fef60608601604087016122c9565b856060013560405160200161203995949392919094855292151560208501526001600160a01b039190911660408401526001600160f81b0319166060830152608082015260a00190565b604051602081830303815290604052805190602001209050919050565b60006040518060600160405280603381526020016124e36033913960405160200161208191906123de565b60408051601f198184030181529190528051602091820120906120a690840184612291565b604080516020818101949094529115158282015291840135606082015290830135608082015260a001612039565b60006040518060800160405280604181526020016127d460419139604051602001611faa91906123de565b60006040518060600160405280602781526020016127ad6027913960405160200161212a91906123de565b60408051601f1981840301815291905280516020918201209061214f90840184612291565b61215f6040850160208601612377565b60405160200161203993929190928352901515602083015263ffffffff16604082015260600190565b6000604051806080016040528060448152602001612516604491396040516020016121b391906123de565b60408051601f198184030181529190528051602091820120906121d890840184612291565b602084013560408501356121f26080870160608801612247565b60408051602081019690965293151593850193909352606084019190915260808301526001600160a01b031660a082015260c001612039565b80356001600160a01b038116811461224257600080fd5b919050565b600060208284031215612258578081fd5b6122618261222b565b9392505050565b6000806040838503121561227a578081fd5b6122838361222b565b946020939093013593505050565b6000602082840312156122a2578081fd5b8135612261816124c2565b6000602082840312156122be578081fd5b8151612261816124c2565b6000602082840312156122da578081fd5b81356001600160f81b031981168114612261578182fd5b600060208284031215612302578081fd5b5035919050565b6000806000808486036103a0811215612320578283fd5b6103408082121561232f578384fd5b869550850135935050610360840135915061038084013560ff81168114612354578182fd5b939692955090935050565b600060208284031215612370578081fd5b5051919050565b600060208284031215612388578081fd5b8135612261816124d0565b6000602082840312156123a4578081fd5b8151612261816124d0565b600083516123c1818460208801612467565b8351908301906123d5818360208801612467565b01949350505050565b600082516123f0818460208701612467565b9190910192915050565b6000821982111561240d5761240d612493565b500190565b600063ffffffff8083168185168083038211156123d5576123d5612493565b600081600019048311821515161561244b5761244b612493565b500290565b60008282101561246257612462612493565b500390565b60005b8381101561248257818101518382015260200161246a565b838111156107325750506000910152565b7f4e487b7100000000000000000000000000000000000000000000000000000000600052601160045260246000fd5b801515811461089057600080fd5b63ffffffff8116811461089057600080fdfe4672657175656e637928626f6f6c20656e61626c65642c75696e743235362064656c61792c75696e7432353620737461727429466f6c6c6f7728626f6f6c20656e61626c65642c75696e743235362073686966742c627974657333322073637269707449642c61646472657373206578656375746f72294d6d416476616e63656428627974657333322073637269707449642c6164647265737320746f6b656e2c62797465733120616374696f6e2c62797465733120726174654d6f64652c75696e7432353620616d6f756e742c6164647265737320757365722c61646472657373206b6f6e74726163742c61646472657373206578656375746f722c75696e7432353620636861696e49642c42616c616e63652062616c616e63652c4672657175656e6379206672657175656e63792c50726963652070726963652c52657065746974696f6e732072657065746974696f6e732c466f6c6c6f7720666f6c6c6f772942616c616e636528626f6f6c20656e61626c65642c6164647265737320746f6b656e2c62797465733120636f6d70617269736f6e2c75696e7432353620616d6f756e7429466f6c6c6f7728626f6f6c20656e61626c65642c75696e743235362073686966742c627974657333322073637269707449642c61646472657373206578656375746f72294672657175656e637928626f6f6c20656e61626c65642c75696e743235362064656c61792c75696e7432353620737461727429507269636528626f6f6c20656e61626c65642c6164647265737320746f6b656e2c62797465733120636f6d70617269736f6e2c75696e743235362076616c75652952657065746974696f6e7328626f6f6c20656e61626c65642c75696e74333220616d6f756e742942616c616e636528626f6f6c20656e61626c65642c6164647265737320746f6b656e2c62797465733120636f6d70617269736f6e2c75696e7432353620616d6f756e742952657065746974696f6e7328626f6f6c20656e61626c65642c75696e74333220616d6f756e7429507269636528626f6f6c20656e61626c65642c6164647265737320746f6b656e2c62797465733120636f6d70617269736f6e2c75696e743235362076616c756529a2646970667358221220ca183360ec3794bcbadb9074136718911eae9bb33c6684d6cf17d9e308c8318564736f6c63430008040033",
  "linkReferences": {},
  "deployedLinkReferences": {}
}