{
  "_format": "hh-sol-artifact-1",
  "contractName": "MmAdvancedScriptExecutor",
  "sourceName": "contracts/MmAdvancedScriptExecutor.sol",
  "abi": [
    {
      "anonymous": false,
      "inputs": [
        {
          "indexed": false,
          "internalType": "bytes32",
          "name": "id",
          "type": "bytes32"
        },
        {
          "indexed": false,
          "internalType": "uint256",
          "name": "cost",
          "type": "uint256"
        }
      ],
      "name": "Executed",
      "type": "event"
    },
    {
      "anonymous": false,
      "inputs": [
        {
          "indexed": true,
          "internalType": "address",
          "name": "previousOwner",
          "type": "address"
        },
        {
          "indexed": true,
          "internalType": "address",
          "name": "newOwner",
          "type": "address"
        }
      ],
      "name": "OwnershipTransferred",
      "type": "event"
    },
    {
      "inputs": [],
      "name": "GAS_COST",
      "outputs": [
        {
          "internalType": "uint256",
          "name": "",
          "type": "uint256"
        }
      ],
      "stateMutability": "view",
      "type": "function"
    },
    {
      "inputs": [],
      "name": "MINIMUM_GAS_FOR_SCRIPT_EXECUTION",
      "outputs": [
        {
          "internalType": "uint256",
          "name": "",
          "type": "uint256"
        }
      ],
      "stateMutability": "view",
      "type": "function"
    },
    {
      "inputs": [
        {
          "components": [
            {
              "internalType": "bytes32",
              "name": "scriptId",
              "type": "bytes32"
            },
            {
              "internalType": "address",
              "name": "token",
              "type": "address"
            },
            {
              "internalType": "address",
              "name": "debtToken",
              "type": "address"
            },
            {
              "internalType": "bytes1",
              "name": "action",
              "type": "bytes1"
            },
            {
              "internalType": "bytes1",
              "name": "typeAmt",
              "type": "bytes1"
            },
            {
              "internalType": "bytes1",
              "name": "rateMode",
              "type": "bytes1"
            },
            {
              "internalType": "uint256",
              "name": "amount",
              "type": "uint256"
            },
            {
              "internalType": "address",
              "name": "user",
              "type": "address"
            },
            {
              "internalType": "address",
              "name": "kontract",
              "type": "address"
            },
            {
              "internalType": "address",
              "name": "executor",
              "type": "address"
            },
            {
              "internalType": "uint256",
              "name": "chainId",
              "type": "uint256"
            },
            {
              "components": [
                {
                  "internalType": "bool",
                  "name": "enabled",
                  "type": "bool"
                },
                {
                  "internalType": "address",
                  "name": "token",
                  "type": "address"
                },
                {
                  "internalType": "bytes1",
                  "name": "comparison",
                  "type": "bytes1"
                },
                {
                  "internalType": "uint256",
                  "name": "amount",
                  "type": "uint256"
                }
              ],
              "internalType": "struct Balance",
              "name": "balance",
              "type": "tuple"
            },
            {
              "components": [
                {
                  "internalType": "bool",
                  "name": "enabled",
                  "type": "bool"
                },
                {
                  "internalType": "uint256",
                  "name": "delay",
                  "type": "uint256"
                },
                {
                  "internalType": "uint256",
                  "name": "start",
                  "type": "uint256"
                }
              ],
              "internalType": "struct Frequency",
              "name": "frequency",
              "type": "tuple"
            },
            {
              "components": [
                {
                  "internalType": "bool",
                  "name": "enabled",
                  "type": "bool"
                },
                {
                  "internalType": "address",
                  "name": "token",
                  "type": "address"
                },
                {
                  "internalType": "bytes1",
                  "name": "comparison",
                  "type": "bytes1"
                },
                {
                  "internalType": "uint256",
                  "name": "value",
                  "type": "uint256"
                }
              ],
              "internalType": "struct Price",
              "name": "price",
              "type": "tuple"
            },
            {
              "components": [
                {
                  "internalType": "bool",
                  "name": "enabled",
                  "type": "bool"
                },
                {
                  "internalType": "uint32",
                  "name": "amount",
                  "type": "uint32"
                }
              ],
              "internalType": "struct Repetitions",
              "name": "repetitions",
              "type": "tuple"
            },
            {
              "components": [
                {
                  "internalType": "bool",
                  "name": "enabled",
                  "type": "bool"
                },
                {
                  "internalType": "uint256",
                  "name": "shift",
                  "type": "uint256"
                },
                {
                  "internalType": "bytes32",
                  "name": "scriptId",
                  "type": "bytes32"
                },
                {
                  "internalType": "address",
                  "name": "executor",
                  "type": "address"
                }
              ],
              "internalType": "struct Follow",
              "name": "follow",
              "type": "tuple"
            },
            {
              "components": [
                {
                  "internalType": "bool",
                  "name": "enabled",
                  "type": "bool"
                },
                {
                  "internalType": "address",
                  "name": "kontract",
                  "type": "address"
                },
                {
                  "internalType": "bytes1",
                  "name": "comparison",
                  "type": "bytes1"
                },
                {
                  "internalType": "uint256",
                  "name": "amount",
                  "type": "uint256"
                }
              ],
              "internalType": "struct HealthFactor",
              "name": "healthFactor",
              "type": "tuple"
            }
          ],
          "internalType": "struct MmAdvanced",
          "name": "message",
          "type": "tuple"
        },
        {
          "internalType": "bytes32",
          "name": "r",
          "type": "bytes32"
        },
        {
          "internalType": "bytes32",
          "name": "s",
          "type": "bytes32"
        },
        {
          "internalType": "uint8",
          "name": "v",
          "type": "uint8"
        }
      ],
      "name": "execute",
      "outputs": [],
      "stateMutability": "nonpayable",
      "type": "function"
    },
    {
      "inputs": [
        {
          "internalType": "bytes32",
          "name": "_id",
          "type": "bytes32"
        }
      ],
      "name": "getRepetitions",
      "outputs": [
        {
          "internalType": "uint32",
          "name": "",
          "type": "uint32"
        }
      ],
      "stateMutability": "view",
      "type": "function"
    },
    {
      "inputs": [],
      "name": "owner",
      "outputs": [
        {
          "internalType": "address",
          "name": "",
          "type": "address"
        }
      ],
      "stateMutability": "view",
      "type": "function"
    },
    {
      "inputs": [],
      "name": "preliminaryCheck",
      "outputs": [],
      "stateMutability": "view",
      "type": "function"
    },
    {
      "inputs": [],
      "name": "priceOracle",
      "outputs": [
        {
          "internalType": "contract IPriceOracleGetter",
          "name": "",
          "type": "address"
        }
      ],
      "stateMutability": "view",
      "type": "function"
    },
    {
      "inputs": [],
      "name": "renounceOwnership",
      "outputs": [],
      "stateMutability": "nonpayable",
      "type": "function"
    },
    {
      "inputs": [
        {
          "internalType": "bytes32",
          "name": "_id",
          "type": "bytes32"
        }
      ],
      "name": "revoke",
      "outputs": [],
      "stateMutability": "nonpayable",
      "type": "function"
    },
    {
      "inputs": [
        {
          "internalType": "address",
          "name": "_priceOracle",
          "type": "address"
        }
      ],
      "name": "setAavePriceOracle",
      "outputs": [],
      "stateMutability": "nonpayable",
      "type": "function"
    },
    {
      "inputs": [
        {
          "internalType": "address",
          "name": "_gasPriceFeed",
          "type": "address"
        }
      ],
      "name": "setGasFeed",
      "outputs": [],
      "stateMutability": "nonpayable",
      "type": "function"
    },
    {
      "inputs": [
        {
          "internalType": "address",
          "name": "_gasTank",
          "type": "address"
        }
      ],
      "name": "setGasTank",
      "outputs": [],
      "stateMutability": "nonpayable",
      "type": "function"
    },
    {
      "inputs": [
        {
          "internalType": "uint256",
          "name": "_amount",
          "type": "uint256"
        }
      ],
      "name": "setMinimumGas",
      "outputs": [],
      "stateMutability": "nonpayable",
      "type": "function"
    },
    {
      "inputs": [
        {
          "internalType": "address",
          "name": "_priceRetriever",
          "type": "address"
        }
      ],
      "name": "setPriceRetriever",
      "outputs": [],
      "stateMutability": "nonpayable",
      "type": "function"
    },
    {
      "inputs": [
        {
          "internalType": "address",
          "name": "newOwner",
          "type": "address"
        }
      ],
      "name": "transferOwnership",
      "outputs": [],
      "stateMutability": "nonpayable",
      "type": "function"
    },
    {
      "inputs": [
        {
          "components": [
            {
              "internalType": "bytes32",
              "name": "scriptId",
              "type": "bytes32"
            },
            {
              "internalType": "address",
              "name": "token",
              "type": "address"
            },
            {
              "internalType": "address",
              "name": "debtToken",
              "type": "address"
            },
            {
              "internalType": "bytes1",
              "name": "action",
              "type": "bytes1"
            },
            {
              "internalType": "bytes1",
              "name": "typeAmt",
              "type": "bytes1"
            },
            {
              "internalType": "bytes1",
              "name": "rateMode",
              "type": "bytes1"
            },
            {
              "internalType": "uint256",
              "name": "amount",
              "type": "uint256"
            },
            {
              "internalType": "address",
              "name": "user",
              "type": "address"
            },
            {
              "internalType": "address",
              "name": "kontract",
              "type": "address"
            },
            {
              "internalType": "address",
              "name": "executor",
              "type": "address"
            },
            {
              "internalType": "uint256",
              "name": "chainId",
              "type": "uint256"
            },
            {
              "components": [
                {
                  "internalType": "bool",
                  "name": "enabled",
                  "type": "bool"
                },
                {
                  "internalType": "address",
                  "name": "token",
                  "type": "address"
                },
                {
                  "internalType": "bytes1",
                  "name": "comparison",
                  "type": "bytes1"
                },
                {
                  "internalType": "uint256",
                  "name": "amount",
                  "type": "uint256"
                }
              ],
              "internalType": "struct Balance",
              "name": "balance",
              "type": "tuple"
            },
            {
              "components": [
                {
                  "internalType": "bool",
                  "name": "enabled",
                  "type": "bool"
                },
                {
                  "internalType": "uint256",
                  "name": "delay",
                  "type": "uint256"
                },
                {
                  "internalType": "uint256",
                  "name": "start",
                  "type": "uint256"
                }
              ],
              "internalType": "struct Frequency",
              "name": "frequency",
              "type": "tuple"
            },
            {
              "components": [
                {
                  "internalType": "bool",
                  "name": "enabled",
                  "type": "bool"
                },
                {
                  "internalType": "address",
                  "name": "token",
                  "type": "address"
                },
                {
                  "internalType": "bytes1",
                  "name": "comparison",
                  "type": "bytes1"
                },
                {
                  "internalType": "uint256",
                  "name": "value",
                  "type": "uint256"
                }
              ],
              "internalType": "struct Price",
              "name": "price",
              "type": "tuple"
            },
            {
              "components": [
                {
                  "internalType": "bool",
                  "name": "enabled",
                  "type": "bool"
                },
                {
                  "internalType": "uint32",
                  "name": "amount",
                  "type": "uint32"
                }
              ],
              "internalType": "struct Repetitions",
              "name": "repetitions",
              "type": "tuple"
            },
            {
              "components": [
                {
                  "internalType": "bool",
                  "name": "enabled",
                  "type": "bool"
                },
                {
                  "internalType": "uint256",
                  "name": "shift",
                  "type": "uint256"
                },
                {
                  "internalType": "bytes32",
                  "name": "scriptId",
                  "type": "bytes32"
                },
                {
                  "internalType": "address",
                  "name": "executor",
                  "type": "address"
                }
              ],
              "internalType": "struct Follow",
              "name": "follow",
              "type": "tuple"
            },
            {
              "components": [
                {
                  "internalType": "bool",
                  "name": "enabled",
                  "type": "bool"
                },
                {
                  "internalType": "address",
                  "name": "kontract",
                  "type": "address"
                },
                {
                  "internalType": "bytes1",
                  "name": "comparison",
                  "type": "bytes1"
                },
                {
                  "internalType": "uint256",
                  "name": "amount",
                  "type": "uint256"
                }
              ],
              "internalType": "struct HealthFactor",
              "name": "healthFactor",
              "type": "tuple"
            }
          ],
          "internalType": "struct MmAdvanced",
          "name": "message",
          "type": "tuple"
        },
        {
          "internalType": "bytes32",
          "name": "r",
          "type": "bytes32"
        },
        {
          "internalType": "bytes32",
          "name": "s",
          "type": "bytes32"
        },
        {
          "internalType": "uint8",
          "name": "v",
          "type": "uint8"
        }
      ],
      "name": "verify",
      "outputs": [],
      "stateMutability": "view",
      "type": "function"
    },
    {
      "inputs": [
        {
          "internalType": "address",
          "name": "user",
          "type": "address"
        }
      ],
      "name": "verifyGasTank",
      "outputs": [],
      "stateMutability": "view",
      "type": "function"
    },
    {
      "inputs": [
        {
          "internalType": "address",
          "name": "user",
          "type": "address"
        },
        {
          "internalType": "bytes32",
          "name": "id",
          "type": "bytes32"
        }
      ],
      "name": "verifyRevocation",
      "outputs": [],
      "stateMutability": "view",
      "type": "function"
    }
  ],
  "bytecode": "0x60806040526706f05b59d3b2000060085566012795f58d50006009553480156200002857600080fd5b5062000034336200003e565b466004556200008e565b600080546001600160a01b038381166001600160a01b0319831681178455604051919092169283917f8be0079c531659141344cd1fd0a4f28419497f9722a3daafe3b4186f6b6457e09190a35050565b613978806200009e6000396000f3fe608060405234801561001057600080fd5b50600436106101365760003560e01c80637ea42ebe116100b2578063985420f411610081578063ca7f103b11610066578063ca7f103b146102ac578063f2fde38b146102b5578063f87d5781146102c857600080fd5b8063985420f414610265578063b75c7dc61461027857600080fd5b80637ea42ebe146101f35780637eb4e4471461022e5780638d2869f2146102415780638da5cb5b1461025457600080fd5b806344e1c47a1161010957806358a346dc116100ee57806358a346dc146101c5578063715018a6146101d85780637ca65cdc146101e057600080fd5b806344e1c47a1461019f5780634ead94a3146101b257600080fd5b806301ff45aa1461013b578063080e4691146101455780632630c12f1461016157806343e297b21461018c575b600080fd5b6101436102db565b005b61014e60085481565b6040519081526020015b60405180910390f35b600b54610174906001600160a01b031681565b6040516001600160a01b039091168152602001610158565b61014361019a36600461313c565b6103ea565b6101436101ad3660046131fe565b610479565b6101436101c036600461315d565b610731565b6101436101d336600461313c565b6107cf565b61014361085e565b6101436101ee36600461313c565b6108c2565b6102196102013660046131e6565b60009081526002602052604090205463ffffffff1690565b60405163ffffffff9091168152602001610158565b61014361023c3660046131fe565b6109b9565b61014361024f3660046131e6565b610d16565b6000546001600160a01b0316610174565b61014361027336600461313c565b610dc5565b6101436102863660046131e6565b33600090815260036020908152604080832093835292905220805460ff19166001179055565b61014e60095481565b6101436102c336600461313c565b610e54565b6101436102d636600461313c565b610f33565b6005546001600160a01b03166103385760405162461bcd60e51b815260206004820152600760248201527f47617354616e6b0000000000000000000000000000000000000000000000000060448201526064015b60405180910390fd5b6007546001600160a01b03166103905760405162461bcd60e51b815260206004820152600f60248201527f5072696365735265747269657665720000000000000000000000000000000000604482015260640161032f565b6006546001600160a01b03166103e85760405162461bcd60e51b815260206004820152600c60248201527f4761735072696365466565640000000000000000000000000000000000000000604482015260640161032f565b565b6000546001600160a01b031633146104445760405162461bcd60e51b815260206004820181905260248201527f4f776e61626c653a2063616c6c6572206973206e6f7420746865206f776e6572604482015260640161032f565b6001600160a01b03811661045757600080fd5b600580546001600160a01b0319166001600160a01b0392909216919091179055565b610485848484846109b9565b83356000908152600160208181526040808420429055600290915282208054919290916104b990849063ffffffff16613367565b92506101000a81548163ffffffff021916908363ffffffff1602179055508360600160208101906104ea91906131be565b6001600160f81b0319166105065761050184610fc2565b610534565b61051660808501606086016131be565b6001600160f81b031916600160f81b141561053457610534846113a3565b600554600654604080517f7a95c80800000000000000000000000000000000000000000000000000000000815290516001600160a01b03938416936398094b3d931691637a95c808916004808301926020929190829003018186803b15801561059c57600080fd5b505afa1580156105b0573d6000803e3d6000fd5b505050506040513d601f19601f820116820180604052508101906105d4919061324f565b6009546105e19190613496565b6105f2610100880160e0890161313c565b336040516001600160e01b031960e086901b16815260048101939093526001600160a01b039182166024840152166044820152606401600060405180830381600087803b15801561064257600080fd5b505af1158015610656573d6000803e3d6000fd5b505050507f3a7a2319bce6d060c98aa49682d12788f621b7e2e68701a9a082398b39da0f978460000135600660009054906101000a90046001600160a01b03166001600160a01b0316637a95c8086040518163ffffffff1660e01b815260040160206040518083038186803b1580156106ce57600080fd5b505afa1580156106e2573d6000803e3d6000fd5b505050506040513d601f19601f82011682018060405250810190610706919061324f565b6009546107139190613496565b6040805192835260208301919091520160405180910390a150505050565b6001600160a01b038216600090815260036020908152604080832084845290915290205460ff16156107cb5760405162461bcd60e51b815260206004820152602360248201527f53637269707420686173206265656e207265766f6b656420627920746865207560448201527f7365720000000000000000000000000000000000000000000000000000000000606482015260840161032f565b5050565b6000546001600160a01b031633146108295760405162461bcd60e51b815260206004820181905260248201527f4f776e61626c653a2063616c6c6572206973206e6f7420746865206f776e6572604482015260640161032f565b6001600160a01b03811661083c57600080fd5b600680546001600160a01b0319166001600160a01b0392909216919091179055565b6000546001600160a01b031633146108b85760405162461bcd60e51b815260206004820181905260248201527f4f776e61626c653a2063616c6c6572206973206e6f7420746865206f776e6572604482015260640161032f565b6103e86000611554565b6008546005546040516370a0823160e01b81526001600160a01b038481166004830152909116906370a082319060240160206040518083038186803b15801561090a57600080fd5b505afa15801561091e573d6000803e3d6000fd5b505050506040513d601f19601f82011682018060405250810190610942919061324f565b10156109b65760405162461bcd60e51b815260206004820152602a60248201527f5b47617320436f6e646974696f6e5d204e6f7420656e6f75676820676173206960448201527f6e207468652074616e6b00000000000000000000000000000000000000000000606482015260840161032f565b50565b600b546001600160a01b0316610a115760405162461bcd60e51b815260206004820152601460248201527f5072696365206f7261636c65206e6f7420736574000000000000000000000000604482015260640161032f565b610a2c610a25610100860160e0870161313c565b8535610731565b610a38848484846115a4565b610a47610300850185356116cf565b610a566102c08501853561188c565b610a656101e085018535611963565b610a7560808501606086016131be565b6001600160f81b031916610ca1576000610a95606086016040870161313c565b6001600160a01b03166370a08231610ab4610100880160e0890161313c565b6040516001600160e01b031960e084901b1681526001600160a01b03909116600482015260240160206040518083038186803b158015610af357600080fd5b505afa158015610b07573d6000803e3d6000fd5b505050506040513d601f19601f82011682018060405250810190610b2b919061324f565b11610b785760405162461bcd60e51b815260206004820152601060248201527f4e6f206465627420746f20726570617900000000000000000000000000000000604482015260640161032f565b610b8184611af1565b6000610b9360a08601608087016131be565b6001600160f81b03191615610c695761271060c0860135610bba606088016040890161313c565b6001600160a01b03166370a08231610bd96101008a0160e08b0161313c565b6040516001600160e01b031960e084901b1681526001600160a01b03909116600482015260240160206040518083038186803b158015610c1857600080fd5b505afa158015610c2c573d6000803e3d6000fd5b505050506040513d601f19601f82011682018060405250810190610c50919061324f565b610c5a9190613496565b610c649190613386565b610c6f565b8460c001355b9050610c9b610c85610100870160e0880161313c565b610c95604088016020890161313c565b83611cd6565b50610cb3565b610caa84611e0b565b610cb3846120e6565b610cd16101608501610ccc610100870160e0880161313c565b612235565b610cde8461024001612417565b610cf26101ee610100860160e0870161313c565b610d106103808501610d0b610100870160e0880161313c565b6125fd565b50505050565b6000546001600160a01b03163314610d705760405162461bcd60e51b815260206004820181905260248201527f4f776e61626c653a2063616c6c6572206973206e6f7420746865206f776e6572604482015260640161032f565b60008111610dc05760405162461bcd60e51b815260206004820152601d60248201527f416d6f756e74206d7573742062652067726561746572207468616e2030000000604482015260640161032f565b600855565b6000546001600160a01b03163314610e1f5760405162461bcd60e51b815260206004820181905260248201527f4f776e61626c653a2063616c6c6572206973206e6f7420746865206f776e6572604482015260640161032f565b6001600160a01b038116610e3257600080fd5b600b80546001600160a01b0319166001600160a01b0392909216919091179055565b6000546001600160a01b03163314610eae5760405162461bcd60e51b815260206004820181905260248201527f4f776e61626c653a2063616c6c6572206973206e6f7420746865206f776e6572604482015260640161032f565b6001600160a01b038116610f2a5760405162461bcd60e51b815260206004820152602660248201527f4f776e61626c653a206e6577206f776e657220697320746865207a65726f206160448201527f6464726573730000000000000000000000000000000000000000000000000000606482015260840161032f565b6109b681611554565b6000546001600160a01b03163314610f8d5760405162461bcd60e51b815260206004820181905260248201527f4f776e61626c653a2063616c6c6572206973206e6f7420746865206f776e6572604482015260640161032f565b6001600160a01b038116610fa057600080fd5b600780546001600160a01b0319166001600160a01b0392909216919091179055565b6000610fd460a08301608084016131be565b6001600160f81b031916156110aa5761271060c0830135610ffb606085016040860161313c565b6001600160a01b03166370a0823161101a610100870160e0880161313c565b6040516001600160e01b031960e084901b1681526001600160a01b03909116600482015260240160206040518083038186803b15801561105957600080fd5b505afa15801561106d573d6000803e3d6000fd5b505050506040513d601f19601f82011682018060405250810190611091919061324f565b61109b9190613496565b6110a59190613386565b6110b0565b8160c001355b905060006110c4604084016020850161313c565b90506001600160a01b0381166323b872dd6110e6610100860160e0870161313c565b6040516001600160e01b031960e084901b1681526001600160a01b03909116600482015230602482015260448101859052606401602060405180830381600087803b15801561113457600080fd5b505af1158015611148573d6000803e3d6000fd5b505050506040513d601f19601f8201168201806040525081019061116c91906131a2565b50600a60006111836101208601610100870161313c565b6001600160a01b039081168252602080830193909352604091820160009081209185168152925290205460ff166111cf576111cf816111ca6101208601610100870161313c565b6127f7565b60006111e36101208501610100860161313c565b6001600160a01b031663573ade81611201604087016020880161313c565b8561121260c0890160a08a016131be565b6001600160f81b031916600160f81b1461122d576002611230565b60015b6112416101008a0160e08b0161313c565b6040516001600160e01b031960e087901b1681526001600160a01b039485166004820152602481019390935260ff9091166044830152919091166064820152608401602060405180830381600087803b15801561129d57600080fd5b505af11580156112b1573d6000803e3d6000fd5b505050506040513d601f19601f820116820180604052508101906112d5919061324f565b905060006112e382856134b5565b9050801561139c576112fb604086016020870161313c565b6001600160a01b031663a9059cbb61131a610100880160e0890161313c565b6040516001600160e01b031960e084901b1681526001600160a01b03909116600482015260248101849052604401602060405180830381600087803b15801561136257600080fd5b505af1158015611376573d6000803e3d6000fd5b505050506040513d601f19601f8201168201806040525081019061139a91906131a2565b505b5050505050565b60006113ae826128c9565b90506113c26101208301610100840161313c565b6001600160a01b031663a415bcad6113e0604085016020860161313c565b836113f160c0870160a088016131be565b6001600160f81b031916600160f81b1461140c57600261140f565b60015b6000611422610100890160e08a0161313c565b6040516001600160e01b031960e088901b1681526001600160a01b039586166004820152602481019490945260ff909216604484015261ffff16606483015291909116608482015260a401600060405180830381600087803b15801561148757600080fd5b505af115801561149b573d6000803e3d6000fd5b506114b092505050604083016020840161313c565b6001600160a01b031663a9059cbb6114cf610100850160e0860161313c565b6040516001600160e01b031960e084901b1681526001600160a01b03909116600482015260248101849052604401602060405180830381600087803b15801561151757600080fd5b505af115801561152b573d6000803e3d6000fd5b505050506040513d601f19601f8201168201806040525081019061154f91906131a2565b505050565b600080546001600160a01b038381166001600160a01b0319831681178455604051919092169283917f8be0079c531659141344cd1fd0a4f28419497f9722a3daafe3b4186f6b6457e09190a35050565b600454846101400135146115fa5760405162461bcd60e51b815260206004820152600b60248201527f57726f6e6720636861696e000000000000000000000000000000000000000000604482015260640161032f565b600161160585612b05565b6040805160008152602081018083529290925260ff841690820152606081018590526080810184905260a0016020604051602081039080840390855afa158015611653573d6000803e3d6000fd5b5050604051601f1901516001600160a01b03169050611679610100860160e0870161313c565b6001600160a01b031614610d105760405162461bcd60e51b815260206004820152601860248201527f5369676e617475726520646f6573206e6f74206d617463680000000000000000604482015260640161032f565b6116dc6020830183613186565b6116e4575050565b6000306116f7608085016060860161313c565b6001600160a01b03161461179b57611715608084016060850161313c565b6001600160a01b0316637ea42ebe84604001356040518263ffffffff1660e01b815260040161174691815260200190565b60206040518083038186803b15801561175e57600080fd5b505afa158015611772573d6000803e3d6000fd5b505050506040513d601f19601f8201168201806040525081019061179691906132cc565b6117b4565b60408084013560009081526002602052205463ffffffff165b6000838152600260205260409020549091506117d79063ffffffff166001613367565b63ffffffff1683602001358263ffffffff166117f3919061334f565b1461154f5760405162461bcd60e51b815260206004820152604260248201527f5b466f6c6c6f7720436f6e646974696f6e5d2054686520706172656e7420736360448201527f7269707420686173206e6f74206265656e20287265296578656375746564207960648201527f6574000000000000000000000000000000000000000000000000000000000000608482015260a40161032f565b6118996020830183613186565b6118a1575050565b6118b160408301602084016132b0565b60008281526002602052604090205463ffffffff9182169116106107cb5760405162461bcd60e51b815260206004820152604f60248201527f5b52657065746974696f6e7320436f6e646974696f6e5d20546865207363726960448201527f707420686173207265616368656420697473206d6178696d756d206e756d626560648201527f72206f6620657865637574696f6e730000000000000000000000000000000000608482015260a40161032f565b6119706020830183613186565b611978575050565b60008181526001602052604090205415611a45576000818152600160209081526040909120546119ab918401359061334f565b42116107cb5760405162461bcd60e51b815260206004820152604960248201527f5b4672657175656e637920436f6e646974696f6e5d204e6f7420656e6f75676860448201527f2074696d6520686173207061737365642073696e636520746865206c6173742060648201527f657865637574696f6e0000000000000000000000000000000000000000000000608482015260a40161032f565b611a576020830135604084013561334f565b42116107cb5760405162461bcd60e51b815260206004820152604660248201527f5b4672657175656e637920436f6e646974696f6e5d204e6f7420656e6f75676860448201527f2074696d6520686173207061737365642073696e63652074686520737461727460648201527f20626c6f636b0000000000000000000000000000000000000000000000000000608482015260a40161032f565b6000611b0360a08301608084016131be565b6001600160f81b03191615611bd95761271060c0830135611b2a606085016040860161313c565b6001600160a01b03166370a08231611b49610100870160e0880161313c565b6040516001600160e01b031960e084901b1681526001600160a01b03909116600482015260240160206040518083038186803b158015611b8857600080fd5b505afa158015611b9c573d6000803e3d6000fd5b505050506040513d601f19601f82011682018060405250810190611bc0919061324f565b611bca9190613496565b611bd49190613386565b611bdf565b8160c001355b905080611bf2604084016020850161313c565b6001600160a01b03166370a08231611c11610100860160e0870161313c565b6040516001600160e01b031960e084901b1681526001600160a01b03909116600482015260240160206040518083038186803b158015611c5057600080fd5b505afa158015611c64573d6000803e3d6000fd5b505050506040513d601f19601f82011682018060405250810190611c88919061324f565b10156107cb5760405162461bcd60e51b815260206004820181905260248201527f4e6f7420656e6f7567682062616c616e636520746f2072657061792064656274604482015260640161032f565b6040517fdd62ed3e0000000000000000000000000000000000000000000000000000000081526001600160a01b03848116600483015230602483015282919084169063dd62ed3e9060440160206040518083038186803b158015611d3957600080fd5b505afa158015611d4d573d6000803e3d6000fd5b505050506040513d601f19601f82011682018060405250810190611d71919061324f565b101561154f5760405162461bcd60e51b815260206004820152604f60248201527f5b416c6c6f77616e636520436f6e646974696f6e5d205573657220646964206e60448201527f6f74206769766520656e6f75676820616c6c6f77616e636520746f207468652060648201527f736372697074206578656375746f720000000000000000000000000000000000608482015260a40161032f565b611e1b60a08201608083016131be565b6001600160f81b031916600160f81b1415611e865761251c8160c0013511156109b65760405162461bcd60e51b815260206004820152601a60248201527f426f72726f772070657263656e7461676520746f6f2068696768000000000000604482015260640161032f565b600b546000906001600160a01b031663b3596f07611eaa604085016020860161313c565b6040516001600160e01b031960e084901b1681526001600160a01b03909116600482015260240160206040518083038186803b158015611ee957600080fd5b505afa158015611efd573d6000803e3d6000fd5b505050506040513d601f19601f82011682018060405250810190611f21919061324f565b90506000611f376101208401610100850161313c565b6001600160a01b031663bf92857c611f56610100860160e0870161313c565b6040516001600160e01b031960e084901b1681526001600160a01b03909116600482015260240160c06040518083038186803b158015611f9557600080fd5b505afa158015611fa9573d6000803e3d6000fd5b505050506040513d601f19601f82011682018060405250810190611fcd9190613267565b50505092505050600082846020016020810190611fea919061313c565b6001600160a01b031663313ce5676040518163ffffffff1660e01b815260040160206040518083038186803b15801561202257600080fd5b505afa158015612036573d6000803e3d6000fd5b505050506040513d601f19601f8201168201806040525081019061205a91906132e8565b61206590600a6133e9565b606461207285605f613496565b61207c9190613386565b6120869190613496565b6120909190613386565b9050808460c001351115610d105760405162461bcd60e51b815260206004820152601d60248201527f416d6f756e7420686967686572207468616e20626f72726f7761626c65000000604482015260640161032f565b6120ef816128c9565b6120ff606083016040840161313c565b6001600160a01b0316636bd76d2461211e610100850160e0860161313c565b6040516001600160e01b031960e084901b1681526001600160a01b03909116600482015230602482015260440160206040518083038186803b15801561216357600080fd5b505afa158015612177573d6000803e3d6000fd5b505050506040513d601f19601f8201168201806040525081019061219b919061324f565b10156109b65760405162461bcd60e51b815260206004820152604f60248201527f5b416c6c6f77616e636520436f6e646974696f6e5d205573657220646964206e60448201527f6f74206769766520656e6f75676820616c6c6f77616e636520746f207468652060648201527f736372697074206578656375746f720000000000000000000000000000000000608482015260a40161032f565b6122426020830183613186565b61224a575050565b600061225c604084016020850161313c565b6040516370a0823160e01b81526001600160a01b0384811660048301529192506000918316906370a082319060240160206040518083038186803b1580156122a357600080fd5b505afa1580156122b7573d6000803e3d6000fd5b505050506040513d601f19601f820116820180604052508101906122db919061324f565b90506122ed60608501604086016131be565b6001600160f81b03191661237957836060013581116123745760405162461bcd60e51b815260206004820152603360248201527f5b42616c616e636520436f6e646974696f6e5d205573657220646f6573206e6f60448201527f74206f776e20656e6f75676820746f6b656e7300000000000000000000000000606482015260840161032f565b610d10565b61238960608501604086016131be565b6001600160f81b031916600160f81b1415610d105783606001358110610d105760405162461bcd60e51b815260206004820152602d60248201527f5b42616c616e636520436f6e646974696f6e5d2055736572206f776e7320746f60448201527f6f206d616e7920746f6b656e7300000000000000000000000000000000000000606482015260840161032f565b6124246020820182613186565b61242b5750565b6007546000906001600160a01b031663b95ed06f61244f604085016020860161313c565b6040516001600160e01b031960e084901b1681526001600160a01b03909116600482015260240160206040518083038186803b15801561248e57600080fd5b505afa1580156124a2573d6000803e3d6000fd5b505050506040513d601f19601f820116820180604052508101906124c6919061324f565b90506124d860608301604084016131be565b6001600160f81b03191661255f57816060013581116107cb5760405162461bcd60e51b815260206004820152603a60248201527f5b507269636520436f6e646974696f6e5d20546f6b656e20707269636520697360448201527f206c6f776572207468616e2065787065637465642076616c7565000000000000606482015260840161032f565b61256f60608301604084016131be565b6001600160f81b031916600160f81b14156107cb57816060013581106107cb5760405162461bcd60e51b815260206004820152603b60248201527f5b507269636520436f6e646974696f6e5d20546f6b656e20707269636520697360448201527f20686967686572207468616e2065787065637465642076616c75650000000000606482015260840161032f565b61260a6020830183613186565b612612575050565b6000612624604084016020850161313c565b6040517fbf92857c0000000000000000000000000000000000000000000000000000000081526001600160a01b038481166004830152919091169063bf92857c9060240160c06040518083038186803b15801561268057600080fd5b505afa158015612694573d6000803e3d6000fd5b505050506040513d601f19601f820116820180604052508101906126b89190613267565b955050505050508260400160208101906126d291906131be565b6001600160f81b031916612759578260600135811161154f5760405162461bcd60e51b815260206004820152603060248201527f5b4865616c7468466163746f7220436f6e646974696f6e5d204846206c6f776560448201527f72207468616e207468726573686f6c6400000000000000000000000000000000606482015260840161032f565b61276960608401604085016131be565b6001600160f81b031916600160f81b141561154f578260600135811061154f5760405162461bcd60e51b815260206004820152603160248201527f5b4865616c7468466163746f7220436f6e646974696f6e5d204846206869676860448201527f6572207468616e207468726573686f6c64000000000000000000000000000000606482015260840161032f565b6040517f095ea7b30000000000000000000000000000000000000000000000000000000081526001600160a01b038281166004830152600019602483015283169063095ea7b390604401602060405180830381600087803b15801561285b57600080fd5b505af115801561286f573d6000803e3d6000fd5b505050506040513d601f19601f8201168201806040525081019061289391906131a2565b506001600160a01b039081166000908152600a60209081526040808320949093168252929092529020805460ff19166001179055565b60006128db60a08301608084016131be565b6001600160f81b0319166128f1575060c0013590565b600b546000906001600160a01b031663b3596f07612915604086016020870161313c565b6040516001600160e01b031960e084901b1681526001600160a01b03909116600482015260240160206040518083038186803b15801561295457600080fd5b505afa158015612968573d6000803e3d6000fd5b505050506040513d601f19601f8201168201806040525081019061298c919061324f565b905060006129a26101208501610100860161313c565b6001600160a01b031663bf92857c6129c1610100870160e0880161313c565b6040516001600160e01b031960e084901b1681526001600160a01b03909116600482015260240160c06040518083038186803b158015612a0057600080fd5b505afa158015612a14573d6000803e3d6000fd5b505050506040513d601f19601f82011682018060405250810190612a389190613267565b5050509250505081846020016020810190612a53919061313c565b6001600160a01b031663313ce5676040518163ffffffff1660e01b815260040160206040518083038186803b158015612a8b57600080fd5b505afa158015612a9f573d6000803e3d6000fd5b505050506040513d601f19601f82011682018060405250810190612ac391906132e8565b612ace90600a6133e9565b612710612adf60c088013585613496565b612ae99190613386565b612af39190613496565b612afd9190613386565b949350505050565b6000806040518060400160405280601981526020017f454950373132446f6d61696e28737472696e67206e616d652900000000000000815250604051602001612b4e9190613333565b60408051808303601f1901815282825280516020918201208383018352601784527f4461656d6f6e732d4d4d2d416476616e6365642d763031000000000000000000938201939093528151908101929092527fedf955e4b9d9d482215326d30e305c44e33a892610102c33b852c5d5b8cc0f6a908201526060016040516020818303038152906040528051906020012090506000604051806102c00160405280610296815260200161353e6102969139604051602001612c0e9190613333565b604051602081830303815290604052805190602001208460000135856020016020810190612c3c919061313c565b612c4c606088016040890161313c565b612c5c6080890160608a016131be565b612c6c60a08a0160808b016131be565b612c7c60c08b0160a08c016131be565b60c08b0135612c926101008d0160e08e0161313c565b612ca46101208e016101008f0161313c565b8d610120016020810190612cb8919061313c565b60408051602081019c909c528b01999099526001600160a01b0397881660608b015295871660808a01526001600160f81b031994851660a08a015292841660c0890152921660e0870152610100860191909152821661012085015281166101408481019190915291166101608301528501356101808201526101a001604051602081830303815290604052612d508561016001612e49565b612d5d866101e001612f20565b612d6a8761024001612f9e565b612d77886102c001612fc9565b612d848961030001613052565b612d918a610380016130f5565b6040805160208101979097528601949094526060850192909252608084015260a083015260c082015260e00160408051601f1981840301815290829052612ddb9291602001613304565b60408051808303601f1901815282825280516020918201207f1901000000000000000000000000000000000000000000000000000000000000828501526022840195909552604280840195909552815180840390950185526062909201905282519201919091209392505050565b600060405180608001604052806044815260200161389760449139604051602001612e749190613333565b60408051601f19818403018152919052805160209182012090612e9990840184613186565b612ea9604085016020860161313c565b612eb960608601604087016131be565b8560600135604051602001612f0395949392919094855292151560208501526001600160a01b039190911660408401526001600160f81b0319166060830152608082015260a00190565b604051602081830303815290604052805190602001209050919050565b60006040518060600160405280603381526020016137d460339139604051602001612f4b9190613333565b60408051601f19818403018152919052805160209182012090612f7090840184613186565b604080516020818101949094529115158282015291840135606082015290830135608082015260a001612f03565b600060405180608001604052806041815260200161390260419139604051602001612e749190613333565b60006040518060600160405280602781526020016138db60279139604051602001612ff49190613333565b60408051601f1981840301815291905280516020918201209061301990840184613186565b61302960408501602086016132b0565b604051602001612f0393929190928352901515602083015263ffffffff16604082015260600190565b60006040518060800160405280604481526020016138076044913960405160200161307d9190613333565b60408051601f198184030181529190528051602091820120906130a290840184613186565b602084013560408501356130bc608087016060880161313c565b60408051602081019690965293151593850193909352606084019190915260808301526001600160a01b031660a082015260c001612f03565b60006040518060800160405280604c815260200161384b604c9139604051602001612e749190613333565b80356001600160a01b038116811461313757600080fd5b919050565b60006020828403121561314d578081fd5b61315682613120565b9392505050565b6000806040838503121561316f578081fd5b61317883613120565b946020939093013593505050565b600060208284031215613197578081fd5b81356131568161350e565b6000602082840312156131b3578081fd5b81516131568161350e565b6000602082840312156131cf578081fd5b81356001600160f81b031981168114613156578182fd5b6000602082840312156131f7578081fd5b5035919050565b600080600080848603610460811215613215578283fd5b61040080821215613224578384fd5b86955085013593505061042084013591506104408401356132448161352e565b939692955090935050565b600060208284031215613260578081fd5b5051919050565b60008060008060008060c0878903121561327f578182fd5b865195506020870151945060408701519350606087015192506080870151915060a087015190509295509295509295565b6000602082840312156132c1578081fd5b81356131568161351c565b6000602082840312156132dd578081fd5b81516131568161351c565b6000602082840312156132f9578081fd5b81516131568161352e565b600083516133168184602088016134cc565b83519083019061332a8183602088016134cc565b01949350505050565b600082516133458184602087016134cc565b9190910192915050565b60008219821115613362576133626134f8565b500190565b600063ffffffff80831681851680830382111561332a5761332a6134f8565b6000826133a157634e487b7160e01b81526012600452602481fd5b500490565b600181815b808511156133e15781600019048211156133c7576133c76134f8565b808516156133d457918102915b93841c93908002906133ab565b509250929050565b600061315660ff84168360008261340257506001613490565b8161340f57506000613490565b8160018114613425576002811461342f5761344b565b6001915050613490565b60ff841115613440576134406134f8565b50506001821b613490565b5060208310610133831016604e8410600b841016171561346e575081810a613490565b61347883836133a6565b806000190482111561348c5761348c6134f8565b0290505b92915050565b60008160001904831182151516156134b0576134b06134f8565b500290565b6000828210156134c7576134c76134f8565b500390565b60005b838110156134e75781810151838201526020016134cf565b83811115610d105750506000910152565b634e487b7160e01b600052601160045260246000fd5b80151581146109b657600080fd5b63ffffffff811681146109b657600080fd5b60ff811681146109b657600080fdfe4d6d416476616e63656428627974657333322073637269707449642c6164647265737320746f6b656e2c616464726573732064656274546f6b656e2c62797465733120616374696f6e2c6279746573312074797065416d742c62797465733120726174654d6f64652c75696e7432353620616d6f756e742c6164647265737320757365722c61646472657373206b6f6e74726163742c61646472657373206578656375746f722c75696e7432353620636861696e49642c42616c616e63652062616c616e63652c4672657175656e6379206672657175656e63792c50726963652070726963652c52657065746974696f6e732072657065746974696f6e732c466f6c6c6f7720666f6c6c6f772c4865616c7468466163746f72206865616c7468466163746f722942616c616e636528626f6f6c20656e61626c65642c6164647265737320746f6b656e2c62797465733120636f6d70617269736f6e2c75696e7432353620616d6f756e7429466f6c6c6f7728626f6f6c20656e61626c65642c75696e743235362073686966742c627974657333322073637269707449642c61646472657373206578656375746f72294672657175656e637928626f6f6c20656e61626c65642c75696e743235362064656c61792c75696e74323536207374617274294865616c7468466163746f7228626f6f6c20656e61626c65642c61646472657373206b6f6e74726163742c62797465733120636f6d70617269736f6e2c75696e7432353620616d6f756e7429507269636528626f6f6c20656e61626c65642c6164647265737320746f6b656e2c62797465733120636f6d70617269736f6e2c75696e743235362076616c75652952657065746974696f6e7328626f6f6c20656e61626c65642c75696e74333220616d6f756e74294672657175656e637928626f6f6c20656e61626c65642c75696e743235362064656c61792c75696e7432353620737461727429466f6c6c6f7728626f6f6c20656e61626c65642c75696e743235362073686966742c627974657333322073637269707449642c61646472657373206578656375746f72294865616c7468466163746f7228626f6f6c20656e61626c65642c61646472657373206b6f6e74726163742c62797465733120636f6d70617269736f6e2c75696e7432353620616d6f756e742942616c616e636528626f6f6c20656e61626c65642c6164647265737320746f6b656e2c62797465733120636f6d70617269736f6e2c75696e7432353620616d6f756e742952657065746974696f6e7328626f6f6c20656e61626c65642c75696e74333220616d6f756e7429507269636528626f6f6c20656e61626c65642c6164647265737320746f6b656e2c62797465733120636f6d70617269736f6e2c75696e743235362076616c756529a2646970667358221220cfcc65ed81fb01d8896312756d1310e7a32ee324c7fed9fc027d947a8990a46964736f6c63430008040033",
  "linkReferences": {},
  "deployedLinkReferences": {}
}