{
  "_format": "hh-sol-artifact-1",
  "contractName": "PriceRetriever",
  "sourceName": "contracts/PriceRetriever.sol",
  "abi": [
    {
      "anonymous": false,
      "inputs": [
        {
          "indexed": true,
          "internalType": "address",
          "name": "previousOwner",
          "type": "address"
        },
        {
          "indexed": true,
          "internalType": "address",
          "name": "newOwner",
          "type": "address"
        }
      ],
      "name": "OwnershipTransferred",
      "type": "event"
    },
    {
      "inputs": [
        {
          "internalType": "address",
          "name": "token",
          "type": "address"
        },
        {
          "internalType": "address",
          "name": "priceFeed",
          "type": "address"
        },
        {
          "internalType": "uint8",
          "name": "tokenDecimals",
          "type": "uint8"
        },
        {
          "internalType": "uint8",
          "name": "priceFeedDecimals",
          "type": "uint8"
        }
      ],
      "name": "addPriceFeed",
      "outputs": [],
      "stateMutability": "nonpayable",
      "type": "function"
    },
    {
      "inputs": [],
      "name": "owner",
      "outputs": [
        {
          "internalType": "address",
          "name": "",
          "type": "address"
        }
      ],
      "stateMutability": "view",
      "type": "function"
    },
    {
      "inputs": [
        {
          "internalType": "address",
          "name": "token",
          "type": "address"
        }
      ],
      "name": "priceOf",
      "outputs": [
        {
          "internalType": "uint256",
          "name": "",
          "type": "uint256"
        }
      ],
      "stateMutability": "view",
      "type": "function"
    },
    {
      "inputs": [
        {
          "internalType": "address",
          "name": "token",
          "type": "address"
        }
      ],
      "name": "removePriceFeed",
      "outputs": [],
      "stateMutability": "nonpayable",
      "type": "function"
    },
    {
      "inputs": [],
      "name": "renounceOwnership",
      "outputs": [],
      "stateMutability": "nonpayable",
      "type": "function"
    },
    {
      "inputs": [
        {
          "internalType": "address",
          "name": "newOwner",
          "type": "address"
        }
      ],
      "name": "transferOwnership",
      "outputs": [],
      "stateMutability": "nonpayable",
      "type": "function"
    }
  ],
  "bytecode": "0x608060405234801561001057600080fd5b5061001a3361001f565b61006f565b600080546001600160a01b038381166001600160a01b0319831681178455604051919092169283917f8be0079c531659141344cd1fd0a4f28419497f9722a3daafe3b4186f6b6457e09190a35050565b61088b8061007e6000396000f3fe608060405234801561001057600080fd5b50600436106100625760003560e01c8063715018a6146100675780638da5cb5b14610071578063992fa3a214610091578063b95ed06f146100a4578063f2fde38b146100c5578063fceb0024146100d8575b600080fd5b61006f6100eb565b005b6000546040516001600160a01b0390911681526020015b60405180910390f35b61006f61009f36600461064d565b61012a565b6100b76100b2366004610633565b610252565b604051908152602001610088565b61006f6100d3366004610633565b6103f5565b61006f6100e6366004610633565b610490565b6000546001600160a01b0316331461011e5760405162461bcd60e51b8152600401610115906106b8565b60405180910390fd5b6101286000610559565b565b6000546001600160a01b031633146101545760405162461bcd60e51b8152600401610115906106b8565b6001600160a01b0384811660009081526001602052604090205416156101d45760405162461bcd60e51b815260206004820152602f60248201527f5b50726963655265747269657665725d20546f6b656e20616c7265616479206860448201526e185cc818481c1c9a58d94819995959608a1b6064820152608401610115565b604080516060810182526001600160a01b03948516815260ff93841660208083019182529385168284019081529686166000908152600190945291909220915182549151955194166001600160a81b031990911617600160a01b948316949094029390931760ff60a81b1916600160a81b9290911691909102179055565b6001600160a01b038181166000908152600160205260408120549091166102c65760405162461bcd60e51b815260206004820152602260248201527f5b50726963655265747269657665725d20556e737570706f7274656420746f6b60448201526132b760f11b6064820152608401610115565b6001600160a01b0380831660009081526001602090815260408083205481516350d25bcd60e01b81529151939416926350d25bcd92600480840193919291829003018186803b15801561031857600080fd5b505afa15801561032c573d6000803e3d6000fd5b505050506040513d601f19601f8201168201806040525081019061035091906106a0565b9050600081136103b65760405162461bcd60e51b815260206004820152602b60248201527f5b50726963655265747269657665725d20556e737570706f72746564206e656760448201526a61746976652076616c756560a81b6064820152608401610115565b6001600160a01b0383166000908152600160205260409020546103ee90829060ff600160a01b8204811691600160a81b9004166105a9565b9392505050565b6000546001600160a01b0316331461041f5760405162461bcd60e51b8152600401610115906106b8565b6001600160a01b0381166104845760405162461bcd60e51b815260206004820152602660248201527f4f776e61626c653a206e6577206f776e657220697320746865207a65726f206160448201526564647265737360d01b6064820152608401610115565b61048d81610559565b50565b6000546001600160a01b031633146104ba5760405162461bcd60e51b8152600401610115906106b8565b6001600160a01b03818116600090815260016020526040902054166105325760405162461bcd60e51b815260206004820152602860248201527f5b50726963655265747269657665725d20546f6b656e20686173206e6f2070726044820152671a58d9481999595960c21b6064820152608401610115565b6001600160a01b0316600090815260016020526040902080546001600160b01b0319169055565b600080546001600160a01b038381166001600160a01b0319831681178455604051919092169283917f8be0079c531659141344cd1fd0a4f28419497f9722a3daafe3b4186f6b6457e09190a35050565b60008160ff168360ff1611156105df576105c3828461081c565b6105ce90600a610750565b6105d890856107fd565b90506103ee565b6105e9838361081c565b6105f490600a610750565b6105fe90856106ed565b949350505050565b80356001600160a01b038116811461061d57600080fd5b919050565b803560ff8116811461061d57600080fd5b600060208284031215610644578081fd5b6103ee82610606565b60008060008060808587031215610662578283fd5b61066b85610606565b935061067960208601610606565b925061068760408601610622565b915061069560608601610622565b905092959194509250565b6000602082840312156106b1578081fd5b5051919050565b6020808252818101527f4f776e61626c653a2063616c6c6572206973206e6f7420746865206f776e6572604082015260600190565b60008261070857634e487b7160e01b81526012600452602481fd5b500490565b600181815b8085111561074857816000190482111561072e5761072e61083f565b8085161561073b57918102915b93841c9390800290610712565b509250929050565b60006103ee60ff841683600082610769575060016107f7565b81610776575060006107f7565b816001811461078c5760028114610796576107b2565b60019150506107f7565b60ff8411156107a7576107a761083f565b50506001821b6107f7565b5060208310610133831016604e8410600b84101617156107d5575081810a6107f7565b6107df838361070d565b80600019048211156107f3576107f361083f565b0290505b92915050565b60008160001904831182151516156108175761081761083f565b500290565b600060ff821660ff8416808210156108365761083661083f565b90039392505050565b634e487b7160e01b600052601160045260246000fdfea26469706673582212207f373ef20b20a0db171a2c4ec1f53b40d90c952e0cdeb4abbb7a08e39e6d634e64736f6c63430008040033",
  "linkReferences": {},
  "deployedLinkReferences": {}
}