{
  "_format": "hh-sol-artifact-1",
  "contractName": "PriceRetriever",
  "sourceName": "contracts/PriceRetriever.sol",
  "abi": [
    {
      "anonymous": false,
      "inputs": [
        {
          "indexed": true,
          "internalType": "address",
          "name": "previousOwner",
          "type": "address"
        },
        {
          "indexed": true,
          "internalType": "address",
          "name": "newOwner",
          "type": "address"
        }
      ],
      "name": "OwnershipTransferred",
      "type": "event"
    },
    {
      "inputs": [
        {
          "internalType": "address",
          "name": "token",
          "type": "address"
        },
        {
          "internalType": "address",
          "name": "priceFeed",
          "type": "address"
        },
        {
          "internalType": "uint8",
          "name": "tokenDecimals",
          "type": "uint8"
        },
        {
          "internalType": "uint8",
          "name": "priceFeedDecimals",
          "type": "uint8"
        }
      ],
      "name": "addPriceFeed",
      "outputs": [],
      "stateMutability": "nonpayable",
      "type": "function"
    },
    {
      "inputs": [],
      "name": "owner",
      "outputs": [
        {
          "internalType": "address",
          "name": "",
          "type": "address"
        }
      ],
      "stateMutability": "view",
      "type": "function"
    },
    {
      "inputs": [
        {
          "internalType": "address",
          "name": "token",
          "type": "address"
        }
      ],
      "name": "priceOf",
      "outputs": [
        {
          "internalType": "uint256",
          "name": "",
          "type": "uint256"
        }
      ],
      "stateMutability": "view",
      "type": "function"
    },
    {
      "inputs": [
        {
          "internalType": "address",
          "name": "token",
          "type": "address"
        }
      ],
      "name": "removePriceFeed",
      "outputs": [],
      "stateMutability": "nonpayable",
      "type": "function"
    },
    {
      "inputs": [],
      "name": "renounceOwnership",
      "outputs": [],
      "stateMutability": "nonpayable",
      "type": "function"
    },
    {
      "inputs": [
        {
          "internalType": "address",
          "name": "newOwner",
          "type": "address"
        }
      ],
      "name": "transferOwnership",
      "outputs": [],
      "stateMutability": "nonpayable",
      "type": "function"
    }
  ],
  "bytecode": "0x608060405234801561001057600080fd5b5061001a3361001f565b61006f565b600080546001600160a01b038381166001600160a01b0319831681178455604051919092169283917f8be0079c531659141344cd1fd0a4f28419497f9722a3daafe3b4186f6b6457e09190a35050565b610a058061007e6000396000f3fe608060405234801561001057600080fd5b50600436106100725760003560e01c8063b95ed06f11610050578063b95ed06f146100b4578063f2fde38b146100d5578063fceb0024146100e857600080fd5b8063715018a6146100775780638da5cb5b14610081578063992fa3a2146100a1575b600080fd5b61007f6100fb565b005b6000546040516001600160a01b0390911681526020015b60405180910390f35b61007f6100af3660046107fc565b610166565b6100c76100c23660046107e2565b6102ff565b604051908152602001610098565b61007f6100e33660046107e2565b6104e8565b61007f6100f63660046107e2565b6105ca565b6000546001600160a01b0316331461015a5760405162461bcd60e51b815260206004820181905260248201527f4f776e61626c653a2063616c6c6572206973206e6f7420746865206f776e657260448201526064015b60405180910390fd5b61016460006106f0565b565b6000546001600160a01b031633146101c05760405162461bcd60e51b815260206004820181905260248201527f4f776e61626c653a2063616c6c6572206973206e6f7420746865206f776e65726044820152606401610151565b6001600160a01b03848116600090815260016020526040902054161561024e5760405162461bcd60e51b815260206004820152602f60248201527f5b50726963655265747269657665725d20546f6b656e20616c7265616479206860448201527f61732061207072696365206665656400000000000000000000000000000000006064820152608401610151565b604080516060810182526001600160a01b03948516815260ff93841660208083019182529385168284019081529686166000908152600190945291909220915182549151955194167fffffffffffffffffffffff00000000000000000000000000000000000000000090911617600160a01b94831694909402939093177fffffffffffffffffffff00ffffffffffffffffffffffffffffffffffffffffff16600160a81b9290911691909102179055565b6001600160a01b0381811660009081526001602052604081205490911661038e5760405162461bcd60e51b815260206004820152602260248201527f5b50726963655265747269657665725d20556e737570706f7274656420746f6b60448201527f656e0000000000000000000000000000000000000000000000000000000000006064820152608401610151565b6001600160a01b0380831660009081526001602090815260408083205481517f50d25bcd0000000000000000000000000000000000000000000000000000000081529151939416926350d25bcd92600480840193919291829003018186803b1580156103f957600080fd5b505afa15801561040d573d6000803e3d6000fd5b505050506040513d601f19601f82011682018060405250810190610431919061084f565b9050600081136104a95760405162461bcd60e51b815260206004820152602b60248201527f5b50726963655265747269657665725d20556e737570706f72746564206e656760448201527f61746976652076616c75650000000000000000000000000000000000000000006064820152608401610151565b6001600160a01b0383166000908152600160205260409020546104e190829060ff600160a01b8204811691600160a81b900416610758565b9392505050565b6000546001600160a01b031633146105425760405162461bcd60e51b815260206004820181905260248201527f4f776e61626c653a2063616c6c6572206973206e6f7420746865206f776e65726044820152606401610151565b6001600160a01b0381166105be5760405162461bcd60e51b815260206004820152602660248201527f4f776e61626c653a206e6577206f776e657220697320746865207a65726f206160448201527f64647265737300000000000000000000000000000000000000000000000000006064820152608401610151565b6105c7816106f0565b50565b6000546001600160a01b031633146106245760405162461bcd60e51b815260206004820181905260248201527f4f776e61626c653a2063616c6c6572206973206e6f7420746865206f776e65726044820152606401610151565b6001600160a01b03818116600090815260016020526040902054166106b15760405162461bcd60e51b815260206004820152602860248201527f5b50726963655265747269657665725d20546f6b656e20686173206e6f20707260448201527f69636520666565640000000000000000000000000000000000000000000000006064820152608401610151565b6001600160a01b0316600090815260016020526040902080547fffffffffffffffffffff00000000000000000000000000000000000000000000169055565b600080546001600160a01b038381167fffffffffffffffffffffffff0000000000000000000000000000000000000000831681178455604051919092169283917f8be0079c531659141344cd1fd0a4f28419497f9722a3daafe3b4186f6b6457e09190a35050565b60008160ff168360ff16111561078e576107728284610996565b61077d90600a6108ca565b6107879085610977565b90506104e1565b6107988383610996565b6107a390600a6108ca565b6107ad9085610867565b949350505050565b80356001600160a01b03811681146107cc57600080fd5b919050565b803560ff811681146107cc57600080fd5b6000602082840312156107f3578081fd5b6104e1826107b5565b60008060008060808587031215610811578283fd5b61081a856107b5565b9350610828602086016107b5565b9250610836604086016107d1565b9150610844606086016107d1565b905092959194509250565b600060208284031215610860578081fd5b5051919050565b60008261088257634e487b7160e01b81526012600452602481fd5b500490565b600181815b808511156108c25781600019048211156108a8576108a86109b9565b808516156108b557918102915b93841c939080029061088c565b509250929050565b60006104e160ff8416836000826108e357506001610971565b816108f057506000610971565b816001811461090657600281146109105761092c565b6001915050610971565b60ff841115610921576109216109b9565b50506001821b610971565b5060208310610133831016604e8410600b841016171561094f575081810a610971565b6109598383610887565b806000190482111561096d5761096d6109b9565b0290505b92915050565b6000816000190483118215151615610991576109916109b9565b500290565b600060ff821660ff8416808210156109b0576109b06109b9565b90039392505050565b634e487b7160e01b600052601160045260246000fdfea2646970667358221220add9d3819efab2ad7d5e4971774a443d91bcf60553a916822691198f9e45015864736f6c63430008040033",
  "linkReferences": {},
  "deployedLinkReferences": {}
}