{
  "_format": "hh-sol-artifact-1",
  "contractName": "SwapperScriptExecutor",
  "sourceName": "contracts/SwapperScriptExecutor.sol",
  "abi": [
    {
      "anonymous": false,
      "inputs": [
        {
          "indexed": true,
          "internalType": "address",
          "name": "previousOwner",
          "type": "address"
        },
        {
          "indexed": true,
          "internalType": "address",
          "name": "newOwner",
          "type": "address"
        }
      ],
      "name": "OwnershipTransferred",
      "type": "event"
    },
    {
      "inputs": [],
      "name": "MINIMUM_GAS_FOR_SCRIPT_EXECUTION",
      "outputs": [
        {
          "internalType": "uint256",
          "name": "",
          "type": "uint256"
        }
      ],
      "stateMutability": "view",
      "type": "function"
    },
    {
      "inputs": [
        {
          "components": [
            {
              "internalType": "bytes32",
              "name": "scriptId",
              "type": "bytes32"
            },
            {
              "internalType": "address",
              "name": "tokenFrom",
              "type": "address"
            },
            {
              "internalType": "address",
              "name": "tokenTo",
              "type": "address"
            },
            {
              "internalType": "uint256",
              "name": "amount",
              "type": "uint256"
            },
            {
              "internalType": "address",
              "name": "user",
              "type": "address"
            },
            {
              "internalType": "address",
              "name": "executor",
              "type": "address"
            },
            {
              "internalType": "uint256",
              "name": "chainId",
              "type": "uint256"
            },
            {
              "components": [
                {
                  "internalType": "bool",
                  "name": "enabled",
                  "type": "bool"
                },
                {
                  "internalType": "address",
                  "name": "token",
                  "type": "address"
                },
                {
                  "internalType": "bytes1",
                  "name": "comparison",
                  "type": "bytes1"
                },
                {
                  "internalType": "uint256",
                  "name": "amount",
                  "type": "uint256"
                }
              ],
              "internalType": "struct Balance",
              "name": "balance",
              "type": "tuple"
            },
            {
              "components": [
                {
                  "internalType": "bool",
                  "name": "enabled",
                  "type": "bool"
                },
                {
                  "internalType": "uint256",
                  "name": "blocks",
                  "type": "uint256"
                },
                {
                  "internalType": "uint256",
                  "name": "startBlock",
                  "type": "uint256"
                }
              ],
              "internalType": "struct Frequency",
              "name": "frequency",
              "type": "tuple"
            },
            {
              "components": [
                {
                  "internalType": "bool",
                  "name": "enabled",
                  "type": "bool"
                },
                {
                  "internalType": "address",
                  "name": "token",
                  "type": "address"
                },
                {
                  "internalType": "bytes1",
                  "name": "comparison",
                  "type": "bytes1"
                },
                {
                  "internalType": "uint256",
                  "name": "value",
                  "type": "uint256"
                }
              ],
              "internalType": "struct Price",
              "name": "price",
              "type": "tuple"
            },
            {
              "components": [
                {
                  "internalType": "bool",
                  "name": "enabled",
                  "type": "bool"
                },
                {
                  "internalType": "uint32",
                  "name": "amount",
                  "type": "uint32"
                }
              ],
              "internalType": "struct Repetitions",
              "name": "repetitions",
              "type": "tuple"
            },
            {
              "components": [
                {
                  "internalType": "bool",
                  "name": "enabled",
                  "type": "bool"
                },
                {
                  "internalType": "uint256",
                  "name": "shift",
                  "type": "uint256"
                },
                {
                  "internalType": "bytes32",
                  "name": "scriptId",
                  "type": "bytes32"
                },
                {
                  "internalType": "address",
                  "name": "executor",
                  "type": "address"
                }
              ],
              "internalType": "struct Follow",
              "name": "follow",
              "type": "tuple"
            }
          ],
          "internalType": "struct Swap",
          "name": "message",
          "type": "tuple"
        },
        {
          "internalType": "bytes32",
          "name": "r",
          "type": "bytes32"
        },
        {
          "internalType": "bytes32",
          "name": "s",
          "type": "bytes32"
        },
        {
          "internalType": "uint8",
          "name": "v",
          "type": "uint8"
        }
      ],
      "name": "execute",
      "outputs": [],
      "stateMutability": "nonpayable",
      "type": "function"
    },
    {
      "inputs": [
        {
          "internalType": "bytes32",
          "name": "_id",
          "type": "bytes32"
        }
      ],
      "name": "getRepetitions",
      "outputs": [
        {
          "internalType": "uint32",
          "name": "",
          "type": "uint32"
        }
      ],
      "stateMutability": "view",
      "type": "function"
    },
    {
      "inputs": [],
      "name": "owner",
      "outputs": [
        {
          "internalType": "address",
          "name": "",
          "type": "address"
        }
      ],
      "stateMutability": "view",
      "type": "function"
    },
    {
      "inputs": [],
      "name": "renounceOwnership",
      "outputs": [],
      "stateMutability": "nonpayable",
      "type": "function"
    },
    {
      "inputs": [
        {
          "internalType": "bytes32",
          "name": "_id",
          "type": "bytes32"
        }
      ],
      "name": "revoke",
      "outputs": [],
      "stateMutability": "nonpayable",
      "type": "function"
    },
    {
      "inputs": [
        {
          "internalType": "address",
          "name": "_brgToken",
          "type": "address"
        }
      ],
      "name": "setBrgToken",
      "outputs": [],
      "stateMutability": "nonpayable",
      "type": "function"
    },
    {
      "inputs": [
        {
          "internalType": "address",
          "name": "_exchange",
          "type": "address"
        }
      ],
      "name": "setExchange",
      "outputs": [],
      "stateMutability": "nonpayable",
      "type": "function"
    },
    {
      "inputs": [
        {
          "internalType": "address",
          "name": "_gasTank",
          "type": "address"
        }
      ],
      "name": "setGasTank",
      "outputs": [],
      "stateMutability": "nonpayable",
      "type": "function"
    },
    {
      "inputs": [
        {
          "internalType": "uint256",
          "name": "_amount",
          "type": "uint256"
        }
      ],
      "name": "setMinimumGas",
      "outputs": [],
      "stateMutability": "nonpayable",
      "type": "function"
    },
    {
      "inputs": [
        {
          "internalType": "address",
          "name": "_priceRetriever",
          "type": "address"
        }
      ],
      "name": "setPriceRetriever",
      "outputs": [],
      "stateMutability": "nonpayable",
      "type": "function"
    },
    {
      "inputs": [
        {
          "internalType": "address",
          "name": "newOwner",
          "type": "address"
        }
      ],
      "name": "transferOwnership",
      "outputs": [],
      "stateMutability": "nonpayable",
      "type": "function"
    },
    {
      "inputs": [
        {
          "components": [
            {
              "internalType": "bytes32",
              "name": "scriptId",
              "type": "bytes32"
            },
            {
              "internalType": "address",
              "name": "tokenFrom",
              "type": "address"
            },
            {
              "internalType": "address",
              "name": "tokenTo",
              "type": "address"
            },
            {
              "internalType": "uint256",
              "name": "amount",
              "type": "uint256"
            },
            {
              "internalType": "address",
              "name": "user",
              "type": "address"
            },
            {
              "internalType": "address",
              "name": "executor",
              "type": "address"
            },
            {
              "internalType": "uint256",
              "name": "chainId",
              "type": "uint256"
            },
            {
              "components": [
                {
                  "internalType": "bool",
                  "name": "enabled",
                  "type": "bool"
                },
                {
                  "internalType": "address",
                  "name": "token",
                  "type": "address"
                },
                {
                  "internalType": "bytes1",
                  "name": "comparison",
                  "type": "bytes1"
                },
                {
                  "internalType": "uint256",
                  "name": "amount",
                  "type": "uint256"
                }
              ],
              "internalType": "struct Balance",
              "name": "balance",
              "type": "tuple"
            },
            {
              "components": [
                {
                  "internalType": "bool",
                  "name": "enabled",
                  "type": "bool"
                },
                {
                  "internalType": "uint256",
                  "name": "blocks",
                  "type": "uint256"
                },
                {
                  "internalType": "uint256",
                  "name": "startBlock",
                  "type": "uint256"
                }
              ],
              "internalType": "struct Frequency",
              "name": "frequency",
              "type": "tuple"
            },
            {
              "components": [
                {
                  "internalType": "bool",
                  "name": "enabled",
                  "type": "bool"
                },
                {
                  "internalType": "address",
                  "name": "token",
                  "type": "address"
                },
                {
                  "internalType": "bytes1",
                  "name": "comparison",
                  "type": "bytes1"
                },
                {
                  "internalType": "uint256",
                  "name": "value",
                  "type": "uint256"
                }
              ],
              "internalType": "struct Price",
              "name": "price",
              "type": "tuple"
            },
            {
              "components": [
                {
                  "internalType": "bool",
                  "name": "enabled",
                  "type": "bool"
                },
                {
                  "internalType": "uint32",
                  "name": "amount",
                  "type": "uint32"
                }
              ],
              "internalType": "struct Repetitions",
              "name": "repetitions",
              "type": "tuple"
            },
            {
              "components": [
                {
                  "internalType": "bool",
                  "name": "enabled",
                  "type": "bool"
                },
                {
                  "internalType": "uint256",
                  "name": "shift",
                  "type": "uint256"
                },
                {
                  "internalType": "bytes32",
                  "name": "scriptId",
                  "type": "bytes32"
                },
                {
                  "internalType": "address",
                  "name": "executor",
                  "type": "address"
                }
              ],
              "internalType": "struct Follow",
              "name": "follow",
              "type": "tuple"
            }
          ],
          "internalType": "struct Swap",
          "name": "message",
          "type": "tuple"
        },
        {
          "internalType": "bytes32",
          "name": "r",
          "type": "bytes32"
        },
        {
          "internalType": "bytes32",
          "name": "s",
          "type": "bytes32"
        },
        {
          "internalType": "uint8",
          "name": "v",
          "type": "uint8"
        }
      ],
      "name": "verify",
      "outputs": [],
      "stateMutability": "view",
      "type": "function"
    },
    {
      "inputs": [
        {
          "internalType": "address",
          "name": "user",
          "type": "address"
        }
      ],
      "name": "verifyGasTank",
      "outputs": [],
      "stateMutability": "view",
      "type": "function"
    },
    {
      "inputs": [
        {
          "internalType": "address",
          "name": "user",
          "type": "address"
        },
        {
          "internalType": "bytes32",
          "name": "id",
          "type": "bytes32"
        }
      ],
      "name": "verifyRevocation",
      "outputs": [],
      "stateMutability": "view",
      "type": "function"
    }
  ],
  "bytecode": "0x6080604052670de0b6b3a764000060085534801561001c57600080fd5b506100263361002f565b4660045561007f565b600080546001600160a01b038381166001600160a01b0319831681178455604051919092169283917f8be0079c531659141344cd1fd0a4f28419497f9722a3daafe3b4186f6b6457e09190a35050565b6122908061008e6000396000f3fe608060405234801561001057600080fd5b50600436106100f55760003560e01c80637ea42ebe11610097578063b75c7dc611610066578063b75c7dc6146101fb578063f2fde38b1461022f578063f722163914610242578063f87d57811461025557600080fd5b80637ea42ebe1461017f5780638d2869f2146101ba5780638da5cb5b146101cd5780639b633e10146101e857600080fd5b80634ead94a3116100d35780634ead94a31461013e57806367b1f5df14610151578063715018a6146101645780637ca65cdc1461016c57600080fd5b8063022c9105146100fa578063080e46911461010f57806343e297b21461012b575b600080fd5b61010d610108366004611ce1565b610268565b005b61011860085481565b6040519081526020015b60405180910390f35b61010d610139366004611b5f565b610593565b61010d61014c366004611b80565b6105df565b61010d61015f366004611b5f565b610663565b61010d6106af565b61010d61017a366004611b5f565b6106e5565b6101a561018d366004611cc9565b60009081526002602052604090205463ffffffff1690565b60405163ffffffff9091168152602001610122565b61010d6101c8366004611cc9565b6107c9565b6000546040516001600160a01b039091168152602001610122565b61010d6101f6366004611b5f565b6107f8565b61010d610209366004611cc9565b33600090815260036020908152604080832093835292905220805460ff19166001179055565b61010d61023d366004611b5f565b610844565b61010d610250366004611ce1565b6108dc565b61010d610263366004611b5f565b610a9f565b610274848484846108dc565b6009546001600160a01b03166102db5760405162461bcd60e51b815260206004820152602160248201527f45786368616e6765206164647265737320686173206e6f74206265656e2073656044820152601d60fa1b60648201526084015b60405180910390fd5b833560009081526001602081815260408084204390556002909152822080549192909161030f90849063ffffffff16611e8f565b92506101000a81548163ffffffff021916908363ffffffff16021790555060008460200160208101906103429190611b5f565b90506001600160a01b0381166323b872dd61036360a0880160808901611b5f565b6040516001600160e01b031960e084901b1681526001600160a01b03909116600482015230602482015260608801356044820152606401602060405180830381600087803b1580156103b457600080fd5b505af11580156103c8573d6000803e3d6000fd5b505050506040513d601f19601f820116820180604052508101906103ec9190611c85565b5060408051600280825260608201835260009260208301908036833701905050905061041e6040870160208801611b5f565b8160008151811061043f57634e487b7160e01b600052603260045260246000fd5b6001600160a01b03909216602092830291909101909101526104676060870160408801611b5f565b8160018151811061048857634e487b7160e01b600052603260045260246000fd5b6001600160a01b0392831660209182029290920181019190915260095482166000908152600a82526040808220938616825292909152205460ff166104de576009546104de9083906001600160a01b0316610aeb565b6009546001600160a01b03166338ed1739606088013560008461050760a08c0160808d01611b5f565b61051442620927c0611e77565b6040518663ffffffff1660e01b8152600401610534959493929190611e07565b600060405180830381600087803b15801561054e57600080fd5b505af1158015610562573d6000803e3d6000fd5b505050506040513d6000823e601f3d908101601f1916820160405261058a9190810190611ba9565b50505050505050565b6000546001600160a01b031633146105bd5760405162461bcd60e51b81526004016102d290611dd2565b600680546001600160a01b0319166001600160a01b0392909216919091179055565b6001600160a01b038216600090815260036020908152604080832084845290915290205460ff161561065f5760405162461bcd60e51b815260206004820152602360248201527f53637269707420686173206265656e207265766f6b656420627920746865207560448201526239b2b960e91b60648201526084016102d2565b5050565b6000546001600160a01b0316331461068d5760405162461bcd60e51b81526004016102d290611dd2565b600980546001600160a01b0319166001600160a01b0392909216919091179055565b6000546001600160a01b031633146106d95760405162461bcd60e51b81526004016102d290611dd2565b6106e36000610ba4565b565b6008546006546040516370a0823160e01b81526001600160a01b038481166004830152909116906370a082319060240160206040518083038186803b15801561072d57600080fd5b505afa158015610741573d6000803e3d6000fd5b505050506040513d601f19601f820116820180604052508101906107659190611d37565b10156107c65760405162461bcd60e51b815260206004820152602a60248201527f5b47617320436f6e646974696f6e5d204e6f7420656e6f7567682067617320696044820152696e207468652074616e6b60b01b60648201526084016102d2565b50565b6000546001600160a01b031633146107f35760405162461bcd60e51b81526004016102d290611dd2565b600855565b6000546001600160a01b031633146108225760405162461bcd60e51b81526004016102d290611dd2565b600580546001600160a01b0319166001600160a01b0392909216919091179055565b6000546001600160a01b0316331461086e5760405162461bcd60e51b81526004016102d290611dd2565b6001600160a01b0381166108d35760405162461bcd60e51b815260206004820152602660248201527f4f776e61626c653a206e6577206f776e657220697320746865207a65726f206160448201526564647265737360d01b60648201526084016102d2565b6107c681610ba4565b6108f66108ef60a0860160808701611b5f565b85356105df565b61090284848484610bf4565b61091160016060860135611eae565b6109216040860160208701611b5f565b6001600160a01b03166370a0823161093f60a0880160808901611b5f565b6040516001600160e01b031960e084901b1681526001600160a01b03909116600482015260240160206040518083038186803b15801561097e57600080fd5b505afa158015610992573d6000803e3d6000fd5b505050506040513d601f19601f820116820180604052508101906109b69190611d37565b11610a035760405162461bcd60e51b815260206004820181905260248201527f5573657220646f65736e2774206861766520656e6f7567682062616c616e636560448201526064016102d2565b610a1261024085018535610d0b565b610a2161028085018535610dd4565b610a3061016085018535610f6c565b610a4c60e08501610a4760a0870160808801611b5f565b611149565b610a59846101c001611311565b610a6c61017a60a0860160808701611b5f565b610a99610a7f60a0860160808701611b5f565b610a8f6040870160208801611b5f565b86606001356114f7565b50505050565b6000546001600160a01b03163314610ac95760405162461bcd60e51b81526004016102d290611dd2565b600780546001600160a01b0319166001600160a01b0392909216919091179055565b60405163095ea7b360e01b81526001600160a01b038281166004830152600019602483015283169063095ea7b390604401602060405180830381600087803b158015610b3657600080fd5b505af1158015610b4a573d6000803e3d6000fd5b505050506040513d601f19601f82011682018060405250810190610b6e9190611c85565b506001600160a01b039081166000908152600a60209081526040808320949093168252929092529020805460ff19166001179055565b600080546001600160a01b038381166001600160a01b0319831681178455604051919092169283917f8be0079c531659141344cd1fd0a4f28419497f9722a3daafe3b4186f6b6457e09190a35050565b6004548460c0013514610c375760405162461bcd60e51b815260206004820152600b60248201526a2bb937b7339031b430b4b760a91b60448201526064016102d2565b6001610c4285611605565b6040805160008152602081018083529290925260ff841690820152606081018590526080810184905260a0016020604051602081039080840390855afa158015610c90573d6000803e3d6000fd5b5050604051601f1901516001600160a01b03169050610cb560a0860160808701611b5f565b6001600160a01b031614610a995760405162461bcd60e51b815260206004820152601860248201527f5369676e617475726520646f6573206e6f74206d61746368000000000000000060448201526064016102d2565b610d186020830183611c69565b610d20575050565b610d306040830160208401611d4f565b60008281526002602052604090205463ffffffff91821691161061065f5760405162461bcd60e51b815260206004820152604f60248201527f5b52657065746974696f6e7320436f6e646974696f6e5d20546865207363726960448201527f707420686173207265616368656420697473206d6178696d756d206e756d626560648201526e72206f6620657865637574696f6e7360881b608482015260a4016102d2565b610de16020830183611c69565b610de9575050565b600030610dfc6080850160608601611b5f565b6001600160a01b031614610ea057610e1a6080840160608501611b5f565b6001600160a01b0316637ea42ebe84604001356040518263ffffffff1660e01b8152600401610e4b91815260200190565b60206040518083038186803b158015610e6357600080fd5b505afa158015610e77573d6000803e3d6000fd5b505050506040513d601f19601f82011682018060405250810190610e9b9190611d6b565b610eb9565b60408084013560009081526002602052205463ffffffff165b600083815260026020908152604090912054919250610ee291908501359063ffffffff16611e77565b8163ffffffff1611610f675760405162461bcd60e51b815260206004820152604260248201527f5b466f6c6c6f7720436f6e646974696f6e5d2054686520706172656e7420736360448201527f7269707420686173206e6f74206265656e202872652965786563757465642079606482015261195d60f21b608482015260a4016102d2565b505050565b610f796020830183611c69565b610f81575050565b6000818152600160205260409020541561103a57600081815260016020908152604090912054610fb49184013590611e77565b431161065f5760405162461bcd60e51b815260206004820152604960248201527f5b4672657175656e637920436f6e646974696f6e5d204e6f7420656e6f75676860448201527f2074696d6520686173207061737365642073696e636520746865206c6173742060648201526832bc32b1baba34b7b760b91b608482015260a4016102d2565b81604001354310156110b45760405162461bcd60e51b815260206004820152603a60248201527f5b4672657175656e637920436f6e646974696f6e5d20537461727420626c6f6360448201527f6b20686173206e6f74206265656e20726561636865642079657400000000000060648201526084016102d2565b6110c660208301356040840135611e77565b431161065f5760405162461bcd60e51b815260206004820152604660248201527f5b4672657175656e637920436f6e646974696f6e5d204e6f7420656e6f75676860448201527f2074696d6520686173207061737365642073696e63652074686520737461727460648201526520626c6f636b60d01b608482015260a4016102d2565b6111566020830183611c69565b61115e575050565b60006111706040840160208501611b5f565b6040516370a0823160e01b81526001600160a01b0384811660048301529192506000918316906370a082319060240160206040518083038186803b1580156111b757600080fd5b505afa1580156111cb573d6000803e3d6000fd5b505050506040513d601f19601f820116820180604052508101906111ef9190611d37565b90506112016060850160408601611ca1565b6001600160f81b031916611283578360600135811161127e5760405162461bcd60e51b815260206004820152603360248201527f5b42616c616e636520436f6e646974696f6e5d205573657220646f6573206e6f60448201527274206f776e20656e6f75676820746f6b656e7360681b60648201526084016102d2565b610a99565b6112936060850160408601611ca1565b6001600160f81b031916600160f81b1415610a995783606001358110610a995760405162461bcd60e51b815260206004820152602d60248201527f5b42616c616e636520436f6e646974696f6e5d2055736572206f776e7320746f60448201526c6f206d616e7920746f6b656e7360981b60648201526084016102d2565b61131e6020820182611c69565b6113255750565b6007546000906001600160a01b031663b95ed06f6113496040850160208601611b5f565b6040516001600160e01b031960e084901b1681526001600160a01b03909116600482015260240160206040518083038186803b15801561138857600080fd5b505afa15801561139c573d6000803e3d6000fd5b505050506040513d601f19601f820116820180604052508101906113c09190611d37565b90506113d26060830160408401611ca1565b6001600160f81b031916611459578160600135811161065f5760405162461bcd60e51b815260206004820152603a60248201527f5b507269636520436f6e646974696f6e5d20546f6b656e20707269636520697360448201527f206c6f776572207468616e2065787065637465642076616c756500000000000060648201526084016102d2565b6114696060830160408401611ca1565b6001600160f81b031916600160f81b141561065f578160600135811061065f5760405162461bcd60e51b815260206004820152603b60248201527f5b507269636520436f6e646974696f6e5d20546f6b656e20707269636520697360448201527f20686967686572207468616e2065787065637465642076616c7565000000000060648201526084016102d2565b604051636eb1769f60e11b81526001600160a01b03848116600483015230602483015282919084169063dd62ed3e9060440160206040518083038186803b15801561154157600080fd5b505afa158015611555573d6000803e3d6000fd5b505050506040513d601f19601f820116820180604052508101906115799190611d37565b1015610f675760405162461bcd60e51b815260206004820152604f60248201527f5b416c6c6f77616e636520436f6e646974696f6e5d205573657220646964206e60448201527f6f74206769766520656e6f75676820616c6c6f77616e636520746f207468652060648201526e39b1b934b83a1032bc32b1baba37b960891b608482015260a4016102d2565b6000806040518060400160405280601981526020017f454950373132446f6d61696e28737472696e67206e616d65290000000000000081525060405160200161164e9190611db6565b60408051808303601f1901815282825280516020918201208383018352600e84526d42616c726f672d537761702d763160901b938201939093528151908101929092527fe2e23d7e875bc78e262ec39e9b2cd6cf71f3ce9ca8fb38826cdd7e2a243853779082015260600160405160208183030381529060405280519060200120905060006040518061022001604052806101f481526020016120676101f491396040516020016116ff9190611db6565b60405160208183030381529060405280519060200120846000013585602001602081019061172d9190611b5f565b61173d6060880160408901611b5f565b606088013561175260a08a0160808b01611b5f565b61176260c08b0160a08c01611b5f565b6040805160208101989098528701959095526001600160a01b039384166060870152918316608086015260a0850152811660c084810191909152911660e0830152850135610100820152610120016040516020818303038152906040526117cb8560e001611897565b6117d8866101600161196e565b6117e5876101c0016119ec565b6117f28861024001611a17565b6117ff8961028001611aa0565b6040805160208101969096528501939093526060840191909152608083015260a082015260c00160408051601f19818403018152908290526118449291602001611d87565b60408051808303601f19018152828252805160209182012061190160f01b828501526022840195909552604280840195909552815180840390950185526062909201905282519201919091209392505050565b6000604051806080016040528060448152602001611fbb604491396040516020016118c29190611db6565b60408051601f198184030181529190528051602091820120906118e790840184611c69565b6118f76040850160208601611b5f565b6119076060860160408701611ca1565b856060013560405160200161195195949392919094855292151560208501526001600160a01b039190911660408401526001600160f81b0319166060830152608082015260a00190565b604051602081830303815290604052805190602001209050919050565b6000604051806060016040528060398152602001611f3e603991396040516020016119999190611db6565b60408051601f198184030181529190528051602091820120906119be90840184611c69565b604080516020818101949094529115158282015291840135606082015290830135608082015260a001611951565b6000604051806080016040528060418152602001612026604191396040516020016118c29190611db6565b6000604051806060016040528060278152602001611fff60279139604051602001611a429190611db6565b60408051601f19818403018152919052805160209182012090611a6790840184611c69565b611a776040850160208601611d4f565b60405160200161195193929190928352901515602083015263ffffffff16604082015260600190565b6000604051806080016040528060448152602001611f7760449139604051602001611acb9190611db6565b60408051601f19818403018152919052805160209182012090611af090840184611c69565b60208401356040850135611b0a6080870160608801611b5f565b60408051602081019690965293151593850193909352606084019190915260808301526001600160a01b031660a082015260c001611951565b80356001600160a01b0381168114611b5a57600080fd5b919050565b600060208284031215611b70578081fd5b611b7982611b43565b9392505050565b60008060408385031215611b92578081fd5b611b9b83611b43565b946020939093013593505050565b60006020808385031215611bbb578182fd5b825167ffffffffffffffff80821115611bd2578384fd5b818501915085601f830112611be5578384fd5b815181811115611bf757611bf7611f07565b8060051b604051601f19603f83011681018181108582111715611c1c57611c1c611f07565b604052828152858101935084860182860187018a1015611c3a578788fd5b8795505b83861015611c5c578051855260019590950194938601938601611c3e565b5098975050505050505050565b600060208284031215611c7a578081fd5b8135611b7981611f1d565b600060208284031215611c96578081fd5b8151611b7981611f1d565b600060208284031215611cb2578081fd5b81356001600160f81b031981168114611b79578182fd5b600060208284031215611cda578081fd5b5035919050565b600080600080848603610360811215611cf8578283fd5b61030080821215611d07578384fd5b869550850135935050610320840135915061034084013560ff81168114611d2c578182fd5b939692955090935050565b600060208284031215611d48578081fd5b5051919050565b600060208284031215611d60578081fd5b8135611b7981611f2b565b600060208284031215611d7c578081fd5b8151611b7981611f2b565b60008351611d99818460208801611ec5565b835190830190611dad818360208801611ec5565b01949350505050565b60008251611dc8818460208701611ec5565b9190910192915050565b6020808252818101527f4f776e61626c653a2063616c6c6572206973206e6f7420746865206f776e6572604082015260600190565b600060a082018783526020878185015260a0604085015281875180845260c0860191508289019350845b81811015611e565784516001600160a01b031683529383019391830191600101611e31565b50506001600160a01b03969096166060850152505050608001529392505050565b60008219821115611e8a57611e8a611ef1565b500190565b600063ffffffff808316818516808303821115611dad57611dad611ef1565b600082821015611ec057611ec0611ef1565b500390565b60005b83811015611ee0578181015183820152602001611ec8565b83811115610a995750506000910152565b634e487b7160e01b600052601160045260246000fd5b634e487b7160e01b600052604160045260246000fd5b80151581146107c657600080fd5b63ffffffff811681146107c657600080fdfe4672657175656e637928626f6f6c20656e61626c65642c75696e7432353620626c6f636b732c75696e74323536207374617274426c6f636b29466f6c6c6f7728626f6f6c20656e61626c65642c75696e743235362073686966742c627974657333322073637269707449642c61646472657373206578656375746f722942616c616e636528626f6f6c20656e61626c65642c6164647265737320746f6b656e2c62797465733120636f6d70617269736f6e2c75696e7432353620616d6f756e742952657065746974696f6e7328626f6f6c20656e61626c65642c75696e74333220616d6f756e7429507269636528626f6f6c20656e61626c65642c6164647265737320746f6b656e2c62797465733120636f6d70617269736f6e2c75696e743235362076616c7565295377617028627974657333322073637269707449642c6164647265737320746f6b656e46726f6d2c6164647265737320746f6b656e546f2c75696e7432353620616d6f756e742c6164647265737320757365722c61646472657373206578656375746f722c75696e7432353620636861696e49642c42616c616e63652062616c616e63652c4672657175656e6379206672657175656e63792c50726963652070726963652c52657065746974696f6e732072657065746974696f6e732c466f6c6c6f7720666f6c6c6f772942616c616e636528626f6f6c20656e61626c65642c6164647265737320746f6b656e2c62797465733120636f6d70617269736f6e2c75696e7432353620616d6f756e7429466f6c6c6f7728626f6f6c20656e61626c65642c75696e743235362073686966742c627974657333322073637269707449642c61646472657373206578656375746f72294672657175656e637928626f6f6c20656e61626c65642c75696e7432353620626c6f636b732c75696e74323536207374617274426c6f636b29507269636528626f6f6c20656e61626c65642c6164647265737320746f6b656e2c62797465733120636f6d70617269736f6e2c75696e743235362076616c75652952657065746974696f6e7328626f6f6c20656e61626c65642c75696e74333220616d6f756e7429a26469706673582212208adc1394477878ead4152a939cd67b00c1b060af2034e31802f9c7605635963664736f6c63430008040033",
  "linkReferences": {},
  "deployedLinkReferences": {}
}