{
  "_format": "hh-sol-artifact-1",
  "contractName": "SwapperScriptExecutor",
  "sourceName": "contracts/SwapperScriptExecutor.sol",
  "abi": [
    {
      "anonymous": false,
      "inputs": [
        {
          "indexed": true,
          "internalType": "address",
          "name": "previousOwner",
          "type": "address"
        },
        {
          "indexed": true,
          "internalType": "address",
          "name": "newOwner",
          "type": "address"
        }
      ],
      "name": "OwnershipTransferred",
      "type": "event"
    },
    {
      "inputs": [],
      "name": "MINIMUM_GAS_FOR_SCRIPT_EXECUTION",
      "outputs": [
        {
          "internalType": "uint256",
          "name": "",
          "type": "uint256"
        }
      ],
      "stateMutability": "view",
      "type": "function"
    },
    {
      "inputs": [
        {
          "components": [
            {
              "internalType": "bytes32",
              "name": "scriptId",
              "type": "bytes32"
            },
            {
              "internalType": "address",
              "name": "tokenFrom",
              "type": "address"
            },
            {
              "internalType": "address",
              "name": "tokenTo",
              "type": "address"
            },
            {
              "internalType": "uint256",
              "name": "amount",
              "type": "uint256"
            },
            {
              "internalType": "address",
              "name": "user",
              "type": "address"
            },
            {
              "internalType": "address",
              "name": "executor",
              "type": "address"
            },
            {
              "internalType": "uint256",
              "name": "chainId",
              "type": "uint256"
            },
            {
              "components": [
                {
                  "internalType": "bool",
                  "name": "enabled",
                  "type": "bool"
                },
                {
                  "internalType": "address",
                  "name": "token",
                  "type": "address"
                },
                {
                  "internalType": "bytes1",
                  "name": "comparison",
                  "type": "bytes1"
                },
                {
                  "internalType": "uint256",
                  "name": "amount",
                  "type": "uint256"
                }
              ],
              "internalType": "struct Balance",
              "name": "balance",
              "type": "tuple"
            },
            {
              "components": [
                {
                  "internalType": "bool",
                  "name": "enabled",
                  "type": "bool"
                },
                {
                  "internalType": "uint256",
                  "name": "blocks",
                  "type": "uint256"
                },
                {
                  "internalType": "uint256",
                  "name": "startBlock",
                  "type": "uint256"
                }
              ],
              "internalType": "struct Frequency",
              "name": "frequency",
              "type": "tuple"
            },
            {
              "components": [
                {
                  "internalType": "bool",
                  "name": "enabled",
                  "type": "bool"
                },
                {
                  "internalType": "address",
                  "name": "token",
                  "type": "address"
                },
                {
                  "internalType": "bytes1",
                  "name": "comparison",
                  "type": "bytes1"
                },
                {
                  "internalType": "uint256",
                  "name": "value",
                  "type": "uint256"
                }
              ],
              "internalType": "struct Price",
              "name": "price",
              "type": "tuple"
            }
          ],
          "internalType": "struct Swap",
          "name": "message",
          "type": "tuple"
        },
        {
          "internalType": "bytes32",
          "name": "r",
          "type": "bytes32"
        },
        {
          "internalType": "bytes32",
          "name": "s",
          "type": "bytes32"
        },
        {
          "internalType": "uint8",
          "name": "v",
          "type": "uint8"
        }
      ],
      "name": "execute",
      "outputs": [],
      "stateMutability": "nonpayable",
      "type": "function"
    },
    {
      "inputs": [],
      "name": "owner",
      "outputs": [
        {
          "internalType": "address",
          "name": "",
          "type": "address"
        }
      ],
      "stateMutability": "view",
      "type": "function"
    },
    {
      "inputs": [],
      "name": "renounceOwnership",
      "outputs": [],
      "stateMutability": "nonpayable",
      "type": "function"
    },
    {
      "inputs": [
        {
          "internalType": "bytes32",
          "name": "_id",
          "type": "bytes32"
        }
      ],
      "name": "revoke",
      "outputs": [],
      "stateMutability": "nonpayable",
      "type": "function"
    },
    {
      "inputs": [
        {
          "internalType": "address",
          "name": "_brgToken",
          "type": "address"
        }
      ],
      "name": "setBrgToken",
      "outputs": [],
      "stateMutability": "nonpayable",
      "type": "function"
    },
    {
      "inputs": [
        {
          "internalType": "address",
          "name": "_exchange",
          "type": "address"
        }
      ],
      "name": "setExchange",
      "outputs": [],
      "stateMutability": "nonpayable",
      "type": "function"
    },
    {
      "inputs": [
        {
          "internalType": "address",
          "name": "_gasTank",
          "type": "address"
        }
      ],
      "name": "setGasTank",
      "outputs": [],
      "stateMutability": "nonpayable",
      "type": "function"
    },
    {
      "inputs": [
        {
          "internalType": "uint256",
          "name": "_amount",
          "type": "uint256"
        }
      ],
      "name": "setMinimumGas",
      "outputs": [],
      "stateMutability": "nonpayable",
      "type": "function"
    },
    {
      "inputs": [
        {
          "internalType": "address",
          "name": "_priceRetriever",
          "type": "address"
        }
      ],
      "name": "setPriceRetriever",
      "outputs": [],
      "stateMutability": "nonpayable",
      "type": "function"
    },
    {
      "inputs": [
        {
          "internalType": "address",
          "name": "newOwner",
          "type": "address"
        }
      ],
      "name": "transferOwnership",
      "outputs": [],
      "stateMutability": "nonpayable",
      "type": "function"
    },
    {
      "inputs": [
        {
          "components": [
            {
              "internalType": "bytes32",
              "name": "scriptId",
              "type": "bytes32"
            },
            {
              "internalType": "address",
              "name": "tokenFrom",
              "type": "address"
            },
            {
              "internalType": "address",
              "name": "tokenTo",
              "type": "address"
            },
            {
              "internalType": "uint256",
              "name": "amount",
              "type": "uint256"
            },
            {
              "internalType": "address",
              "name": "user",
              "type": "address"
            },
            {
              "internalType": "address",
              "name": "executor",
              "type": "address"
            },
            {
              "internalType": "uint256",
              "name": "chainId",
              "type": "uint256"
            },
            {
              "components": [
                {
                  "internalType": "bool",
                  "name": "enabled",
                  "type": "bool"
                },
                {
                  "internalType": "address",
                  "name": "token",
                  "type": "address"
                },
                {
                  "internalType": "bytes1",
                  "name": "comparison",
                  "type": "bytes1"
                },
                {
                  "internalType": "uint256",
                  "name": "amount",
                  "type": "uint256"
                }
              ],
              "internalType": "struct Balance",
              "name": "balance",
              "type": "tuple"
            },
            {
              "components": [
                {
                  "internalType": "bool",
                  "name": "enabled",
                  "type": "bool"
                },
                {
                  "internalType": "uint256",
                  "name": "blocks",
                  "type": "uint256"
                },
                {
                  "internalType": "uint256",
                  "name": "startBlock",
                  "type": "uint256"
                }
              ],
              "internalType": "struct Frequency",
              "name": "frequency",
              "type": "tuple"
            },
            {
              "components": [
                {
                  "internalType": "bool",
                  "name": "enabled",
                  "type": "bool"
                },
                {
                  "internalType": "address",
                  "name": "token",
                  "type": "address"
                },
                {
                  "internalType": "bytes1",
                  "name": "comparison",
                  "type": "bytes1"
                },
                {
                  "internalType": "uint256",
                  "name": "value",
                  "type": "uint256"
                }
              ],
              "internalType": "struct Price",
              "name": "price",
              "type": "tuple"
            }
          ],
          "internalType": "struct Swap",
          "name": "message",
          "type": "tuple"
        },
        {
          "internalType": "bytes32",
          "name": "r",
          "type": "bytes32"
        },
        {
          "internalType": "bytes32",
          "name": "s",
          "type": "bytes32"
        },
        {
          "internalType": "uint8",
          "name": "v",
          "type": "uint8"
        }
      ],
      "name": "verify",
      "outputs": [],
      "stateMutability": "view",
      "type": "function"
    },
    {
      "inputs": [
        {
          "internalType": "address",
          "name": "user",
          "type": "address"
        }
      ],
      "name": "verifyGasTank",
      "outputs": [],
      "stateMutability": "view",
      "type": "function"
    },
    {
      "inputs": [
        {
          "internalType": "address",
          "name": "user",
          "type": "address"
        },
        {
          "internalType": "bytes32",
          "name": "id",
          "type": "bytes32"
        }
      ],
      "name": "verifyRevocation",
      "outputs": [],
      "stateMutability": "view",
      "type": "function"
    }
  ],
  "bytecode": "0x6080604052670de0b6b3a764000060075534801561001c57600080fd5b506100263361002f565b4660035561007f565b600080546001600160a01b038381166001600160a01b0319831681178455604051919092169283917f8be0079c531659141344cd1fd0a4f28419497f9722a3daafe3b4186f6b6457e09190a35050565b611baf8061008e6000396000f3fe608060405234801561001057600080fd5b50600436106100ea5760003560e01c80638d2869f21161008c5780639b633e10116100665780639b633e10146101b5578063b75c7dc6146101c8578063f2fde38b146101fc578063f87d57811461020f57600080fd5b80638d2869f2146101745780638da5cb5b1461018757806395d8abeb146101a257600080fd5b806367b1f5df116100c857806367b1f5df14610133578063715018a6146101465780637ca65cdc1461014e5780638866822b1461016157600080fd5b8063080e4691146100ef57806343e297b21461010b5780634ead94a314610120575b600080fd5b6100f860075481565b6040519081526020015b60405180910390f35b61011e6101193660046115ab565b610222565b005b61011e61012e3660046115cc565b610277565b61011e6101413660046115ab565b6102fb565b61011e610347565b61011e61015c3660046115ab565b61037d565b61011e61016f3660046116d1565b610461565b61011e6101823660046116b9565b610713565b6000546040516001600160a01b039091168152602001610102565b61011e6101b03660046116d1565b610742565b61011e6101c33660046115ab565b6107bd565b61011e6101d63660046116b9565b33600090815260026020908152604080832093835292905220805460ff19166001179055565b61011e61020a3660046115ab565b610809565b61011e61021d3660046115ab565b6108a1565b6000546001600160a01b031633146102555760405162461bcd60e51b815260040161024c90611810565b60405180910390fd5b600580546001600160a01b0319166001600160a01b0392909216919091179055565b6001600160a01b038216600090815260026020908152604080832084845290915290205460ff16156102f75760405162461bcd60e51b815260206004820152602360248201527f53637269707420686173206265656e207265766f6b656420627920746865207560448201526239b2b960e91b606482015260840161024c565b5050565b6000546001600160a01b031633146103255760405162461bcd60e51b815260040161024c90611810565b600880546001600160a01b0319166001600160a01b0392909216919091179055565b6000546001600160a01b031633146103715760405162461bcd60e51b815260040161024c90611810565b61037b60006108ed565b565b6007546005546040516370a0823160e01b81526001600160a01b038481166004830152909116906370a082319060240160206040518083038186803b1580156103c557600080fd5b505afa1580156103d9573d6000803e3d6000fd5b505050506040513d601f19601f820116820180604052508101906103fd91906117bf565b101561045e5760405162461bcd60e51b815260206004820152602a60248201527f5b47617320436f6e646974696f6e5d204e6f7420656e6f7567682067617320696044820152696e207468652074616e6b60b01b606482015260840161024c565b50565b61046d84848484610742565b6008546001600160a01b03166104cf5760405162461bcd60e51b815260206004820152602160248201527f45786368616e6765206164647265737320686173206e6f74206265656e2073656044820152601d60fa1b606482015260840161024c565b83516000908152600160209081526040918290204390558501516080860151606087015192516323b872dd60e01b81526001600160a01b03918216600482015230602482015260448101939093529091908216906323b872dd90606401602060405180830381600087803b15801561054657600080fd5b505af115801561055a573d6000803e3d6000fd5b505050506040513d601f19601f8201168201806040525081019061057e919061169d565b506040805160028082526060820183526000926020830190803683370190505090508560200151816000815181106105c657634e487b7160e01b600052603260045260246000fd5b60200260200101906001600160a01b031690816001600160a01b03168152505085604001518160018151811061060c57634e487b7160e01b600052603260045260246000fd5b6001600160a01b0392831660209182029290920181019190915260085482166000908152600982526040808220938616825292909152205460ff16610662576008546106629083906001600160a01b031661093d565b600854606087015160808801516001600160a01b03909216916338ed17399190600090859061069442620927c0611910565b6040518663ffffffff1660e01b81526004016106b4959493929190611845565b600060405180830381600087803b1580156106ce57600080fd5b505af11580156106e2573d6000803e3d6000fd5b505050506040513d6000823e601f3d908101601f1916820160405261070a91908101906115f5565b50505050505050565b6000546001600160a01b0316331461073d5760405162461bcd60e51b815260040161024c90611810565b600755565b61075484608001518560000151610277565b610760848484846109f6565b6107738461010001518560000151610b00565b6107858460e001518560800151610cd5565b610793846101200151610e6e565b6107a0846080015161037d565b6107b784608001518560200151866060015161101f565b50505050565b6000546001600160a01b031633146107e75760405162461bcd60e51b815260040161024c90611810565b600480546001600160a01b0319166001600160a01b0392909216919091179055565b6000546001600160a01b031633146108335760405162461bcd60e51b815260040161024c90611810565b6001600160a01b0381166108985760405162461bcd60e51b815260206004820152602660248201527f4f776e61626c653a206e6577206f776e657220697320746865207a65726f206160448201526564647265737360d01b606482015260840161024c565b61045e816108ed565b6000546001600160a01b031633146108cb5760405162461bcd60e51b815260040161024c90611810565b600680546001600160a01b0319166001600160a01b0392909216919091179055565b600080546001600160a01b038381166001600160a01b0319831681178455604051919092169283917f8be0079c531659141344cd1fd0a4f28419497f9722a3daafe3b4186f6b6457e09190a35050565b60405163095ea7b360e01b81526001600160a01b038281166004830152600019602483015283169063095ea7b390604401602060405180830381600087803b15801561098857600080fd5b505af115801561099c573d6000803e3d6000fd5b505050506040513d601f19601f820116820180604052508101906109c0919061169d565b506001600160a01b039081166000908152600960209081526040808320949093168252929092529020805460ff19166001179055565b6003548460c0015114610a395760405162461bcd60e51b815260206004820152600b60248201526a2bb937b7339031b430b4b760a91b604482015260640161024c565b6001610a4485611132565b6040805160008152602081018083529290925260ff841690820152606081018590526080810184905260a0016020604051602081039080840390855afa158015610a92573d6000803e3d6000fd5b505050602060405103516001600160a01b031684608001516001600160a01b0316146107b75760405162461bcd60e51b815260206004820152601860248201527f5369676e617475726520646f6573206e6f74206d617463680000000000000000604482015260640161024c565b8151610b0a575050565b60008181526001602052604090205415610bc45760208083015160008381526001909252604090912054610b3e9190611910565b43116102f75760405162461bcd60e51b815260206004820152604960248201527f5b4672657175656e637920436f6e646974696f6e5d204e6f7420656e6f75676860448201527f2074696d6520686173207061737365642073696e636520746865206c6173742060648201526832bc32b1baba34b7b760b91b608482015260a40161024c565b8160400151431015610c3e5760405162461bcd60e51b815260206004820152603a60248201527f5b4672657175656e637920436f6e646974696f6e5d20537461727420626c6f6360448201527f6b20686173206e6f74206265656e207265616368656420796574000000000000606482015260840161024c565b81602001518260400151610c529190611910565b43116102f75760405162461bcd60e51b815260206004820152604660248201527f5b4672657175656e637920436f6e646974696f6e5d204e6f7420656e6f75676860448201527f2074696d6520686173207061737365642073696e63652074686520737461727460648201526520626c6f636b60d01b608482015260a40161024c565b8151610cdf575050565b60208201516040516370a0823160e01b81526001600160a01b038381166004830152600091908316906370a082319060240160206040518083038186803b158015610d2957600080fd5b505afa158015610d3d573d6000803e3d6000fd5b505050506040513d601f19601f82011682018060405250810190610d6191906117bf565b60408501519091506001600160f81b031916610deb5783606001518111610de65760405162461bcd60e51b815260206004820152603360248201527f5b42616c616e636520436f6e646974696f6e5d205573657220646f6573206e6f60448201527274206f776e20656e6f75676820746f6b656e7360681b606482015260840161024c565b6107b7565b60408401516001600160f81b031916600160f81b14156107b757836060015181106107b75760405162461bcd60e51b815260206004820152602d60248201527f5b42616c616e636520436f6e646974696f6e5d2055736572206f776e7320746f60448201526c6f206d616e7920746f6b656e7360981b606482015260840161024c565b8051610e775750565b600654602082015160405163b95ed06f60e01b81526001600160a01b039182166004820152600092919091169063b95ed06f9060240160206040518083038186803b158015610ec557600080fd5b505afa158015610ed9573d6000803e3d6000fd5b505050506040513d601f19601f82011682018060405250810190610efd91906117bf565b60408301519091506001600160f81b031916610f8c57816060015181116102f75760405162461bcd60e51b815260206004820152603a60248201527f5b507269636520436f6e646974696f6e5d20546f6b656e20707269636520697360448201527f206c6f776572207468616e2065787065637465642076616c7565000000000000606482015260840161024c565b60408201516001600160f81b031916600160f81b14156102f757816060015181106102f75760405162461bcd60e51b815260206004820152603b60248201527f5b507269636520436f6e646974696f6e5d20546f6b656e20707269636520697360448201527f20686967686572207468616e2065787065637465642076616c75650000000000606482015260840161024c565b604051636eb1769f60e11b81526001600160a01b03848116600483015230602483015282919084169063dd62ed3e9060440160206040518083038186803b15801561106957600080fd5b505afa15801561107d573d6000803e3d6000fd5b505050506040513d601f19601f820116820180604052508101906110a191906117bf565b101561112d5760405162461bcd60e51b815260206004820152604f60248201527f5b416c6c6f77616e636520436f6e646974696f6e5d205573657220646964206e60448201527f6f74206769766520656e6f75676820616c6c6f77616e636520746f207468652060648201526e39b1b934b83a1032bc32b1baba37b960891b608482015260a40161024c565b505050565b6000806040518060400160405280601981526020017f454950373132446f6d61696e28737472696e67206e616d65290000000000000081525060405160200161117b91906117d7565b60408051808303601f1901815282825280516020918201208383018352600e84526d42616c726f672d537761702d763160901b938201939093528151908101929092527fe2e23d7e875bc78e262ec39e9b2cd6cf71f3ce9ca8fb38826cdd7e2a24385377908201526060016040516020818303038152906040528051906020012090506000604051806101a001604052806101638152602001611992610163913960405160200161122c91906117d7565b60405160208183030381529060405280519060200120846000015185602001518660400151876060015188608001518960a001518a60c001516112728c60e0015161134a565b6112808d61010001516113f4565b61128e8e6101200151611466565b60408051602081019c909c528b01999099526001600160a01b0397881660608b015295871660808a015260a089019490945291851660c088015290931660e08601526101008501929092526101208401919091526101408301526101608201526101800160408051601f1981840301815290829052805160209182012061190160f01b91830191909152602282018490526042820181905291506062016040516020818303038152906040528051906020012092505050919050565b6000604051806080016040528060448152602001611af56044913960405160200161137591906117d7565b60408051601f198184030181528282528051602091820120855186830151878501516060808a015195880194909452911515948601949094526001600160a01b03909316908401526001600160f81b0319909116608083015260a082015260c0015b604051602081830303815290604052805190602001209050919050565b60006040518060600160405280603981526020016119596039913960405160200161141f91906117d7565b60408051601f19818403018152828252805160209182012085518683015187850151938601929092521515928401929092526060830191909152608082015260a0016113d7565b6000604051806080016040528060418152602001611b396041913960405160200161137591906117d7565b80356001600160a01b03811681146114a857600080fd5b919050565b6000608082840312156114be578081fd5b6040516080810181811067ffffffffffffffff821117156114e1576114e1611934565b60405290508082356114f28161194a565b815261150060208401611491565b602082015260408301356001600160f81b03198116811461152057600080fd5b6040820152606092830135920191909152919050565b600060608284031215611547578081fd5b6040516060810181811067ffffffffffffffff8211171561156a5761156a611934565b604052905080823561157b8161194a565b8082525060208301356020820152604083013560408201525092915050565b803560ff811681146114a857600080fd5b6000602082840312156115bc578081fd5b6115c582611491565b9392505050565b600080604083850312156115de578081fd5b6115e783611491565b946020939093013593505050565b60006020808385031215611607578182fd5b825167ffffffffffffffff8082111561161e578384fd5b818501915085601f830112611631578384fd5b81518181111561164357611643611934565b8060051b91506116548483016118df565b8181528481019084860184860187018a101561166e578788fd5b8795505b83861015611690578051835260019590950194918601918601611672565b5098975050505050505050565b6000602082840312156116ae578081fd5b81516115c58161194a565b6000602082840312156116ca578081fd5b5035919050565b6000806000808486036102a08112156116e8578283fd5b610240808212156116f7578384fd5b6116ff6118b5565b91508635825261171160208801611491565b602083015261172260408801611491565b60408301526060870135606083015261173d60808801611491565b608083015261174e60a08801611491565b60a083015260c087013560c083015261176a8860e089016114ad565b60e083015261177d886101608901611536565b610100830152611791886101c089016114ad565b610120830152909450850135925061026085013591506117b4610280860161159a565b905092959194509250565b6000602082840312156117d0578081fd5b5051919050565b60008251815b818110156117f757602081860181015185830152016117dd565b818111156118055782828501525b509190910192915050565b6020808252818101527f4f776e61626c653a2063616c6c6572206973206e6f7420746865206f776e6572604082015260600190565b600060a082018783526020878185015260a0604085015281875180845260c0860191508289019350845b818110156118945784516001600160a01b03168352938301939183019160010161186f565b50506001600160a01b03969096166060850152505050608001529392505050565b604051610140810167ffffffffffffffff811182821017156118d9576118d9611934565b60405290565b604051601f8201601f1916810167ffffffffffffffff8111828210171561190857611908611934565b604052919050565b6000821982111561192f57634e487b7160e01b81526011600452602481fd5b500190565b634e487b7160e01b600052604160045260246000fd5b801515811461045e57600080fdfe4672657175656e637928626f6f6c20656e61626c65642c75696e7432353620626c6f636b732c75696e74323536207374617274426c6f636b295377617028627974657333322073637269707449642c6164647265737320746f6b656e46726f6d2c6164647265737320746f6b656e546f2c75696e7432353620616d6f756e742c6164647265737320757365722c61646472657373206578656375746f722c75696e7432353620636861696e49642c42616c616e63652062616c616e63652c4672657175656e6379206672657175656e63792c50726963652070726963652942616c616e636528626f6f6c20656e61626c65642c6164647265737320746f6b656e2c62797465733120636f6d70617269736f6e2c75696e7432353620616d6f756e74294672657175656e637928626f6f6c20656e61626c65642c75696e7432353620626c6f636b732c75696e74323536207374617274426c6f636b29507269636528626f6f6c20656e61626c65642c6164647265737320746f6b656e2c62797465733120636f6d70617269736f6e2c75696e743235362076616c75652942616c616e636528626f6f6c20656e61626c65642c6164647265737320746f6b656e2c62797465733120636f6d70617269736f6e2c75696e7432353620616d6f756e7429507269636528626f6f6c20656e61626c65642c6164647265737320746f6b656e2c62797465733120636f6d70617269736f6e2c75696e743235362076616c756529a264697066735822122047c38941763898a659dc924c6041eae8a8dd081a07018b1cfe633c845204e68864736f6c63430008040033",
  "linkReferences": {},
  "deployedLinkReferences": {}
}