{
  "_format": "hh-sol-artifact-1",
  "contractName": "SwapperScriptExecutor",
  "sourceName": "contracts/SwapperScriptExecutor.sol",
  "abi": [
    {
      "anonymous": false,
      "inputs": [
        {
          "indexed": true,
          "internalType": "address",
          "name": "previousOwner",
          "type": "address"
        },
        {
          "indexed": true,
          "internalType": "address",
          "name": "newOwner",
          "type": "address"
        }
      ],
      "name": "OwnershipTransferred",
      "type": "event"
    },
    {
      "inputs": [],
      "name": "MINIMUM_GAS_FOR_SCRIPT_EXECUTION",
      "outputs": [
        {
          "internalType": "uint256",
          "name": "",
          "type": "uint256"
        }
      ],
      "stateMutability": "view",
      "type": "function"
    },
    {
      "inputs": [
        {
          "components": [
            {
              "internalType": "bytes32",
              "name": "id",
              "type": "bytes32"
            },
            {
              "internalType": "address",
              "name": "tokenFrom",
              "type": "address"
            },
            {
              "internalType": "address",
              "name": "tokenTo",
              "type": "address"
            },
            {
              "internalType": "uint256",
              "name": "amount",
              "type": "uint256"
            },
            {
              "internalType": "address",
              "name": "user",
              "type": "address"
            },
            {
              "internalType": "address",
              "name": "executor",
              "type": "address"
            },
            {
              "components": [
                {
                  "internalType": "bool",
                  "name": "enabled",
                  "type": "bool"
                },
                {
                  "internalType": "address",
                  "name": "token",
                  "type": "address"
                },
                {
                  "internalType": "bytes1",
                  "name": "comparison",
                  "type": "bytes1"
                },
                {
                  "internalType": "uint256",
                  "name": "amount",
                  "type": "uint256"
                }
              ],
              "internalType": "struct Balance",
              "name": "balance",
              "type": "tuple"
            },
            {
              "components": [
                {
                  "internalType": "bool",
                  "name": "enabled",
                  "type": "bool"
                },
                {
                  "internalType": "uint256",
                  "name": "blocks",
                  "type": "uint256"
                },
                {
                  "internalType": "uint256",
                  "name": "startBlock",
                  "type": "uint256"
                }
              ],
              "internalType": "struct Frequency",
              "name": "frequency",
              "type": "tuple"
            },
            {
              "components": [
                {
                  "internalType": "bool",
                  "name": "enabled",
                  "type": "bool"
                },
                {
                  "internalType": "address",
                  "name": "token",
                  "type": "address"
                },
                {
                  "internalType": "bytes1",
                  "name": "comparison",
                  "type": "bytes1"
                },
                {
                  "internalType": "uint256",
                  "name": "value",
                  "type": "uint256"
                }
              ],
              "internalType": "struct Price",
              "name": "price",
              "type": "tuple"
            }
          ],
          "internalType": "struct Swap",
          "name": "message",
          "type": "tuple"
        },
        {
          "internalType": "bytes32",
          "name": "r",
          "type": "bytes32"
        },
        {
          "internalType": "bytes32",
          "name": "s",
          "type": "bytes32"
        },
        {
          "internalType": "uint8",
          "name": "v",
          "type": "uint8"
        }
      ],
      "name": "execute",
      "outputs": [],
      "stateMutability": "nonpayable",
      "type": "function"
    },
    {
      "inputs": [],
      "name": "owner",
      "outputs": [
        {
          "internalType": "address",
          "name": "",
          "type": "address"
        }
      ],
      "stateMutability": "view",
      "type": "function"
    },
    {
      "inputs": [],
      "name": "renounceOwnership",
      "outputs": [],
      "stateMutability": "nonpayable",
      "type": "function"
    },
    {
      "inputs": [
        {
          "internalType": "bytes32",
          "name": "_id",
          "type": "bytes32"
        }
      ],
      "name": "revoke",
      "outputs": [],
      "stateMutability": "nonpayable",
      "type": "function"
    },
    {
      "inputs": [
        {
          "internalType": "address",
          "name": "_brgToken",
          "type": "address"
        }
      ],
      "name": "setBrgToken",
      "outputs": [],
      "stateMutability": "nonpayable",
      "type": "function"
    },
    {
      "inputs": [
        {
          "internalType": "address",
          "name": "_exchange",
          "type": "address"
        }
      ],
      "name": "setExchange",
      "outputs": [],
      "stateMutability": "nonpayable",
      "type": "function"
    },
    {
      "inputs": [
        {
          "internalType": "address",
          "name": "_gasTank",
          "type": "address"
        }
      ],
      "name": "setGasTank",
      "outputs": [],
      "stateMutability": "nonpayable",
      "type": "function"
    },
    {
      "inputs": [
        {
          "internalType": "uint256",
          "name": "_amount",
          "type": "uint256"
        }
      ],
      "name": "setMinimumGas",
      "outputs": [],
      "stateMutability": "nonpayable",
      "type": "function"
    },
    {
      "inputs": [
        {
          "internalType": "address",
          "name": "_priceRetriever",
          "type": "address"
        }
      ],
      "name": "setPriceRetriever",
      "outputs": [],
      "stateMutability": "nonpayable",
      "type": "function"
    },
    {
      "inputs": [
        {
          "internalType": "address",
          "name": "newOwner",
          "type": "address"
        }
      ],
      "name": "transferOwnership",
      "outputs": [],
      "stateMutability": "nonpayable",
      "type": "function"
    },
    {
      "inputs": [
        {
          "components": [
            {
              "internalType": "bytes32",
              "name": "id",
              "type": "bytes32"
            },
            {
              "internalType": "address",
              "name": "tokenFrom",
              "type": "address"
            },
            {
              "internalType": "address",
              "name": "tokenTo",
              "type": "address"
            },
            {
              "internalType": "uint256",
              "name": "amount",
              "type": "uint256"
            },
            {
              "internalType": "address",
              "name": "user",
              "type": "address"
            },
            {
              "internalType": "address",
              "name": "executor",
              "type": "address"
            },
            {
              "components": [
                {
                  "internalType": "bool",
                  "name": "enabled",
                  "type": "bool"
                },
                {
                  "internalType": "address",
                  "name": "token",
                  "type": "address"
                },
                {
                  "internalType": "bytes1",
                  "name": "comparison",
                  "type": "bytes1"
                },
                {
                  "internalType": "uint256",
                  "name": "amount",
                  "type": "uint256"
                }
              ],
              "internalType": "struct Balance",
              "name": "balance",
              "type": "tuple"
            },
            {
              "components": [
                {
                  "internalType": "bool",
                  "name": "enabled",
                  "type": "bool"
                },
                {
                  "internalType": "uint256",
                  "name": "blocks",
                  "type": "uint256"
                },
                {
                  "internalType": "uint256",
                  "name": "startBlock",
                  "type": "uint256"
                }
              ],
              "internalType": "struct Frequency",
              "name": "frequency",
              "type": "tuple"
            },
            {
              "components": [
                {
                  "internalType": "bool",
                  "name": "enabled",
                  "type": "bool"
                },
                {
                  "internalType": "address",
                  "name": "token",
                  "type": "address"
                },
                {
                  "internalType": "bytes1",
                  "name": "comparison",
                  "type": "bytes1"
                },
                {
                  "internalType": "uint256",
                  "name": "value",
                  "type": "uint256"
                }
              ],
              "internalType": "struct Price",
              "name": "price",
              "type": "tuple"
            }
          ],
          "internalType": "struct Swap",
          "name": "message",
          "type": "tuple"
        },
        {
          "internalType": "bytes32",
          "name": "r",
          "type": "bytes32"
        },
        {
          "internalType": "bytes32",
          "name": "s",
          "type": "bytes32"
        },
        {
          "internalType": "uint8",
          "name": "v",
          "type": "uint8"
        }
      ],
      "name": "verify",
      "outputs": [],
      "stateMutability": "view",
      "type": "function"
    },
    {
      "inputs": [
        {
          "internalType": "address",
          "name": "user",
          "type": "address"
        }
      ],
      "name": "verifyGasTank",
      "outputs": [],
      "stateMutability": "view",
      "type": "function"
    },
    {
      "inputs": [
        {
          "internalType": "address",
          "name": "user",
          "type": "address"
        },
        {
          "internalType": "bytes32",
          "name": "id",
          "type": "bytes32"
        }
      ],
      "name": "verifyRevocation",
      "outputs": [],
      "stateMutability": "view",
      "type": "function"
    }
  ],
  "bytecode": "0x6080604052670de0b6b3a764000060065534801561001c57600080fd5b506100263361002b565b61007b565b600080546001600160a01b038381166001600160a01b0319831681178455604051919092169283917f8be0079c531659141344cd1fd0a4f28419497f9722a3daafe3b4186f6b6457e09190a35050565b611b3d8061008a6000396000f3fe608060405234801561001057600080fd5b50600436106100ea5760003560e01c80638da5cb5b1161008c578063b75c7dc611610066578063b75c7dc6146101b5578063bc4d5a17146101e9578063f2fde38b146101fc578063f87d57811461020f57600080fd5b80638da5cb5b146101745780639091872e1461018f5780639b633e10146101a257600080fd5b806367b1f5df116100c857806367b1f5df14610133578063715018a6146101465780637ca65cdc1461014e5780638d2869f21461016157600080fd5b8063080e4691146100ef57806343e297b21461010b5780634ead94a314610120575b600080fd5b6100f860065481565b6040519081526020015b60405180910390f35b61011e61011936600461155a565b610222565b005b61011e61012e36600461157b565b610277565b61011e61014136600461155a565b6102fb565b61011e610347565b61011e61015c36600461155a565b61037d565b61011e61016f366004611668565b610463565b6000546040516001600160a01b039091168152602001610102565b61011e61019d366004611680565b610492565b61011e6101b036600461155a565b61050c565b61011e6101c3366004611668565b33600090815260026020908152604080832093835292905220805460ff19166001179055565b61011e6101f7366004611680565b610558565b61011e61020a36600461155a565b61080a565b61011e61021d36600461155a565b6108a2565b6000546001600160a01b031633146102555760405162461bcd60e51b815260040161024c906117b4565b60405180910390fd5b600480546001600160a01b0319166001600160a01b0392909216919091179055565b6001600160a01b038216600090815260026020908152604080832084845290915290205460ff16156102f75760405162461bcd60e51b815260206004820152602360248201527f53637269707420686173206265656e207265766f6b656420627920746865207560448201526239b2b960e91b606482015260840161024c565b5050565b6000546001600160a01b031633146103255760405162461bcd60e51b815260040161024c906117b4565b600780546001600160a01b0319166001600160a01b0392909216919091179055565b6000546001600160a01b031633146103715760405162461bcd60e51b815260040161024c906117b4565b61037b60006108ee565b565b600654600480546040516370a0823160e01b81526001600160a01b03858116938201939093529116906370a082319060240160206040518083038186803b1580156103c757600080fd5b505afa1580156103db573d6000803e3d6000fd5b505050506040513d601f19601f820116820180604052508101906103ff9190611763565b10156104605760405162461bcd60e51b815260206004820152602a60248201527f5b47617320436f6e646974696f6e5d204e6f7420656e6f7567682067617320696044820152696e207468652074616e6b60b01b606482015260840161024c565b50565b6000546001600160a01b0316331461048d5760405162461bcd60e51b815260040161024c906117b4565b600655565b6104a484608001518560000151610277565b6104b08484848461093e565b6104c28460e001518560000151610a05565b6104d48460c001518560800151610bda565b6104e2846101000151610d73565b6104ef846080015161037d565b610506846080015185602001518660600151610f24565b50505050565b6000546001600160a01b031633146105365760405162461bcd60e51b815260040161024c906117b4565b600380546001600160a01b0319166001600160a01b0392909216919091179055565b61056484848484610492565b6007546001600160a01b03166105c65760405162461bcd60e51b815260206004820152602160248201527f45786368616e6765206164647265737320686173206e6f74206265656e2073656044820152601d60fa1b606482015260840161024c565b83516000908152600160209081526040918290204390558501516080860151606087015192516323b872dd60e01b81526001600160a01b03918216600482015230602482015260448101939093529091908216906323b872dd90606401602060405180830381600087803b15801561063d57600080fd5b505af1158015610651573d6000803e3d6000fd5b505050506040513d601f19601f82011682018060405250810190610675919061164c565b506040805160028082526060820183526000926020830190803683370190505090508560200151816000815181106106bd57634e487b7160e01b600052603260045260246000fd5b60200260200101906001600160a01b031690816001600160a01b03168152505085604001518160018151811061070357634e487b7160e01b600052603260045260246000fd5b6001600160a01b0392831660209182029290920181019190915260075482166000908152600882526040808220938616825292909152205460ff16610759576007546107599083906001600160a01b0316611037565b600754606087015160808801516001600160a01b03909216916338ed17399190600090859061078b42620927c06118b4565b6040518663ffffffff1660e01b81526004016107ab9594939291906117e9565b600060405180830381600087803b1580156107c557600080fd5b505af11580156107d9573d6000803e3d6000fd5b505050506040513d6000823e601f3d908101601f1916820160405261080191908101906115a4565b50505050505050565b6000546001600160a01b031633146108345760405162461bcd60e51b815260040161024c906117b4565b6001600160a01b0381166108995760405162461bcd60e51b815260206004820152602660248201527f4f776e61626c653a206e6577206f776e657220697320746865207a65726f206160448201526564647265737360d01b606482015260840161024c565b610460816108ee565b6000546001600160a01b031633146108cc5760405162461bcd60e51b815260040161024c906117b4565b600580546001600160a01b0319166001600160a01b0392909216919091179055565b600080546001600160a01b038381166001600160a01b0319831681178455604051919092169283917f8be0079c531659141344cd1fd0a4f28419497f9722a3daafe3b4186f6b6457e09190a35050565b6001610949856110f0565b6040805160008152602081018083529290925260ff841690820152606081018590526080810184905260a0016020604051602081039080840390855afa158015610997573d6000803e3d6000fd5b505050602060405103516001600160a01b031684608001516001600160a01b0316146105065760405162461bcd60e51b815260206004820152601860248201527f5369676e617475726520646f6573206e6f74206d617463680000000000000000604482015260640161024c565b8151610a0f575050565b60008181526001602052604090205415610ac95760208083015160008381526001909252604090912054610a4391906118b4565b43116102f75760405162461bcd60e51b815260206004820152604960248201527f5b4672657175656e637920436f6e646974696f6e5d204e6f7420656e6f75676860448201527f2074696d6520686173207061737365642073696e636520746865206c6173742060648201526832bc32b1baba34b7b760b91b608482015260a40161024c565b8160400151431015610b435760405162461bcd60e51b815260206004820152603a60248201527f5b4672657175656e637920436f6e646974696f6e5d20537461727420626c6f6360448201527f6b20686173206e6f74206265656e207265616368656420796574000000000000606482015260840161024c565b81602001518260400151610b5791906118b4565b43116102f75760405162461bcd60e51b815260206004820152604660248201527f5b4672657175656e637920436f6e646974696f6e5d204e6f7420656e6f75676860448201527f2074696d6520686173207061737365642073696e63652074686520737461727460648201526520626c6f636b60d01b608482015260a40161024c565b8151610be4575050565b60208201516040516370a0823160e01b81526001600160a01b038381166004830152600091908316906370a082319060240160206040518083038186803b158015610c2e57600080fd5b505afa158015610c42573d6000803e3d6000fd5b505050506040513d601f19601f82011682018060405250810190610c669190611763565b60408501519091506001600160f81b031916610cf05783606001518111610ceb5760405162461bcd60e51b815260206004820152603360248201527f5b42616c616e636520436f6e646974696f6e5d205573657220646f6573206e6f60448201527274206f776e20656e6f75676820746f6b656e7360681b606482015260840161024c565b610506565b60408401516001600160f81b031916600160f81b141561050657836060015181106105065760405162461bcd60e51b815260206004820152602d60248201527f5b42616c616e636520436f6e646974696f6e5d2055736572206f776e7320746f60448201526c6f206d616e7920746f6b656e7360981b606482015260840161024c565b8051610d7c5750565b600554602082015160405163b95ed06f60e01b81526001600160a01b039182166004820152600092919091169063b95ed06f9060240160206040518083038186803b158015610dca57600080fd5b505afa158015610dde573d6000803e3d6000fd5b505050506040513d601f19601f82011682018060405250810190610e029190611763565b60408301519091506001600160f81b031916610e9157816060015181116102f75760405162461bcd60e51b815260206004820152603a60248201527f5b507269636520436f6e646974696f6e5d20546f6b656e20707269636520697360448201527f206c6f776572207468616e2065787065637465642076616c7565000000000000606482015260840161024c565b60408201516001600160f81b031916600160f81b14156102f757816060015181106102f75760405162461bcd60e51b815260206004820152603b60248201527f5b507269636520436f6e646974696f6e5d20546f6b656e20707269636520697360448201527f20686967686572207468616e2065787065637465642076616c75650000000000606482015260840161024c565b604051636eb1769f60e11b81526001600160a01b03848116600483015230602483015282919084169063dd62ed3e9060440160206040518083038186803b158015610f6e57600080fd5b505afa158015610f82573d6000803e3d6000fd5b505050506040513d601f19601f82011682018060405250810190610fa69190611763565b10156110325760405162461bcd60e51b815260206004820152604f60248201527f5b416c6c6f77616e636520436f6e646974696f6e5d205573657220646964206e60448201527f6f74206769766520656e6f75676820616c6c6f77616e636520746f207468652060648201526e39b1b934b83a1032bc32b1baba37b960891b608482015260a40161024c565b505050565b60405163095ea7b360e01b81526001600160a01b038281166004830152600019602483015283169063095ea7b390604401602060405180830381600087803b15801561108257600080fd5b505af1158015611096573d6000803e3d6000fd5b505050506040513d601f19601f820116820180604052508101906110ba919061164c565b506001600160a01b039081166000908152600860209081526040808320949093168252929092529020805460ff19166001179055565b6000806040518060400160405280601981526020017f454950373132446f6d61696e28737472696e67206e616d652900000000000000815250604051602001611139919061177b565b60408051808303601f1901815282825280516020918201208383018352600e84526d42616c726f672d537761702d763160901b938201939093528151908101929092527fe2e23d7e875bc78e262ec39e9b2cd6cf71f3ce9ca8fb38826cdd7e2a2438537790820152606001604051602081830303815290604052805190602001209050600060405180610180016040528061014d815260200161197a61014d91396040516020016111ea919061177b565b60405160208183030381529060405280519060200120846000015185602001518660400151876060015188608001518960a0015161122b8b60c001516112f9565b6112388c60e001516113a3565b6112468d6101000151611415565b60408051602081019b909b528a01989098526001600160a01b0396871660608a0152948616608089015260a088019390935290841660c087015290921660e08501526101008401919091526101208301526101408201526101600160408051601f1981840301815290829052805160209182012061190160f01b91830191909152602282018490526042820181905291506062016040516020818303038152906040528051906020012092505050919050565b600060405180608001604052806044815260200161193660449139604051602001611324919061177b565b60408051601f198184030181528282528051602091820120855186830151878501516060808a015195880194909452911515948601949094526001600160a01b03909316908401526001600160f81b0319909116608083015260a082015260c0015b604051602081830303815290604052805190602001209050919050565b60006040518060600160405280603981526020016118fd603991396040516020016113ce919061177b565b60408051601f19818403018152828252805160209182012085518683015187850151938601929092521515928401929092526060830191909152608082015260a001611386565b6000604051806080016040528060418152602001611ac760419139604051602001611324919061177b565b80356001600160a01b038116811461145757600080fd5b919050565b60006080828403121561146d578081fd5b6040516080810181811067ffffffffffffffff82111715611490576114906118d8565b60405290508082356114a1816118ee565b81526114af60208401611440565b602082015260408301356001600160f81b0319811681146114cf57600080fd5b6040820152606092830135920191909152919050565b6000606082840312156114f6578081fd5b6040516060810181811067ffffffffffffffff82111715611519576115196118d8565b604052905080823561152a816118ee565b8082525060208301356020820152604083013560408201525092915050565b803560ff8116811461145757600080fd5b60006020828403121561156b578081fd5b61157482611440565b9392505050565b6000806040838503121561158d578081fd5b61159683611440565b946020939093013593505050565b600060208083850312156115b6578182fd5b825167ffffffffffffffff808211156115cd578384fd5b818501915085601f8301126115e0578384fd5b8151818111156115f2576115f26118d8565b8060051b9150611603848301611883565b8181528481019084860184860187018a101561161d578788fd5b8795505b8386101561163f578051835260019590950194918601918601611621565b5098975050505050505050565b60006020828403121561165d578081fd5b8151611574816118ee565b600060208284031215611679578081fd5b5035919050565b600080600080848603610280811215611697578283fd5b610220808212156116a6578384fd5b6116ae611859565b9150863582526116c060208801611440565b60208301526116d160408801611440565b6040830152606087013560608301526116ec60808801611440565b60808301526116fd60a08801611440565b60a083015261170f8860c0890161145c565b60c08301526117228861014089016114e5565b60e0830152611735886101a0890161145c565b610100830152909450850135925061024085013591506117586102608601611549565b905092959194509250565b600060208284031215611774578081fd5b5051919050565b60008251815b8181101561179b5760208186018101518583015201611781565b818111156117a95782828501525b509190910192915050565b6020808252818101527f4f776e61626c653a2063616c6c6572206973206e6f7420746865206f776e6572604082015260600190565b600060a082018783526020878185015260a0604085015281875180845260c0860191508289019350845b818110156118385784516001600160a01b031683529383019391830191600101611813565b50506001600160a01b03969096166060850152505050608001529392505050565b604051610120810167ffffffffffffffff8111828210171561187d5761187d6118d8565b60405290565b604051601f8201601f1916810167ffffffffffffffff811182821017156118ac576118ac6118d8565b604052919050565b600082198211156118d357634e487b7160e01b81526011600452602481fd5b500190565b634e487b7160e01b600052604160045260246000fd5b801515811461046057600080fdfe4672657175656e637928626f6f6c20656e61626c65642c75696e7432353620626c6f636b732c75696e74323536207374617274426c6f636b2942616c616e636528626f6f6c20656e61626c65642c6164647265737320746f6b656e2c62797465733120636f6d70617269736f6e2c75696e7432353620616d6f756e74295377617028627974657333322069642c6164647265737320746f6b656e46726f6d2c6164647265737320746f6b656e546f2c75696e7432353620616d6f756e742c6164647265737320757365722c61646472657373206578656375746f722c42616c616e63652062616c616e63652c4672657175656e6379206672657175656e63792c50726963652070726963652942616c616e636528626f6f6c20656e61626c65642c6164647265737320746f6b656e2c62797465733120636f6d70617269736f6e2c75696e7432353620616d6f756e74294672657175656e637928626f6f6c20656e61626c65642c75696e7432353620626c6f636b732c75696e74323536207374617274426c6f636b29507269636528626f6f6c20656e61626c65642c6164647265737320746f6b656e2c62797465733120636f6d70617269736f6e2c75696e743235362076616c756529507269636528626f6f6c20656e61626c65642c6164647265737320746f6b656e2c62797465733120636f6d70617269736f6e2c75696e743235362076616c756529a2646970667358221220dc6b4a8e87e04ac838292c0bc2117a05b4df0ca369e09ed279cb46bc9deb868c64736f6c63430008040033",
  "linkReferences": {},
  "deployedLinkReferences": {}
}