{
  "_format": "hh-sol-artifact-1",
  "contractName": "SwapperScriptExecutor",
  "sourceName": "contracts/SwapperScriptExecutor.sol",
  "abi": [
    {
      "anonymous": false,
      "inputs": [
        {
          "indexed": false,
          "internalType": "bytes32",
          "name": "id",
          "type": "bytes32"
        },
        {
          "indexed": false,
          "internalType": "uint256",
          "name": "cost",
          "type": "uint256"
        }
      ],
      "name": "Executed",
      "type": "event"
    },
    {
      "anonymous": false,
      "inputs": [
        {
          "indexed": true,
          "internalType": "address",
          "name": "previousOwner",
          "type": "address"
        },
        {
          "indexed": true,
          "internalType": "address",
          "name": "newOwner",
          "type": "address"
        }
      ],
      "name": "OwnershipTransferred",
      "type": "event"
    },
    {
      "inputs": [],
      "name": "GAS_COST",
      "outputs": [
        {
          "internalType": "uint256",
          "name": "",
          "type": "uint256"
        }
      ],
      "stateMutability": "view",
      "type": "function"
    },
    {
      "inputs": [],
      "name": "MINIMUM_GAS_FOR_SCRIPT_EXECUTION",
      "outputs": [
        {
          "internalType": "uint256",
          "name": "",
          "type": "uint256"
        }
      ],
      "stateMutability": "view",
      "type": "function"
    },
    {
      "inputs": [
        {
          "components": [
            {
              "internalType": "bytes32",
              "name": "scriptId",
              "type": "bytes32"
            },
            {
              "internalType": "address",
              "name": "tokenFrom",
              "type": "address"
            },
            {
              "internalType": "address",
              "name": "tokenTo",
              "type": "address"
            },
            {
              "internalType": "bytes1",
              "name": "typeAmt",
              "type": "bytes1"
            },
            {
              "internalType": "uint256",
              "name": "amount",
              "type": "uint256"
            },
            {
              "internalType": "address",
              "name": "user",
              "type": "address"
            },
            {
              "internalType": "address",
              "name": "executor",
              "type": "address"
            },
            {
              "internalType": "uint256",
              "name": "chainId",
              "type": "uint256"
            },
            {
              "components": [
                {
                  "internalType": "bool",
                  "name": "enabled",
                  "type": "bool"
                },
                {
                  "internalType": "address",
                  "name": "token",
                  "type": "address"
                },
                {
                  "internalType": "bytes1",
                  "name": "comparison",
                  "type": "bytes1"
                },
                {
                  "internalType": "uint256",
                  "name": "amount",
                  "type": "uint256"
                }
              ],
              "internalType": "struct Balance",
              "name": "balance",
              "type": "tuple"
            },
            {
              "components": [
                {
                  "internalType": "bool",
                  "name": "enabled",
                  "type": "bool"
                },
                {
                  "internalType": "uint256",
                  "name": "delay",
                  "type": "uint256"
                },
                {
                  "internalType": "uint256",
                  "name": "start",
                  "type": "uint256"
                }
              ],
              "internalType": "struct Frequency",
              "name": "frequency",
              "type": "tuple"
            },
            {
              "components": [
                {
                  "internalType": "bool",
                  "name": "enabled",
                  "type": "bool"
                },
                {
                  "internalType": "address",
                  "name": "token",
                  "type": "address"
                },
                {
                  "internalType": "bytes1",
                  "name": "comparison",
                  "type": "bytes1"
                },
                {
                  "internalType": "uint256",
                  "name": "value",
                  "type": "uint256"
                }
              ],
              "internalType": "struct Price",
              "name": "price",
              "type": "tuple"
            },
            {
              "components": [
                {
                  "internalType": "bool",
                  "name": "enabled",
                  "type": "bool"
                },
                {
                  "internalType": "uint32",
                  "name": "amount",
                  "type": "uint32"
                }
              ],
              "internalType": "struct Repetitions",
              "name": "repetitions",
              "type": "tuple"
            },
            {
              "components": [
                {
                  "internalType": "bool",
                  "name": "enabled",
                  "type": "bool"
                },
                {
                  "internalType": "uint256",
                  "name": "shift",
                  "type": "uint256"
                },
                {
                  "internalType": "bytes32",
                  "name": "scriptId",
                  "type": "bytes32"
                },
                {
                  "internalType": "address",
                  "name": "executor",
                  "type": "address"
                }
              ],
              "internalType": "struct Follow",
              "name": "follow",
              "type": "tuple"
            }
          ],
          "internalType": "struct Swap",
          "name": "message",
          "type": "tuple"
        },
        {
          "internalType": "bytes32",
          "name": "r",
          "type": "bytes32"
        },
        {
          "internalType": "bytes32",
          "name": "s",
          "type": "bytes32"
        },
        {
          "internalType": "uint8",
          "name": "v",
          "type": "uint8"
        }
      ],
      "name": "execute",
      "outputs": [],
      "stateMutability": "nonpayable",
      "type": "function"
    },
    {
      "inputs": [
        {
          "internalType": "bytes32",
          "name": "_id",
          "type": "bytes32"
        }
      ],
      "name": "getRepetitions",
      "outputs": [
        {
          "internalType": "uint32",
          "name": "",
          "type": "uint32"
        }
      ],
      "stateMutability": "view",
      "type": "function"
    },
    {
      "inputs": [],
      "name": "owner",
      "outputs": [
        {
          "internalType": "address",
          "name": "",
          "type": "address"
        }
      ],
      "stateMutability": "view",
      "type": "function"
    },
    {
      "inputs": [],
      "name": "preliminaryCheck",
      "outputs": [],
      "stateMutability": "view",
      "type": "function"
    },
    {
      "inputs": [],
      "name": "renounceOwnership",
      "outputs": [],
      "stateMutability": "nonpayable",
      "type": "function"
    },
    {
      "inputs": [
        {
          "internalType": "bytes32",
          "name": "_id",
          "type": "bytes32"
        }
      ],
      "name": "revoke",
      "outputs": [],
      "stateMutability": "nonpayable",
      "type": "function"
    },
    {
      "inputs": [
        {
          "internalType": "address",
          "name": "_exchange",
          "type": "address"
        }
      ],
      "name": "setExchange",
      "outputs": [],
      "stateMutability": "nonpayable",
      "type": "function"
    },
    {
      "inputs": [
        {
          "internalType": "address",
          "name": "_gasPriceFeed",
          "type": "address"
        }
      ],
      "name": "setGasFeed",
      "outputs": [],
      "stateMutability": "nonpayable",
      "type": "function"
    },
    {
      "inputs": [
        {
          "internalType": "address",
          "name": "_gasTank",
          "type": "address"
        }
      ],
      "name": "setGasTank",
      "outputs": [],
      "stateMutability": "nonpayable",
      "type": "function"
    },
    {
      "inputs": [
        {
          "internalType": "uint256",
          "name": "_amount",
          "type": "uint256"
        }
      ],
      "name": "setMinimumGas",
      "outputs": [],
      "stateMutability": "nonpayable",
      "type": "function"
    },
    {
      "inputs": [
        {
          "internalType": "address",
          "name": "_priceRetriever",
          "type": "address"
        }
      ],
      "name": "setPriceRetriever",
      "outputs": [],
      "stateMutability": "nonpayable",
      "type": "function"
    },
    {
      "inputs": [
        {
          "internalType": "address",
          "name": "newOwner",
          "type": "address"
        }
      ],
      "name": "transferOwnership",
      "outputs": [],
      "stateMutability": "nonpayable",
      "type": "function"
    },
    {
      "inputs": [
        {
          "components": [
            {
              "internalType": "bytes32",
              "name": "scriptId",
              "type": "bytes32"
            },
            {
              "internalType": "address",
              "name": "tokenFrom",
              "type": "address"
            },
            {
              "internalType": "address",
              "name": "tokenTo",
              "type": "address"
            },
            {
              "internalType": "bytes1",
              "name": "typeAmt",
              "type": "bytes1"
            },
            {
              "internalType": "uint256",
              "name": "amount",
              "type": "uint256"
            },
            {
              "internalType": "address",
              "name": "user",
              "type": "address"
            },
            {
              "internalType": "address",
              "name": "executor",
              "type": "address"
            },
            {
              "internalType": "uint256",
              "name": "chainId",
              "type": "uint256"
            },
            {
              "components": [
                {
                  "internalType": "bool",
                  "name": "enabled",
                  "type": "bool"
                },
                {
                  "internalType": "address",
                  "name": "token",
                  "type": "address"
                },
                {
                  "internalType": "bytes1",
                  "name": "comparison",
                  "type": "bytes1"
                },
                {
                  "internalType": "uint256",
                  "name": "amount",
                  "type": "uint256"
                }
              ],
              "internalType": "struct Balance",
              "name": "balance",
              "type": "tuple"
            },
            {
              "components": [
                {
                  "internalType": "bool",
                  "name": "enabled",
                  "type": "bool"
                },
                {
                  "internalType": "uint256",
                  "name": "delay",
                  "type": "uint256"
                },
                {
                  "internalType": "uint256",
                  "name": "start",
                  "type": "uint256"
                }
              ],
              "internalType": "struct Frequency",
              "name": "frequency",
              "type": "tuple"
            },
            {
              "components": [
                {
                  "internalType": "bool",
                  "name": "enabled",
                  "type": "bool"
                },
                {
                  "internalType": "address",
                  "name": "token",
                  "type": "address"
                },
                {
                  "internalType": "bytes1",
                  "name": "comparison",
                  "type": "bytes1"
                },
                {
                  "internalType": "uint256",
                  "name": "value",
                  "type": "uint256"
                }
              ],
              "internalType": "struct Price",
              "name": "price",
              "type": "tuple"
            },
            {
              "components": [
                {
                  "internalType": "bool",
                  "name": "enabled",
                  "type": "bool"
                },
                {
                  "internalType": "uint32",
                  "name": "amount",
                  "type": "uint32"
                }
              ],
              "internalType": "struct Repetitions",
              "name": "repetitions",
              "type": "tuple"
            },
            {
              "components": [
                {
                  "internalType": "bool",
                  "name": "enabled",
                  "type": "bool"
                },
                {
                  "internalType": "uint256",
                  "name": "shift",
                  "type": "uint256"
                },
                {
                  "internalType": "bytes32",
                  "name": "scriptId",
                  "type": "bytes32"
                },
                {
                  "internalType": "address",
                  "name": "executor",
                  "type": "address"
                }
              ],
              "internalType": "struct Follow",
              "name": "follow",
              "type": "tuple"
            }
          ],
          "internalType": "struct Swap",
          "name": "message",
          "type": "tuple"
        },
        {
          "internalType": "bytes32",
          "name": "r",
          "type": "bytes32"
        },
        {
          "internalType": "bytes32",
          "name": "s",
          "type": "bytes32"
        },
        {
          "internalType": "uint8",
          "name": "v",
          "type": "uint8"
        }
      ],
      "name": "verify",
      "outputs": [],
      "stateMutability": "view",
      "type": "function"
    },
    {
      "inputs": [
        {
          "internalType": "address",
          "name": "user",
          "type": "address"
        }
      ],
      "name": "verifyGasTank",
      "outputs": [],
      "stateMutability": "view",
      "type": "function"
    },
    {
      "inputs": [
        {
          "internalType": "address",
          "name": "user",
          "type": "address"
        },
        {
          "internalType": "bytes32",
          "name": "id",
          "type": "bytes32"
        }
      ],
      "name": "verifyRevocation",
      "outputs": [],
      "stateMutability": "view",
      "type": "function"
    }
  ],
  "bytecode": "0x60806040526706f05b59d3b20000600855660110d9316ec00060095534801561002757600080fd5b506100313361003a565b4660045561008a565b600080546001600160a01b038381166001600160a01b0319831681178455604051919092169283917f8be0079c531659141344cd1fd0a4f28419497f9722a3daafe3b4186f6b6457e09190a35050565b6129d7806100996000396000f3fe608060405234801561001057600080fd5b506004361061011b5760003560e01c80637ea42ebe116100b2578063ca7f103b11610081578063d82a0ed611610066578063d82a0ed614610266578063f2fde38b14610279578063f87d57811461028c57600080fd5b8063ca7f103b1461024a578063d5665f891461025357600080fd5b80637ea42ebe146101ad5780638d2869f2146101e85780638da5cb5b146101fb578063b75c7dc61461021657600080fd5b806358a346dc116100ee57806358a346dc1461016c57806367b1f5df1461017f578063715018a6146101925780637ca65cdc1461019a57600080fd5b806301ff45aa14610120578063080e46911461012a57806343e297b2146101465780634ead94a314610159575b600080fd5b61012861029f565b005b61013360085481565b6040519081526020015b60405180910390f35b610128610154366004612299565b6103ae565b6101286101673660046122ba565b61043d565b61012861017a366004612299565b6104db565b61012861018d366004612299565b61056a565b6101286105e6565b6101286101a8366004612299565b61064a565b6101d36101bb366004612403565b60009081526002602052604090205463ffffffff1690565b60405163ffffffff909116815260200161013d565b6101286101f6366004612403565b610741565b6000546040516001600160a01b03909116815260200161013d565b610128610224366004612403565b33600090815260036020908152604080832093835292905220805460ff19166001179055565b61013360095481565b61012861026136600461241b565b6107f0565b61012861027436600461241b565b610e02565b610128610287366004612299565b610fee565b61012861029a366004612299565b6110cd565b6005546001600160a01b03166102fc5760405162461bcd60e51b815260206004820152600760248201527f47617354616e6b0000000000000000000000000000000000000000000000000060448201526064015b60405180910390fd5b6007546001600160a01b03166103545760405162461bcd60e51b815260206004820152600f60248201527f507269636573526574726965766572000000000000000000000000000000000060448201526064016102f3565b6006546001600160a01b03166103ac5760405162461bcd60e51b815260206004820152600c60248201527f476173507269636546656564000000000000000000000000000000000000000060448201526064016102f3565b565b6000546001600160a01b031633146104085760405162461bcd60e51b815260206004820181905260248201527f4f776e61626c653a2063616c6c6572206973206e6f7420746865206f776e657260448201526064016102f3565b6001600160a01b03811661041b57600080fd5b600580546001600160a01b0319166001600160a01b0392909216919091179055565b6001600160a01b038216600090815260036020908152604080832084845290915290205460ff16156104d75760405162461bcd60e51b815260206004820152602360248201527f53637269707420686173206265656e207265766f6b656420627920746865207560448201527f736572000000000000000000000000000000000000000000000000000000000060648201526084016102f3565b5050565b6000546001600160a01b031633146105355760405162461bcd60e51b815260206004820181905260248201527f4f776e61626c653a2063616c6c6572206973206e6f7420746865206f776e657260448201526064016102f3565b6001600160a01b03811661054857600080fd5b600680546001600160a01b0319166001600160a01b0392909216919091179055565b6000546001600160a01b031633146105c45760405162461bcd60e51b815260206004820181905260248201527f4f776e61626c653a2063616c6c6572206973206e6f7420746865206f776e657260448201526064016102f3565b600a80546001600160a01b0319166001600160a01b0392909216919091179055565b6000546001600160a01b031633146106405760405162461bcd60e51b815260206004820181905260248201527f4f776e61626c653a2063616c6c6572206973206e6f7420746865206f776e657260448201526064016102f3565b6103ac600061115c565b6008546005546040516370a0823160e01b81526001600160a01b038481166004830152909116906370a082319060240160206040518083038186803b15801561069257600080fd5b505afa1580156106a6573d6000803e3d6000fd5b505050506040513d601f19601f820116820180604052508101906106ca9190612471565b101561073e5760405162461bcd60e51b815260206004820152602a60248201527f5b47617320436f6e646974696f6e5d204e6f7420656e6f75676820676173206960448201527f6e207468652074616e6b0000000000000000000000000000000000000000000060648201526084016102f3565b50565b6000546001600160a01b0316331461079b5760405162461bcd60e51b815260206004820181905260248201527f4f776e61626c653a2063616c6c6572206973206e6f7420746865206f776e657260448201526064016102f3565b600081116107eb5760405162461bcd60e51b815260206004820152601d60248201527f416d6f756e74206d7573742062652067726561746572207468616e203000000060448201526064016102f3565b600855565b6107fc84848484610e02565b600a546001600160a01b031661087a5760405162461bcd60e51b815260206004820152602160248201527f45786368616e6765206164647265737320686173206e6f74206265656e20736560448201527f740000000000000000000000000000000000000000000000000000000000000060648201526084016102f3565b83356000908152600160208181526040808420429055600290915282208054919290916108ae90849063ffffffff16612594565b92506101000a81548163ffffffff021916908363ffffffff16021790555060008460200160208101906108e19190612299565b905060006108f560808701606088016123db565b6001600160f81b031916156109bb5761271060808701356001600160a01b0384166370a0823161092b60c08b0160a08c01612299565b6040516001600160e01b031960e084901b1681526001600160a01b03909116600482015260240160206040518083038186803b15801561096a57600080fd5b505afa15801561097e573d6000803e3d6000fd5b505050506040513d601f19601f820116820180604052508101906109a29190612471565b6109ac91906125d3565b6109b691906125b3565b6109c1565b85608001355b90506001600160a01b0382166323b872dd6109e260c0890160a08a01612299565b6040516001600160e01b031960e084901b1681526001600160a01b03909116600482015230602482015260448101849052606401602060405180830381600087803b158015610a3057600080fd5b505af1158015610a44573d6000803e3d6000fd5b505050506040513d601f19601f82011682018060405250810190610a6891906123bf565b50604080516002808252606082018352600092602083019080368337019050509050610a9a6040880160208901612299565b81600081518110610abb57634e487b7160e01b600052603260045260246000fd5b6001600160a01b0390921660209283029190910190910152610ae36060880160408901612299565b81600181518110610b0457634e487b7160e01b600052603260045260246000fd5b6001600160a01b03928316602091820292909201810191909152600a5482166000908152600b82526040808220938716825292909152205460ff16610b5a57600a54610b5a9084906001600160a01b03166111ac565b600a546001600160a01b03166338ed173983600084610b7f60c08d0160a08e01612299565b610b8c42620927c061257c565b6040518663ffffffff1660e01b8152600401610bac95949392919061250c565b600060405180830381600087803b158015610bc657600080fd5b505af1158015610bda573d6000803e3d6000fd5b505050506040513d6000823e601f3d908101601f19168201604052610c0291908101906122e3565b50600554600654604080517f7a95c80800000000000000000000000000000000000000000000000000000000815290516001600160a01b03938416936398094b3d931691637a95c808916004808301926020929190829003018186803b158015610c6b57600080fd5b505afa158015610c7f573d6000803e3d6000fd5b505050506040513d601f19601f82011682018060405250810190610ca39190612471565b600954610cb091906125d3565b610cc060c08b0160a08c01612299565b336040516001600160e01b031960e086901b16815260048101939093526001600160a01b039182166024840152166044820152606401600060405180830381600087803b158015610d1057600080fd5b505af1158015610d24573d6000803e3d6000fd5b505050507f3a7a2319bce6d060c98aa49682d12788f621b7e2e68701a9a082398b39da0f978760000135600660009054906101000a90046001600160a01b03166001600160a01b0316637a95c8086040518163ffffffff1660e01b815260040160206040518083038186803b158015610d9c57600080fd5b505afa158015610db0573d6000803e3d6000fd5b505050506040513d601f19601f82011682018060405250810190610dd49190612471565b600954610de191906125d3565b6040805192835260208301919091520160405180910390a150505050505050565b610e1c610e1560c0860160a08701612299565b853561043d565b610e288484848461127e565b6000610e3a60808601606087016123db565b6001600160f81b03191615610e50576000610e5f565b610e5f600160808701356125f2565b905080610e726040870160208801612299565b6001600160a01b03166370a08231610e9060c0890160a08a01612299565b6040516001600160e01b031960e084901b1681526001600160a01b03909116600482015260240160206040518083038186803b158015610ecf57600080fd5b505afa158015610ee3573d6000803e3d6000fd5b505050506040513d601f19601f82011682018060405250810190610f079190612471565b11610f545760405162461bcd60e51b815260206004820181905260248201527f5573657220646f65736e2774206861766520656e6f7567682062616c616e636560448201526064016102f3565b610f63610260860186356113ad565b610f726102a086018635611484565b610f8161018086018635611637565b610f9e6101008601610f9960c0880160a08901612299565b6117c5565b610fab856101e0016119bf565b610fbe6101a860c0870160a08801612299565b610fe7610fd160c0870160a08801612299565b610fe16040880160208901612299565b83611bbd565b5050505050565b6000546001600160a01b031633146110485760405162461bcd60e51b815260206004820181905260248201527f4f776e61626c653a2063616c6c6572206973206e6f7420746865206f776e657260448201526064016102f3565b6001600160a01b0381166110c45760405162461bcd60e51b815260206004820152602660248201527f4f776e61626c653a206e6577206f776e657220697320746865207a65726f206160448201527f646472657373000000000000000000000000000000000000000000000000000060648201526084016102f3565b61073e8161115c565b6000546001600160a01b031633146111275760405162461bcd60e51b815260206004820181905260248201527f4f776e61626c653a2063616c6c6572206973206e6f7420746865206f776e657260448201526064016102f3565b6001600160a01b03811661113a57600080fd5b600780546001600160a01b0319166001600160a01b0392909216919091179055565b600080546001600160a01b038381166001600160a01b0319831681178455604051919092169283917f8be0079c531659141344cd1fd0a4f28419497f9722a3daafe3b4186f6b6457e09190a35050565b6040517f095ea7b30000000000000000000000000000000000000000000000000000000081526001600160a01b038281166004830152600019602483015283169063095ea7b390604401602060405180830381600087803b15801561121057600080fd5b505af1158015611224573d6000803e3d6000fd5b505050506040513d601f19601f8201168201806040525081019061124891906123bf565b506001600160a01b039081166000908152600b60209081526040808320949093168252929092529020805460ff19166001179055565b6004548460e00135146112d35760405162461bcd60e51b815260206004820152600b60248201527f57726f6e6720636861696e00000000000000000000000000000000000000000060448201526064016102f3565b60016112de85611cf2565b6040805160008152602081018083529290925260ff841690820152606081018590526080810184905260a0016020604051602081039080840390855afa15801561132c573d6000803e3d6000fd5b5050604051601f1901516001600160a01b0316905061135160c0860160a08701612299565b6001600160a01b0316146113a75760405162461bcd60e51b815260206004820152601860248201527f5369676e617475726520646f6573206e6f74206d61746368000000000000000060448201526064016102f3565b50505050565b6113ba60208301836123a3565b6113c2575050565b6113d26040830160208401612489565b60008281526002602052604090205463ffffffff9182169116106104d75760405162461bcd60e51b815260206004820152604f60248201527f5b52657065746974696f6e7320436f6e646974696f6e5d20546865207363726960448201527f707420686173207265616368656420697473206d6178696d756d206e756d626560648201527f72206f6620657865637574696f6e730000000000000000000000000000000000608482015260a4016102f3565b61149160208301836123a3565b611499575050565b6000306114ac6080850160608601612299565b6001600160a01b031614611550576114ca6080840160608501612299565b6001600160a01b0316637ea42ebe84604001356040518263ffffffff1660e01b81526004016114fb91815260200190565b60206040518083038186803b15801561151357600080fd5b505afa158015611527573d6000803e3d6000fd5b505050506040513d601f19601f8201168201806040525081019061154b91906124a5565b611569565b60408084013560009081526002602052205463ffffffff165b60008381526002602090815260409091205491925061159291908501359063ffffffff1661257c565b8163ffffffff16116116325760405162461bcd60e51b815260206004820152604260248201527f5b466f6c6c6f7720436f6e646974696f6e5d2054686520706172656e7420736360448201527f7269707420686173206e6f74206265656e20287265296578656375746564207960648201527f6574000000000000000000000000000000000000000000000000000000000000608482015260a4016102f3565b505050565b61164460208301836123a3565b61164c575050565b600081815260016020526040902054156117195760008181526001602090815260409091205461167f918401359061257c565b42116104d75760405162461bcd60e51b815260206004820152604960248201527f5b4672657175656e637920436f6e646974696f6e5d204e6f7420656e6f75676860448201527f2074696d6520686173207061737365642073696e636520746865206c6173742060648201527f657865637574696f6e0000000000000000000000000000000000000000000000608482015260a4016102f3565b61172b6020830135604084013561257c565b42116104d75760405162461bcd60e51b815260206004820152604660248201527f5b4672657175656e637920436f6e646974696f6e5d204e6f7420656e6f75676860448201527f2074696d6520686173207061737365642073696e63652074686520737461727460648201527f20626c6f636b0000000000000000000000000000000000000000000000000000608482015260a4016102f3565b6117d260208301836123a3565b6117da575050565b60006117ec6040840160208501612299565b6040516370a0823160e01b81526001600160a01b0384811660048301529192506000918316906370a082319060240160206040518083038186803b15801561183357600080fd5b505afa158015611847573d6000803e3d6000fd5b505050506040513d601f19601f8201168201806040525081019061186b9190612471565b905061187d60608501604086016123db565b6001600160f81b03191661190957836060013581116119045760405162461bcd60e51b815260206004820152603360248201527f5b42616c616e636520436f6e646974696f6e5d205573657220646f6573206e6f60448201527f74206f776e20656e6f75676820746f6b656e730000000000000000000000000060648201526084016102f3565b6113a7565b61191960608501604086016123db565b7effffffffffffffffffffffffffffffffffffffffffffffffffffffffffffff1916600160f81b14156113a757836060013581106113a75760405162461bcd60e51b815260206004820152602d60248201527f5b42616c616e636520436f6e646974696f6e5d2055736572206f776e7320746f60448201527f6f206d616e7920746f6b656e730000000000000000000000000000000000000060648201526084016102f3565b6119cc60208201826123a3565b6119d35750565b6007546000906001600160a01b031663b95ed06f6119f76040850160208601612299565b6040516001600160e01b031960e084901b1681526001600160a01b03909116600482015260240160206040518083038186803b158015611a3657600080fd5b505afa158015611a4a573d6000803e3d6000fd5b505050506040513d601f19601f82011682018060405250810190611a6e9190612471565b9050611a8060608301604084016123db565b6001600160f81b031916611b0757816060013581116104d75760405162461bcd60e51b815260206004820152603a60248201527f5b507269636520436f6e646974696f6e5d20546f6b656e20707269636520697360448201527f206c6f776572207468616e2065787065637465642076616c756500000000000060648201526084016102f3565b611b1760608301604084016123db565b7effffffffffffffffffffffffffffffffffffffffffffffffffffffffffffff1916600160f81b14156104d757816060013581106104d75760405162461bcd60e51b815260206004820152603b60248201527f5b507269636520436f6e646974696f6e5d20546f6b656e20707269636520697360448201527f20686967686572207468616e2065787065637465642076616c7565000000000060648201526084016102f3565b6040517fdd62ed3e0000000000000000000000000000000000000000000000000000000081526001600160a01b03848116600483015230602483015282919084169063dd62ed3e9060440160206040518083038186803b158015611c2057600080fd5b505afa158015611c34573d6000803e3d6000fd5b505050506040513d601f19601f82011682018060405250810190611c589190612471565b10156116325760405162461bcd60e51b815260206004820152604f60248201527f5b416c6c6f77616e636520436f6e646974696f6e5d205573657220646964206e60448201527f6f74206769766520656e6f75676820616c6c6f77616e636520746f207468652060648201527f736372697074206578656375746f720000000000000000000000000000000000608482015260a4016102f3565b6000806040518060400160405280601981526020017f454950373132446f6d61696e28737472696e67206e616d652900000000000000815250604051602001611d3b91906124f0565b60408051808303601f1901815282825280516020918201208383018352601084527f4461656d6f6e732d537761702d76303100000000000000000000000000000000938201939093528151908101929092527fd494fd548b14a1547af8c246446da074565ab30b8a6d38ed48fa7601ab0726979082015260600160405160208183030381529060405280519060200120905060006040518061022001604052806101fd81526020016127a56101fd9139604051602001611dfb91906124f0565b604051602081830303815290604052805190602001208460000135856020016020810190611e299190612299565b611e396060880160408901612299565b611e496080890160608a016123db565b6080890135611e5e60c08b0160a08c01612299565b611e6e60e08c0160c08d01612299565b6040805160208101999099528801969096526001600160a01b03948516606088015292841660808701526001600160f81b031990911660a086015260c0850152811660e084810191909152911661010083015285013561012082015261014001604051602081830303815290604052611eea8561010001611fd1565b611ef786610180016120a8565b611f04876101e001612126565b611f118861026001612151565b611f1e896102a0016121da565b6040805160208101969096528501939093526060840191909152608083015260a082015260c00160408051601f1981840301815290829052611f6392916020016124c1565b60408051808303601f1901815282825280516020918201207f1901000000000000000000000000000000000000000000000000000000000000828501526022840195909552604280840195909552815180840390950185526062909201905282519201919091209392505050565b60006040518060800160405280604481526020016126f960449139604051602001611ffc91906124f0565b60408051601f19818403018152919052805160209182012090612021908401846123a3565b6120316040850160208601612299565b61204160608601604087016123db565b856060013560405160200161208b95949392919094855292151560208501526001600160a01b039190911660408401526001600160f81b0319166060830152608082015260a00190565b604051602081830303815290604052805190602001209050919050565b6000604051806060016040528060338152602001612682603391396040516020016120d391906124f0565b60408051601f198184030181529190528051602091820120906120f8908401846123a3565b604080516020818101949094529115158282015291840135606082015290830135608082015260a00161208b565b600060405180608001604052806041815260200161276460419139604051602001611ffc91906124f0565b600060405180606001604052806027815260200161273d6027913960405160200161217c91906124f0565b60408051601f198184030181529190528051602091820120906121a1908401846123a3565b6121b16040850160208601612489565b60405160200161208b93929190928352901515602083015263ffffffff16604082015260600190565b60006040518060800160405280604481526020016126b56044913960405160200161220591906124f0565b60408051601f1981840301815291905280516020918201209061222a908401846123a3565b602084013560408501356122446080870160608801612299565b60408051602081019690965293151593850193909352606084019190915260808301526001600160a01b031660a082015260c00161208b565b80356001600160a01b038116811461229457600080fd5b919050565b6000602082840312156122aa578081fd5b6122b38261227d565b9392505050565b600080604083850312156122cc578081fd5b6122d58361227d565b946020939093013593505050565b600060208083850312156122f5578182fd5b825167ffffffffffffffff8082111561230c578384fd5b818501915085601f83011261231f578384fd5b8151818111156123315761233161264b565b8060051b604051601f19603f830116810181811085821117156123565761235661264b565b604052828152858101935084860182860187018a1015612374578788fd5b8795505b83861015612396578051855260019590950194938601938601612378565b5098975050505050505050565b6000602082840312156123b4578081fd5b81356122b381612661565b6000602082840312156123d0578081fd5b81516122b381612661565b6000602082840312156123ec578081fd5b81356001600160f81b0319811681146122b3578182fd5b600060208284031215612414578081fd5b5035919050565b600080600080848603610380811215612432578283fd5b61032080821215612441578384fd5b869550850135935050610340840135915061036084013560ff81168114612466578182fd5b939692955090935050565b600060208284031215612482578081fd5b5051919050565b60006020828403121561249a578081fd5b81356122b38161266f565b6000602082840312156124b6578081fd5b81516122b38161266f565b600083516124d3818460208801612609565b8351908301906124e7818360208801612609565b01949350505050565b60008251612502818460208701612609565b9190910192915050565b600060a082018783526020878185015260a0604085015281875180845260c0860191508289019350845b8181101561255b5784516001600160a01b031683529383019391830191600101612536565b50506001600160a01b03969096166060850152505050608001529392505050565b6000821982111561258f5761258f612635565b500190565b600063ffffffff8083168185168083038211156124e7576124e7612635565b6000826125ce57634e487b7160e01b81526012600452602481fd5b500490565b60008160001904831182151516156125ed576125ed612635565b500290565b60008282101561260457612604612635565b500390565b60005b8381101561262457818101518382015260200161260c565b838111156113a75750506000910152565b634e487b7160e01b600052601160045260246000fd5b634e487b7160e01b600052604160045260246000fd5b801515811461073e57600080fd5b63ffffffff8116811461073e57600080fdfe4672657175656e637928626f6f6c20656e61626c65642c75696e743235362064656c61792c75696e7432353620737461727429466f6c6c6f7728626f6f6c20656e61626c65642c75696e743235362073686966742c627974657333322073637269707449642c61646472657373206578656375746f722942616c616e636528626f6f6c20656e61626c65642c6164647265737320746f6b656e2c62797465733120636f6d70617269736f6e2c75696e7432353620616d6f756e742952657065746974696f6e7328626f6f6c20656e61626c65642c75696e74333220616d6f756e7429507269636528626f6f6c20656e61626c65642c6164647265737320746f6b656e2c62797465733120636f6d70617269736f6e2c75696e743235362076616c7565295377617028627974657333322073637269707449642c6164647265737320746f6b656e46726f6d2c6164647265737320746f6b656e546f2c6279746573312074797065416d742c75696e7432353620616d6f756e742c6164647265737320757365722c61646472657373206578656375746f722c75696e7432353620636861696e49642c42616c616e63652062616c616e63652c4672657175656e6379206672657175656e63792c50726963652070726963652c52657065746974696f6e732072657065746974696f6e732c466f6c6c6f7720666f6c6c6f772942616c616e636528626f6f6c20656e61626c65642c6164647265737320746f6b656e2c62797465733120636f6d70617269736f6e2c75696e7432353620616d6f756e7429466f6c6c6f7728626f6f6c20656e61626c65642c75696e743235362073686966742c627974657333322073637269707449642c61646472657373206578656375746f72294672657175656e637928626f6f6c20656e61626c65642c75696e743235362064656c61792c75696e7432353620737461727429507269636528626f6f6c20656e61626c65642c6164647265737320746f6b656e2c62797465733120636f6d70617269736f6e2c75696e743235362076616c75652952657065746974696f6e7328626f6f6c20656e61626c65642c75696e74333220616d6f756e7429a264697066735822122019ea1972e5ccb9da1ca3ad616c52ae3ca572ffa428138c196abe4e9776019b1064736f6c63430008040033",
  "linkReferences": {},
  "deployedLinkReferences": {}
}