{
  "_format": "hh-sol-artifact-1",
  "contractName": "SwapperScriptExecutor",
  "sourceName": "contracts/SwapperScriptExecutor.sol",
  "abi": [
    {
      "anonymous": false,
      "inputs": [
        {
          "indexed": true,
          "internalType": "address",
          "name": "previousOwner",
          "type": "address"
        },
        {
          "indexed": true,
          "internalType": "address",
          "name": "newOwner",
          "type": "address"
        }
      ],
      "name": "OwnershipTransferred",
      "type": "event"
    },
    {
      "inputs": [],
      "name": "GAS_COST",
      "outputs": [
        {
          "internalType": "uint256",
          "name": "",
          "type": "uint256"
        }
      ],
      "stateMutability": "view",
      "type": "function"
    },
    {
      "inputs": [],
      "name": "MINIMUM_GAS_FOR_SCRIPT_EXECUTION",
      "outputs": [
        {
          "internalType": "uint256",
          "name": "",
          "type": "uint256"
        }
      ],
      "stateMutability": "view",
      "type": "function"
    },
    {
      "inputs": [
        {
          "components": [
            {
              "internalType": "bytes32",
              "name": "scriptId",
              "type": "bytes32"
            },
            {
              "internalType": "address",
              "name": "tokenFrom",
              "type": "address"
            },
            {
              "internalType": "address",
              "name": "tokenTo",
              "type": "address"
            },
            {
              "internalType": "uint256",
              "name": "amount",
              "type": "uint256"
            },
            {
              "internalType": "address",
              "name": "user",
              "type": "address"
            },
            {
              "internalType": "address",
              "name": "executor",
              "type": "address"
            },
            {
              "internalType": "uint256",
              "name": "chainId",
              "type": "uint256"
            },
            {
              "components": [
                {
                  "internalType": "bool",
                  "name": "enabled",
                  "type": "bool"
                },
                {
                  "internalType": "address",
                  "name": "token",
                  "type": "address"
                },
                {
                  "internalType": "bytes1",
                  "name": "comparison",
                  "type": "bytes1"
                },
                {
                  "internalType": "uint256",
                  "name": "amount",
                  "type": "uint256"
                }
              ],
              "internalType": "struct Balance",
              "name": "balance",
              "type": "tuple"
            },
            {
              "components": [
                {
                  "internalType": "bool",
                  "name": "enabled",
                  "type": "bool"
                },
                {
                  "internalType": "uint256",
                  "name": "delay",
                  "type": "uint256"
                },
                {
                  "internalType": "uint256",
                  "name": "start",
                  "type": "uint256"
                }
              ],
              "internalType": "struct Frequency",
              "name": "frequency",
              "type": "tuple"
            },
            {
              "components": [
                {
                  "internalType": "bool",
                  "name": "enabled",
                  "type": "bool"
                },
                {
                  "internalType": "address",
                  "name": "token",
                  "type": "address"
                },
                {
                  "internalType": "bytes1",
                  "name": "comparison",
                  "type": "bytes1"
                },
                {
                  "internalType": "uint256",
                  "name": "value",
                  "type": "uint256"
                }
              ],
              "internalType": "struct Price",
              "name": "price",
              "type": "tuple"
            },
            {
              "components": [
                {
                  "internalType": "bool",
                  "name": "enabled",
                  "type": "bool"
                },
                {
                  "internalType": "uint32",
                  "name": "amount",
                  "type": "uint32"
                }
              ],
              "internalType": "struct Repetitions",
              "name": "repetitions",
              "type": "tuple"
            },
            {
              "components": [
                {
                  "internalType": "bool",
                  "name": "enabled",
                  "type": "bool"
                },
                {
                  "internalType": "uint256",
                  "name": "shift",
                  "type": "uint256"
                },
                {
                  "internalType": "bytes32",
                  "name": "scriptId",
                  "type": "bytes32"
                },
                {
                  "internalType": "address",
                  "name": "executor",
                  "type": "address"
                }
              ],
              "internalType": "struct Follow",
              "name": "follow",
              "type": "tuple"
            }
          ],
          "internalType": "struct Swap",
          "name": "message",
          "type": "tuple"
        },
        {
          "internalType": "bytes32",
          "name": "r",
          "type": "bytes32"
        },
        {
          "internalType": "bytes32",
          "name": "s",
          "type": "bytes32"
        },
        {
          "internalType": "uint8",
          "name": "v",
          "type": "uint8"
        }
      ],
      "name": "execute",
      "outputs": [],
      "stateMutability": "nonpayable",
      "type": "function"
    },
    {
      "inputs": [
        {
          "internalType": "bytes32",
          "name": "_id",
          "type": "bytes32"
        }
      ],
      "name": "getRepetitions",
      "outputs": [
        {
          "internalType": "uint32",
          "name": "",
          "type": "uint32"
        }
      ],
      "stateMutability": "view",
      "type": "function"
    },
    {
      "inputs": [],
      "name": "owner",
      "outputs": [
        {
          "internalType": "address",
          "name": "",
          "type": "address"
        }
      ],
      "stateMutability": "view",
      "type": "function"
    },
    {
      "inputs": [],
      "name": "preliminaryCheck",
      "outputs": [],
      "stateMutability": "view",
      "type": "function"
    },
    {
      "inputs": [],
      "name": "renounceOwnership",
      "outputs": [],
      "stateMutability": "nonpayable",
      "type": "function"
    },
    {
      "inputs": [
        {
          "internalType": "bytes32",
          "name": "_id",
          "type": "bytes32"
        }
      ],
      "name": "revoke",
      "outputs": [],
      "stateMutability": "nonpayable",
      "type": "function"
    },
    {
      "inputs": [
        {
          "internalType": "address",
          "name": "_exchange",
          "type": "address"
        }
      ],
      "name": "setExchange",
      "outputs": [],
      "stateMutability": "nonpayable",
      "type": "function"
    },
    {
      "inputs": [
        {
          "internalType": "address",
          "name": "_gasPriceFeed",
          "type": "address"
        }
      ],
      "name": "setGasFeed",
      "outputs": [],
      "stateMutability": "nonpayable",
      "type": "function"
    },
    {
      "inputs": [
        {
          "internalType": "address",
          "name": "_gasTank",
          "type": "address"
        }
      ],
      "name": "setGasTank",
      "outputs": [],
      "stateMutability": "nonpayable",
      "type": "function"
    },
    {
      "inputs": [
        {
          "internalType": "uint256",
          "name": "_amount",
          "type": "uint256"
        }
      ],
      "name": "setMinimumGas",
      "outputs": [],
      "stateMutability": "nonpayable",
      "type": "function"
    },
    {
      "inputs": [
        {
          "internalType": "address",
          "name": "_priceRetriever",
          "type": "address"
        }
      ],
      "name": "setPriceRetriever",
      "outputs": [],
      "stateMutability": "nonpayable",
      "type": "function"
    },
    {
      "inputs": [
        {
          "internalType": "address",
          "name": "newOwner",
          "type": "address"
        }
      ],
      "name": "transferOwnership",
      "outputs": [],
      "stateMutability": "nonpayable",
      "type": "function"
    },
    {
      "inputs": [
        {
          "components": [
            {
              "internalType": "bytes32",
              "name": "scriptId",
              "type": "bytes32"
            },
            {
              "internalType": "address",
              "name": "tokenFrom",
              "type": "address"
            },
            {
              "internalType": "address",
              "name": "tokenTo",
              "type": "address"
            },
            {
              "internalType": "uint256",
              "name": "amount",
              "type": "uint256"
            },
            {
              "internalType": "address",
              "name": "user",
              "type": "address"
            },
            {
              "internalType": "address",
              "name": "executor",
              "type": "address"
            },
            {
              "internalType": "uint256",
              "name": "chainId",
              "type": "uint256"
            },
            {
              "components": [
                {
                  "internalType": "bool",
                  "name": "enabled",
                  "type": "bool"
                },
                {
                  "internalType": "address",
                  "name": "token",
                  "type": "address"
                },
                {
                  "internalType": "bytes1",
                  "name": "comparison",
                  "type": "bytes1"
                },
                {
                  "internalType": "uint256",
                  "name": "amount",
                  "type": "uint256"
                }
              ],
              "internalType": "struct Balance",
              "name": "balance",
              "type": "tuple"
            },
            {
              "components": [
                {
                  "internalType": "bool",
                  "name": "enabled",
                  "type": "bool"
                },
                {
                  "internalType": "uint256",
                  "name": "delay",
                  "type": "uint256"
                },
                {
                  "internalType": "uint256",
                  "name": "start",
                  "type": "uint256"
                }
              ],
              "internalType": "struct Frequency",
              "name": "frequency",
              "type": "tuple"
            },
            {
              "components": [
                {
                  "internalType": "bool",
                  "name": "enabled",
                  "type": "bool"
                },
                {
                  "internalType": "address",
                  "name": "token",
                  "type": "address"
                },
                {
                  "internalType": "bytes1",
                  "name": "comparison",
                  "type": "bytes1"
                },
                {
                  "internalType": "uint256",
                  "name": "value",
                  "type": "uint256"
                }
              ],
              "internalType": "struct Price",
              "name": "price",
              "type": "tuple"
            },
            {
              "components": [
                {
                  "internalType": "bool",
                  "name": "enabled",
                  "type": "bool"
                },
                {
                  "internalType": "uint32",
                  "name": "amount",
                  "type": "uint32"
                }
              ],
              "internalType": "struct Repetitions",
              "name": "repetitions",
              "type": "tuple"
            },
            {
              "components": [
                {
                  "internalType": "bool",
                  "name": "enabled",
                  "type": "bool"
                },
                {
                  "internalType": "uint256",
                  "name": "shift",
                  "type": "uint256"
                },
                {
                  "internalType": "bytes32",
                  "name": "scriptId",
                  "type": "bytes32"
                },
                {
                  "internalType": "address",
                  "name": "executor",
                  "type": "address"
                }
              ],
              "internalType": "struct Follow",
              "name": "follow",
              "type": "tuple"
            }
          ],
          "internalType": "struct Swap",
          "name": "message",
          "type": "tuple"
        },
        {
          "internalType": "bytes32",
          "name": "r",
          "type": "bytes32"
        },
        {
          "internalType": "bytes32",
          "name": "s",
          "type": "bytes32"
        },
        {
          "internalType": "uint8",
          "name": "v",
          "type": "uint8"
        }
      ],
      "name": "verify",
      "outputs": [],
      "stateMutability": "view",
      "type": "function"
    },
    {
      "inputs": [
        {
          "internalType": "address",
          "name": "user",
          "type": "address"
        }
      ],
      "name": "verifyGasTank",
      "outputs": [],
      "stateMutability": "view",
      "type": "function"
    },
    {
      "inputs": [
        {
          "internalType": "address",
          "name": "user",
          "type": "address"
        },
        {
          "internalType": "bytes32",
          "name": "id",
          "type": "bytes32"
        }
      ],
      "name": "verifyRevocation",
      "outputs": [],
      "stateMutability": "view",
      "type": "function"
    }
  ],
  "bytecode": "0x60806040526706f05b59d3b20000600855607d60095534801561002157600080fd5b5061002b33610034565b46600455610084565b600080546001600160a01b038381166001600160a01b0319831681178455604051919092169283917f8be0079c531659141344cd1fd0a4f28419497f9722a3daafe3b4186f6b6457e09190a35050565b6127ab806100936000396000f3fe608060405234801561001057600080fd5b506004361061011b5760003560e01c80637ca65cdc116100b2578063b75c7dc611610081578063f2fde38b11610066578063f2fde38b14610266578063f722163914610279578063f87d57811461028c57600080fd5b8063b75c7dc614610229578063ca7f103b1461025d57600080fd5b80637ca65cdc146101ad5780637ea42ebe146101c05780638d2869f2146101fb5780638da5cb5b1461020e57600080fd5b80634ead94a3116100ee5780634ead94a31461016c57806358a346dc1461017f57806367b1f5df14610192578063715018a6146101a557600080fd5b806301ff45aa14610120578063022c91051461012a578063080e46911461013d57806343e297b214610159575b600080fd5b61012861029f565b005b61012861013836600461221e565b6103ae565b61014660085481565b6040519081526020015b60405180910390f35b61012861016736600461209c565b610815565b61012861017a3660046120bd565b6108a4565b61012861018d36600461209c565b610942565b6101286101a036600461209c565b6109d1565b610128610a4d565b6101286101bb36600461209c565b610ab1565b6101e66101ce366004612206565b60009081526002602052604090205463ffffffff1690565b60405163ffffffff9091168152602001610150565b610128610209366004612206565b610ba8565b6000546040516001600160a01b039091168152602001610150565b610128610237366004612206565b33600090815260036020908152604080832093835292905220805460ff19166001179055565b61014660095481565b61012861027436600461209c565b610c57565b61012861028736600461221e565b610d36565b61012861029a36600461209c565b610ef9565b6005546001600160a01b03166102fc5760405162461bcd60e51b815260206004820152600760248201527f47617354616e6b0000000000000000000000000000000000000000000000000060448201526064015b60405180910390fd5b6007546001600160a01b03166103545760405162461bcd60e51b815260206004820152600f60248201527f507269636573526574726965766572000000000000000000000000000000000060448201526064016102f3565b6006546001600160a01b03166103ac5760405162461bcd60e51b815260206004820152600c60248201527f476173507269636546656564000000000000000000000000000000000000000060448201526064016102f3565b565b6103ba84848484610d36565b600a546001600160a01b03166104385760405162461bcd60e51b815260206004820152602160248201527f45786368616e6765206164647265737320686173206e6f74206265656e20736560448201527f740000000000000000000000000000000000000000000000000000000000000060648201526084016102f3565b833560009081526001602081815260408084204290556002909152822080549192909161046c90849063ffffffff16612397565b92506101000a81548163ffffffff021916908363ffffffff160217905550600084602001602081019061049f919061209c565b90506001600160a01b0381166323b872dd6104c060a088016080890161209c565b6040516001600160e01b031960e084901b1681526001600160a01b03909116600482015230602482015260608801356044820152606401602060405180830381600087803b15801561051157600080fd5b505af1158015610525573d6000803e3d6000fd5b505050506040513d601f19601f8201168201806040525081019061054991906121c2565b5060408051600280825260608201835260009260208301908036833701905050905061057b604087016020880161209c565b8160008151811061059c57634e487b7160e01b600052603260045260246000fd5b6001600160a01b03909216602092830291909101909101526105c4606087016040880161209c565b816001815181106105e557634e487b7160e01b600052603260045260246000fd5b6001600160a01b03928316602091820292909201810191909152600a5482166000908152600b82526040808220938616825292909152205460ff1661063b57600a5461063b9083906001600160a01b0316610f88565b600a546001600160a01b03166338ed1739606088013560008461066460a08c0160808d0161209c565b61067142620927c061237f565b6040518663ffffffff1660e01b815260040161069195949392919061230f565b600060405180830381600087803b1580156106ab57600080fd5b505af11580156106bf573d6000803e3d6000fd5b505050506040513d6000823e601f3d908101601f191682016040526106e791908101906120e6565b50600554600654604080517f7a95c80800000000000000000000000000000000000000000000000000000000815290516001600160a01b03938416936398094b3d931691637a95c808916004808301926020929190829003018186803b15801561075057600080fd5b505afa158015610764573d6000803e3d6000fd5b505050506040513d601f19601f820116820180604052508101906107889190612274565b60095461079591906123b6565b6107a560a08a0160808b0161209c565b336040516001600160e01b031960e086901b16815260048101939093526001600160a01b039182166024840152166044820152606401600060405180830381600087803b1580156107f557600080fd5b505af1158015610809573d6000803e3d6000fd5b50505050505050505050565b6000546001600160a01b0316331461086f5760405162461bcd60e51b815260206004820181905260248201527f4f776e61626c653a2063616c6c6572206973206e6f7420746865206f776e657260448201526064016102f3565b6001600160a01b03811661088257600080fd5b600580546001600160a01b0319166001600160a01b0392909216919091179055565b6001600160a01b038216600090815260036020908152604080832084845290915290205460ff161561093e5760405162461bcd60e51b815260206004820152602360248201527f53637269707420686173206265656e207265766f6b656420627920746865207560448201527f736572000000000000000000000000000000000000000000000000000000000060648201526084016102f3565b5050565b6000546001600160a01b0316331461099c5760405162461bcd60e51b815260206004820181905260248201527f4f776e61626c653a2063616c6c6572206973206e6f7420746865206f776e657260448201526064016102f3565b6001600160a01b0381166109af57600080fd5b600680546001600160a01b0319166001600160a01b0392909216919091179055565b6000546001600160a01b03163314610a2b5760405162461bcd60e51b815260206004820181905260248201527f4f776e61626c653a2063616c6c6572206973206e6f7420746865206f776e657260448201526064016102f3565b600a80546001600160a01b0319166001600160a01b0392909216919091179055565b6000546001600160a01b03163314610aa75760405162461bcd60e51b815260206004820181905260248201527f4f776e61626c653a2063616c6c6572206973206e6f7420746865206f776e657260448201526064016102f3565b6103ac600061105a565b6008546005546040516370a0823160e01b81526001600160a01b038481166004830152909116906370a082319060240160206040518083038186803b158015610af957600080fd5b505afa158015610b0d573d6000803e3d6000fd5b505050506040513d601f19601f82011682018060405250810190610b319190612274565b1015610ba55760405162461bcd60e51b815260206004820152602a60248201527f5b47617320436f6e646974696f6e5d204e6f7420656e6f75676820676173206960448201527f6e207468652074616e6b0000000000000000000000000000000000000000000060648201526084016102f3565b50565b6000546001600160a01b03163314610c025760405162461bcd60e51b815260206004820181905260248201527f4f776e61626c653a2063616c6c6572206973206e6f7420746865206f776e657260448201526064016102f3565b60008111610c525760405162461bcd60e51b815260206004820152601d60248201527f416d6f756e74206d7573742062652067726561746572207468616e203000000060448201526064016102f3565b600855565b6000546001600160a01b03163314610cb15760405162461bcd60e51b815260206004820181905260248201527f4f776e61626c653a2063616c6c6572206973206e6f7420746865206f776e657260448201526064016102f3565b6001600160a01b038116610d2d5760405162461bcd60e51b815260206004820152602660248201527f4f776e61626c653a206e6577206f776e657220697320746865207a65726f206160448201527f646472657373000000000000000000000000000000000000000000000000000060648201526084016102f3565b610ba58161105a565b610d50610d4960a086016080870161209c565b85356108a4565b610d5c848484846110aa565b610d6b600160608601356123d5565b610d7b604086016020870161209c565b6001600160a01b03166370a08231610d9960a088016080890161209c565b6040516001600160e01b031960e084901b1681526001600160a01b03909116600482015260240160206040518083038186803b158015610dd857600080fd5b505afa158015610dec573d6000803e3d6000fd5b505050506040513d601f19601f82011682018060405250810190610e109190612274565b11610e5d5760405162461bcd60e51b815260206004820181905260248201527f5573657220646f65736e2774206861766520656e6f7567682062616c616e636560448201526064016102f3565b610e6c610240850185356111d3565b610e7b610280850185356112aa565b610e8a6101608501853561145d565b610ea660e08501610ea160a087016080880161209c565b6115eb565b610eb3846101c0016117e5565b610ec66101bb60a086016080870161209c565b610ef3610ed960a086016080870161209c565b610ee9604087016020880161209c565b86606001356119e3565b50505050565b6000546001600160a01b03163314610f535760405162461bcd60e51b815260206004820181905260248201527f4f776e61626c653a2063616c6c6572206973206e6f7420746865206f776e657260448201526064016102f3565b6001600160a01b038116610f6657600080fd5b600780546001600160a01b0319166001600160a01b0392909216919091179055565b6040517f095ea7b30000000000000000000000000000000000000000000000000000000081526001600160a01b038281166004830152600019602483015283169063095ea7b390604401602060405180830381600087803b158015610fec57600080fd5b505af1158015611000573d6000803e3d6000fd5b505050506040513d601f19601f8201168201806040525081019061102491906121c2565b506001600160a01b039081166000908152600b60209081526040808320949093168252929092529020805460ff19166001179055565b600080546001600160a01b038381166001600160a01b0319831681178455604051919092169283917f8be0079c531659141344cd1fd0a4f28419497f9722a3daafe3b4186f6b6457e09190a35050565b6004548460c00135146110ff5760405162461bcd60e51b815260206004820152600b60248201527f57726f6e6720636861696e00000000000000000000000000000000000000000060448201526064016102f3565b600161110a85611b18565b6040805160008152602081018083529290925260ff841690820152606081018590526080810184905260a0016020604051602081039080840390855afa158015611158573d6000803e3d6000fd5b5050604051601f1901516001600160a01b0316905061117d60a086016080870161209c565b6001600160a01b031614610ef35760405162461bcd60e51b815260206004820152601860248201527f5369676e617475726520646f6573206e6f74206d61746368000000000000000060448201526064016102f3565b6111e060208301836121a6565b6111e8575050565b6111f8604083016020840161228c565b60008281526002602052604090205463ffffffff91821691161061093e5760405162461bcd60e51b815260206004820152604f60248201527f5b52657065746974696f6e7320436f6e646974696f6e5d20546865207363726960448201527f707420686173207265616368656420697473206d6178696d756d206e756d626560648201527f72206f6620657865637574696f6e730000000000000000000000000000000000608482015260a4016102f3565b6112b760208301836121a6565b6112bf575050565b6000306112d2608085016060860161209c565b6001600160a01b031614611376576112f0608084016060850161209c565b6001600160a01b0316637ea42ebe84604001356040518263ffffffff1660e01b815260040161132191815260200190565b60206040518083038186803b15801561133957600080fd5b505afa15801561134d573d6000803e3d6000fd5b505050506040513d601f19601f8201168201806040525081019061137191906122a8565b61138f565b60408084013560009081526002602052205463ffffffff165b6000838152600260209081526040909120549192506113b891908501359063ffffffff1661237f565b8163ffffffff16116114585760405162461bcd60e51b815260206004820152604260248201527f5b466f6c6c6f7720436f6e646974696f6e5d2054686520706172656e7420736360448201527f7269707420686173206e6f74206265656e20287265296578656375746564207960648201527f6574000000000000000000000000000000000000000000000000000000000000608482015260a4016102f3565b505050565b61146a60208301836121a6565b611472575050565b6000818152600160205260409020541561153f576000818152600160209081526040909120546114a5918401359061237f565b421161093e5760405162461bcd60e51b815260206004820152604960248201527f5b4672657175656e637920436f6e646974696f6e5d204e6f7420656e6f75676860448201527f2074696d6520686173207061737365642073696e636520746865206c6173742060648201527f657865637574696f6e0000000000000000000000000000000000000000000000608482015260a4016102f3565b6115516020830135604084013561237f565b421161093e5760405162461bcd60e51b815260206004820152604660248201527f5b4672657175656e637920436f6e646974696f6e5d204e6f7420656e6f75676860448201527f2074696d6520686173207061737365642073696e63652074686520737461727460648201527f20626c6f636b0000000000000000000000000000000000000000000000000000608482015260a4016102f3565b6115f860208301836121a6565b611600575050565b6000611612604084016020850161209c565b6040516370a0823160e01b81526001600160a01b0384811660048301529192506000918316906370a082319060240160206040518083038186803b15801561165957600080fd5b505afa15801561166d573d6000803e3d6000fd5b505050506040513d601f19601f820116820180604052508101906116919190612274565b90506116a360608501604086016121de565b6001600160f81b03191661172f578360600135811161172a5760405162461bcd60e51b815260206004820152603360248201527f5b42616c616e636520436f6e646974696f6e5d205573657220646f6573206e6f60448201527f74206f776e20656e6f75676820746f6b656e730000000000000000000000000060648201526084016102f3565b610ef3565b61173f60608501604086016121de565b7effffffffffffffffffffffffffffffffffffffffffffffffffffffffffffff1916600160f81b1415610ef35783606001358110610ef35760405162461bcd60e51b815260206004820152602d60248201527f5b42616c616e636520436f6e646974696f6e5d2055736572206f776e7320746f60448201527f6f206d616e7920746f6b656e730000000000000000000000000000000000000060648201526084016102f3565b6117f260208201826121a6565b6117f95750565b6007546000906001600160a01b031663b95ed06f61181d604085016020860161209c565b6040516001600160e01b031960e084901b1681526001600160a01b03909116600482015260240160206040518083038186803b15801561185c57600080fd5b505afa158015611870573d6000803e3d6000fd5b505050506040513d601f19601f820116820180604052508101906118949190612274565b90506118a660608301604084016121de565b6001600160f81b03191661192d578160600135811161093e5760405162461bcd60e51b815260206004820152603a60248201527f5b507269636520436f6e646974696f6e5d20546f6b656e20707269636520697360448201527f206c6f776572207468616e2065787065637465642076616c756500000000000060648201526084016102f3565b61193d60608301604084016121de565b7effffffffffffffffffffffffffffffffffffffffffffffffffffffffffffff1916600160f81b141561093e578160600135811061093e5760405162461bcd60e51b815260206004820152603b60248201527f5b507269636520436f6e646974696f6e5d20546f6b656e20707269636520697360448201527f20686967686572207468616e2065787065637465642076616c7565000000000060648201526084016102f3565b6040517fdd62ed3e0000000000000000000000000000000000000000000000000000000081526001600160a01b03848116600483015230602483015282919084169063dd62ed3e9060440160206040518083038186803b158015611a4657600080fd5b505afa158015611a5a573d6000803e3d6000fd5b505050506040513d601f19601f82011682018060405250810190611a7e9190612274565b10156114585760405162461bcd60e51b815260206004820152604f60248201527f5b416c6c6f77616e636520436f6e646974696f6e5d205573657220646964206e60448201527f6f74206769766520656e6f75676820616c6c6f77616e636520746f207468652060648201527f736372697074206578656375746f720000000000000000000000000000000000608482015260a4016102f3565b6000806040518060400160405280601981526020017f454950373132446f6d61696e28737472696e67206e616d652900000000000000815250604051602001611b6191906122f3565b60408051808303601f1901815282825280516020918201208383018352600f84527f4461656d6f6e732d537761702d76310000000000000000000000000000000000938201939093528151908101929092527f989bdde1513447115bd3d47ba3c5c1756490443862372882f0508c7cad53928a9082015260600160405160208183030381529060405280519060200120905060006040518061022001604052806101ee81526020016125476101ee9139604051602001611c2191906122f3565b604051602081830303815290604052805190602001208460000135856020016020810190611c4f919061209c565b611c5f606088016040890161209c565b6060880135611c7460a08a0160808b0161209c565b611c8460c08b0160a08c0161209c565b6040805160208101989098528701959095526001600160a01b039384166060870152918316608086015260a0850152811660c084810191909152911660e083015285013561010082015261012001604051602081830303815290604052611ced8560e001611dd4565b611cfa8661016001611eab565b611d07876101c001611f29565b611d148861024001611f54565b611d218961028001611fdd565b6040805160208101969096528501939093526060840191909152608083015260a082015260c00160408051601f1981840301815290829052611d6692916020016122c4565b60408051808303601f1901815282825280516020918201207f1901000000000000000000000000000000000000000000000000000000000000828501526022840195909552604280840195909552815180840390950185526062909201905282519201919091209392505050565b60006040518060800160405280604481526020016124dc60449139604051602001611dff91906122f3565b60408051601f19818403018152919052805160209182012090611e24908401846121a6565b611e34604085016020860161209c565b611e4460608601604087016121de565b8560600135604051602001611e8e95949392919094855292151560208501526001600160a01b039190911660408401526001600160f81b0319166060830152608082015260a00190565b604051602081830303815290604052805190602001209050919050565b600060405180606001604052806033815260200161246560339139604051602001611ed691906122f3565b60408051601f19818403018152919052805160209182012090611efb908401846121a6565b604080516020818101949094529115158282015291840135606082015290830135608082015260a001611e8e565b600060405180608001604052806041815260200161273560419139604051602001611dff91906122f3565b600060405180606001604052806027815260200161252060279139604051602001611f7f91906122f3565b60408051601f19818403018152919052805160209182012090611fa4908401846121a6565b611fb4604085016020860161228c565b604051602001611e8e93929190928352901515602083015263ffffffff16604082015260600190565b60006040518060800160405280604481526020016124986044913960405160200161200891906122f3565b60408051601f1981840301815291905280516020918201209061202d908401846121a6565b60208401356040850135612047608087016060880161209c565b60408051602081019690965293151593850193909352606084019190915260808301526001600160a01b031660a082015260c001611e8e565b80356001600160a01b038116811461209757600080fd5b919050565b6000602082840312156120ad578081fd5b6120b682612080565b9392505050565b600080604083850312156120cf578081fd5b6120d883612080565b946020939093013593505050565b600060208083850312156120f8578182fd5b825167ffffffffffffffff8082111561210f578384fd5b818501915085601f830112612122578384fd5b8151818111156121345761213461242e565b8060051b604051601f19603f830116810181811085821117156121595761215961242e565b604052828152858101935084860182860187018a1015612177578788fd5b8795505b8386101561219957805185526001959095019493860193860161217b565b5098975050505050505050565b6000602082840312156121b7578081fd5b81356120b681612444565b6000602082840312156121d3578081fd5b81516120b681612444565b6000602082840312156121ef578081fd5b81356001600160f81b0319811681146120b6578182fd5b600060208284031215612217578081fd5b5035919050565b600080600080848603610360811215612235578283fd5b61030080821215612244578384fd5b869550850135935050610320840135915061034084013560ff81168114612269578182fd5b939692955090935050565b600060208284031215612285578081fd5b5051919050565b60006020828403121561229d578081fd5b81356120b681612452565b6000602082840312156122b9578081fd5b81516120b681612452565b600083516122d68184602088016123ec565b8351908301906122ea8183602088016123ec565b01949350505050565b600082516123058184602087016123ec565b9190910192915050565b600060a082018783526020878185015260a0604085015281875180845260c0860191508289019350845b8181101561235e5784516001600160a01b031683529383019391830191600101612339565b50506001600160a01b03969096166060850152505050608001529392505050565b6000821982111561239257612392612418565b500190565b600063ffffffff8083168185168083038211156122ea576122ea612418565b60008160001904831182151516156123d0576123d0612418565b500290565b6000828210156123e7576123e7612418565b500390565b60005b838110156124075781810151838201526020016123ef565b83811115610ef35750506000910152565b634e487b7160e01b600052601160045260246000fd5b634e487b7160e01b600052604160045260246000fd5b8015158114610ba557600080fd5b63ffffffff81168114610ba557600080fdfe4672657175656e637928626f6f6c20656e61626c65642c75696e743235362064656c61792c75696e7432353620737461727429466f6c6c6f7728626f6f6c20656e61626c65642c75696e743235362073686966742c627974657333322073637269707449642c61646472657373206578656375746f722942616c616e636528626f6f6c20656e61626c65642c6164647265737320746f6b656e2c62797465733120636f6d70617269736f6e2c75696e7432353620616d6f756e742952657065746974696f6e7328626f6f6c20656e61626c65642c75696e74333220616d6f756e74295377617028627974657333322073637269707449642c6164647265737320746f6b656e46726f6d2c6164647265737320746f6b656e546f2c75696e7432353620616d6f756e742c6164647265737320757365722c61646472657373206578656375746f722c75696e7432353620636861696e49642c42616c616e63652062616c616e63652c4672657175656e6379206672657175656e63792c50726963652070726963652c52657065746974696f6e732072657065746974696f6e732c466f6c6c6f7720666f6c6c6f772942616c616e636528626f6f6c20656e61626c65642c6164647265737320746f6b656e2c62797465733120636f6d70617269736f6e2c75696e7432353620616d6f756e7429466f6c6c6f7728626f6f6c20656e61626c65642c75696e743235362073686966742c627974657333322073637269707449642c61646472657373206578656375746f72294672657175656e637928626f6f6c20656e61626c65642c75696e743235362064656c61792c75696e7432353620737461727429507269636528626f6f6c20656e61626c65642c6164647265737320746f6b656e2c62797465733120636f6d70617269736f6e2c75696e743235362076616c75652952657065746974696f6e7328626f6f6c20656e61626c65642c75696e74333220616d6f756e7429507269636528626f6f6c20656e61626c65642c6164647265737320746f6b656e2c62797465733120636f6d70617269736f6e2c75696e743235362076616c756529a26469706673582212202c76fd0f518acf6e05651f00f14be2fb535e67ae48c27ccd8fba79c037ab179e64736f6c63430008040033",
  "linkReferences": {},
  "deployedLinkReferences": {}
}