{
  "_format": "hh-sol-artifact-1",
  "contractName": "TransferScriptExecutor",
  "sourceName": "contracts/TransferScriptExecutor.sol",
  "abi": [
    {
      "anonymous": false,
      "inputs": [
        {
          "indexed": true,
          "internalType": "address",
          "name": "previousOwner",
          "type": "address"
        },
        {
          "indexed": true,
          "internalType": "address",
          "name": "newOwner",
          "type": "address"
        }
      ],
      "name": "OwnershipTransferred",
      "type": "event"
    },
    {
      "inputs": [],
      "name": "MINIMUM_GAS_FOR_SCRIPT_EXECUTION",
      "outputs": [
        {
          "internalType": "uint256",
          "name": "",
          "type": "uint256"
        }
      ],
      "stateMutability": "view",
      "type": "function"
    },
    {
      "inputs": [
        {
          "components": [
            {
              "internalType": "bytes32",
              "name": "id",
              "type": "bytes32"
            },
            {
              "internalType": "address",
              "name": "token",
              "type": "address"
            },
            {
              "internalType": "address",
              "name": "destination",
              "type": "address"
            },
            {
              "internalType": "uint256",
              "name": "amount",
              "type": "uint256"
            },
            {
              "internalType": "address",
              "name": "user",
              "type": "address"
            },
            {
              "internalType": "address",
              "name": "executor",
              "type": "address"
            },
            {
              "components": [
                {
                  "internalType": "bool",
                  "name": "enabled",
                  "type": "bool"
                },
                {
                  "internalType": "address",
                  "name": "token",
                  "type": "address"
                },
                {
                  "internalType": "bytes1",
                  "name": "comparison",
                  "type": "bytes1"
                },
                {
                  "internalType": "uint256",
                  "name": "amount",
                  "type": "uint256"
                }
              ],
              "internalType": "struct Balance",
              "name": "balance",
              "type": "tuple"
            },
            {
              "components": [
                {
                  "internalType": "bool",
                  "name": "enabled",
                  "type": "bool"
                },
                {
                  "internalType": "uint256",
                  "name": "blocks",
                  "type": "uint256"
                },
                {
                  "internalType": "uint256",
                  "name": "startBlock",
                  "type": "uint256"
                }
              ],
              "internalType": "struct Frequency",
              "name": "frequency",
              "type": "tuple"
            },
            {
              "components": [
                {
                  "internalType": "bool",
                  "name": "enabled",
                  "type": "bool"
                },
                {
                  "internalType": "address",
                  "name": "token",
                  "type": "address"
                },
                {
                  "internalType": "bytes1",
                  "name": "comparison",
                  "type": "bytes1"
                },
                {
                  "internalType": "uint256",
                  "name": "value",
                  "type": "uint256"
                }
              ],
              "internalType": "struct Price",
              "name": "price",
              "type": "tuple"
            }
          ],
          "internalType": "struct Transfer",
          "name": "message",
          "type": "tuple"
        },
        {
          "internalType": "bytes32",
          "name": "r",
          "type": "bytes32"
        },
        {
          "internalType": "bytes32",
          "name": "s",
          "type": "bytes32"
        },
        {
          "internalType": "uint8",
          "name": "v",
          "type": "uint8"
        }
      ],
      "name": "execute",
      "outputs": [],
      "stateMutability": "nonpayable",
      "type": "function"
    },
    {
      "inputs": [],
      "name": "owner",
      "outputs": [
        {
          "internalType": "address",
          "name": "",
          "type": "address"
        }
      ],
      "stateMutability": "view",
      "type": "function"
    },
    {
      "inputs": [],
      "name": "renounceOwnership",
      "outputs": [],
      "stateMutability": "nonpayable",
      "type": "function"
    },
    {
      "inputs": [
        {
          "internalType": "bytes32",
          "name": "_id",
          "type": "bytes32"
        }
      ],
      "name": "revoke",
      "outputs": [],
      "stateMutability": "nonpayable",
      "type": "function"
    },
    {
      "inputs": [
        {
          "internalType": "address",
          "name": "_brgToken",
          "type": "address"
        }
      ],
      "name": "setBrgToken",
      "outputs": [],
      "stateMutability": "nonpayable",
      "type": "function"
    },
    {
      "inputs": [
        {
          "internalType": "address",
          "name": "_gasTank",
          "type": "address"
        }
      ],
      "name": "setGasTank",
      "outputs": [],
      "stateMutability": "nonpayable",
      "type": "function"
    },
    {
      "inputs": [
        {
          "internalType": "uint256",
          "name": "_amount",
          "type": "uint256"
        }
      ],
      "name": "setMinimumGas",
      "outputs": [],
      "stateMutability": "nonpayable",
      "type": "function"
    },
    {
      "inputs": [
        {
          "internalType": "address",
          "name": "_priceRetriever",
          "type": "address"
        }
      ],
      "name": "setPriceRetriever",
      "outputs": [],
      "stateMutability": "nonpayable",
      "type": "function"
    },
    {
      "inputs": [
        {
          "internalType": "address",
          "name": "newOwner",
          "type": "address"
        }
      ],
      "name": "transferOwnership",
      "outputs": [],
      "stateMutability": "nonpayable",
      "type": "function"
    },
    {
      "inputs": [
        {
          "components": [
            {
              "internalType": "bytes32",
              "name": "id",
              "type": "bytes32"
            },
            {
              "internalType": "address",
              "name": "token",
              "type": "address"
            },
            {
              "internalType": "address",
              "name": "destination",
              "type": "address"
            },
            {
              "internalType": "uint256",
              "name": "amount",
              "type": "uint256"
            },
            {
              "internalType": "address",
              "name": "user",
              "type": "address"
            },
            {
              "internalType": "address",
              "name": "executor",
              "type": "address"
            },
            {
              "components": [
                {
                  "internalType": "bool",
                  "name": "enabled",
                  "type": "bool"
                },
                {
                  "internalType": "address",
                  "name": "token",
                  "type": "address"
                },
                {
                  "internalType": "bytes1",
                  "name": "comparison",
                  "type": "bytes1"
                },
                {
                  "internalType": "uint256",
                  "name": "amount",
                  "type": "uint256"
                }
              ],
              "internalType": "struct Balance",
              "name": "balance",
              "type": "tuple"
            },
            {
              "components": [
                {
                  "internalType": "bool",
                  "name": "enabled",
                  "type": "bool"
                },
                {
                  "internalType": "uint256",
                  "name": "blocks",
                  "type": "uint256"
                },
                {
                  "internalType": "uint256",
                  "name": "startBlock",
                  "type": "uint256"
                }
              ],
              "internalType": "struct Frequency",
              "name": "frequency",
              "type": "tuple"
            },
            {
              "components": [
                {
                  "internalType": "bool",
                  "name": "enabled",
                  "type": "bool"
                },
                {
                  "internalType": "address",
                  "name": "token",
                  "type": "address"
                },
                {
                  "internalType": "bytes1",
                  "name": "comparison",
                  "type": "bytes1"
                },
                {
                  "internalType": "uint256",
                  "name": "value",
                  "type": "uint256"
                }
              ],
              "internalType": "struct Price",
              "name": "price",
              "type": "tuple"
            }
          ],
          "internalType": "struct Transfer",
          "name": "message",
          "type": "tuple"
        },
        {
          "internalType": "bytes32",
          "name": "r",
          "type": "bytes32"
        },
        {
          "internalType": "bytes32",
          "name": "s",
          "type": "bytes32"
        },
        {
          "internalType": "uint8",
          "name": "v",
          "type": "uint8"
        }
      ],
      "name": "verify",
      "outputs": [],
      "stateMutability": "view",
      "type": "function"
    },
    {
      "inputs": [
        {
          "internalType": "address",
          "name": "user",
          "type": "address"
        }
      ],
      "name": "verifyGasTank",
      "outputs": [],
      "stateMutability": "view",
      "type": "function"
    },
    {
      "inputs": [
        {
          "internalType": "address",
          "name": "user",
          "type": "address"
        },
        {
          "internalType": "bytes32",
          "name": "id",
          "type": "bytes32"
        }
      ],
      "name": "verifyRevocation",
      "outputs": [],
      "stateMutability": "view",
      "type": "function"
    }
  ],
  "bytecode": "0x6080604052670de0b6b3a764000060065534801561001c57600080fd5b506100263361002b565b61007b565b600080546001600160a01b038381166001600160a01b0319831681178455604051919092169283917f8be0079c531659141344cd1fd0a4f28419497f9722a3daafe3b4186f6b6457e09190a35050565b6116f08061008a6000396000f3fe608060405234801561001057600080fd5b50600436106100cf5760003560e01c80638da5cb5b1161008c578063b75c7dc611610066578063b75c7dc614610187578063bc4d5a17146101bb578063f2fde38b146101ce578063f87d5781146101e157600080fd5b80638da5cb5b146101465780639091872e146101615780639b633e101461017457600080fd5b8063080e4691146100d457806343e297b2146100f05780634ead94a314610105578063715018a6146101185780637ca65cdc146101205780638d2869f214610133575b600080fd5b6100dd60065481565b6040519081526020015b60405180910390f35b6101036100fe36600461125a565b6101f4565b005b61010361011336600461127b565b610249565b6101036102cd565b61010361012e36600461125a565b610303565b6101036101413660046112c0565b6103e9565b6000546040516001600160a01b0390911681526020016100e7565b61010361016f3660046112d8565b610418565b61010361018236600461125a565b610492565b6101036101953660046112c0565b33600090815260026020908152604080832093835292905220805460ff19166001179055565b6101036101c93660046112d8565b6104de565b6101036101dc36600461125a565b6105a7565b6101036101ef36600461125a565b61063f565b6000546001600160a01b031633146102275760405162461bcd60e51b815260040161021e9061140c565b60405180910390fd5b600480546001600160a01b0319166001600160a01b0392909216919091179055565b6001600160a01b038216600090815260026020908152604080832084845290915290205460ff16156102c95760405162461bcd60e51b815260206004820152602360248201527f53637269707420686173206265656e207265766f6b656420627920746865207560448201526239b2b960e91b606482015260840161021e565b5050565b6000546001600160a01b031633146102f75760405162461bcd60e51b815260040161021e9061140c565b610301600061068b565b565b600654600480546040516370a0823160e01b81526001600160a01b03858116938201939093529116906370a082319060240160206040518083038186803b15801561034d57600080fd5b505afa158015610361573d6000803e3d6000fd5b505050506040513d601f19601f8201168201806040525081019061038591906113bb565b10156103e65760405162461bcd60e51b815260206004820152602a60248201527f5b47617320436f6e646974696f6e5d204e6f7420656e6f7567682067617320696044820152696e207468652074616e6b60b01b606482015260840161021e565b50565b6000546001600160a01b031633146104135760405162461bcd60e51b815260040161021e9061140c565b600655565b61042a84608001518560000151610249565b610436848484846106db565b6104488460e0015185600001516107a2565b61045a8460c001518560800151610977565b610468846101000151610b10565b6104758460800151610303565b61048c846080015185602001518660600151610cc1565b50505050565b6000546001600160a01b031633146104bc5760405162461bcd60e51b815260040161021e9061140c565b600380546001600160a01b0319166001600160a01b0392909216919091179055565b6104ea84848484610418565b8351600090815260016020908152604091829020439055850151608086015182870151606088015193516323b872dd60e01b81526001600160a01b039283166004820152908216602482015260448101939093529091908216906323b872dd90606401602060405180830381600087803b15801561056757600080fd5b505af115801561057b573d6000803e3d6000fd5b505050506040513d601f19601f8201168201806040525081019061059f91906112a4565b505050505050565b6000546001600160a01b031633146105d15760405162461bcd60e51b815260040161021e9061140c565b6001600160a01b0381166106365760405162461bcd60e51b815260206004820152602660248201527f4f776e61626c653a206e6577206f776e657220697320746865207a65726f206160448201526564647265737360d01b606482015260840161021e565b6103e68161068b565b6000546001600160a01b031633146106695760405162461bcd60e51b815260040161021e9061140c565b600580546001600160a01b0319166001600160a01b0392909216919091179055565b600080546001600160a01b038381166001600160a01b0319831681178455604051919092169283917f8be0079c531659141344cd1fd0a4f28419497f9722a3daafe3b4186f6b6457e09190a35050565b60016106e685610dd4565b6040805160008152602081018083529290925260ff841690820152606081018590526080810184905260a0016020604051602081039080840390855afa158015610734573d6000803e3d6000fd5b505050602060405103516001600160a01b031684608001516001600160a01b03161461048c5760405162461bcd60e51b815260206004820152601860248201527f5369676e617475726520646f6573206e6f74206d617463680000000000000000604482015260640161021e565b81516107ac575050565b6000818152600160205260409020541561086657602080830151600083815260019092526040909120546107e09190611479565b43116102c95760405162461bcd60e51b815260206004820152604960248201527f5b4672657175656e637920436f6e646974696f6e5d204e6f7420656e6f75676860448201527f2074696d6520686173207061737365642073696e636520746865206c6173742060648201526832bc32b1baba34b7b760b91b608482015260a40161021e565b81604001514310156108e05760405162461bcd60e51b815260206004820152603a60248201527f5b4672657175656e637920436f6e646974696f6e5d20537461727420626c6f6360448201527f6b20686173206e6f74206265656e207265616368656420796574000000000000606482015260840161021e565b816020015182604001516108f49190611479565b43116102c95760405162461bcd60e51b815260206004820152604660248201527f5b4672657175656e637920436f6e646974696f6e5d204e6f7420656e6f75676860448201527f2074696d6520686173207061737365642073696e63652074686520737461727460648201526520626c6f636b60d01b608482015260a40161021e565b8151610981575050565b60208201516040516370a0823160e01b81526001600160a01b038381166004830152600091908316906370a082319060240160206040518083038186803b1580156109cb57600080fd5b505afa1580156109df573d6000803e3d6000fd5b505050506040513d601f19601f82011682018060405250810190610a0391906113bb565b60408501519091506001600160f81b031916610a8d5783606001518111610a885760405162461bcd60e51b815260206004820152603360248201527f5b42616c616e636520436f6e646974696f6e5d205573657220646f6573206e6f60448201527274206f776e20656e6f75676820746f6b656e7360681b606482015260840161021e565b61048c565b60408401516001600160f81b031916600160f81b141561048c578360600151811061048c5760405162461bcd60e51b815260206004820152602d60248201527f5b42616c616e636520436f6e646974696f6e5d2055736572206f776e7320746f60448201526c6f206d616e7920746f6b656e7360981b606482015260840161021e565b8051610b195750565b600554602082015160405163b95ed06f60e01b81526001600160a01b039182166004820152600092919091169063b95ed06f9060240160206040518083038186803b158015610b6757600080fd5b505afa158015610b7b573d6000803e3d6000fd5b505050506040513d601f19601f82011682018060405250810190610b9f91906113bb565b60408301519091506001600160f81b031916610c2e57816060015181116102c95760405162461bcd60e51b815260206004820152603a60248201527f5b507269636520436f6e646974696f6e5d20546f6b656e20707269636520697360448201527f206c6f776572207468616e2065787065637465642076616c7565000000000000606482015260840161021e565b60408201516001600160f81b031916600160f81b14156102c957816060015181106102c95760405162461bcd60e51b815260206004820152603b60248201527f5b507269636520436f6e646974696f6e5d20546f6b656e20707269636520697360448201527f20686967686572207468616e2065787065637465642076616c75650000000000606482015260840161021e565b604051636eb1769f60e11b81526001600160a01b03848116600483015230602483015282919084169063dd62ed3e9060440160206040518083038186803b158015610d0b57600080fd5b505afa158015610d1f573d6000803e3d6000fd5b505050506040513d601f19601f82011682018060405250810190610d4391906113bb565b1015610dcf5760405162461bcd60e51b815260206004820152604f60248201527f5b416c6c6f77616e636520436f6e646974696f6e5d205573657220646964206e60448201527f6f74206769766520656e6f75676820616c6c6f77616e636520746f207468652060648201526e39b1b934b83a1032bc32b1baba37b960891b608482015260a40161021e565b505050565b6000806040518060400160405280601981526020017f454950373132446f6d61696e28737472696e67206e616d652900000000000000815250604051602001610e1d91906113d3565b60408051808303601f1901815282825280516020918201208383018352601284527142616c726f672d5472616e736665722d763160701b938201939093528151908101929092527f86868580448ebb9e9796ba2c9de912662d665d81728ff327aa99f846976643e390820152606001604051602081830303815290604052805190602001209050600060405180610180016040528061015181526020016114ac6101519139604051602001610ed291906113d3565b60405160208183030381529060405280519060200120846000015185602001518660400151876060015188608001518960a00151610f138b60c00151610fe1565b610f208c60e0015161108b565b610f2e8d61010001516110fd565b60408051602081019b909b528a01989098526001600160a01b0396871660608a0152948616608089015260a088019390935290841660c087015290921660e08501526101008401919091526101208301526101408201526101600160408051601f1981840301815290829052805160209182012061190160f01b91830191909152602282018490526042820181905291506062016040516020818303038152906040528051906020012092505050919050565b60006040518060800160405280604481526020016116366044913960405160200161100c91906113d3565b60408051601f198184030181528282528051602091820120855186830151878501516060808a015195880194909452911515948601949094526001600160a01b03909316908401526001600160f81b0319909116608083015260a082015260c0015b604051602081830303815290604052805190602001209050919050565b60006040518060600160405280603981526020016115fd603991396040516020016110b691906113d3565b60408051601f19818403018152828252805160209182012085518683015187850151938601929092521515928401929092526060830191909152608082015260a00161106e565b600060405180608001604052806041815260200161167a6041913960405160200161100c91906113d3565b80356001600160a01b038116811461113f57600080fd5b919050565b600060808284031215611155578081fd5b6040516080810181811067ffffffffffffffff8211171561118457634e487b7160e01b83526041600452602483fd5b60405290508082356111958161149d565b81526111a360208401611128565b602082015260408301356001600160f81b0319811681146111c357600080fd5b6040820152606092830135920191909152919050565b6000606082840312156111ea578081fd5b6040516060810181811067ffffffffffffffff8211171561121957634e487b7160e01b83526041600452602483fd5b604052905080823561122a8161149d565b8082525060208301356020820152604083013560408201525092915050565b803560ff8116811461113f57600080fd5b60006020828403121561126b578081fd5b61127482611128565b9392505050565b6000806040838503121561128d578081fd5b61129683611128565b946020939093013593505050565b6000602082840312156112b5578081fd5b81516112748161149d565b6000602082840312156112d1578081fd5b5035919050565b6000806000808486036102808112156112ef578283fd5b610220808212156112fe578384fd5b611306611441565b91508635825261131860208801611128565b602083015261132960408801611128565b60408301526060870135606083015261134460808801611128565b608083015261135560a08801611128565b60a08301526113678860c08901611144565b60c083015261137a8861014089016111d9565b60e083015261138d886101a08901611144565b610100830152909450850135925061024085013591506113b06102608601611249565b905092959194509250565b6000602082840312156113cc578081fd5b5051919050565b60008251815b818110156113f357602081860181015185830152016113d9565b818111156114015782828501525b509190910192915050565b6020808252818101527f4f776e61626c653a2063616c6c6572206973206e6f7420746865206f776e6572604082015260600190565b604051610120810167ffffffffffffffff8111828210171561147357634e487b7160e01b600052604160045260246000fd5b60405290565b6000821982111561149857634e487b7160e01b81526011600452602481fd5b500190565b80151581146103e657600080fdfe5472616e7366657228627974657333322069642c6164647265737320746f6b656e2c616464726573732064657374696e6174696f6e2c75696e7432353620616d6f756e742c6164647265737320757365722c61646472657373206578656375746f722c42616c616e63652062616c616e63652c4672657175656e6379206672657175656e63792c50726963652070726963652942616c616e636528626f6f6c20656e61626c65642c6164647265737320746f6b656e2c62797465733120636f6d70617269736f6e2c75696e7432353620616d6f756e74294672657175656e637928626f6f6c20656e61626c65642c75696e7432353620626c6f636b732c75696e74323536207374617274426c6f636b29507269636528626f6f6c20656e61626c65642c6164647265737320746f6b656e2c62797465733120636f6d70617269736f6e2c75696e743235362076616c7565294672657175656e637928626f6f6c20656e61626c65642c75696e7432353620626c6f636b732c75696e74323536207374617274426c6f636b2942616c616e636528626f6f6c20656e61626c65642c6164647265737320746f6b656e2c62797465733120636f6d70617269736f6e2c75696e7432353620616d6f756e7429507269636528626f6f6c20656e61626c65642c6164647265737320746f6b656e2c62797465733120636f6d70617269736f6e2c75696e743235362076616c756529a2646970667358221220db4af21e295412ccfab89bb02612bcaa39a9a33e34cbff85476cb51855f6df9164736f6c63430008040033",
  "linkReferences": {},
  "deployedLinkReferences": {}
}