{
  "_format": "hh-sol-artifact-1",
  "contractName": "TransferScriptExecutor",
  "sourceName": "contracts/TransferScriptExecutor.sol",
  "abi": [
    {
      "anonymous": false,
      "inputs": [
        {
          "indexed": true,
          "internalType": "address",
          "name": "previousOwner",
          "type": "address"
        },
        {
          "indexed": true,
          "internalType": "address",
          "name": "newOwner",
          "type": "address"
        }
      ],
      "name": "OwnershipTransferred",
      "type": "event"
    },
    {
      "inputs": [],
      "name": "MINIMUM_GAS_FOR_SCRIPT_EXECUTION",
      "outputs": [
        {
          "internalType": "uint256",
          "name": "",
          "type": "uint256"
        }
      ],
      "stateMutability": "view",
      "type": "function"
    },
    {
      "inputs": [
        {
          "components": [
            {
              "internalType": "bytes32",
              "name": "scriptId",
              "type": "bytes32"
            },
            {
              "internalType": "address",
              "name": "token",
              "type": "address"
            },
            {
              "internalType": "address",
              "name": "destination",
              "type": "address"
            },
            {
              "internalType": "uint256",
              "name": "amount",
              "type": "uint256"
            },
            {
              "internalType": "address",
              "name": "user",
              "type": "address"
            },
            {
              "internalType": "address",
              "name": "executor",
              "type": "address"
            },
            {
              "internalType": "uint256",
              "name": "chainId",
              "type": "uint256"
            },
            {
              "components": [
                {
                  "internalType": "bool",
                  "name": "enabled",
                  "type": "bool"
                },
                {
                  "internalType": "address",
                  "name": "token",
                  "type": "address"
                },
                {
                  "internalType": "bytes1",
                  "name": "comparison",
                  "type": "bytes1"
                },
                {
                  "internalType": "uint256",
                  "name": "amount",
                  "type": "uint256"
                }
              ],
              "internalType": "struct Balance",
              "name": "balance",
              "type": "tuple"
            },
            {
              "components": [
                {
                  "internalType": "bool",
                  "name": "enabled",
                  "type": "bool"
                },
                {
                  "internalType": "uint256",
                  "name": "shift",
                  "type": "uint256"
                },
                {
                  "internalType": "bytes32",
                  "name": "scriptId",
                  "type": "bytes32"
                },
                {
                  "internalType": "address",
                  "name": "executor",
                  "type": "address"
                }
              ],
              "internalType": "struct Follow",
              "name": "follow",
              "type": "tuple"
            },
            {
              "components": [
                {
                  "internalType": "bool",
                  "name": "enabled",
                  "type": "bool"
                },
                {
                  "internalType": "uint256",
                  "name": "blocks",
                  "type": "uint256"
                },
                {
                  "internalType": "uint256",
                  "name": "startBlock",
                  "type": "uint256"
                }
              ],
              "internalType": "struct Frequency",
              "name": "frequency",
              "type": "tuple"
            },
            {
              "components": [
                {
                  "internalType": "bool",
                  "name": "enabled",
                  "type": "bool"
                },
                {
                  "internalType": "address",
                  "name": "token",
                  "type": "address"
                },
                {
                  "internalType": "bytes1",
                  "name": "comparison",
                  "type": "bytes1"
                },
                {
                  "internalType": "uint256",
                  "name": "value",
                  "type": "uint256"
                }
              ],
              "internalType": "struct Price",
              "name": "price",
              "type": "tuple"
            },
            {
              "components": [
                {
                  "internalType": "bool",
                  "name": "enabled",
                  "type": "bool"
                },
                {
                  "internalType": "uint32",
                  "name": "amount",
                  "type": "uint32"
                }
              ],
              "internalType": "struct Repetitions",
              "name": "repetitions",
              "type": "tuple"
            }
          ],
          "internalType": "struct Transfer",
          "name": "message",
          "type": "tuple"
        },
        {
          "internalType": "bytes32",
          "name": "r",
          "type": "bytes32"
        },
        {
          "internalType": "bytes32",
          "name": "s",
          "type": "bytes32"
        },
        {
          "internalType": "uint8",
          "name": "v",
          "type": "uint8"
        }
      ],
      "name": "execute",
      "outputs": [],
      "stateMutability": "nonpayable",
      "type": "function"
    },
    {
      "inputs": [
        {
          "internalType": "bytes32",
          "name": "_id",
          "type": "bytes32"
        }
      ],
      "name": "getRepetitions",
      "outputs": [
        {
          "internalType": "uint32",
          "name": "",
          "type": "uint32"
        }
      ],
      "stateMutability": "view",
      "type": "function"
    },
    {
      "inputs": [],
      "name": "owner",
      "outputs": [
        {
          "internalType": "address",
          "name": "",
          "type": "address"
        }
      ],
      "stateMutability": "view",
      "type": "function"
    },
    {
      "inputs": [],
      "name": "renounceOwnership",
      "outputs": [],
      "stateMutability": "nonpayable",
      "type": "function"
    },
    {
      "inputs": [
        {
          "internalType": "bytes32",
          "name": "_id",
          "type": "bytes32"
        }
      ],
      "name": "revoke",
      "outputs": [],
      "stateMutability": "nonpayable",
      "type": "function"
    },
    {
      "inputs": [
        {
          "internalType": "address",
          "name": "_brgToken",
          "type": "address"
        }
      ],
      "name": "setBrgToken",
      "outputs": [],
      "stateMutability": "nonpayable",
      "type": "function"
    },
    {
      "inputs": [
        {
          "internalType": "address",
          "name": "_gasTank",
          "type": "address"
        }
      ],
      "name": "setGasTank",
      "outputs": [],
      "stateMutability": "nonpayable",
      "type": "function"
    },
    {
      "inputs": [
        {
          "internalType": "uint256",
          "name": "_amount",
          "type": "uint256"
        }
      ],
      "name": "setMinimumGas",
      "outputs": [],
      "stateMutability": "nonpayable",
      "type": "function"
    },
    {
      "inputs": [
        {
          "internalType": "address",
          "name": "_priceRetriever",
          "type": "address"
        }
      ],
      "name": "setPriceRetriever",
      "outputs": [],
      "stateMutability": "nonpayable",
      "type": "function"
    },
    {
      "inputs": [
        {
          "internalType": "address",
          "name": "newOwner",
          "type": "address"
        }
      ],
      "name": "transferOwnership",
      "outputs": [],
      "stateMutability": "nonpayable",
      "type": "function"
    },
    {
      "inputs": [
        {
          "components": [
            {
              "internalType": "bytes32",
              "name": "scriptId",
              "type": "bytes32"
            },
            {
              "internalType": "address",
              "name": "token",
              "type": "address"
            },
            {
              "internalType": "address",
              "name": "destination",
              "type": "address"
            },
            {
              "internalType": "uint256",
              "name": "amount",
              "type": "uint256"
            },
            {
              "internalType": "address",
              "name": "user",
              "type": "address"
            },
            {
              "internalType": "address",
              "name": "executor",
              "type": "address"
            },
            {
              "internalType": "uint256",
              "name": "chainId",
              "type": "uint256"
            },
            {
              "components": [
                {
                  "internalType": "bool",
                  "name": "enabled",
                  "type": "bool"
                },
                {
                  "internalType": "address",
                  "name": "token",
                  "type": "address"
                },
                {
                  "internalType": "bytes1",
                  "name": "comparison",
                  "type": "bytes1"
                },
                {
                  "internalType": "uint256",
                  "name": "amount",
                  "type": "uint256"
                }
              ],
              "internalType": "struct Balance",
              "name": "balance",
              "type": "tuple"
            },
            {
              "components": [
                {
                  "internalType": "bool",
                  "name": "enabled",
                  "type": "bool"
                },
                {
                  "internalType": "uint256",
                  "name": "shift",
                  "type": "uint256"
                },
                {
                  "internalType": "bytes32",
                  "name": "scriptId",
                  "type": "bytes32"
                },
                {
                  "internalType": "address",
                  "name": "executor",
                  "type": "address"
                }
              ],
              "internalType": "struct Follow",
              "name": "follow",
              "type": "tuple"
            },
            {
              "components": [
                {
                  "internalType": "bool",
                  "name": "enabled",
                  "type": "bool"
                },
                {
                  "internalType": "uint256",
                  "name": "blocks",
                  "type": "uint256"
                },
                {
                  "internalType": "uint256",
                  "name": "startBlock",
                  "type": "uint256"
                }
              ],
              "internalType": "struct Frequency",
              "name": "frequency",
              "type": "tuple"
            },
            {
              "components": [
                {
                  "internalType": "bool",
                  "name": "enabled",
                  "type": "bool"
                },
                {
                  "internalType": "address",
                  "name": "token",
                  "type": "address"
                },
                {
                  "internalType": "bytes1",
                  "name": "comparison",
                  "type": "bytes1"
                },
                {
                  "internalType": "uint256",
                  "name": "value",
                  "type": "uint256"
                }
              ],
              "internalType": "struct Price",
              "name": "price",
              "type": "tuple"
            },
            {
              "components": [
                {
                  "internalType": "bool",
                  "name": "enabled",
                  "type": "bool"
                },
                {
                  "internalType": "uint32",
                  "name": "amount",
                  "type": "uint32"
                }
              ],
              "internalType": "struct Repetitions",
              "name": "repetitions",
              "type": "tuple"
            }
          ],
          "internalType": "struct Transfer",
          "name": "message",
          "type": "tuple"
        },
        {
          "internalType": "bytes32",
          "name": "r",
          "type": "bytes32"
        },
        {
          "internalType": "bytes32",
          "name": "s",
          "type": "bytes32"
        },
        {
          "internalType": "uint8",
          "name": "v",
          "type": "uint8"
        }
      ],
      "name": "verify",
      "outputs": [],
      "stateMutability": "view",
      "type": "function"
    },
    {
      "inputs": [
        {
          "internalType": "address",
          "name": "user",
          "type": "address"
        }
      ],
      "name": "verifyGasTank",
      "outputs": [],
      "stateMutability": "view",
      "type": "function"
    },
    {
      "inputs": [
        {
          "internalType": "address",
          "name": "user",
          "type": "address"
        },
        {
          "internalType": "bytes32",
          "name": "id",
          "type": "bytes32"
        }
      ],
      "name": "verifyRevocation",
      "outputs": [],
      "stateMutability": "view",
      "type": "function"
    }
  ],
  "bytecode": "0x6080604052670de0b6b3a764000060085534801561001c57600080fd5b506100263361002f565b4660045561007f565b600080546001600160a01b038381166001600160a01b0319831681178455604051919092169283917f8be0079c531659141344cd1fd0a4f28419497f9722a3daafe3b4186f6b6457e09190a35050565b611e438061008e6000396000f3fe608060405234801561001057600080fd5b50600436106100ea5760003560e01c80638d2869f21161008c578063b75c7dc611610066578063b75c7dc6146101dd578063c5d21f6d14610211578063f2fde38b14610224578063f87d57811461023757600080fd5b80638d2869f21461019c5780638da5cb5b146101af5780639b633e10146101ca57600080fd5b80634ead94a3116100c85780634ead94a314610133578063715018a6146101465780637ca65cdc1461014e5780637ea42ebe1461016157600080fd5b8063080e4691146100ef57806343e297b21461010b57806349661dce14610120575b600080fd5b6100f860085481565b6040519081526020015b60405180910390f35b61011e610119366004611854565b61024a565b005b61011e61012e366004611916565b61029f565b61011e610141366004611875565b6103d5565b61011e610459565b61011e61015c366004611854565b61048f565b61018761016f3660046118fe565b60009081526002602052604090205463ffffffff1690565b60405163ffffffff9091168152602001610102565b61011e6101aa3660046118fe565b610573565b6000546040516001600160a01b039091168152602001610102565b61011e6101d8366004611854565b6105a2565b61011e6101eb3660046118fe565b33600090815260036020908152604080832093835292905220805460ff19166001179055565b61011e61021f366004611916565b6105ee565b61011e610232366004611854565b6107b1565b61011e610245366004611854565b610849565b6000546001600160a01b0316331461027d5760405162461bcd60e51b815260040161027490611a07565b60405180910390fd5b600680546001600160a01b0319166001600160a01b0392909216919091179055565b6102ab848484846105ee565b83356000908152600160208181526040808420439055600290915282208054919290916102df90849063ffffffff16611a54565b92506101000a81548163ffffffff021916908363ffffffff16021790555060008460200160208101906103129190611854565b90506001600160a01b0381166323b872dd61033360a0880160808901611854565b6103436060890160408a01611854565b6040516001600160e01b031960e085901b1681526001600160a01b0392831660048201529116602482015260608801356044820152606401602060405180830381600087803b15801561039557600080fd5b505af11580156103a9573d6000803e3d6000fd5b505050506040513d601f19601f820116820180604052508101906103cd91906118ba565b505050505050565b6001600160a01b038216600090815260036020908152604080832084845290915290205460ff16156104555760405162461bcd60e51b815260206004820152602360248201527f53637269707420686173206265656e207265766f6b656420627920746865207560448201526239b2b960e91b6064820152608401610274565b5050565b6000546001600160a01b031633146104835760405162461bcd60e51b815260040161027490611a07565b61048d6000610895565b565b6008546006546040516370a0823160e01b81526001600160a01b038481166004830152909116906370a082319060240160206040518083038186803b1580156104d757600080fd5b505afa1580156104eb573d6000803e3d6000fd5b505050506040513d601f19601f8201168201806040525081019061050f919061196c565b10156105705760405162461bcd60e51b815260206004820152602a60248201527f5b47617320436f6e646974696f6e5d204e6f7420656e6f7567682067617320696044820152696e207468652074616e6b60b01b6064820152608401610274565b50565b6000546001600160a01b0316331461059d5760405162461bcd60e51b815260040161027490611a07565b600855565b6000546001600160a01b031633146105cc5760405162461bcd60e51b815260040161027490611a07565b600580546001600160a01b0319166001600160a01b0392909216919091179055565b61060861060160a0860160808701611854565b85356103d5565b610614848484846108e5565b61062360016060860135611a73565b6106336040860160208701611854565b6001600160a01b03166370a0823161065160a0880160808901611854565b6040516001600160e01b031960e084901b1681526001600160a01b03909116600482015260240160206040518083038186803b15801561069057600080fd5b505afa1580156106a4573d6000803e3d6000fd5b505050506040513d601f19601f820116820180604052508101906106c8919061196c565b116107155760405162461bcd60e51b815260206004820181905260248201527f5573657220646f65736e2774206861766520656e6f7567682062616c616e63656044820152606401610274565b6107246102c0850185356109fc565b61073361016085018535610ac5565b6107426101e085018535610c5d565b61075e60e0850161075960a0870160808801611854565b610e3a565b61076b8461024001611002565b61077e61015c60a0860160808701611854565b6107ab61079160a0860160808701611854565b6107a16040870160208801611854565b86606001356111e8565b50505050565b6000546001600160a01b031633146107db5760405162461bcd60e51b815260040161027490611a07565b6001600160a01b0381166108405760405162461bcd60e51b815260206004820152602660248201527f4f776e61626c653a206e6577206f776e657220697320746865207a65726f206160448201526564647265737360d01b6064820152608401610274565b61057081610895565b6000546001600160a01b031633146108735760405162461bcd60e51b815260040161027490611a07565b600780546001600160a01b0319166001600160a01b0392909216919091179055565b600080546001600160a01b038381166001600160a01b0319831681178455604051919092169283917f8be0079c531659141344cd1fd0a4f28419497f9722a3daafe3b4186f6b6457e09190a35050565b6004548460c00135146109285760405162461bcd60e51b815260206004820152600b60248201526a2bb937b7339031b430b4b760a91b6044820152606401610274565b6001610933856112f6565b6040805160008152602081018083529290925260ff841690820152606081018590526080810184905260a0016020604051602081039080840390855afa158015610981573d6000803e3d6000fd5b5050604051601f1901516001600160a01b031690506109a660a0860160808701611854565b6001600160a01b0316146107ab5760405162461bcd60e51b815260206004820152601860248201527f5369676e617475726520646f6573206e6f74206d6174636800000000000000006044820152606401610274565b610a09602083018361189e565b610a11575050565b610a216040830160208401611984565b60008281526002602052604090205463ffffffff9182169116106104555760405162461bcd60e51b815260206004820152604f60248201527f5b52657065746974696f6e7320436f6e646974696f6e5d20546865207363726960448201527f707420686173207265616368656420697473206d6178696d756d206e756d626560648201526e72206f6620657865637574696f6e7360881b608482015260a401610274565b610ad2602083018361189e565b610ada575050565b600030610aed6080850160608601611854565b6001600160a01b031614610b9157610b0b6080840160608501611854565b6001600160a01b0316637ea42ebe84604001356040518263ffffffff1660e01b8152600401610b3c91815260200190565b60206040518083038186803b158015610b5457600080fd5b505afa158015610b68573d6000803e3d6000fd5b505050506040513d601f19601f82011682018060405250810190610b8c91906119a0565b610baa565b60408084013560009081526002602052205463ffffffff165b600083815260026020908152604090912054919250610bd391908501359063ffffffff16611a3c565b8163ffffffff1611610c585760405162461bcd60e51b815260206004820152604260248201527f5b466f6c6c6f7720436f6e646974696f6e5d2054686520706172656e7420736360448201527f7269707420686173206e6f74206265656e202872652965786563757465642079606482015261195d60f21b608482015260a401610274565b505050565b610c6a602083018361189e565b610c72575050565b60008181526001602052604090205415610d2b57600081815260016020908152604090912054610ca59184013590611a3c565b43116104555760405162461bcd60e51b815260206004820152604960248201527f5b4672657175656e637920436f6e646974696f6e5d204e6f7420656e6f75676860448201527f2074696d6520686173207061737365642073696e636520746865206c6173742060648201526832bc32b1baba34b7b760b91b608482015260a401610274565b8160400135431015610da55760405162461bcd60e51b815260206004820152603a60248201527f5b4672657175656e637920436f6e646974696f6e5d20537461727420626c6f6360448201527f6b20686173206e6f74206265656e2072656163686564207965740000000000006064820152608401610274565b610db760208301356040840135611a3c565b43116104555760405162461bcd60e51b815260206004820152604660248201527f5b4672657175656e637920436f6e646974696f6e5d204e6f7420656e6f75676860448201527f2074696d6520686173207061737365642073696e63652074686520737461727460648201526520626c6f636b60d01b608482015260a401610274565b610e47602083018361189e565b610e4f575050565b6000610e616040840160208501611854565b6040516370a0823160e01b81526001600160a01b0384811660048301529192506000918316906370a082319060240160206040518083038186803b158015610ea857600080fd5b505afa158015610ebc573d6000803e3d6000fd5b505050506040513d601f19601f82011682018060405250810190610ee0919061196c565b9050610ef260608501604086016118d6565b6001600160f81b031916610f745783606001358111610f6f5760405162461bcd60e51b815260206004820152603360248201527f5b42616c616e636520436f6e646974696f6e5d205573657220646f6573206e6f60448201527274206f776e20656e6f75676820746f6b656e7360681b6064820152608401610274565b6107ab565b610f8460608501604086016118d6565b6001600160f81b031916600160f81b14156107ab57836060013581106107ab5760405162461bcd60e51b815260206004820152602d60248201527f5b42616c616e636520436f6e646974696f6e5d2055736572206f776e7320746f60448201526c6f206d616e7920746f6b656e7360981b6064820152608401610274565b61100f602082018261189e565b6110165750565b6007546000906001600160a01b031663b95ed06f61103a6040850160208601611854565b6040516001600160e01b031960e084901b1681526001600160a01b03909116600482015260240160206040518083038186803b15801561107957600080fd5b505afa15801561108d573d6000803e3d6000fd5b505050506040513d601f19601f820116820180604052508101906110b1919061196c565b90506110c360608301604084016118d6565b6001600160f81b03191661114a57816060013581116104555760405162461bcd60e51b815260206004820152603a60248201527f5b507269636520436f6e646974696f6e5d20546f6b656e20707269636520697360448201527f206c6f776572207468616e2065787065637465642076616c75650000000000006064820152608401610274565b61115a60608301604084016118d6565b6001600160f81b031916600160f81b141561045557816060013581106104555760405162461bcd60e51b815260206004820152603b60248201527f5b507269636520436f6e646974696f6e5d20546f6b656e20707269636520697360448201527f20686967686572207468616e2065787065637465642076616c756500000000006064820152608401610274565b604051636eb1769f60e11b81526001600160a01b03848116600483015230602483015282919084169063dd62ed3e9060440160206040518083038186803b15801561123257600080fd5b505afa158015611246573d6000803e3d6000fd5b505050506040513d601f19601f8201168201806040525081019061126a919061196c565b1015610c585760405162461bcd60e51b815260206004820152604f60248201527f5b416c6c6f77616e636520436f6e646974696f6e5d205573657220646964206e60448201527f6f74206769766520656e6f75676820616c6c6f77616e636520746f207468652060648201526e39b1b934b83a1032bc32b1baba37b960891b608482015260a401610274565b6000806040518060400160405280601981526020017f454950373132446f6d61696e28737472696e67206e616d65290000000000000081525060405160200161133f91906119eb565b60408051808303601f1901815282825280516020918201208383018352601284527142616c726f672d5472616e736665722d763160701b938201939093528151908101929092527f86868580448ebb9e9796ba2c9de912662d665d81728ff327aa99f846976643e39082015260600160405160208183030381529060405280519060200120905060006040518061022001604052806101f88152602001611c166101f891396040516020016113f491906119eb565b6040516020818303038152906040528051906020012084600001358560200160208101906114229190611854565b6114326060880160408901611854565b606088013561144760a08a0160808b01611854565b61145760c08b0160a08c01611854565b6040805160208101989098528701959095526001600160a01b039384166060870152918316608086015260a0850152811660c084810191909152911660e0830152850135610100820152610120016040516020818303038152906040526114c08560e00161158c565b6114cd866101e001611663565b6114da87610240016116e1565b6114e7886102c00161170c565b6114f48961016001611795565b6040805160208101969096528501939093526060840191909152608083015260a082015260c00160408051601f198184030181529082905261153992916020016119bc565b60408051808303601f19018152828252805160209182012061190160f01b828501526022840195909552604280840195909552815180840390950185526062909201905282519201919091209392505050565b6000604051806080016040528060448152602001611b6a604491396040516020016115b791906119eb565b60408051601f198184030181529190528051602091820120906115dc9084018461189e565b6115ec6040850160208601611854565b6115fc60608601604087016118d6565b856060013560405160200161164695949392919094855292151560208501526001600160a01b039190911660408401526001600160f81b0319166060830152608082015260a00190565b604051602081830303815290604052805190602001209050919050565b6000604051806060016040528060398152602001611aed6039913960405160200161168e91906119eb565b60408051601f198184030181529190528051602091820120906116b39084018461189e565b604080516020818101949094529115158282015291840135606082015290830135608082015260a001611646565b6000604051806080016040528060418152602001611bd5604191396040516020016115b791906119eb565b6000604051806060016040528060278152602001611bae6027913960405160200161173791906119eb565b60408051601f1981840301815291905280516020918201209061175c9084018461189e565b61176c6040850160208601611984565b60405160200161164693929190928352901515602083015263ffffffff16604082015260600190565b6000604051806080016040528060448152602001611b26604491396040516020016117c091906119eb565b60408051601f198184030181529190528051602091820120906117e59084018461189e565b602084013560408501356117ff6080870160608801611854565b60408051602081019690965293151593850193909352606084019190915260808301526001600160a01b031660a082015260c001611646565b80356001600160a01b038116811461184f57600080fd5b919050565b600060208284031215611865578081fd5b61186e82611838565b9392505050565b60008060408385031215611887578081fd5b61189083611838565b946020939093013593505050565b6000602082840312156118af578081fd5b813561186e81611acc565b6000602082840312156118cb578081fd5b815161186e81611acc565b6000602082840312156118e7578081fd5b81356001600160f81b03198116811461186e578182fd5b60006020828403121561190f578081fd5b5035919050565b60008060008084860361036081121561192d578283fd5b6103008082121561193c578384fd5b869550850135935050610320840135915061034084013560ff81168114611961578182fd5b939692955090935050565b60006020828403121561197d578081fd5b5051919050565b600060208284031215611995578081fd5b813561186e81611ada565b6000602082840312156119b1578081fd5b815161186e81611ada565b600083516119ce818460208801611a8a565b8351908301906119e2818360208801611a8a565b01949350505050565b600082516119fd818460208701611a8a565b9190910192915050565b6020808252818101527f4f776e61626c653a2063616c6c6572206973206e6f7420746865206f776e6572604082015260600190565b60008219821115611a4f57611a4f611ab6565b500190565b600063ffffffff8083168185168083038211156119e2576119e2611ab6565b600082821015611a8557611a85611ab6565b500390565b60005b83811015611aa5578181015183820152602001611a8d565b838111156107ab5750506000910152565b634e487b7160e01b600052601160045260246000fd5b801515811461057057600080fd5b63ffffffff8116811461057057600080fdfe4672657175656e637928626f6f6c20656e61626c65642c75696e7432353620626c6f636b732c75696e74323536207374617274426c6f636b29466f6c6c6f7728626f6f6c20656e61626c65642c75696e743235362073686966742c627974657333322073637269707449642c61646472657373206578656375746f722942616c616e636528626f6f6c20656e61626c65642c6164647265737320746f6b656e2c62797465733120636f6d70617269736f6e2c75696e7432353620616d6f756e742952657065746974696f6e7328626f6f6c20656e61626c65642c75696e74333220616d6f756e7429507269636528626f6f6c20656e61626c65642c6164647265737320746f6b656e2c62797465733120636f6d70617269736f6e2c75696e743235362076616c7565295472616e7366657228627974657333322073637269707449642c6164647265737320746f6b656e2c616464726573732064657374696e6174696f6e2c75696e7432353620616d6f756e742c6164647265737320757365722c61646472657373206578656375746f722c75696e7432353620636861696e49642c42616c616e63652062616c616e63652c4672657175656e6379206672657175656e63792c50726963652070726963652c52657065746974696f6e732072657065746974696f6e732c466f6c6c6f7720666f6c6c6f772942616c616e636528626f6f6c20656e61626c65642c6164647265737320746f6b656e2c62797465733120636f6d70617269736f6e2c75696e7432353620616d6f756e7429466f6c6c6f7728626f6f6c20656e61626c65642c75696e743235362073686966742c627974657333322073637269707449642c61646472657373206578656375746f72294672657175656e637928626f6f6c20656e61626c65642c75696e7432353620626c6f636b732c75696e74323536207374617274426c6f636b29507269636528626f6f6c20656e61626c65642c6164647265737320746f6b656e2c62797465733120636f6d70617269736f6e2c75696e743235362076616c75652952657065746974696f6e7328626f6f6c20656e61626c65642c75696e74333220616d6f756e7429a2646970667358221220d4bc2a314e1812173e112b21bc57618dc87a44302144117e7f0a146a4f2681b064736f6c63430008040033",
  "linkReferences": {},
  "deployedLinkReferences": {}
}