{
  "_format": "hh-sol-artifact-1",
  "contractName": "TransferScriptExecutor",
  "sourceName": "contracts/TransferScriptExecutor.sol",
  "abi": [
    {
      "anonymous": false,
      "inputs": [
        {
          "indexed": true,
          "internalType": "address",
          "name": "previousOwner",
          "type": "address"
        },
        {
          "indexed": true,
          "internalType": "address",
          "name": "newOwner",
          "type": "address"
        }
      ],
      "name": "OwnershipTransferred",
      "type": "event"
    },
    {
      "inputs": [],
      "name": "MINIMUM_GAS_FOR_SCRIPT_EXECUTION",
      "outputs": [
        {
          "internalType": "uint256",
          "name": "",
          "type": "uint256"
        }
      ],
      "stateMutability": "view",
      "type": "function"
    },
    {
      "inputs": [
        {
          "components": [
            {
              "internalType": "bytes32",
              "name": "scriptId",
              "type": "bytes32"
            },
            {
              "internalType": "address",
              "name": "token",
              "type": "address"
            },
            {
              "internalType": "address",
              "name": "destination",
              "type": "address"
            },
            {
              "internalType": "uint256",
              "name": "amount",
              "type": "uint256"
            },
            {
              "internalType": "address",
              "name": "user",
              "type": "address"
            },
            {
              "internalType": "address",
              "name": "executor",
              "type": "address"
            },
            {
              "internalType": "uint256",
              "name": "chainId",
              "type": "uint256"
            },
            {
              "components": [
                {
                  "internalType": "bool",
                  "name": "enabled",
                  "type": "bool"
                },
                {
                  "internalType": "address",
                  "name": "token",
                  "type": "address"
                },
                {
                  "internalType": "bytes1",
                  "name": "comparison",
                  "type": "bytes1"
                },
                {
                  "internalType": "uint256",
                  "name": "amount",
                  "type": "uint256"
                }
              ],
              "internalType": "struct Balance",
              "name": "balance",
              "type": "tuple"
            },
            {
              "components": [
                {
                  "internalType": "bool",
                  "name": "enabled",
                  "type": "bool"
                },
                {
                  "internalType": "uint256",
                  "name": "blocks",
                  "type": "uint256"
                },
                {
                  "internalType": "uint256",
                  "name": "startBlock",
                  "type": "uint256"
                }
              ],
              "internalType": "struct Frequency",
              "name": "frequency",
              "type": "tuple"
            },
            {
              "components": [
                {
                  "internalType": "bool",
                  "name": "enabled",
                  "type": "bool"
                },
                {
                  "internalType": "address",
                  "name": "token",
                  "type": "address"
                },
                {
                  "internalType": "bytes1",
                  "name": "comparison",
                  "type": "bytes1"
                },
                {
                  "internalType": "uint256",
                  "name": "value",
                  "type": "uint256"
                }
              ],
              "internalType": "struct Price",
              "name": "price",
              "type": "tuple"
            }
          ],
          "internalType": "struct Transfer",
          "name": "message",
          "type": "tuple"
        },
        {
          "internalType": "bytes32",
          "name": "r",
          "type": "bytes32"
        },
        {
          "internalType": "bytes32",
          "name": "s",
          "type": "bytes32"
        },
        {
          "internalType": "uint8",
          "name": "v",
          "type": "uint8"
        }
      ],
      "name": "execute",
      "outputs": [],
      "stateMutability": "nonpayable",
      "type": "function"
    },
    {
      "inputs": [],
      "name": "owner",
      "outputs": [
        {
          "internalType": "address",
          "name": "",
          "type": "address"
        }
      ],
      "stateMutability": "view",
      "type": "function"
    },
    {
      "inputs": [],
      "name": "renounceOwnership",
      "outputs": [],
      "stateMutability": "nonpayable",
      "type": "function"
    },
    {
      "inputs": [
        {
          "internalType": "bytes32",
          "name": "_id",
          "type": "bytes32"
        }
      ],
      "name": "revoke",
      "outputs": [],
      "stateMutability": "nonpayable",
      "type": "function"
    },
    {
      "inputs": [
        {
          "internalType": "address",
          "name": "_brgToken",
          "type": "address"
        }
      ],
      "name": "setBrgToken",
      "outputs": [],
      "stateMutability": "nonpayable",
      "type": "function"
    },
    {
      "inputs": [
        {
          "internalType": "address",
          "name": "_gasTank",
          "type": "address"
        }
      ],
      "name": "setGasTank",
      "outputs": [],
      "stateMutability": "nonpayable",
      "type": "function"
    },
    {
      "inputs": [
        {
          "internalType": "uint256",
          "name": "_amount",
          "type": "uint256"
        }
      ],
      "name": "setMinimumGas",
      "outputs": [],
      "stateMutability": "nonpayable",
      "type": "function"
    },
    {
      "inputs": [
        {
          "internalType": "address",
          "name": "_priceRetriever",
          "type": "address"
        }
      ],
      "name": "setPriceRetriever",
      "outputs": [],
      "stateMutability": "nonpayable",
      "type": "function"
    },
    {
      "inputs": [
        {
          "internalType": "address",
          "name": "newOwner",
          "type": "address"
        }
      ],
      "name": "transferOwnership",
      "outputs": [],
      "stateMutability": "nonpayable",
      "type": "function"
    },
    {
      "inputs": [
        {
          "components": [
            {
              "internalType": "bytes32",
              "name": "scriptId",
              "type": "bytes32"
            },
            {
              "internalType": "address",
              "name": "token",
              "type": "address"
            },
            {
              "internalType": "address",
              "name": "destination",
              "type": "address"
            },
            {
              "internalType": "uint256",
              "name": "amount",
              "type": "uint256"
            },
            {
              "internalType": "address",
              "name": "user",
              "type": "address"
            },
            {
              "internalType": "address",
              "name": "executor",
              "type": "address"
            },
            {
              "internalType": "uint256",
              "name": "chainId",
              "type": "uint256"
            },
            {
              "components": [
                {
                  "internalType": "bool",
                  "name": "enabled",
                  "type": "bool"
                },
                {
                  "internalType": "address",
                  "name": "token",
                  "type": "address"
                },
                {
                  "internalType": "bytes1",
                  "name": "comparison",
                  "type": "bytes1"
                },
                {
                  "internalType": "uint256",
                  "name": "amount",
                  "type": "uint256"
                }
              ],
              "internalType": "struct Balance",
              "name": "balance",
              "type": "tuple"
            },
            {
              "components": [
                {
                  "internalType": "bool",
                  "name": "enabled",
                  "type": "bool"
                },
                {
                  "internalType": "uint256",
                  "name": "blocks",
                  "type": "uint256"
                },
                {
                  "internalType": "uint256",
                  "name": "startBlock",
                  "type": "uint256"
                }
              ],
              "internalType": "struct Frequency",
              "name": "frequency",
              "type": "tuple"
            },
            {
              "components": [
                {
                  "internalType": "bool",
                  "name": "enabled",
                  "type": "bool"
                },
                {
                  "internalType": "address",
                  "name": "token",
                  "type": "address"
                },
                {
                  "internalType": "bytes1",
                  "name": "comparison",
                  "type": "bytes1"
                },
                {
                  "internalType": "uint256",
                  "name": "value",
                  "type": "uint256"
                }
              ],
              "internalType": "struct Price",
              "name": "price",
              "type": "tuple"
            }
          ],
          "internalType": "struct Transfer",
          "name": "message",
          "type": "tuple"
        },
        {
          "internalType": "bytes32",
          "name": "r",
          "type": "bytes32"
        },
        {
          "internalType": "bytes32",
          "name": "s",
          "type": "bytes32"
        },
        {
          "internalType": "uint8",
          "name": "v",
          "type": "uint8"
        }
      ],
      "name": "verify",
      "outputs": [],
      "stateMutability": "view",
      "type": "function"
    },
    {
      "inputs": [
        {
          "internalType": "address",
          "name": "user",
          "type": "address"
        }
      ],
      "name": "verifyGasTank",
      "outputs": [],
      "stateMutability": "view",
      "type": "function"
    },
    {
      "inputs": [
        {
          "internalType": "address",
          "name": "user",
          "type": "address"
        },
        {
          "internalType": "bytes32",
          "name": "id",
          "type": "bytes32"
        }
      ],
      "name": "verifyRevocation",
      "outputs": [],
      "stateMutability": "view",
      "type": "function"
    }
  ],
  "bytecode": "0x6080604052670de0b6b3a764000060075534801561001c57600080fd5b506100263361002f565b4660035561007f565b600080546001600160a01b038381166001600160a01b0319831681178455604051919092169283917f8be0079c531659141344cd1fd0a4f28419497f9722a3daafe3b4186f6b6457e09190a35050565b61183b8061008e6000396000f3fe608060405234801561001057600080fd5b50600436106100cf5760003560e01c80638d2869f21161008c5780639b633e10116100665780639b633e1014610187578063b75c7dc61461019a578063f2fde38b146101ce578063f87d5781146101e157600080fd5b80638d2869f2146101465780638da5cb5b1461015957806395d8abeb1461017457600080fd5b8063080e4691146100d457806343e297b2146100f05780634ead94a314610105578063715018a6146101185780637ca65cdc146101205780638866822b14610133575b600080fd5b6100dd60075481565b6040519081526020015b60405180910390f35b6101036100fe36600461133a565b6101f4565b005b61010361011336600461135b565b610249565b6101036102cd565b61010361012e36600461133a565b610303565b6101036101413660046113b8565b6103e7565b6101036101543660046113a0565b6104b0565b6000546040516001600160a01b0390911681526020016100e7565b6101036101823660046113b8565b6104df565b61010361019536600461133a565b61055a565b6101036101a83660046113a0565b33600090815260026020908152604080832093835292905220805460ff19166001179055565b6101036101dc36600461133a565b6105a6565b6101036101ef36600461133a565b61063e565b6000546001600160a01b031633146102275760405162461bcd60e51b815260040161021e90611515565b60405180910390fd5b600580546001600160a01b0319166001600160a01b0392909216919091179055565b6001600160a01b038216600090815260026020908152604080832084845290915290205460ff16156102c95760405162461bcd60e51b815260206004820152602360248201527f53637269707420686173206265656e207265766f6b656420627920746865207560448201526239b2b960e91b606482015260840161021e565b5050565b6000546001600160a01b031633146102f75760405162461bcd60e51b815260040161021e90611515565b610301600061068a565b565b6007546005546040516370a0823160e01b81526001600160a01b038481166004830152909116906370a082319060240160206040518083038186803b15801561034b57600080fd5b505afa15801561035f573d6000803e3d6000fd5b505050506040513d601f19601f8201168201806040525081019061038391906114a6565b10156103e45760405162461bcd60e51b815260206004820152602a60248201527f5b47617320436f6e646974696f6e5d204e6f7420656e6f7567682067617320696044820152696e207468652074616e6b60b01b606482015260840161021e565b50565b6103f3848484846104df565b8351600090815260016020908152604091829020439055850151608086015182870151606088015193516323b872dd60e01b81526001600160a01b039283166004820152908216602482015260448101939093529091908216906323b872dd90606401602060405180830381600087803b15801561047057600080fd5b505af1158015610484573d6000803e3d6000fd5b505050506040513d601f19601f820116820180604052508101906104a89190611384565b505050505050565b6000546001600160a01b031633146104da5760405162461bcd60e51b815260040161021e90611515565b600755565b6104f184608001518560000151610249565b6104fd848484846106da565b610510846101000151856000015161080d565b6105228460e0015185608001516109e2565b610530846101200151610b7b565b61053d8460800151610303565b610554846080015185602001518660600151610d2c565b50505050565b6000546001600160a01b031633146105845760405162461bcd60e51b815260040161021e90611515565b600480546001600160a01b0319166001600160a01b0392909216919091179055565b6000546001600160a01b031633146105d05760405162461bcd60e51b815260040161021e90611515565b6001600160a01b0381166106355760405162461bcd60e51b815260206004820152602660248201527f4f776e61626c653a206e6577206f776e657220697320746865207a65726f206160448201526564647265737360d01b606482015260840161021e565b6103e48161068a565b6000546001600160a01b031633146106685760405162461bcd60e51b815260040161021e90611515565b600680546001600160a01b0319166001600160a01b0392909216919091179055565b600080546001600160a01b038381166001600160a01b0319831681178455604051919092169283917f8be0079c531659141344cd1fd0a4f28419497f9722a3daafe3b4186f6b6457e09190a35050565b6107036040518060400160405280600581526020016421a420a4a760d91b815250600354610e3f565b6003548460c00151146107465760405162461bcd60e51b815260206004820152600b60248201526a2bb937b7339031b430b4b760a91b604482015260640161021e565b600161075185610e84565b6040805160008152602081018083529290925260ff841690820152606081018590526080810184905260a0016020604051602081039080840390855afa15801561079f573d6000803e3d6000fd5b505050602060405103516001600160a01b031684608001516001600160a01b0316146105545760405162461bcd60e51b815260206004820152601860248201527f5369676e617475726520646f6573206e6f74206d617463680000000000000000604482015260640161021e565b8151610817575050565b600081815260016020526040902054156108d1576020808301516000838152600190925260409091205461084b9190611582565b43116102c95760405162461bcd60e51b815260206004820152604960248201527f5b4672657175656e637920436f6e646974696f6e5d204e6f7420656e6f75676860448201527f2074696d6520686173207061737365642073696e636520746865206c6173742060648201526832bc32b1baba34b7b760b91b608482015260a40161021e565b816040015143101561094b5760405162461bcd60e51b815260206004820152603a60248201527f5b4672657175656e637920436f6e646974696f6e5d20537461727420626c6f6360448201527f6b20686173206e6f74206265656e207265616368656420796574000000000000606482015260840161021e565b8160200151826040015161095f9190611582565b43116102c95760405162461bcd60e51b815260206004820152604660248201527f5b4672657175656e637920436f6e646974696f6e5d204e6f7420656e6f75676860448201527f2074696d6520686173207061737365642073696e63652074686520737461727460648201526520626c6f636b60d01b608482015260a40161021e565b81516109ec575050565b60208201516040516370a0823160e01b81526001600160a01b038381166004830152600091908316906370a082319060240160206040518083038186803b158015610a3657600080fd5b505afa158015610a4a573d6000803e3d6000fd5b505050506040513d601f19601f82011682018060405250810190610a6e91906114a6565b60408501519091506001600160f81b031916610af85783606001518111610af35760405162461bcd60e51b815260206004820152603360248201527f5b42616c616e636520436f6e646974696f6e5d205573657220646f6573206e6f60448201527274206f776e20656e6f75676820746f6b656e7360681b606482015260840161021e565b610554565b60408401516001600160f81b031916600160f81b141561055457836060015181106105545760405162461bcd60e51b815260206004820152602d60248201527f5b42616c616e636520436f6e646974696f6e5d2055736572206f776e7320746f60448201526c6f206d616e7920746f6b656e7360981b606482015260840161021e565b8051610b845750565b600654602082015160405163b95ed06f60e01b81526001600160a01b039182166004820152600092919091169063b95ed06f9060240160206040518083038186803b158015610bd257600080fd5b505afa158015610be6573d6000803e3d6000fd5b505050506040513d601f19601f82011682018060405250810190610c0a91906114a6565b60408301519091506001600160f81b031916610c9957816060015181116102c95760405162461bcd60e51b815260206004820152603a60248201527f5b507269636520436f6e646974696f6e5d20546f6b656e20707269636520697360448201527f206c6f776572207468616e2065787065637465642076616c7565000000000000606482015260840161021e565b60408201516001600160f81b031916600160f81b14156102c957816060015181106102c95760405162461bcd60e51b815260206004820152603b60248201527f5b507269636520436f6e646974696f6e5d20546f6b656e20707269636520697360448201527f20686967686572207468616e2065787065637465642076616c75650000000000606482015260840161021e565b604051636eb1769f60e11b81526001600160a01b03848116600483015230602483015282919084169063dd62ed3e9060440160206040518083038186803b158015610d7657600080fd5b505afa158015610d8a573d6000803e3d6000fd5b505050506040513d601f19601f82011682018060405250810190610dae91906114a6565b1015610e3a5760405162461bcd60e51b815260206004820152604f60248201527f5b416c6c6f77616e636520436f6e646974696f6e5d205573657220646964206e60448201527f6f74206769766520656e6f75676820616c6c6f77616e636520746f207468652060648201526e39b1b934b83a1032bc32b1baba37b960891b608482015260a40161021e565b505050565b6102c98282604051602401610e559291906114da565b60408051601f198184030181529190526020810180516001600160e01b03166309710a9d60e41b1790526110a0565b6000806040518060400160405280601981526020017f454950373132446f6d61696e28737472696e67206e616d652900000000000000815250604051602001610ecd91906114be565b60408051808303601f1901815282825280516020918201208383018352601284527142616c726f672d5472616e736665722d763160701b938201939093528151908101929092527f86868580448ebb9e9796ba2c9de912662d665d81728ff327aa99f846976643e3908201526060016040516020818303038152906040528051906020012090506000604051806101a00160405280610167815260200161161a6101679139604051602001610f8291906114be565b60405160208183030381529060405280519060200120846000015185602001518660400151876060015188608001518960a001518a60c00151610fc88c60e001516110c1565b610fd68d610100015161116b565b610fe48e61012001516111dd565b60408051602081019c909c528b01999099526001600160a01b0397881660608b015295871660808a015260a089019490945291851660c088015290931660e08601526101008501929092526101208401919091526101408301526101608201526101800160408051601f1981840301815290829052805160209182012061190160f01b91830191909152602282018490526042820181905291506062016040516020818303038152906040528051906020012092505050919050565b80516a636f6e736f6c652e6c6f67602083016000808483855afa5050505050565b6000604051806080016040528060448152602001611781604491396040516020016110ec91906114be565b60408051601f198184030181528282528051602091820120855186830151878501516060808a015195880194909452911515948601949094526001600160a01b03909316908401526001600160f81b0319909116608083015260a082015260c0015b604051602081830303815290604052805190602001209050919050565b60006040518060600160405280603981526020016115e16039913960405160200161119691906114be565b60408051601f19818403018152828252805160209182012085518683015187850151938601929092521515928401929092526060830191909152608082015260a00161114e565b60006040518060800160405280604181526020016117c5604191396040516020016110ec91906114be565b80356001600160a01b038116811461121f57600080fd5b919050565b600060808284031215611235578081fd5b6040516080810181811067ffffffffffffffff8211171561126457634e487b7160e01b83526041600452602483fd5b6040529050808235611275816115d2565b815261128360208401611208565b602082015260408301356001600160f81b0319811681146112a357600080fd5b6040820152606092830135920191909152919050565b6000606082840312156112ca578081fd5b6040516060810181811067ffffffffffffffff821117156112f957634e487b7160e01b83526041600452602483fd5b604052905080823561130a816115d2565b8082525060208301356020820152604083013560408201525092915050565b803560ff8116811461121f57600080fd5b60006020828403121561134b578081fd5b61135482611208565b9392505050565b6000806040838503121561136d578081fd5b61137683611208565b946020939093013593505050565b600060208284031215611395578081fd5b8151611354816115d2565b6000602082840312156113b1578081fd5b5035919050565b6000806000808486036102a08112156113cf578283fd5b610240808212156113de578384fd5b6113e661154a565b9150863582526113f860208801611208565b602083015261140960408801611208565b60408301526060870135606083015261142460808801611208565b608083015261143560a08801611208565b60a083015260c087013560c08301526114518860e08901611224565b60e08301526114648861016089016112b9565b610100830152611478886101c08901611224565b6101208301529094508501359250610260850135915061149b6102808601611329565b905092959194509250565b6000602082840312156114b7578081fd5b5051919050565b600082516114d08184602087016115a6565b9190910192915050565b60408152600083518060408401526114f98160608501602088016115a6565b602083019390935250601f91909101601f191601606001919050565b6020808252818101527f4f776e61626c653a2063616c6c6572206973206e6f7420746865206f776e6572604082015260600190565b604051610140810167ffffffffffffffff8111828210171561157c57634e487b7160e01b600052604160045260246000fd5b60405290565b600082198211156115a157634e487b7160e01b81526011600452602481fd5b500190565b60005b838110156115c15781810151838201526020016115a9565b838111156105545750506000910152565b80151581146103e457600080fdfe4672657175656e637928626f6f6c20656e61626c65642c75696e7432353620626c6f636b732c75696e74323536207374617274426c6f636b295472616e7366657228627974657333322073637269707449642c6164647265737320746f6b656e2c616464726573732064657374696e6174696f6e2c75696e7432353620616d6f756e742c6164647265737320757365722c61646472657373206578656375746f722c75696e7432353620636861696e49642c42616c616e63652062616c616e63652c4672657175656e6379206672657175656e63792c50726963652070726963652942616c616e636528626f6f6c20656e61626c65642c6164647265737320746f6b656e2c62797465733120636f6d70617269736f6e2c75696e7432353620616d6f756e74294672657175656e637928626f6f6c20656e61626c65642c75696e7432353620626c6f636b732c75696e74323536207374617274426c6f636b29507269636528626f6f6c20656e61626c65642c6164647265737320746f6b656e2c62797465733120636f6d70617269736f6e2c75696e743235362076616c75652942616c616e636528626f6f6c20656e61626c65642c6164647265737320746f6b656e2c62797465733120636f6d70617269736f6e2c75696e7432353620616d6f756e7429507269636528626f6f6c20656e61626c65642c6164647265737320746f6b656e2c62797465733120636f6d70617269736f6e2c75696e743235362076616c756529a2646970667358221220875d3688aadb143f5bf6513bee26faac67262da763fec34ba967a6a7c3f09c5c64736f6c63430008040033",
  "linkReferences": {},
  "deployedLinkReferences": {}
}