{
  "_format": "hh-sol-artifact-1",
  "contractName": "TransferScriptExecutor",
  "sourceName": "contracts/TransferScriptExecutor.sol",
  "abi": [
    {
      "anonymous": false,
      "inputs": [
        {
          "indexed": true,
          "internalType": "address",
          "name": "previousOwner",
          "type": "address"
        },
        {
          "indexed": true,
          "internalType": "address",
          "name": "newOwner",
          "type": "address"
        }
      ],
      "name": "OwnershipTransferred",
      "type": "event"
    },
    {
      "inputs": [],
      "name": "GAS_COST",
      "outputs": [
        {
          "internalType": "uint256",
          "name": "",
          "type": "uint256"
        }
      ],
      "stateMutability": "view",
      "type": "function"
    },
    {
      "inputs": [],
      "name": "MINIMUM_GAS_FOR_SCRIPT_EXECUTION",
      "outputs": [
        {
          "internalType": "uint256",
          "name": "",
          "type": "uint256"
        }
      ],
      "stateMutability": "view",
      "type": "function"
    },
    {
      "inputs": [
        {
          "components": [
            {
              "internalType": "bytes32",
              "name": "scriptId",
              "type": "bytes32"
            },
            {
              "internalType": "address",
              "name": "token",
              "type": "address"
            },
            {
              "internalType": "address",
              "name": "destination",
              "type": "address"
            },
            {
              "internalType": "uint256",
              "name": "amount",
              "type": "uint256"
            },
            {
              "internalType": "address",
              "name": "user",
              "type": "address"
            },
            {
              "internalType": "address",
              "name": "executor",
              "type": "address"
            },
            {
              "internalType": "uint256",
              "name": "chainId",
              "type": "uint256"
            },
            {
              "components": [
                {
                  "internalType": "bool",
                  "name": "enabled",
                  "type": "bool"
                },
                {
                  "internalType": "address",
                  "name": "token",
                  "type": "address"
                },
                {
                  "internalType": "bytes1",
                  "name": "comparison",
                  "type": "bytes1"
                },
                {
                  "internalType": "uint256",
                  "name": "amount",
                  "type": "uint256"
                }
              ],
              "internalType": "struct Balance",
              "name": "balance",
              "type": "tuple"
            },
            {
              "components": [
                {
                  "internalType": "bool",
                  "name": "enabled",
                  "type": "bool"
                },
                {
                  "internalType": "uint256",
                  "name": "shift",
                  "type": "uint256"
                },
                {
                  "internalType": "bytes32",
                  "name": "scriptId",
                  "type": "bytes32"
                },
                {
                  "internalType": "address",
                  "name": "executor",
                  "type": "address"
                }
              ],
              "internalType": "struct Follow",
              "name": "follow",
              "type": "tuple"
            },
            {
              "components": [
                {
                  "internalType": "bool",
                  "name": "enabled",
                  "type": "bool"
                },
                {
                  "internalType": "uint256",
                  "name": "blocks",
                  "type": "uint256"
                },
                {
                  "internalType": "uint256",
                  "name": "startBlock",
                  "type": "uint256"
                }
              ],
              "internalType": "struct Frequency",
              "name": "frequency",
              "type": "tuple"
            },
            {
              "components": [
                {
                  "internalType": "bool",
                  "name": "enabled",
                  "type": "bool"
                },
                {
                  "internalType": "address",
                  "name": "token",
                  "type": "address"
                },
                {
                  "internalType": "bytes1",
                  "name": "comparison",
                  "type": "bytes1"
                },
                {
                  "internalType": "uint256",
                  "name": "value",
                  "type": "uint256"
                }
              ],
              "internalType": "struct Price",
              "name": "price",
              "type": "tuple"
            },
            {
              "components": [
                {
                  "internalType": "bool",
                  "name": "enabled",
                  "type": "bool"
                },
                {
                  "internalType": "uint32",
                  "name": "amount",
                  "type": "uint32"
                }
              ],
              "internalType": "struct Repetitions",
              "name": "repetitions",
              "type": "tuple"
            }
          ],
          "internalType": "struct Transfer",
          "name": "message",
          "type": "tuple"
        },
        {
          "internalType": "bytes32",
          "name": "r",
          "type": "bytes32"
        },
        {
          "internalType": "bytes32",
          "name": "s",
          "type": "bytes32"
        },
        {
          "internalType": "uint8",
          "name": "v",
          "type": "uint8"
        }
      ],
      "name": "execute",
      "outputs": [],
      "stateMutability": "nonpayable",
      "type": "function"
    },
    {
      "inputs": [
        {
          "internalType": "bytes32",
          "name": "_id",
          "type": "bytes32"
        }
      ],
      "name": "getRepetitions",
      "outputs": [
        {
          "internalType": "uint32",
          "name": "",
          "type": "uint32"
        }
      ],
      "stateMutability": "view",
      "type": "function"
    },
    {
      "inputs": [],
      "name": "owner",
      "outputs": [
        {
          "internalType": "address",
          "name": "",
          "type": "address"
        }
      ],
      "stateMutability": "view",
      "type": "function"
    },
    {
      "inputs": [],
      "name": "preliminaryCheck",
      "outputs": [],
      "stateMutability": "view",
      "type": "function"
    },
    {
      "inputs": [],
      "name": "renounceOwnership",
      "outputs": [],
      "stateMutability": "nonpayable",
      "type": "function"
    },
    {
      "inputs": [
        {
          "internalType": "bytes32",
          "name": "_id",
          "type": "bytes32"
        }
      ],
      "name": "revoke",
      "outputs": [],
      "stateMutability": "nonpayable",
      "type": "function"
    },
    {
      "inputs": [
        {
          "internalType": "address",
          "name": "_gasPriceFeed",
          "type": "address"
        }
      ],
      "name": "setGasFeed",
      "outputs": [],
      "stateMutability": "nonpayable",
      "type": "function"
    },
    {
      "inputs": [
        {
          "internalType": "address",
          "name": "_gasTank",
          "type": "address"
        }
      ],
      "name": "setGasTank",
      "outputs": [],
      "stateMutability": "nonpayable",
      "type": "function"
    },
    {
      "inputs": [
        {
          "internalType": "uint256",
          "name": "_amount",
          "type": "uint256"
        }
      ],
      "name": "setMinimumGas",
      "outputs": [],
      "stateMutability": "nonpayable",
      "type": "function"
    },
    {
      "inputs": [
        {
          "internalType": "address",
          "name": "_priceRetriever",
          "type": "address"
        }
      ],
      "name": "setPriceRetriever",
      "outputs": [],
      "stateMutability": "nonpayable",
      "type": "function"
    },
    {
      "inputs": [
        {
          "internalType": "address",
          "name": "newOwner",
          "type": "address"
        }
      ],
      "name": "transferOwnership",
      "outputs": [],
      "stateMutability": "nonpayable",
      "type": "function"
    },
    {
      "inputs": [
        {
          "components": [
            {
              "internalType": "bytes32",
              "name": "scriptId",
              "type": "bytes32"
            },
            {
              "internalType": "address",
              "name": "token",
              "type": "address"
            },
            {
              "internalType": "address",
              "name": "destination",
              "type": "address"
            },
            {
              "internalType": "uint256",
              "name": "amount",
              "type": "uint256"
            },
            {
              "internalType": "address",
              "name": "user",
              "type": "address"
            },
            {
              "internalType": "address",
              "name": "executor",
              "type": "address"
            },
            {
              "internalType": "uint256",
              "name": "chainId",
              "type": "uint256"
            },
            {
              "components": [
                {
                  "internalType": "bool",
                  "name": "enabled",
                  "type": "bool"
                },
                {
                  "internalType": "address",
                  "name": "token",
                  "type": "address"
                },
                {
                  "internalType": "bytes1",
                  "name": "comparison",
                  "type": "bytes1"
                },
                {
                  "internalType": "uint256",
                  "name": "amount",
                  "type": "uint256"
                }
              ],
              "internalType": "struct Balance",
              "name": "balance",
              "type": "tuple"
            },
            {
              "components": [
                {
                  "internalType": "bool",
                  "name": "enabled",
                  "type": "bool"
                },
                {
                  "internalType": "uint256",
                  "name": "shift",
                  "type": "uint256"
                },
                {
                  "internalType": "bytes32",
                  "name": "scriptId",
                  "type": "bytes32"
                },
                {
                  "internalType": "address",
                  "name": "executor",
                  "type": "address"
                }
              ],
              "internalType": "struct Follow",
              "name": "follow",
              "type": "tuple"
            },
            {
              "components": [
                {
                  "internalType": "bool",
                  "name": "enabled",
                  "type": "bool"
                },
                {
                  "internalType": "uint256",
                  "name": "blocks",
                  "type": "uint256"
                },
                {
                  "internalType": "uint256",
                  "name": "startBlock",
                  "type": "uint256"
                }
              ],
              "internalType": "struct Frequency",
              "name": "frequency",
              "type": "tuple"
            },
            {
              "components": [
                {
                  "internalType": "bool",
                  "name": "enabled",
                  "type": "bool"
                },
                {
                  "internalType": "address",
                  "name": "token",
                  "type": "address"
                },
                {
                  "internalType": "bytes1",
                  "name": "comparison",
                  "type": "bytes1"
                },
                {
                  "internalType": "uint256",
                  "name": "value",
                  "type": "uint256"
                }
              ],
              "internalType": "struct Price",
              "name": "price",
              "type": "tuple"
            },
            {
              "components": [
                {
                  "internalType": "bool",
                  "name": "enabled",
                  "type": "bool"
                },
                {
                  "internalType": "uint32",
                  "name": "amount",
                  "type": "uint32"
                }
              ],
              "internalType": "struct Repetitions",
              "name": "repetitions",
              "type": "tuple"
            }
          ],
          "internalType": "struct Transfer",
          "name": "message",
          "type": "tuple"
        },
        {
          "internalType": "bytes32",
          "name": "r",
          "type": "bytes32"
        },
        {
          "internalType": "bytes32",
          "name": "s",
          "type": "bytes32"
        },
        {
          "internalType": "uint8",
          "name": "v",
          "type": "uint8"
        }
      ],
      "name": "verify",
      "outputs": [],
      "stateMutability": "view",
      "type": "function"
    },
    {
      "inputs": [
        {
          "internalType": "address",
          "name": "user",
          "type": "address"
        }
      ],
      "name": "verifyGasTank",
      "outputs": [],
      "stateMutability": "view",
      "type": "function"
    },
    {
      "inputs": [
        {
          "internalType": "address",
          "name": "user",
          "type": "address"
        },
        {
          "internalType": "bytes32",
          "name": "id",
          "type": "bytes32"
        }
      ],
      "name": "verifyRevocation",
      "outputs": [],
      "stateMutability": "view",
      "type": "function"
    }
  ],
  "bytecode": "0x60806040526706f05b59d3b20000600855607d60095534801561002157600080fd5b5061002b33610034565b46600455610084565b600080546001600160a01b038381166001600160a01b0319831681178455604051919092169283917f8be0079c531659141344cd1fd0a4f28419497f9722a3daafe3b4186f6b6457e09190a35050565b6120ee806100936000396000f3fe608060405234801561001057600080fd5b50600436106101005760003560e01c80637ea42ebe11610097578063c5d21f6d11610066578063c5d21f6d1461022f578063ca7f103b14610242578063f2fde38b1461024b578063f87d57811461025e57600080fd5b80637ea42ebe146101925780638d2869f2146101cd5780638da5cb5b146101e0578063b75c7dc6146101fb57600080fd5b80634ead94a3116100d35780634ead94a31461015157806358a346dc14610164578063715018a6146101775780637ca65cdc1461017f57600080fd5b806301ff45aa14610105578063080e46911461010f57806343e297b21461012b57806349661dce1461013e575b600080fd5b61010d610271565b005b61011860085481565b6040519081526020015b60405180910390f35b61010d610139366004611ae0565b61034b565b61010d61014c366004611ba2565b6103aa565b61010d61015f366004611b01565b6105ec565b61010d610172366004611ae0565b610670565b61010d6106cf565b61010d61018d366004611ae0565b610703565b6101b86101a0366004611b8a565b60009081526002602052604090205463ffffffff1690565b60405163ffffffff9091168152602001610122565b61010d6101db366004611b8a565b6107e7565b6000546040516001600160a01b039091168152602001610122565b61010d610209366004611b8a565b33600090815260036020908152604080832093835292905220805460ff19166001179055565b61010d61023d366004611ba2565b610866565b61011860095481565b61010d610259366004611ae0565b610a29565b61010d61026c366004611ae0565b610ac1565b6005546001600160a01b03166102b85760405162461bcd60e51b815260206004820152600760248201526647617354616e6b60c81b60448201526064015b60405180910390fd5b6007546001600160a01b03166103025760405162461bcd60e51b815260206004820152600f60248201526e283934b1b2b9a932ba3934b2bb32b960891b60448201526064016102af565b6006546001600160a01b03166103495760405162461bcd60e51b815260206004820152600c60248201526b11d85cd41c9a58d95199595960a21b60448201526064016102af565b565b6000546001600160a01b031633146103755760405162461bcd60e51b81526004016102af90611c93565b6001600160a01b03811661038857600080fd5b600580546001600160a01b0319166001600160a01b0392909216919091179055565b6103b684848484610866565b83356000908152600160208181526040808420439055600290915282208054919290916103ea90849063ffffffff16611ce0565b92506101000a81548163ffffffff021916908363ffffffff160217905550600084602001602081019061041d9190611ae0565b90506001600160a01b0381166323b872dd61043e60a0880160808901611ae0565b61044e6060890160408a01611ae0565b6040516001600160e01b031960e085901b1681526001600160a01b0392831660048201529116602482015260608801356044820152606401602060405180830381600087803b1580156104a057600080fd5b505af11580156104b4573d6000803e3d6000fd5b505050506040513d601f19601f820116820180604052508101906104d89190611b46565b5060055460065460408051630f52b90160e31b815290516001600160a01b03938416936398094b3d931691637a95c808916004808301926020929190829003018186803b15801561052857600080fd5b505afa15801561053c573d6000803e3d6000fd5b505050506040513d601f19601f820116820180604052508101906105609190611bf8565b60095461056d9190611cff565b61057d60a0890160808a01611ae0565b336040516001600160e01b031960e086901b16815260048101939093526001600160a01b039182166024840152166044820152606401600060405180830381600087803b1580156105cd57600080fd5b505af11580156105e1573d6000803e3d6000fd5b505050505050505050565b6001600160a01b038216600090815260036020908152604080832084845290915290205460ff161561066c5760405162461bcd60e51b815260206004820152602360248201527f53637269707420686173206265656e207265766f6b656420627920746865207560448201526239b2b960e91b60648201526084016102af565b5050565b6000546001600160a01b0316331461069a5760405162461bcd60e51b81526004016102af90611c93565b6001600160a01b0381166106ad57600080fd5b600680546001600160a01b0319166001600160a01b0392909216919091179055565b6000546001600160a01b031633146106f95760405162461bcd60e51b81526004016102af90611c93565b6103496000610b20565b6008546005546040516370a0823160e01b81526001600160a01b038481166004830152909116906370a082319060240160206040518083038186803b15801561074b57600080fd5b505afa15801561075f573d6000803e3d6000fd5b505050506040513d601f19601f820116820180604052508101906107839190611bf8565b10156107e45760405162461bcd60e51b815260206004820152602a60248201527f5b47617320436f6e646974696f6e5d204e6f7420656e6f7567682067617320696044820152696e207468652074616e6b60b01b60648201526084016102af565b50565b6000546001600160a01b031633146108115760405162461bcd60e51b81526004016102af90611c93565b600081116108615760405162461bcd60e51b815260206004820152601d60248201527f416d6f756e74206d7573742062652067726561746572207468616e203000000060448201526064016102af565b600855565b61088061087960a0860160808701611ae0565b85356105ec565b61088c84848484610b70565b61089b60016060860135611d1e565b6108ab6040860160208701611ae0565b6001600160a01b03166370a082316108c960a0880160808901611ae0565b6040516001600160e01b031960e084901b1681526001600160a01b03909116600482015260240160206040518083038186803b15801561090857600080fd5b505afa15801561091c573d6000803e3d6000fd5b505050506040513d601f19601f820116820180604052508101906109409190611bf8565b1161098d5760405162461bcd60e51b815260206004820181905260248201527f5573657220646f65736e2774206861766520656e6f7567682062616c616e636560448201526064016102af565b61099c6102c085018535610c87565b6109ab61016085018535610d50565b6109ba6101e085018535610ee8565b6109d660e085016109d160a0870160808801611ae0565b6110c5565b6109e3846102400161128d565b6109f661018d60a0860160808701611ae0565b610a23610a0960a0860160808701611ae0565b610a196040870160208801611ae0565b8660600135611473565b50505050565b6000546001600160a01b03163314610a535760405162461bcd60e51b81526004016102af90611c93565b6001600160a01b038116610ab85760405162461bcd60e51b815260206004820152602660248201527f4f776e61626c653a206e6577206f776e657220697320746865207a65726f206160448201526564647265737360d01b60648201526084016102af565b6107e481610b20565b6000546001600160a01b03163314610aeb5760405162461bcd60e51b81526004016102af90611c93565b6001600160a01b038116610afe57600080fd5b600780546001600160a01b0319166001600160a01b0392909216919091179055565b600080546001600160a01b038381166001600160a01b0319831681178455604051919092169283917f8be0079c531659141344cd1fd0a4f28419497f9722a3daafe3b4186f6b6457e09190a35050565b6004548460c0013514610bb35760405162461bcd60e51b815260206004820152600b60248201526a2bb937b7339031b430b4b760a91b60448201526064016102af565b6001610bbe85611581565b6040805160008152602081018083529290925260ff841690820152606081018590526080810184905260a0016020604051602081039080840390855afa158015610c0c573d6000803e3d6000fd5b5050604051601f1901516001600160a01b03169050610c3160a0860160808701611ae0565b6001600160a01b031614610a235760405162461bcd60e51b815260206004820152601860248201527f5369676e617475726520646f6573206e6f74206d61746368000000000000000060448201526064016102af565b610c946020830183611b2a565b610c9c575050565b610cac6040830160208401611c10565b60008281526002602052604090205463ffffffff91821691161061066c5760405162461bcd60e51b815260206004820152604f60248201527f5b52657065746974696f6e7320436f6e646974696f6e5d20546865207363726960448201527f707420686173207265616368656420697473206d6178696d756d206e756d626560648201526e72206f6620657865637574696f6e7360881b608482015260a4016102af565b610d5d6020830183611b2a565b610d65575050565b600030610d786080850160608601611ae0565b6001600160a01b031614610e1c57610d966080840160608501611ae0565b6001600160a01b0316637ea42ebe84604001356040518263ffffffff1660e01b8152600401610dc791815260200190565b60206040518083038186803b158015610ddf57600080fd5b505afa158015610df3573d6000803e3d6000fd5b505050506040513d601f19601f82011682018060405250810190610e179190611c2c565b610e35565b60408084013560009081526002602052205463ffffffff165b600083815260026020908152604090912054919250610e5e91908501359063ffffffff16611cc8565b8163ffffffff1611610ee35760405162461bcd60e51b815260206004820152604260248201527f5b466f6c6c6f7720436f6e646974696f6e5d2054686520706172656e7420736360448201527f7269707420686173206e6f74206265656e202872652965786563757465642079606482015261195d60f21b608482015260a4016102af565b505050565b610ef56020830183611b2a565b610efd575050565b60008181526001602052604090205415610fb657600081815260016020908152604090912054610f309184013590611cc8565b431161066c5760405162461bcd60e51b815260206004820152604960248201527f5b4672657175656e637920436f6e646974696f6e5d204e6f7420656e6f75676860448201527f2074696d6520686173207061737365642073696e636520746865206c6173742060648201526832bc32b1baba34b7b760b91b608482015260a4016102af565b81604001354310156110305760405162461bcd60e51b815260206004820152603a60248201527f5b4672657175656e637920436f6e646974696f6e5d20537461727420626c6f6360448201527f6b20686173206e6f74206265656e20726561636865642079657400000000000060648201526084016102af565b61104260208301356040840135611cc8565b431161066c5760405162461bcd60e51b815260206004820152604660248201527f5b4672657175656e637920436f6e646974696f6e5d204e6f7420656e6f75676860448201527f2074696d6520686173207061737365642073696e63652074686520737461727460648201526520626c6f636b60d01b608482015260a4016102af565b6110d26020830183611b2a565b6110da575050565b60006110ec6040840160208501611ae0565b6040516370a0823160e01b81526001600160a01b0384811660048301529192506000918316906370a082319060240160206040518083038186803b15801561113357600080fd5b505afa158015611147573d6000803e3d6000fd5b505050506040513d601f19601f8201168201806040525081019061116b9190611bf8565b905061117d6060850160408601611b62565b6001600160f81b0319166111ff57836060013581116111fa5760405162461bcd60e51b815260206004820152603360248201527f5b42616c616e636520436f6e646974696f6e5d205573657220646f6573206e6f60448201527274206f776e20656e6f75676820746f6b656e7360681b60648201526084016102af565b610a23565b61120f6060850160408601611b62565b6001600160f81b031916600160f81b1415610a235783606001358110610a235760405162461bcd60e51b815260206004820152602d60248201527f5b42616c616e636520436f6e646974696f6e5d2055736572206f776e7320746f60448201526c6f206d616e7920746f6b656e7360981b60648201526084016102af565b61129a6020820182611b2a565b6112a15750565b6007546000906001600160a01b031663b95ed06f6112c56040850160208601611ae0565b6040516001600160e01b031960e084901b1681526001600160a01b03909116600482015260240160206040518083038186803b15801561130457600080fd5b505afa158015611318573d6000803e3d6000fd5b505050506040513d601f19601f8201168201806040525081019061133c9190611bf8565b905061134e6060830160408401611b62565b6001600160f81b0319166113d5578160600135811161066c5760405162461bcd60e51b815260206004820152603a60248201527f5b507269636520436f6e646974696f6e5d20546f6b656e20707269636520697360448201527f206c6f776572207468616e2065787065637465642076616c756500000000000060648201526084016102af565b6113e56060830160408401611b62565b6001600160f81b031916600160f81b141561066c578160600135811061066c5760405162461bcd60e51b815260206004820152603b60248201527f5b507269636520436f6e646974696f6e5d20546f6b656e20707269636520697360448201527f20686967686572207468616e2065787065637465642076616c7565000000000060648201526084016102af565b604051636eb1769f60e11b81526001600160a01b03848116600483015230602483015282919084169063dd62ed3e9060440160206040518083038186803b1580156114bd57600080fd5b505afa1580156114d1573d6000803e3d6000fd5b505050506040513d601f19601f820116820180604052508101906114f59190611bf8565b1015610ee35760405162461bcd60e51b815260206004820152604f60248201527f5b416c6c6f77616e636520436f6e646974696f6e5d205573657220646964206e60448201527f6f74206769766520656e6f75676820616c6c6f77616e636520746f207468652060648201526e39b1b934b83a1032bc32b1baba37b960891b608482015260a4016102af565b6000806040518060400160405280601981526020017f454950373132446f6d61696e28737472696e67206e616d6529000000000000008152506040516020016115ca9190611c77565b60408051808303601f190181528282528051602091820120838301835260138452724461656d6f6e732d5472616e736665722d763160681b938201939093528151908101929092527f79040aedfa77b1cc5aa03b406e0eb7773ebc688845931b58df51026ea979b2a99082015260600160405160208183030381529060405280519060200120905060006040518061022001604052806101f88152602001611ec16101f891396040516020016116809190611c77565b6040516020818303038152906040528051906020012084600001358560200160208101906116ae9190611ae0565b6116be6060880160408901611ae0565b60608801356116d360a08a0160808b01611ae0565b6116e360c08b0160a08c01611ae0565b6040805160208101989098528701959095526001600160a01b039384166060870152918316608086015260a0850152811660c084810191909152911660e08301528501356101008201526101200160405160208183030381529060405261174c8560e001611818565b611759866101e0016118ef565b611766876102400161196d565b611773886102c001611998565b6117808961016001611a21565b6040805160208101969096528501939093526060840191909152608083015260a082015260c00160408051601f19818403018152908290526117c59291602001611c48565b60408051808303601f19018152828252805160209182012061190160f01b828501526022840195909552604280840195909552815180840390950185526062909201905282519201919091209392505050565b6000604051806080016040528060448152602001611e15604491396040516020016118439190611c77565b60408051601f1981840301815291905280516020918201209061186890840184611b2a565b6118786040850160208601611ae0565b6118886060860160408701611b62565b85606001356040516020016118d295949392919094855292151560208501526001600160a01b039190911660408401526001600160f81b0319166060830152608082015260a00190565b604051602081830303815290604052805190602001209050919050565b6000604051806060016040528060398152602001611d986039913960405160200161191a9190611c77565b60408051601f1981840301815291905280516020918201209061193f90840184611b2a565b604080516020818101949094529115158282015291840135606082015290830135608082015260a0016118d2565b6000604051806080016040528060418152602001611e80604191396040516020016118439190611c77565b6000604051806060016040528060278152602001611e59602791396040516020016119c39190611c77565b60408051601f198184030181529190528051602091820120906119e890840184611b2a565b6119f86040850160208601611c10565b6040516020016118d293929190928352901515602083015263ffffffff16604082015260600190565b6000604051806080016040528060448152602001611dd160449139604051602001611a4c9190611c77565b60408051601f19818403018152919052805160209182012090611a7190840184611b2a565b60208401356040850135611a8b6080870160608801611ae0565b60408051602081019690965293151593850193909352606084019190915260808301526001600160a01b031660a082015260c0016118d2565b80356001600160a01b0381168114611adb57600080fd5b919050565b600060208284031215611af1578081fd5b611afa82611ac4565b9392505050565b60008060408385031215611b13578081fd5b611b1c83611ac4565b946020939093013593505050565b600060208284031215611b3b578081fd5b8135611afa81611d77565b600060208284031215611b57578081fd5b8151611afa81611d77565b600060208284031215611b73578081fd5b81356001600160f81b031981168114611afa578182fd5b600060208284031215611b9b578081fd5b5035919050565b600080600080848603610360811215611bb9578283fd5b61030080821215611bc8578384fd5b869550850135935050610320840135915061034084013560ff81168114611bed578182fd5b939692955090935050565b600060208284031215611c09578081fd5b5051919050565b600060208284031215611c21578081fd5b8135611afa81611d85565b600060208284031215611c3d578081fd5b8151611afa81611d85565b60008351611c5a818460208801611d35565b835190830190611c6e818360208801611d35565b01949350505050565b60008251611c89818460208701611d35565b9190910192915050565b6020808252818101527f4f776e61626c653a2063616c6c6572206973206e6f7420746865206f776e6572604082015260600190565b60008219821115611cdb57611cdb611d61565b500190565b600063ffffffff808316818516808303821115611c6e57611c6e611d61565b6000816000190483118215151615611d1957611d19611d61565b500290565b600082821015611d3057611d30611d61565b500390565b60005b83811015611d50578181015183820152602001611d38565b83811115610a235750506000910152565b634e487b7160e01b600052601160045260246000fd5b80151581146107e457600080fd5b63ffffffff811681146107e457600080fdfe4672657175656e637928626f6f6c20656e61626c65642c75696e7432353620626c6f636b732c75696e74323536207374617274426c6f636b29466f6c6c6f7728626f6f6c20656e61626c65642c75696e743235362073686966742c627974657333322073637269707449642c61646472657373206578656375746f722942616c616e636528626f6f6c20656e61626c65642c6164647265737320746f6b656e2c62797465733120636f6d70617269736f6e2c75696e7432353620616d6f756e742952657065746974696f6e7328626f6f6c20656e61626c65642c75696e74333220616d6f756e7429507269636528626f6f6c20656e61626c65642c6164647265737320746f6b656e2c62797465733120636f6d70617269736f6e2c75696e743235362076616c7565295472616e7366657228627974657333322073637269707449642c6164647265737320746f6b656e2c616464726573732064657374696e6174696f6e2c75696e7432353620616d6f756e742c6164647265737320757365722c61646472657373206578656375746f722c75696e7432353620636861696e49642c42616c616e63652062616c616e63652c4672657175656e6379206672657175656e63792c50726963652070726963652c52657065746974696f6e732072657065746974696f6e732c466f6c6c6f7720666f6c6c6f772942616c616e636528626f6f6c20656e61626c65642c6164647265737320746f6b656e2c62797465733120636f6d70617269736f6e2c75696e7432353620616d6f756e7429466f6c6c6f7728626f6f6c20656e61626c65642c75696e743235362073686966742c627974657333322073637269707449642c61646472657373206578656375746f72294672657175656e637928626f6f6c20656e61626c65642c75696e7432353620626c6f636b732c75696e74323536207374617274426c6f636b29507269636528626f6f6c20656e61626c65642c6164647265737320746f6b656e2c62797465733120636f6d70617269736f6e2c75696e743235362076616c75652952657065746974696f6e7328626f6f6c20656e61626c65642c75696e74333220616d6f756e7429a26469706673582212201a659db99a95caa617db45a30f41cbb4d4bae99be4fd632f0fa8adeaa824c43b64736f6c63430008040033",
  "linkReferences": {},
  "deployedLinkReferences": {}
}