{
  "_format": "hh-sol-artifact-1",
  "contractName": "Treasury",
  "sourceName": "contracts/Treasury.sol",
  "abi": [
    {
      "inputs": [
        {
          "internalType": "address",
          "name": "_token",
          "type": "address"
        },
        {
          "internalType": "address",
          "name": "_gasTank",
          "type": "address"
        },
        {
          "internalType": "address",
          "name": "_lpRouter",
          "type": "address"
        }
      ],
      "stateMutability": "nonpayable",
      "type": "constructor"
    },
    {
      "anonymous": false,
      "inputs": [
        {
          "indexed": true,
          "internalType": "address",
          "name": "previousOwner",
          "type": "address"
        },
        {
          "indexed": true,
          "internalType": "address",
          "name": "newOwner",
          "type": "address"
        }
      ],
      "name": "OwnershipTransferred",
      "type": "event"
    },
    {
      "inputs": [],
      "name": "PERCENTAGE_COMMISSION",
      "outputs": [
        {
          "internalType": "uint16",
          "name": "",
          "type": "uint16"
        }
      ],
      "stateMutability": "view",
      "type": "function"
    },
    {
      "inputs": [],
      "name": "PERCENTAGE_POL",
      "outputs": [
        {
          "internalType": "uint16",
          "name": "",
          "type": "uint16"
        }
      ],
      "stateMutability": "view",
      "type": "function"
    },
    {
      "inputs": [
        {
          "internalType": "address",
          "name": "user",
          "type": "address"
        }
      ],
      "name": "balanceOf",
      "outputs": [
        {
          "internalType": "uint256",
          "name": "",
          "type": "uint256"
        }
      ],
      "stateMutability": "view",
      "type": "function"
    },
    {
      "inputs": [],
      "name": "claimCommission",
      "outputs": [],
      "stateMutability": "nonpayable",
      "type": "function"
    },
    {
      "inputs": [],
      "name": "commissionsPool",
      "outputs": [
        {
          "internalType": "uint256",
          "name": "",
          "type": "uint256"
        }
      ],
      "stateMutability": "view",
      "type": "function"
    },
    {
      "inputs": [],
      "name": "createLP",
      "outputs": [],
      "stateMutability": "nonpayable",
      "type": "function"
    },
    {
      "inputs": [],
      "name": "distributed",
      "outputs": [
        {
          "internalType": "uint256",
          "name": "",
          "type": "uint256"
        }
      ],
      "stateMutability": "view",
      "type": "function"
    },
    {
      "inputs": [
        {
          "internalType": "address",
          "name": "user",
          "type": "address"
        }
      ],
      "name": "earned",
      "outputs": [
        {
          "internalType": "uint256",
          "name": "",
          "type": "uint256"
        }
      ],
      "stateMutability": "view",
      "type": "function"
    },
    {
      "inputs": [],
      "name": "exit",
      "outputs": [],
      "stateMutability": "nonpayable",
      "type": "function"
    },
    {
      "inputs": [],
      "name": "fundLP",
      "outputs": [],
      "stateMutability": "nonpayable",
      "type": "function"
    },
    {
      "inputs": [],
      "name": "getReward",
      "outputs": [],
      "stateMutability": "nonpayable",
      "type": "function"
    },
    {
      "inputs": [],
      "name": "getRewardRate",
      "outputs": [
        {
          "internalType": "uint256",
          "name": "",
          "type": "uint256"
        }
      ],
      "stateMutability": "view",
      "type": "function"
    },
    {
      "inputs": [],
      "name": "owner",
      "outputs": [
        {
          "internalType": "address",
          "name": "",
          "type": "address"
        }
      ],
      "stateMutability": "view",
      "type": "function"
    },
    {
      "inputs": [],
      "name": "polPool",
      "outputs": [
        {
          "internalType": "uint256",
          "name": "",
          "type": "uint256"
        }
      ],
      "stateMutability": "view",
      "type": "function"
    },
    {
      "inputs": [],
      "name": "preliminaryCheck",
      "outputs": [],
      "stateMutability": "view",
      "type": "function"
    },
    {
      "inputs": [],
      "name": "redistributionInterval",
      "outputs": [
        {
          "internalType": "uint256",
          "name": "",
          "type": "uint256"
        }
      ],
      "stateMutability": "view",
      "type": "function"
    },
    {
      "inputs": [],
      "name": "redistributionPool",
      "outputs": [
        {
          "internalType": "uint256",
          "name": "",
          "type": "uint256"
        }
      ],
      "stateMutability": "view",
      "type": "function"
    },
    {
      "inputs": [],
      "name": "renounceOwnership",
      "outputs": [],
      "stateMutability": "nonpayable",
      "type": "function"
    },
    {
      "inputs": [
        {
          "internalType": "address",
          "name": "user",
          "type": "address"
        }
      ],
      "name": "requestPayout",
      "outputs": [],
      "stateMutability": "payable",
      "type": "function"
    },
    {
      "inputs": [],
      "name": "rewardPerToken",
      "outputs": [
        {
          "internalType": "uint256",
          "name": "",
          "type": "uint256"
        }
      ],
      "stateMutability": "view",
      "type": "function"
    },
    {
      "inputs": [
        {
          "internalType": "uint16",
          "name": "value",
          "type": "uint16"
        }
      ],
      "name": "setCommissionPercentage",
      "outputs": [],
      "stateMutability": "nonpayable",
      "type": "function"
    },
    {
      "inputs": [
        {
          "internalType": "address",
          "name": "_gasTank",
          "type": "address"
        }
      ],
      "name": "setGasTank",
      "outputs": [],
      "stateMutability": "nonpayable",
      "type": "function"
    },
    {
      "inputs": [
        {
          "internalType": "uint16",
          "name": "value",
          "type": "uint16"
        }
      ],
      "name": "setPolPercentage",
      "outputs": [],
      "stateMutability": "nonpayable",
      "type": "function"
    },
    {
      "inputs": [
        {
          "internalType": "uint256",
          "name": "newInterval",
          "type": "uint256"
        }
      ],
      "name": "setRedistributionInterval",
      "outputs": [],
      "stateMutability": "nonpayable",
      "type": "function"
    },
    {
      "inputs": [
        {
          "internalType": "uint256",
          "name": "amount",
          "type": "uint256"
        }
      ],
      "name": "stake",
      "outputs": [],
      "stateMutability": "nonpayable",
      "type": "function"
    },
    {
      "inputs": [
        {
          "internalType": "address",
          "name": "user",
          "type": "address"
        }
      ],
      "name": "stakePayout",
      "outputs": [],
      "stateMutability": "payable",
      "type": "function"
    },
    {
      "inputs": [],
      "name": "stakedAmount",
      "outputs": [
        {
          "internalType": "uint256",
          "name": "",
          "type": "uint256"
        }
      ],
      "stateMutability": "view",
      "type": "function"
    },
    {
      "inputs": [],
      "name": "tokensForDistribution",
      "outputs": [
        {
          "internalType": "uint256",
          "name": "",
          "type": "uint256"
        }
      ],
      "stateMutability": "view",
      "type": "function"
    },
    {
      "inputs": [
        {
          "internalType": "address",
          "name": "newOwner",
          "type": "address"
        }
      ],
      "name": "transferOwnership",
      "outputs": [],
      "stateMutability": "nonpayable",
      "type": "function"
    },
    {
      "inputs": [
        {
          "internalType": "uint256",
          "name": "amount",
          "type": "uint256"
        }
      ],
      "name": "withdraw",
      "outputs": [],
      "stateMutability": "nonpayable",
      "type": "function"
    },
    {
      "stateMutability": "payable",
      "type": "receive"
    }
  ],
  "bytecode": "0x60806040526003805463ffffffff60a01b19166304c9001960a21b17905562ed4e006008553480156200003157600080fd5b5060405162001c1638038062001c16833981016040819052620000549162000123565b6200005f33620000b6565b6001600160a01b0383166200007357600080fd5b600280546001600160a01b039485166001600160a01b0319918216179091556001805493851693821693909317909255600380549190931691161790556200016c565b600080546001600160a01b038381166001600160a01b0319831681178455604051919092169283917f8be0079c531659141344cd1fd0a4f28419497f9722a3daafe3b4186f6b6457e09190a35050565b80516001600160a01b03811681146200011e57600080fd5b919050565b60008060006060848603121562000138578283fd5b620001438462000106565b9250620001536020850162000106565b9150620001636040850162000106565b90509250925092565b611a9a806200017c6000396000f3fe6080604052600436106101d05760003560e01c8063803108ed116100f7578063b4f5d39511610095578063f32aabcb11610064578063f32aabcb146104c2578063f7f23a0c146104e2578063f84b903e146104f7578063fad99f981461050d57600080fd5b8063b4f5d39514610465578063cd3daf9d14610478578063e9fad8ee1461048d578063f2fde38b146104a257600080fd5b8063a3cee333116100d1578063a3cee333146103fa578063a694fc3a14610410578063b14abff014610430578063b26f3f921461045057600080fd5b8063803108ed1461039c5780638c06a6a5146103b25780638da5cb5b146103d257600080fd5b806345419cd01161016f578063715018a61161013e578063715018a6146103465780637d275e361461035b5780637e1a3786146103715780637e3923fe1461038657600080fd5b806345419cd0146102c65780634b1a4c0c146102e85780635d6f1137146102fd57806370a082311461031057600080fd5b80632e1a7d4d116101ab5780632e1a7d4d1461025b578063373d61321461027b5780633d18b9121461029157806343e297b2146102a657600080fd5b80628cc262146101dc57806301ff45aa1461020f5780630b71007c1461022657600080fd5b366101d757005b600080fd5b3480156101e857600080fd5b506101fc6101f73660046118f0565b610522565b6040519081526020015b60405180910390f35b34801561021b57600080fd5b5061022461059f565b005b34801561023257600080fd5b5060035461024890600160a01b900461ffff1681565b60405161ffff9091168152602001610206565b34801561026757600080fd5b50610224610276366004611960565b6106c7565b34801561028757600080fd5b506101fc60095481565b34801561029d57600080fd5b506102246108e5565b3480156102b257600080fd5b506102246102c13660046118f0565b6109d1565b3480156102d257600080fd5b5060035461024890600160b01b900461ffff1681565b3480156102f457600080fd5b506101fc610a5a565b61022461030b3660046118f0565b610ae9565b34801561031c57600080fd5b506101fc61032b3660046118f0565b6001600160a01b03166000908152600d602052604090205490565b34801561035257600080fd5b50610224610bf7565b34801561036757600080fd5b506101fc60065481565b34801561037d57600080fd5b506101fc610c5b565b34801561039257600080fd5b506101fc60055481565b3480156103a857600080fd5b506101fc60085481565b3480156103be57600080fd5b506102246103cd36600461193e565b610c6d565b3480156103de57600080fd5b506000546040516001600160a01b039091168152602001610206565b34801561040657600080fd5b506101fc60045481565b34801561041c57600080fd5b5061022461042b366004611960565b610daf565b34801561043c57600080fd5b5061022461044b36600461193e565b610f23565b34801561045c57600080fd5b5061022461100f565b6102246104733660046118f0565b611148565b34801561048457600080fd5b506101fc6111b6565b34801561049957600080fd5b50610224611214565b3480156104ae57600080fd5b506102246104bd3660046118f0565b611235565b3480156104ce57600080fd5b506102246104dd366004611960565b611314565b3480156104ee57600080fd5b5061022461141a565b34801561050357600080fd5b506101fc600a5481565b34801561051957600080fd5b50610224611583565b6001600160a01b0381166000908152600f6020908152604080832054600e909252822054670de0b6b3a7640000906105586111b6565b6105629190611a37565b6001600160a01b0385166000908152600d602052604090205461058591906119f5565b61058f91906119d5565b61059991906119bd565b92915050565b6001546001600160a01b03166105fc5760405162461bcd60e51b815260206004820152600760248201527f47617354616e6b0000000000000000000000000000000000000000000000000060448201526064015b60405180910390fd5b6002546040516370a0823160e01b81523060048201526000916001600160a01b0316906370a082319060240160206040518083038186803b15801561064057600080fd5b505afa158015610654573d6000803e3d6000fd5b505050506040513d601f19601f820116820180604052508101906106789190611978565b116106c55760405162461bcd60e51b815260206004820152601160248201527f547265617375727920697320656d70747900000000000000000000000000000060448201526064016105f3565b565b336106d06111b6565b600c5542600b556106e081610522565b6001600160a01b0382166000908152600f6020908152604080832093909355600c54600e90915291902055816107585760405162461bcd60e51b815260206004820152601160248201527f43616e6e6f74207769746864726177203000000000000000000000000000000060448201526064016105f3565b336000908152600d60205260409020548211156107b75760405162461bcd60e51b815260206004820152601960248201527f496e73756666696369656e74207374616b65642066756e64730000000000000060448201526064016105f3565b81600954116108085760405162461bcd60e51b815260206004820152601960248201527f43616e6e6f7420776974686472617720616c6c2066756e64730000000000000060448201526064016105f3565b816009600082825461081a9190611a37565b9091555050336000908152600d60205260408120805484929061083e908490611a37565b90915550506002546040517fa9059cbb000000000000000000000000000000000000000000000000000000008152336004820152602481018490526001600160a01b039091169063a9059cbb90604401602060405180830381600087803b1580156108a857600080fd5b505af11580156108bc573d6000803e3d6000fd5b505050506040513d601f19601f820116820180604052508101906108e0919061191e565b505050565b336108ee6111b6565b600c5542600b556108fe81610522565b6001600160a01b0382166000908152600f6020818152604080842094909455600c54600e82528484205533835252205461097a5760405162461bcd60e51b815260206004820152601060248201527f4e6f7468696e6720746f20636c61696d0000000000000000000000000000000060448201526064016105f3565b336000818152600f6020526040808220805490839055905190929183156108fc02918491818181858888f193505050501580156109bb573d6000803e3d6000fd5b5080600a546109ca91906119bd565b600a555050565b6000546001600160a01b03163314610a2b5760405162461bcd60e51b815260206004820181905260248201527f4f776e61626c653a2063616c6c6572206973206e6f7420746865206f776e657260448201526064016105f3565b6001805473ffffffffffffffffffffffffffffffffffffffff19166001600160a01b0392909216919091179055565b6009546002546040516370a0823160e01b8152306004820152600092916001600160a01b0316906370a082319060240160206040518083038186803b158015610aa257600080fd5b505afa158015610ab6573d6000803e3d6000fd5b505050506040513d601f19601f82011682018060405250810190610ada9190611978565b610ae49190611a37565b905090565b6001546001600160a01b03163314610b435760405162461bcd60e51b815260206004820152601a60248201527f556e617574686f72697a65642e204f6e6c792047617354616e6b00000000000060448201526064016105f3565b6002546001600160a01b031663a9059cbb82610b5d611615565b6040517fffffffff0000000000000000000000000000000000000000000000000000000060e085901b1681526001600160a01b0390921660048301526024820152604401602060405180830381600087803b158015610bbb57600080fd5b505af1158015610bcf573d6000803e3d6000fd5b505050506040513d601f19601f82011682018060405250810190610bf3919061191e565b5050565b6000546001600160a01b03163314610c515760405162461bcd60e51b815260206004820181905260248201527f4f776e61626c653a2063616c6c6572206973206e6f7420746865206f776e657260448201526064016105f3565b6106c560006116f5565b6000600854600454610ae491906119d5565b6000546001600160a01b03163314610cc75760405162461bcd60e51b815260206004820181905260248201527f4f776e61626c653a2063616c6c6572206973206e6f7420746865206f776e657260448201526064016105f3565b6101f48161ffff161015610d1d5760405162461bcd60e51b815260206004820152601760248201527f504f4c206d757374206265206174206c6561737420352500000000000000000060448201526064016105f3565b6113888161ffff161115610d735760405162461bcd60e51b815260206004820152601760248201527f504f4c206d757374206265206174206d6f73742035302500000000000000000060448201526064016105f3565b6003805461ffff909216600160b01b027fffffffffffffffff0000ffffffffffffffffffffffffffffffffffffffffffff909216919091179055565b33610db86111b6565b600c5542600b55610dc881610522565b6001600160a01b0382166000908152600f6020908152604080832093909355600c54600e9091529190205581610e405760405162461bcd60e51b815260206004820152600e60248201527f43616e6e6f74207374616b65203000000000000000000000000000000000000060448201526064016105f3565b6002546040517f23b872dd000000000000000000000000000000000000000000000000000000008152336004820152306024820152604481018490526001600160a01b03909116906323b872dd90606401602060405180830381600087803b158015610eab57600080fd5b505af1158015610ebf573d6000803e3d6000fd5b505050506040513d601f19601f82011682018060405250810190610ee3919061191e565b508160096000828254610ef691906119bd565b9091555050336000908152600d602052604081208054849290610f1a9084906119bd565b90915550505050565b6000546001600160a01b03163314610f7d5760405162461bcd60e51b815260206004820181905260248201527f4f776e61626c653a2063616c6c6572206973206e6f7420746865206f776e657260448201526064016105f3565b6101f48161ffff161115610fd35760405162461bcd60e51b815260206004820152601d60248201527f436f6d6d697373696f6e206d757374206265206174206d6f737420352500000060448201526064016105f3565b6003805461ffff909216600160a01b027fffffffffffffffffffff0000ffffffffffffffffffffffffffffffffffffffff909216919091179055565b6000546001600160a01b031633146110695760405162461bcd60e51b815260206004820181905260248201527f4f776e61626c653a2063616c6c6572206973206e6f7420746865206f776e657260448201526064016105f3565b60075460ff166110bb5760405162461bcd60e51b815260206004820152601760248201527f506f4c206e6f7420696e697469616c697a65642079657400000000000000000060448201526064016105f3565b6006546002546040516370a0823160e01b815230600482015261114192916001600160a01b0316906370a082319060240160206040518083038186803b15801561110457600080fd5b505afa158015611118573d6000803e3d6000fd5b505050506040513d601f19601f8201168201806040525081019061113c9190611978565b611752565b6000600655565b6001546001600160a01b031633146111a25760405162461bcd60e51b815260206004820152601a60248201527f556e617574686f72697a65642e204f6e6c792047617354616e6b00000000000060448201526064016105f3565b6111b3816111ae611615565b611816565b50565b6000600954600014156111c95750600090565b6009546111d4610c5b565b600b546111e19042611a37565b6111eb91906119f5565b6111fd90670de0b6b3a76400006119f5565b61120791906119d5565b600c54610ae491906119bd565b61121c6108e5565b336000908152600d60205260409020546106c5906106c7565b6000546001600160a01b0316331461128f5760405162461bcd60e51b815260206004820181905260248201527f4f776e61626c653a2063616c6c6572206973206e6f7420746865206f776e657260448201526064016105f3565b6001600160a01b03811661130b5760405162461bcd60e51b815260206004820152602660248201527f4f776e61626c653a206e6577206f776e657220697320746865207a65726f206160448201527f646472657373000000000000000000000000000000000000000000000000000060648201526084016105f3565b6111b3816116f5565b6000546001600160a01b0316331461136e5760405162461bcd60e51b815260206004820181905260248201527f4f776e61626c653a2063616c6c6572206973206e6f7420746865206f776e657260448201526064016105f3565b62278d008110156113c15760405162461bcd60e51b815260206004820152601b60248201527f5249206d757374206265206174206c656173742033302064617973000000000060448201526064016105f3565b6303c267008111156114155760405162461bcd60e51b815260206004820152601b60248201527f5249206d757374206265206174206d6f7374203733302064617973000000000060448201526064016105f3565b600855565b6000546001600160a01b031633146114745760405162461bcd60e51b815260206004820181905260248201527f4f776e61626c653a2063616c6c6572206973206e6f7420746865206f776e657260448201526064016105f3565b60075460ff16156114c75760405162461bcd60e51b815260206004820152601760248201527f506f4c20616c726561647920696e697469616c697a656400000000000000000060448201526064016105f3565b6002546003546040517f095ea7b30000000000000000000000000000000000000000000000000000000081526001600160a01b039182166004820152600019602482015291169063095ea7b390604401602060405180830381600087803b15801561153157600080fd5b505af1158015611545573d6000803e3d6000fd5b505050506040513d601f19601f82011682018060405250810190611569919061191e565b506115744747611752565b6007805460ff19166001179055565b6000546001600160a01b031633146115dd5760405162461bcd60e51b815260206004820181905260248201527f4f776e61626c653a2063616c6c6572206973206e6f7420746865206f776e657260448201526064016105f3565b600580546000918290556040519091339183156108fc0291849190818181858888f19350505050158015610bf3573d6000803e3d6000fd5b6003546000906127109061163490600160a01b900461ffff16346119f5565b61163e91906119d5565b6005600082825461164f91906119bd565b90915550506003546127109061167090600160b01b900461ffff16346119f5565b61167a91906119d5565b6006600082825461168b91906119bd565b90915550506003546127109061ffff600160b01b82048116916116b791600160a01b9091041683611a14565b6116c19190611a14565b6116cf9061ffff16346119f5565b6116d991906119d5565b600460008282546116ea91906119bd565b909155503492915050565b600080546001600160a01b0383811673ffffffffffffffffffffffffffffffffffffffff19831681178455604051919092169283917f8be0079c531659141344cd1fd0a4f28419497f9722a3daafe3b4186f6b6457e09190a35050565b6003546002546040517ff305d7190000000000000000000000000000000000000000000000000000000081526001600160a01b0391821660048201526024810184905260006044820181905260648201523060848201524260a482015291169063f305d71990849060c4016060604051808303818588803b1580156117d657600080fd5b505af11580156117ea573d6000803e3d6000fd5b50505050506040513d601f19601f8201168201806040525081019061180f9190611990565b5050505050565b8161181f6111b6565b600c5542600b5561182f81610522565b6001600160a01b0382166000908152600f6020908152604080832093909355600c54600e90915291902055816118a75760405162461bcd60e51b815260206004820152600e60248201527f43616e6e6f74207374616b65203000000000000000000000000000000000000060448201526064016105f3565b81600960008282546118b991906119bd565b90915550506001600160a01b0383166000908152600d6020526040812080548492906118e69084906119bd565b9091555050505050565b600060208284031215611901578081fd5b81356001600160a01b0381168114611917578182fd5b9392505050565b60006020828403121561192f578081fd5b81518015158114611917578182fd5b60006020828403121561194f578081fd5b813561ffff81168114611917578182fd5b600060208284031215611971578081fd5b5035919050565b600060208284031215611989578081fd5b5051919050565b6000806000606084860312156119a4578182fd5b8351925060208401519150604084015190509250925092565b600082198211156119d0576119d0611a4e565b500190565b6000826119f057634e487b7160e01b81526012600452602481fd5b500490565b6000816000190483118215151615611a0f57611a0f611a4e565b500290565b600061ffff83811690831681811015611a2f57611a2f611a4e565b039392505050565b600082821015611a4957611a49611a4e565b500390565b634e487b7160e01b600052601160045260246000fdfea264697066735822122030cf2791ca98b196db4b353b56ca7036b32b7c60d8ea5d5a851bc08f17099d5b64736f6c63430008040033",
  "linkReferences": {},
  "deployedLinkReferences": {}
}