{
  "_format": "hh-sol-artifact-1",
  "contractName": "Treasury",
  "sourceName": "contracts/Treasury.sol",
  "abi": [
    {
      "inputs": [
        {
          "internalType": "address",
          "name": "_token",
          "type": "address"
        },
        {
          "internalType": "address",
          "name": "_gasTank",
          "type": "address"
        }
      ],
      "stateMutability": "nonpayable",
      "type": "constructor"
    },
    {
      "anonymous": false,
      "inputs": [
        {
          "indexed": true,
          "internalType": "address",
          "name": "previousOwner",
          "type": "address"
        },
        {
          "indexed": true,
          "internalType": "address",
          "name": "newOwner",
          "type": "address"
        }
      ],
      "name": "OwnershipTransferred",
      "type": "event"
    },
    {
      "inputs": [],
      "name": "PERCENTAGE_COMMISSION",
      "outputs": [
        {
          "internalType": "uint16",
          "name": "",
          "type": "uint16"
        }
      ],
      "stateMutability": "view",
      "type": "function"
    },
    {
      "inputs": [],
      "name": "PERCENTAGE_POL",
      "outputs": [
        {
          "internalType": "uint16",
          "name": "",
          "type": "uint16"
        }
      ],
      "stateMutability": "view",
      "type": "function"
    },
    {
      "inputs": [],
      "name": "claimCommission",
      "outputs": [],
      "stateMutability": "nonpayable",
      "type": "function"
    },
    {
      "inputs": [],
      "name": "commissionsPool",
      "outputs": [
        {
          "internalType": "uint256",
          "name": "",
          "type": "uint256"
        }
      ],
      "stateMutability": "view",
      "type": "function"
    },
    {
      "inputs": [],
      "name": "owner",
      "outputs": [
        {
          "internalType": "address",
          "name": "",
          "type": "address"
        }
      ],
      "stateMutability": "view",
      "type": "function"
    },
    {
      "inputs": [],
      "name": "polPool",
      "outputs": [
        {
          "internalType": "uint256",
          "name": "",
          "type": "uint256"
        }
      ],
      "stateMutability": "view",
      "type": "function"
    },
    {
      "inputs": [],
      "name": "preliminaryCheck",
      "outputs": [],
      "stateMutability": "view",
      "type": "function"
    },
    {
      "inputs": [],
      "name": "redistributionPool",
      "outputs": [
        {
          "internalType": "uint256",
          "name": "",
          "type": "uint256"
        }
      ],
      "stateMutability": "view",
      "type": "function"
    },
    {
      "inputs": [],
      "name": "renounceOwnership",
      "outputs": [],
      "stateMutability": "nonpayable",
      "type": "function"
    },
    {
      "inputs": [
        {
          "internalType": "address",
          "name": "user",
          "type": "address"
        }
      ],
      "name": "requestPayout",
      "outputs": [],
      "stateMutability": "payable",
      "type": "function"
    },
    {
      "inputs": [
        {
          "internalType": "uint16",
          "name": "value",
          "type": "uint16"
        }
      ],
      "name": "setCommissionPercentage",
      "outputs": [],
      "stateMutability": "nonpayable",
      "type": "function"
    },
    {
      "inputs": [
        {
          "internalType": "address",
          "name": "_gasTank",
          "type": "address"
        }
      ],
      "name": "setGasTank",
      "outputs": [],
      "stateMutability": "nonpayable",
      "type": "function"
    },
    {
      "inputs": [
        {
          "internalType": "uint16",
          "name": "value",
          "type": "uint16"
        }
      ],
      "name": "setPolPercentage",
      "outputs": [],
      "stateMutability": "nonpayable",
      "type": "function"
    },
    {
      "inputs": [
        {
          "internalType": "address",
          "name": "newOwner",
          "type": "address"
        }
      ],
      "name": "transferOwnership",
      "outputs": [],
      "stateMutability": "nonpayable",
      "type": "function"
    }
  ],
  "bytecode": "0x60806040526002805463ffffffff60a01b19166304c9001960a21b17905534801561002957600080fd5b50604051610b76380380610b7683398101604081905261004891610101565b61005133610095565b6001600160a01b03821661006457600080fd5b600280546001600160a01b039384166001600160a01b03199182161790915560018054929093169116179055610133565b600080546001600160a01b038381166001600160a01b0319831681178455604051919092169283917f8be0079c531659141344cd1fd0a4f28419497f9722a3daafe3b4186f6b6457e09190a35050565b80516001600160a01b03811681146100fc57600080fd5b919050565b60008060408385031215610113578182fd5b61011c836100e5565b915061012a602084016100e5565b90509250929050565b610a34806101426000396000f3fe6080604052600436106100dd5760003560e01c80637e3923fe1161007f578063a3cee33311610059578063a3cee3331461021f578063b14abff014610235578063f2fde38b14610255578063fad99f981461027557600080fd5b80637e3923fe146101c15780638c06a6a5146101d75780638da5cb5b146101f757600080fd5b806345419cd0116100bb57806345419cd0146101535780635d6f113714610175578063715018a6146101885780637d275e361461019d57600080fd5b806301ff45aa146100e25780630b71007c146100f957806343e297b214610133575b600080fd5b3480156100ee57600080fd5b506100f761028a565b005b34801561010557600080fd5b5060025461011b90600160a01b900461ffff1681565b60405161ffff90911681526020015b60405180910390f35b34801561013f57600080fd5b506100f761014e3660046108b1565b610390565b34801561015f57600080fd5b5060025461011b90600160b01b900461ffff1681565b6100f76101833660046108b1565b6103dc565b34801561019457600080fd5b506100f7610596565b3480156101a957600080fd5b506101b360055481565b60405190815260200161012a565b3480156101cd57600080fd5b506101b360045481565b3480156101e357600080fd5b506100f76101f23660046108ff565b6105ca565b34801561020357600080fd5b506000546040516001600160a01b03909116815260200161012a565b34801561022b57600080fd5b506101b360035481565b34801561024157600080fd5b506100f76102503660046108ff565b6106c2565b34801561026157600080fd5b506100f76102703660046108b1565b610764565b34801561028157600080fd5b506100f76107ff565b6001546001600160a01b03166102d15760405162461bcd60e51b815260206004820152600760248201526647617354616e6b60c81b60448201526064015b60405180910390fd5b6002546040516370a0823160e01b81523060048201526000916001600160a01b0316906370a082319060240160206040518083038186803b15801561031557600080fd5b505afa158015610329573d6000803e3d6000fd5b505050506040513d601f19601f8201168201806040525081019061034d9190610921565b1161038e5760405162461bcd60e51b8152602060048201526011602482015270547265617375727920697320656d70747960781b60448201526064016102c8565b565b6000546001600160a01b031633146103ba5760405162461bcd60e51b81526004016102c890610939565b600180546001600160a01b0319166001600160a01b0392909216919091179055565b6001546001600160a01b031633146104365760405162461bcd60e51b815260206004820152601a60248201527f556e617574686f72697a65642e204f6e6c792047617354616e6b00000000000060448201526064016102c8565b6002546127109061045290600160a01b900461ffff16346109a6565b61045c9190610986565b6004600082825461046d919061096e565b90915550506002546127109061048e90600160b01b900461ffff16346109a6565b6104989190610986565b600560008282546104a9919061096e565b90915550506002546127109061ffff600160b01b82048116916104d591600160a01b90910416836109c5565b6104df91906109c5565b6104ed9061ffff16346109a6565b6104f79190610986565b60036000828254610508919061096e565b909155505060025460405163a9059cbb60e01b81526001600160a01b0383811660048301523460248301529091169063a9059cbb90604401602060405180830381600087803b15801561055a57600080fd5b505af115801561056e573d6000803e3d6000fd5b505050506040513d601f19601f8201168201806040525081019061059291906108df565b5050565b6000546001600160a01b031633146105c05760405162461bcd60e51b81526004016102c890610939565b61038e6000610861565b6000546001600160a01b031633146105f45760405162461bcd60e51b81526004016102c890610939565b6101f48161ffff16101561064a5760405162461bcd60e51b815260206004820152601760248201527f504f4c206d757374206265206174206c6561737420352500000000000000000060448201526064016102c8565b6113888161ffff1611156106a05760405162461bcd60e51b815260206004820152601760248201527f504f4c206d757374206265206174206d6f73742035302500000000000000000060448201526064016102c8565b6002805461ffff909216600160b01b0261ffff60b01b19909216919091179055565b6000546001600160a01b031633146106ec5760405162461bcd60e51b81526004016102c890610939565b6101f48161ffff1611156107425760405162461bcd60e51b815260206004820152601d60248201527f436f6d6d697373696f6e206d757374206265206174206d6f737420352500000060448201526064016102c8565b6002805461ffff909216600160a01b0261ffff60a01b19909216919091179055565b6000546001600160a01b0316331461078e5760405162461bcd60e51b81526004016102c890610939565b6001600160a01b0381166107f35760405162461bcd60e51b815260206004820152602660248201527f4f776e61626c653a206e6577206f776e657220697320746865207a65726f206160448201526564647265737360d01b60648201526084016102c8565b6107fc81610861565b50565b6000546001600160a01b031633146108295760405162461bcd60e51b81526004016102c890610939565b600480546000918290556040519091339183156108fc0291849190818181858888f19350505050158015610592573d6000803e3d6000fd5b600080546001600160a01b038381166001600160a01b0319831681178455604051919092169283917f8be0079c531659141344cd1fd0a4f28419497f9722a3daafe3b4186f6b6457e09190a35050565b6000602082840312156108c2578081fd5b81356001600160a01b03811681146108d8578182fd5b9392505050565b6000602082840312156108f0578081fd5b815180151581146108d8578182fd5b600060208284031215610910578081fd5b813561ffff811681146108d8578182fd5b600060208284031215610932578081fd5b5051919050565b6020808252818101527f4f776e61626c653a2063616c6c6572206973206e6f7420746865206f776e6572604082015260600190565b60008219821115610981576109816109e8565b500190565b6000826109a157634e487b7160e01b81526012600452602481fd5b500490565b60008160001904831182151516156109c0576109c06109e8565b500290565b600061ffff838116908316818110156109e0576109e06109e8565b039392505050565b634e487b7160e01b600052601160045260246000fdfea264697066735822122003b45b8e25c7cbb269e3cfd0b19cf2063f994dccfb05d67e92ee251e6f38107a64736f6c63430008040033",
  "linkReferences": {},
  "deployedLinkReferences": {}
}