{
  "_format": "hh-sol-artifact-1",
  "contractName": "Treasury",
  "sourceName": "contracts/Treasury.sol",
  "abi": [
    {
      "inputs": [
        {
          "internalType": "address",
          "name": "_token",
          "type": "address"
        },
        {
          "internalType": "address",
          "name": "_gasTank",
          "type": "address"
        }
      ],
      "stateMutability": "nonpayable",
      "type": "constructor"
    },
    {
      "anonymous": false,
      "inputs": [
        {
          "indexed": true,
          "internalType": "address",
          "name": "previousOwner",
          "type": "address"
        },
        {
          "indexed": true,
          "internalType": "address",
          "name": "newOwner",
          "type": "address"
        }
      ],
      "name": "OwnershipTransferred",
      "type": "event"
    },
    {
      "inputs": [],
      "name": "PERCENTAGE_COMMISSION",
      "outputs": [
        {
          "internalType": "uint16",
          "name": "",
          "type": "uint16"
        }
      ],
      "stateMutability": "view",
      "type": "function"
    },
    {
      "inputs": [],
      "name": "PERCENTAGE_POL",
      "outputs": [
        {
          "internalType": "uint16",
          "name": "",
          "type": "uint16"
        }
      ],
      "stateMutability": "view",
      "type": "function"
    },
    {
      "inputs": [],
      "name": "claimCommission",
      "outputs": [],
      "stateMutability": "nonpayable",
      "type": "function"
    },
    {
      "inputs": [],
      "name": "commissionsPool",
      "outputs": [
        {
          "internalType": "uint256",
          "name": "",
          "type": "uint256"
        }
      ],
      "stateMutability": "view",
      "type": "function"
    },
    {
      "inputs": [],
      "name": "owner",
      "outputs": [
        {
          "internalType": "address",
          "name": "",
          "type": "address"
        }
      ],
      "stateMutability": "view",
      "type": "function"
    },
    {
      "inputs": [],
      "name": "polPool",
      "outputs": [
        {
          "internalType": "uint256",
          "name": "",
          "type": "uint256"
        }
      ],
      "stateMutability": "view",
      "type": "function"
    },
    {
      "inputs": [],
      "name": "preliminaryCheck",
      "outputs": [],
      "stateMutability": "view",
      "type": "function"
    },
    {
      "inputs": [],
      "name": "redistributionPool",
      "outputs": [
        {
          "internalType": "uint256",
          "name": "",
          "type": "uint256"
        }
      ],
      "stateMutability": "view",
      "type": "function"
    },
    {
      "inputs": [],
      "name": "renounceOwnership",
      "outputs": [],
      "stateMutability": "nonpayable",
      "type": "function"
    },
    {
      "inputs": [
        {
          "internalType": "address",
          "name": "user",
          "type": "address"
        }
      ],
      "name": "requestPayout",
      "outputs": [],
      "stateMutability": "payable",
      "type": "function"
    },
    {
      "inputs": [
        {
          "internalType": "uint16",
          "name": "value",
          "type": "uint16"
        }
      ],
      "name": "setCommissionPercentage",
      "outputs": [],
      "stateMutability": "nonpayable",
      "type": "function"
    },
    {
      "inputs": [
        {
          "internalType": "address",
          "name": "_gasTank",
          "type": "address"
        }
      ],
      "name": "setGasTank",
      "outputs": [],
      "stateMutability": "nonpayable",
      "type": "function"
    },
    {
      "inputs": [
        {
          "internalType": "uint16",
          "name": "value",
          "type": "uint16"
        }
      ],
      "name": "setPolPercentage",
      "outputs": [],
      "stateMutability": "nonpayable",
      "type": "function"
    },
    {
      "inputs": [
        {
          "internalType": "address",
          "name": "newOwner",
          "type": "address"
        }
      ],
      "name": "transferOwnership",
      "outputs": [],
      "stateMutability": "nonpayable",
      "type": "function"
    }
  ],
  "bytecode": "0x60806040526002805463ffffffff60a01b19166304c9001960a21b17905534801561002957600080fd5b50604051610d1a380380610d1a83398101604081905261004891610101565b61005133610095565b6001600160a01b03821661006457600080fd5b600280546001600160a01b039384166001600160a01b03199182161790915560018054929093169116179055610133565b600080546001600160a01b038381166001600160a01b0319831681178455604051919092169283917f8be0079c531659141344cd1fd0a4f28419497f9722a3daafe3b4186f6b6457e09190a35050565b80516001600160a01b03811681146100fc57600080fd5b919050565b60008060408385031215610113578182fd5b61011c836100e5565b915061012a602084016100e5565b90509250929050565b610bd8806101426000396000f3fe6080604052600436106100dd5760003560e01c80637e3923fe1161007f578063a3cee33311610059578063a3cee3331461021f578063b14abff014610235578063f2fde38b14610255578063fad99f981461027557600080fd5b80637e3923fe146101c15780638c06a6a5146101d75780638da5cb5b146101f757600080fd5b806345419cd0116100bb57806345419cd0146101535780635d6f113714610175578063715018a6146101885780637d275e361461019d57600080fd5b806301ff45aa146100e25780630b71007c146100f957806343e297b214610133575b600080fd5b3480156100ee57600080fd5b506100f761028a565b005b34801561010557600080fd5b5060025461011b90600160a01b900461ffff1681565b60405161ffff90911681526020015b60405180910390f35b34801561013f57600080fd5b506100f761014e366004610a8a565b6103cb565b34801561015f57600080fd5b5060025461011b90600160b01b900461ffff1681565b6100f7610183366004610a8a565b610454565b34801561019457600080fd5b506100f7610627565b3480156101a957600080fd5b506101b360055481565b60405190815260200161012a565b3480156101cd57600080fd5b506101b360045481565b3480156101e357600080fd5b506100f76101f2366004610ad8565b61068b565b34801561020357600080fd5b506000546040516001600160a01b03909116815260200161012a565b34801561022b57600080fd5b506101b360035481565b34801561024157600080fd5b506100f7610250366004610ad8565b6107cd565b34801561026157600080fd5b506100f7610270366004610a8a565b6108b9565b34801561028157600080fd5b506100f761099b565b6001546001600160a01b03166102e75760405162461bcd60e51b815260206004820152600760248201527f47617354616e6b0000000000000000000000000000000000000000000000000060448201526064015b60405180910390fd5b6002546040517f70a082310000000000000000000000000000000000000000000000000000000081523060048201526000916001600160a01b0316906370a082319060240160206040518083038186803b15801561034457600080fd5b505afa158015610358573d6000803e3d6000fd5b505050506040513d601f19601f8201168201806040525081019061037c9190610afa565b116103c95760405162461bcd60e51b815260206004820152601160248201527f547265617375727920697320656d70747900000000000000000000000000000060448201526064016102de565b565b6000546001600160a01b031633146104255760405162461bcd60e51b815260206004820181905260248201527f4f776e61626c653a2063616c6c6572206973206e6f7420746865206f776e657260448201526064016102de565b6001805473ffffffffffffffffffffffffffffffffffffffff19166001600160a01b0392909216919091179055565b6001546001600160a01b031633146104ae5760405162461bcd60e51b815260206004820152601a60248201527f556e617574686f72697a65642e204f6e6c792047617354616e6b00000000000060448201526064016102de565b600254612710906104ca90600160a01b900461ffff1634610b4a565b6104d49190610b2a565b600460008282546104e59190610b12565b90915550506002546127109061050690600160b01b900461ffff1634610b4a565b6105109190610b2a565b600560008282546105219190610b12565b90915550506002546127109061ffff600160b01b820481169161054d91600160a01b9091041683610b69565b6105579190610b69565b6105659061ffff1634610b4a565b61056f9190610b2a565b600360008282546105809190610b12565b90915550506002546040517fa9059cbb0000000000000000000000000000000000000000000000000000000081526001600160a01b0383811660048301523460248301529091169063a9059cbb90604401602060405180830381600087803b1580156105eb57600080fd5b505af11580156105ff573d6000803e3d6000fd5b505050506040513d601f19601f820116820180604052508101906106239190610ab8565b5050565b6000546001600160a01b031633146106815760405162461bcd60e51b815260206004820181905260248201527f4f776e61626c653a2063616c6c6572206973206e6f7420746865206f776e657260448201526064016102de565b6103c96000610a2d565b6000546001600160a01b031633146106e55760405162461bcd60e51b815260206004820181905260248201527f4f776e61626c653a2063616c6c6572206973206e6f7420746865206f776e657260448201526064016102de565b6101f48161ffff16101561073b5760405162461bcd60e51b815260206004820152601760248201527f504f4c206d757374206265206174206c6561737420352500000000000000000060448201526064016102de565b6113888161ffff1611156107915760405162461bcd60e51b815260206004820152601760248201527f504f4c206d757374206265206174206d6f73742035302500000000000000000060448201526064016102de565b6002805461ffff909216600160b01b027fffffffffffffffff0000ffffffffffffffffffffffffffffffffffffffffffff909216919091179055565b6000546001600160a01b031633146108275760405162461bcd60e51b815260206004820181905260248201527f4f776e61626c653a2063616c6c6572206973206e6f7420746865206f776e657260448201526064016102de565b6101f48161ffff16111561087d5760405162461bcd60e51b815260206004820152601d60248201527f436f6d6d697373696f6e206d757374206265206174206d6f737420352500000060448201526064016102de565b6002805461ffff909216600160a01b027fffffffffffffffffffff0000ffffffffffffffffffffffffffffffffffffffff909216919091179055565b6000546001600160a01b031633146109135760405162461bcd60e51b815260206004820181905260248201527f4f776e61626c653a2063616c6c6572206973206e6f7420746865206f776e657260448201526064016102de565b6001600160a01b03811661098f5760405162461bcd60e51b815260206004820152602660248201527f4f776e61626c653a206e6577206f776e657220697320746865207a65726f206160448201527f646472657373000000000000000000000000000000000000000000000000000060648201526084016102de565b61099881610a2d565b50565b6000546001600160a01b031633146109f55760405162461bcd60e51b815260206004820181905260248201527f4f776e61626c653a2063616c6c6572206973206e6f7420746865206f776e657260448201526064016102de565b600480546000918290556040519091339183156108fc0291849190818181858888f19350505050158015610623573d6000803e3d6000fd5b600080546001600160a01b0383811673ffffffffffffffffffffffffffffffffffffffff19831681178455604051919092169283917f8be0079c531659141344cd1fd0a4f28419497f9722a3daafe3b4186f6b6457e09190a35050565b600060208284031215610a9b578081fd5b81356001600160a01b0381168114610ab1578182fd5b9392505050565b600060208284031215610ac9578081fd5b81518015158114610ab1578182fd5b600060208284031215610ae9578081fd5b813561ffff81168114610ab1578182fd5b600060208284031215610b0b578081fd5b5051919050565b60008219821115610b2557610b25610b8c565b500190565b600082610b4557634e487b7160e01b81526012600452602481fd5b500490565b6000816000190483118215151615610b6457610b64610b8c565b500290565b600061ffff83811690831681811015610b8457610b84610b8c565b039392505050565b634e487b7160e01b600052601160045260246000fdfea2646970667358221220b43dba1cc1b9844d7b1acda8c2f79f04898806ba37e44aad98f3fa64b473b20e64736f6c63430008040033",
  "linkReferences": {},
  "deployedLinkReferences": {}
}