{
  "_format": "hh-sol-artifact-1",
  "contractName": "Treasury",
  "sourceName": "contracts/Treasury.sol",
  "abi": [
    {
      "inputs": [
        {
          "internalType": "address",
          "name": "_token",
          "type": "address"
        },
        {
          "internalType": "address",
          "name": "_gasTank",
          "type": "address"
        }
      ],
      "stateMutability": "nonpayable",
      "type": "constructor"
    },
    {
      "anonymous": false,
      "inputs": [
        {
          "indexed": true,
          "internalType": "address",
          "name": "previousOwner",
          "type": "address"
        },
        {
          "indexed": true,
          "internalType": "address",
          "name": "newOwner",
          "type": "address"
        }
      ],
      "name": "OwnershipTransferred",
      "type": "event"
    },
    {
      "inputs": [],
      "name": "PERCENTAGE_COMMISSION",
      "outputs": [
        {
          "internalType": "uint16",
          "name": "",
          "type": "uint16"
        }
      ],
      "stateMutability": "view",
      "type": "function"
    },
    {
      "inputs": [],
      "name": "PERCENTAGE_POL",
      "outputs": [
        {
          "internalType": "uint16",
          "name": "",
          "type": "uint16"
        }
      ],
      "stateMutability": "view",
      "type": "function"
    },
    {
      "inputs": [
        {
          "internalType": "address",
          "name": "user",
          "type": "address"
        }
      ],
      "name": "balanceOf",
      "outputs": [
        {
          "internalType": "uint256",
          "name": "",
          "type": "uint256"
        }
      ],
      "stateMutability": "view",
      "type": "function"
    },
    {
      "inputs": [],
      "name": "claimCommission",
      "outputs": [],
      "stateMutability": "nonpayable",
      "type": "function"
    },
    {
      "inputs": [],
      "name": "commissionsPool",
      "outputs": [
        {
          "internalType": "uint256",
          "name": "",
          "type": "uint256"
        }
      ],
      "stateMutability": "view",
      "type": "function"
    },
    {
      "inputs": [
        {
          "internalType": "address",
          "name": "user",
          "type": "address"
        }
      ],
      "name": "earned",
      "outputs": [
        {
          "internalType": "uint256",
          "name": "",
          "type": "uint256"
        }
      ],
      "stateMutability": "view",
      "type": "function"
    },
    {
      "inputs": [],
      "name": "exit",
      "outputs": [],
      "stateMutability": "nonpayable",
      "type": "function"
    },
    {
      "inputs": [],
      "name": "getReward",
      "outputs": [],
      "stateMutability": "nonpayable",
      "type": "function"
    },
    {
      "inputs": [],
      "name": "getRewardRate",
      "outputs": [
        {
          "internalType": "uint256",
          "name": "",
          "type": "uint256"
        }
      ],
      "stateMutability": "view",
      "type": "function"
    },
    {
      "inputs": [],
      "name": "owner",
      "outputs": [
        {
          "internalType": "address",
          "name": "",
          "type": "address"
        }
      ],
      "stateMutability": "view",
      "type": "function"
    },
    {
      "inputs": [],
      "name": "polPool",
      "outputs": [
        {
          "internalType": "uint256",
          "name": "",
          "type": "uint256"
        }
      ],
      "stateMutability": "view",
      "type": "function"
    },
    {
      "inputs": [],
      "name": "preliminaryCheck",
      "outputs": [],
      "stateMutability": "view",
      "type": "function"
    },
    {
      "inputs": [],
      "name": "redistributionInterval",
      "outputs": [
        {
          "internalType": "uint256",
          "name": "",
          "type": "uint256"
        }
      ],
      "stateMutability": "view",
      "type": "function"
    },
    {
      "inputs": [],
      "name": "redistributionPool",
      "outputs": [
        {
          "internalType": "uint256",
          "name": "",
          "type": "uint256"
        }
      ],
      "stateMutability": "view",
      "type": "function"
    },
    {
      "inputs": [],
      "name": "renounceOwnership",
      "outputs": [],
      "stateMutability": "nonpayable",
      "type": "function"
    },
    {
      "inputs": [
        {
          "internalType": "address",
          "name": "user",
          "type": "address"
        }
      ],
      "name": "requestPayout",
      "outputs": [],
      "stateMutability": "payable",
      "type": "function"
    },
    {
      "inputs": [],
      "name": "rewardPerToken",
      "outputs": [
        {
          "internalType": "uint256",
          "name": "",
          "type": "uint256"
        }
      ],
      "stateMutability": "view",
      "type": "function"
    },
    {
      "inputs": [
        {
          "internalType": "uint16",
          "name": "value",
          "type": "uint16"
        }
      ],
      "name": "setCommissionPercentage",
      "outputs": [],
      "stateMutability": "nonpayable",
      "type": "function"
    },
    {
      "inputs": [
        {
          "internalType": "address",
          "name": "_gasTank",
          "type": "address"
        }
      ],
      "name": "setGasTank",
      "outputs": [],
      "stateMutability": "nonpayable",
      "type": "function"
    },
    {
      "inputs": [
        {
          "internalType": "uint16",
          "name": "value",
          "type": "uint16"
        }
      ],
      "name": "setPolPercentage",
      "outputs": [],
      "stateMutability": "nonpayable",
      "type": "function"
    },
    {
      "inputs": [
        {
          "internalType": "uint256",
          "name": "newInterval",
          "type": "uint256"
        }
      ],
      "name": "setRedistributionInterval",
      "outputs": [],
      "stateMutability": "nonpayable",
      "type": "function"
    },
    {
      "inputs": [
        {
          "internalType": "uint256",
          "name": "amount",
          "type": "uint256"
        }
      ],
      "name": "stake",
      "outputs": [],
      "stateMutability": "nonpayable",
      "type": "function"
    },
    {
      "inputs": [
        {
          "internalType": "address",
          "name": "user",
          "type": "address"
        }
      ],
      "name": "stakePayout",
      "outputs": [],
      "stateMutability": "payable",
      "type": "function"
    },
    {
      "inputs": [],
      "name": "stakedAmount",
      "outputs": [
        {
          "internalType": "uint256",
          "name": "",
          "type": "uint256"
        }
      ],
      "stateMutability": "view",
      "type": "function"
    },
    {
      "inputs": [],
      "name": "tokensForDistribution",
      "outputs": [
        {
          "internalType": "uint256",
          "name": "",
          "type": "uint256"
        }
      ],
      "stateMutability": "view",
      "type": "function"
    },
    {
      "inputs": [
        {
          "internalType": "address",
          "name": "newOwner",
          "type": "address"
        }
      ],
      "name": "transferOwnership",
      "outputs": [],
      "stateMutability": "nonpayable",
      "type": "function"
    },
    {
      "inputs": [
        {
          "internalType": "uint256",
          "name": "amount",
          "type": "uint256"
        }
      ],
      "name": "withdraw",
      "outputs": [],
      "stateMutability": "nonpayable",
      "type": "function"
    }
  ],
  "bytecode": "0x60806040526002805463ffffffff60a01b19166304c9001960a21b17905562ed4e006006553480156200003157600080fd5b50604051620017de380380620017de833981016040819052620000549162000112565b6200005f33620000a5565b6001600160a01b0382166200007357600080fd5b600280546001600160a01b039384166001600160a01b0319918216179091556001805492909316911617905562000149565b600080546001600160a01b038381166001600160a01b0319831681178455604051919092169283917f8be0079c531659141344cd1fd0a4f28419497f9722a3daafe3b4186f6b6457e09190a35050565b80516001600160a01b03811681146200010d57600080fd5b919050565b6000806040838503121562000125578182fd5b6200013083620000f5565b91506200014060208401620000f5565b90509250929050565b61168580620001596000396000f3fe6080604052600436106101ab5760003560e01c80637e1a3786116100ec578063b14abff01161008a578063e9fad8ee11610064578063e9fad8ee1461044c578063f2fde38b14610461578063f32aabcb14610481578063fad99f98146104a157600080fd5b8063b14abff014610404578063b4f5d39514610424578063cd3daf9d1461043757600080fd5b80638c06a6a5116100c65780638c06a6a5146103865780638da5cb5b146103a6578063a3cee333146103ce578063a694fc3a146103e457600080fd5b80637e1a3786146103455780637e3923fe1461035a578063803108ed1461037057600080fd5b806343e297b2116101595780635d6f1137116101335780635d6f1137146102d157806370a08231146102e4578063715018a61461031a5780637d275e361461032f57600080fd5b806343e297b21461027a57806345419cd01461029a5780634b1a4c0c146102bc57600080fd5b80632e1a7d4d1161018a5780632e1a7d4d1461022f578063373d61321461024f5780633d18b9121461026557600080fd5b80628cc262146101b057806301ff45aa146101e35780630b71007c146101fa575b600080fd5b3480156101bc57600080fd5b506101d06101cb366004611508565b6104b6565b6040519081526020015b60405180910390f35b3480156101ef57600080fd5b506101f8610533565b005b34801561020657600080fd5b5060025461021c90600160a01b900461ffff1681565b60405161ffff90911681526020016101da565b34801561023b57600080fd5b506101f861024a366004611578565b61065b565b34801561025b57600080fd5b506101d060075481565b34801561027157600080fd5b506101f8610879565b34801561028657600080fd5b506101f8610295366004611508565b61094f565b3480156102a657600080fd5b5060025461021c90600160b01b900461ffff1681565b3480156102c857600080fd5b506101d06109d8565b6101f86102df366004611508565b610a67565b3480156102f057600080fd5b506101d06102ff366004611508565b6001600160a01b03166000908152600a602052604090205490565b34801561032657600080fd5b506101f8610b75565b34801561033b57600080fd5b506101d060055481565b34801561035157600080fd5b506101d0610bd9565b34801561036657600080fd5b506101d060045481565b34801561037c57600080fd5b506101d060065481565b34801561039257600080fd5b506101f86103a1366004611556565b610beb565b3480156103b257600080fd5b506000546040516001600160a01b0390911681526020016101da565b3480156103da57600080fd5b506101d060035481565b3480156103f057600080fd5b506101f86103ff366004611578565b610d2d565b34801561041057600080fd5b506101f861041f366004611556565b610ea1565b6101f8610432366004611508565b610f8d565b34801561044357600080fd5b506101d0610ffb565b34801561045857600080fd5b506101f8611059565b34801561046d57600080fd5b506101f861047c366004611508565b61107a565b34801561048d57600080fd5b506101f861049c366004611578565b611159565b3480156104ad57600080fd5b506101f861125f565b6001600160a01b0381166000908152600c6020908152604080832054600b909252822054670de0b6b3a7640000906104ec610ffb565b6104f69190611622565b6001600160a01b0385166000908152600a602052604090205461051991906115e0565b61052391906115c0565b61052d91906115a8565b92915050565b6001546001600160a01b03166105905760405162461bcd60e51b815260206004820152600760248201527f47617354616e6b0000000000000000000000000000000000000000000000000060448201526064015b60405180910390fd5b6002546040516370a0823160e01b81523060048201526000916001600160a01b0316906370a082319060240160206040518083038186803b1580156105d457600080fd5b505afa1580156105e8573d6000803e3d6000fd5b505050506040513d601f19601f8201168201806040525081019061060c9190611590565b116106595760405162461bcd60e51b815260206004820152601160248201527f547265617375727920697320656d7074790000000000000000000000000000006044820152606401610587565b565b33610664610ffb565b60095542600855610674816104b6565b6001600160a01b0382166000908152600c6020908152604080832093909355600954600b90915291902055816106ec5760405162461bcd60e51b815260206004820152601160248201527f43616e6e6f7420776974686472617720300000000000000000000000000000006044820152606401610587565b336000908152600a602052604090205482111561074b5760405162461bcd60e51b815260206004820152601960248201527f496e73756666696369656e74207374616b65642066756e6473000000000000006044820152606401610587565b816007541161079c5760405162461bcd60e51b815260206004820152601960248201527f43616e6e6f7420776974686472617720616c6c2066756e6473000000000000006044820152606401610587565b81600760008282546107ae9190611622565b9091555050336000908152600a6020526040812080548492906107d2908490611622565b90915550506002546040517fa9059cbb000000000000000000000000000000000000000000000000000000008152336004820152602481018490526001600160a01b039091169063a9059cbb90604401602060405180830381600087803b15801561083c57600080fd5b505af1158015610850573d6000803e3d6000fd5b505050506040513d601f19601f820116820180604052508101906108749190611536565b505050565b33610882610ffb565b60095542600855610892816104b6565b6001600160a01b0382166000908152600c6020818152604080842094909455600954600b82528484205533835252205461090e5760405162461bcd60e51b815260206004820152601060248201527f4e6f7468696e6720746f20636c61696d000000000000000000000000000000006044820152606401610587565b336000818152600c6020526040808220805490839055905190929183156108fc02918491818181858888f19350505050158015610874573d6000803e3d6000fd5b6000546001600160a01b031633146109a95760405162461bcd60e51b815260206004820181905260248201527f4f776e61626c653a2063616c6c6572206973206e6f7420746865206f776e65726044820152606401610587565b6001805473ffffffffffffffffffffffffffffffffffffffff19166001600160a01b0392909216919091179055565b6007546002546040516370a0823160e01b8152306004820152600092916001600160a01b0316906370a082319060240160206040518083038186803b158015610a2057600080fd5b505afa158015610a34573d6000803e3d6000fd5b505050506040513d601f19601f82011682018060405250810190610a589190611590565b610a629190611622565b905090565b6001546001600160a01b03163314610ac15760405162461bcd60e51b815260206004820152601a60248201527f556e617574686f72697a65642e204f6e6c792047617354616e6b0000000000006044820152606401610587565b6002546001600160a01b031663a9059cbb82610adb6112f1565b6040517fffffffff0000000000000000000000000000000000000000000000000000000060e085901b1681526001600160a01b0390921660048301526024820152604401602060405180830381600087803b158015610b3957600080fd5b505af1158015610b4d573d6000803e3d6000fd5b505050506040513d601f19601f82011682018060405250810190610b719190611536565b5050565b6000546001600160a01b03163314610bcf5760405162461bcd60e51b815260206004820181905260248201527f4f776e61626c653a2063616c6c6572206973206e6f7420746865206f776e65726044820152606401610587565b61065960006113d1565b6000600654600354610a6291906115c0565b6000546001600160a01b03163314610c455760405162461bcd60e51b815260206004820181905260248201527f4f776e61626c653a2063616c6c6572206973206e6f7420746865206f776e65726044820152606401610587565b6101f48161ffff161015610c9b5760405162461bcd60e51b815260206004820152601760248201527f504f4c206d757374206265206174206c656173742035250000000000000000006044820152606401610587565b6113888161ffff161115610cf15760405162461bcd60e51b815260206004820152601760248201527f504f4c206d757374206265206174206d6f7374203530250000000000000000006044820152606401610587565b6002805461ffff909216600160b01b027fffffffffffffffff0000ffffffffffffffffffffffffffffffffffffffffffff909216919091179055565b33610d36610ffb565b60095542600855610d46816104b6565b6001600160a01b0382166000908152600c6020908152604080832093909355600954600b9091529190205581610dbe5760405162461bcd60e51b815260206004820152600e60248201527f43616e6e6f74207374616b6520300000000000000000000000000000000000006044820152606401610587565b6002546040517f23b872dd000000000000000000000000000000000000000000000000000000008152336004820152306024820152604481018490526001600160a01b03909116906323b872dd90606401602060405180830381600087803b158015610e2957600080fd5b505af1158015610e3d573d6000803e3d6000fd5b505050506040513d601f19601f82011682018060405250810190610e619190611536565b508160076000828254610e7491906115a8565b9091555050336000908152600a602052604081208054849290610e989084906115a8565b90915550505050565b6000546001600160a01b03163314610efb5760405162461bcd60e51b815260206004820181905260248201527f4f776e61626c653a2063616c6c6572206973206e6f7420746865206f776e65726044820152606401610587565b6101f48161ffff161115610f515760405162461bcd60e51b815260206004820152601d60248201527f436f6d6d697373696f6e206d757374206265206174206d6f73742035250000006044820152606401610587565b6002805461ffff909216600160a01b027fffffffffffffffffffff0000ffffffffffffffffffffffffffffffffffffffff909216919091179055565b6001546001600160a01b03163314610fe75760405162461bcd60e51b815260206004820152601a60248201527f556e617574686f72697a65642e204f6e6c792047617354616e6b0000000000006044820152606401610587565b610ff881610ff36112f1565b61142e565b50565b60006007546000141561100e5750600090565b600754611019610bd9565b6008546110269042611622565b61103091906115e0565b61104290670de0b6b3a76400006115e0565b61104c91906115c0565b600954610a6291906115a8565b611061610879565b336000908152600a60205260409020546106599061065b565b6000546001600160a01b031633146110d45760405162461bcd60e51b815260206004820181905260248201527f4f776e61626c653a2063616c6c6572206973206e6f7420746865206f776e65726044820152606401610587565b6001600160a01b0381166111505760405162461bcd60e51b815260206004820152602660248201527f4f776e61626c653a206e6577206f776e657220697320746865207a65726f206160448201527f64647265737300000000000000000000000000000000000000000000000000006064820152608401610587565b610ff8816113d1565b6000546001600160a01b031633146111b35760405162461bcd60e51b815260206004820181905260248201527f4f776e61626c653a2063616c6c6572206973206e6f7420746865206f776e65726044820152606401610587565b62278d008110156112065760405162461bcd60e51b815260206004820152601b60248201527f5249206d757374206265206174206c65617374203330206461797300000000006044820152606401610587565b6303c2670081111561125a5760405162461bcd60e51b815260206004820152601b60248201527f5249206d757374206265206174206d6f737420373330206461797300000000006044820152606401610587565b600655565b6000546001600160a01b031633146112b95760405162461bcd60e51b815260206004820181905260248201527f4f776e61626c653a2063616c6c6572206973206e6f7420746865206f776e65726044820152606401610587565b600480546000918290556040519091339183156108fc0291849190818181858888f19350505050158015610b71573d6000803e3d6000fd5b6002546000906127109061131090600160a01b900461ffff16346115e0565b61131a91906115c0565b6004600082825461132b91906115a8565b90915550506002546127109061134c90600160b01b900461ffff16346115e0565b61135691906115c0565b6005600082825461136791906115a8565b90915550506002546127109061ffff600160b01b820481169161139391600160a01b90910416836115ff565b61139d91906115ff565b6113ab9061ffff16346115e0565b6113b591906115c0565b600360008282546113c691906115a8565b909155503492915050565b600080546001600160a01b0383811673ffffffffffffffffffffffffffffffffffffffff19831681178455604051919092169283917f8be0079c531659141344cd1fd0a4f28419497f9722a3daafe3b4186f6b6457e09190a35050565b81611437610ffb565b60095542600855611447816104b6565b6001600160a01b0382166000908152600c6020908152604080832093909355600954600b90915291902055816114bf5760405162461bcd60e51b815260206004820152600e60248201527f43616e6e6f74207374616b6520300000000000000000000000000000000000006044820152606401610587565b81600760008282546114d191906115a8565b90915550506001600160a01b0383166000908152600a6020526040812080548492906114fe9084906115a8565b9091555050505050565b600060208284031215611519578081fd5b81356001600160a01b038116811461152f578182fd5b9392505050565b600060208284031215611547578081fd5b8151801515811461152f578182fd5b600060208284031215611567578081fd5b813561ffff8116811461152f578182fd5b600060208284031215611589578081fd5b5035919050565b6000602082840312156115a1578081fd5b5051919050565b600082198211156115bb576115bb611639565b500190565b6000826115db57634e487b7160e01b81526012600452602481fd5b500490565b60008160001904831182151516156115fa576115fa611639565b500290565b600061ffff8381169083168181101561161a5761161a611639565b039392505050565b60008282101561163457611634611639565b500390565b634e487b7160e01b600052601160045260246000fdfea2646970667358221220e9ec53a7cf821416ed3d82dc2fbf6c18930a864a5bbd8841399bc2789cd1a48164736f6c63430008040033",
  "linkReferences": {},
  "deployedLinkReferences": {}
}