{
  "_format": "hh-sol-artifact-1",
  "contractName": "Vesting",
  "sourceName": "contracts/Vesting.sol",
  "abi": [
    {
      "inputs": [
        {
          "internalType": "contract ERC20",
          "name": "_token",
          "type": "address"
        },
        {
          "internalType": "uint256",
          "name": "_start",
          "type": "uint256"
        },
        {
          "internalType": "uint256",
          "name": "_duration",
          "type": "uint256"
        }
      ],
      "stateMutability": "nonpayable",
      "type": "constructor"
    },
    {
      "anonymous": false,
      "inputs": [
        {
          "indexed": true,
          "internalType": "address",
          "name": "previousOwner",
          "type": "address"
        },
        {
          "indexed": true,
          "internalType": "address",
          "name": "newOwner",
          "type": "address"
        }
      ],
      "name": "OwnershipTransferred",
      "type": "event"
    },
    {
      "inputs": [
        {
          "internalType": "address",
          "name": "beneficiary",
          "type": "address"
        },
        {
          "internalType": "uint256",
          "name": "amount",
          "type": "uint256"
        }
      ],
      "name": "addBeneficiary",
      "outputs": [],
      "stateMutability": "nonpayable",
      "type": "function"
    },
    {
      "inputs": [],
      "name": "allocated",
      "outputs": [
        {
          "internalType": "uint256",
          "name": "",
          "type": "uint256"
        }
      ],
      "stateMutability": "view",
      "type": "function"
    },
    {
      "inputs": [],
      "name": "claimUnallocatedTokens",
      "outputs": [],
      "stateMutability": "nonpayable",
      "type": "function"
    },
    {
      "inputs": [],
      "name": "duration",
      "outputs": [
        {
          "internalType": "uint256",
          "name": "",
          "type": "uint256"
        }
      ],
      "stateMutability": "view",
      "type": "function"
    },
    {
      "inputs": [],
      "name": "owner",
      "outputs": [
        {
          "internalType": "address",
          "name": "",
          "type": "address"
        }
      ],
      "stateMutability": "view",
      "type": "function"
    },
    {
      "inputs": [
        {
          "internalType": "address",
          "name": "beneficiary",
          "type": "address"
        }
      ],
      "name": "releasableAmount",
      "outputs": [
        {
          "internalType": "uint256",
          "name": "",
          "type": "uint256"
        }
      ],
      "stateMutability": "view",
      "type": "function"
    },
    {
      "inputs": [
        {
          "internalType": "address",
          "name": "beneficiary",
          "type": "address"
        }
      ],
      "name": "release",
      "outputs": [],
      "stateMutability": "nonpayable",
      "type": "function"
    },
    {
      "inputs": [
        {
          "internalType": "address",
          "name": "",
          "type": "address"
        }
      ],
      "name": "released",
      "outputs": [
        {
          "internalType": "uint256",
          "name": "",
          "type": "uint256"
        }
      ],
      "stateMutability": "view",
      "type": "function"
    },
    {
      "inputs": [],
      "name": "renounceOwnership",
      "outputs": [],
      "stateMutability": "nonpayable",
      "type": "function"
    },
    {
      "inputs": [],
      "name": "start",
      "outputs": [
        {
          "internalType": "uint256",
          "name": "",
          "type": "uint256"
        }
      ],
      "stateMutability": "view",
      "type": "function"
    },
    {
      "inputs": [],
      "name": "token",
      "outputs": [
        {
          "internalType": "contract IERC20",
          "name": "",
          "type": "address"
        }
      ],
      "stateMutability": "view",
      "type": "function"
    },
    {
      "inputs": [
        {
          "internalType": "address",
          "name": "",
          "type": "address"
        }
      ],
      "name": "totalBalance",
      "outputs": [
        {
          "internalType": "uint256",
          "name": "",
          "type": "uint256"
        }
      ],
      "stateMutability": "view",
      "type": "function"
    },
    {
      "inputs": [
        {
          "internalType": "address",
          "name": "newOwner",
          "type": "address"
        }
      ],
      "name": "transferOwnership",
      "outputs": [],
      "stateMutability": "nonpayable",
      "type": "function"
    },
    {
      "inputs": [],
      "name": "unallocatedTokens",
      "outputs": [
        {
          "internalType": "uint256",
          "name": "",
          "type": "uint256"
        }
      ],
      "stateMutability": "view",
      "type": "function"
    },
    {
      "inputs": [
        {
          "internalType": "address",
          "name": "beneficiary",
          "type": "address"
        }
      ],
      "name": "vestedAmount",
      "outputs": [
        {
          "internalType": "uint256",
          "name": "",
          "type": "uint256"
        }
      ],
      "stateMutability": "view",
      "type": "function"
    }
  ],
  "bytecode": "0x608060405234801561001057600080fd5b50604051610d1c380380610d1c83398101604081905261002f916100ca565b6100383361007a565b6001600160a01b03831661004b57600080fd5b600180546001600160a01b0319166001600160a01b03949094169390931790925560039190915560025561010b565b600080546001600160a01b038381166001600160a01b0319831681178455604051919092169283917f8be0079c531659141344cd1fd0a4f28419497f9722a3daafe3b4186f6b6457e09190a35050565b6000806000606084860312156100de578283fd5b83516001600160a01b03811681146100f4578384fd5b602085015160409095015190969495509392505050565b610c028061011a6000396000f3fe608060405234801561001057600080fd5b50600436106100f55760003560e01c80638da5cb5b11610097578063b304b2e111610066578063b304b2e1146101e1578063be9a6555146101ea578063f2fde38b146101f3578063fc0c546a1461020657600080fd5b80638da5cb5b1461018157806396074e70146101a65780639852595c146101b9578063af209741146101d957600080fd5b8063296ee19f116100d3578063296ee19f1461013e578063384711cc146101465780636eacd39814610159578063715018a61461017957600080fd5b80630fb5a6b4146100fa5780631726cbc8146101165780631916558714610129575b600080fd5b61010360035481565b6040519081526020015b60405180910390f35b610103610124366004610ac6565b610219565b61013c610137366004610ac6565b61024b565b005b610103610365565b610103610154366004610ac6565b6103f8565b610103610167366004610ac6565b60056020526000908152604090205481565b61013c610480565b6000546001600160a01b03165b6040516001600160a01b03909116815260200161010d565b61013c6101b4366004610ae7565b6104e6565b6101036101c7366004610ac6565b60066020526000908152604090205481565b61013c610752565b61010360045481565b61010360025481565b61013c610201366004610ac6565b610965565b60015461018e906001600160a01b031681565b6001600160a01b03811660009081526006602052604081205461023b836103f8565b6102459190610b9f565b92915050565b600061025682610219565b9050600081116102ad5760405162461bcd60e51b815260206004820152601260248201527f4e6f7468696e6720746f2072656c65617365000000000000000000000000000060448201526064015b60405180910390fd5b6001600160a01b038216600090815260066020526040812080548392906102d5908490610b48565b909155505060015460405163a9059cbb60e01b81526001600160a01b038481166004830152602482018490529091169063a9059cbb90604401602060405180830381600087803b15801561032857600080fd5b505af115801561033c573d6000803e3d6000fd5b505050506040513d601f19601f820116820180604052508101906103609190610b10565b505050565b600480546001546040516370a0823160e01b815230938101939093526000926001600160a01b03909116906370a082319060240160206040518083038186803b1580156103b157600080fd5b505afa1580156103c5573d6000803e3d6000fd5b505050506040513d601f19601f820116820180604052508101906103e99190610b30565b6103f39190610b9f565b905090565b600060025442101561040c57506000919050565b60035460025461041c9190610b48565b421061043e57506001600160a01b031660009081526005602052604090205490565b60035460025461044e9042610b9f565b6001600160a01b0384166000908152600560205260409020546104719190610b80565b6102459190610b60565b919050565b6000546001600160a01b031633146104da5760405162461bcd60e51b815260206004820181905260248201527f4f776e61626c653a2063616c6c6572206973206e6f7420746865206f776e657260448201526064016102a4565b6104e46000610a47565b565b6000546001600160a01b031633146105405760405162461bcd60e51b815260206004820181905260248201527f4f776e61626c653a2063616c6c6572206973206e6f7420746865206f776e657260448201526064016102a4565b60025442106105b75760405162461bcd60e51b815260206004820152602860248201527f56657374696e6720737461727465642e204d6f64696669636174696f6e73206660448201527f6f7262696464656e00000000000000000000000000000000000000000000000060648201526084016102a4565b6001600160a01b0382166000908152600560205260409020541561061d5760405162461bcd60e51b815260206004820152601d60248201527f42656e656669636961727920697320616c726561647920696e2075736500000060448201526064016102a4565b600480546001546040516370a0823160e01b8152309381019390935290916001600160a01b03909116906370a082319060240160206040518083038186803b15801561066857600080fd5b505afa15801561067c573d6000803e3d6000fd5b505050506040513d601f19601f820116820180604052508101906106a09190610b30565b6106aa9190610b9f565b81111561071f5760405162461bcd60e51b815260206004820152602b60248201527f416d6f756e7420697320686967686572207468616e20617661696c61626c652060448201527f666f722076657374696e6700000000000000000000000000000000000000000060648201526084016102a4565b80600460008282546107319190610b48565b90915550506001600160a01b03909116600090815260056020526040902055565b6000546001600160a01b031633146107ac5760405162461bcd60e51b815260206004820181905260248201527f4f776e61626c653a2063616c6c6572206973206e6f7420746865206f776e657260448201526064016102a4565b60025442116107fd5760405162461bcd60e51b815260206004820152601b60248201527f56657374696e6720686173206e6f74207374617274656420796574000000000060448201526064016102a4565b600480546001546040516370a0823160e01b815230938101939093526000926001600160a01b03909116906370a082319060240160206040518083038186803b15801561084957600080fd5b505afa15801561085d573d6000803e3d6000fd5b505050506040513d601f19601f820116820180604052508101906108819190610b30565b61088b9190610b9f565b9050600081116108dd5760405162461bcd60e51b815260206004820152601e60248201527f416c6c20746f6b656e732068617665206265656e20616c6c6f6361746564000060448201526064016102a4565b60015460405163a9059cbb60e01b8152336004820152602481018390526001600160a01b039091169063a9059cbb90604401602060405180830381600087803b15801561092957600080fd5b505af115801561093d573d6000803e3d6000fd5b505050506040513d601f19601f820116820180604052508101906109619190610b10565b5050565b6000546001600160a01b031633146109bf5760405162461bcd60e51b815260206004820181905260248201527f4f776e61626c653a2063616c6c6572206973206e6f7420746865206f776e657260448201526064016102a4565b6001600160a01b038116610a3b5760405162461bcd60e51b815260206004820152602660248201527f4f776e61626c653a206e6577206f776e657220697320746865207a65726f206160448201527f646472657373000000000000000000000000000000000000000000000000000060648201526084016102a4565b610a4481610a47565b50565b600080546001600160a01b038381167fffffffffffffffffffffffff0000000000000000000000000000000000000000831681178455604051919092169283917f8be0079c531659141344cd1fd0a4f28419497f9722a3daafe3b4186f6b6457e09190a35050565b80356001600160a01b038116811461047b57600080fd5b600060208284031215610ad7578081fd5b610ae082610aaf565b9392505050565b60008060408385031215610af9578081fd5b610b0283610aaf565b946020939093013593505050565b600060208284031215610b21578081fd5b81518015158114610ae0578182fd5b600060208284031215610b41578081fd5b5051919050565b60008219821115610b5b57610b5b610bb6565b500190565b600082610b7b57634e487b7160e01b81526012600452602481fd5b500490565b6000816000190483118215151615610b9a57610b9a610bb6565b500290565b600082821015610bb157610bb1610bb6565b500390565b634e487b7160e01b600052601160045260246000fdfea264697066735822122021454d8538e328b7769a2440d62fe83648b01373a4e81eed3b1fce56e398aed264736f6c63430008040033",
  "linkReferences": {},
  "deployedLinkReferences": {}
}