{
  "_format": "hh-sol-artifact-1",
  "contractName": "Vesting",
  "sourceName": "contracts/Vesting.sol",
  "abi": [
    {
      "inputs": [
        {
          "internalType": "contract ERC20",
          "name": "_token",
          "type": "address"
        },
        {
          "internalType": "uint256",
          "name": "_start",
          "type": "uint256"
        },
        {
          "internalType": "uint256",
          "name": "_duration",
          "type": "uint256"
        }
      ],
      "stateMutability": "nonpayable",
      "type": "constructor"
    },
    {
      "anonymous": false,
      "inputs": [
        {
          "indexed": true,
          "internalType": "address",
          "name": "previousOwner",
          "type": "address"
        },
        {
          "indexed": true,
          "internalType": "address",
          "name": "newOwner",
          "type": "address"
        }
      ],
      "name": "OwnershipTransferred",
      "type": "event"
    },
    {
      "inputs": [
        {
          "internalType": "address",
          "name": "beneficiary",
          "type": "address"
        },
        {
          "internalType": "uint256",
          "name": "amount",
          "type": "uint256"
        }
      ],
      "name": "addBeneficiary",
      "outputs": [],
      "stateMutability": "nonpayable",
      "type": "function"
    },
    {
      "inputs": [],
      "name": "allocated",
      "outputs": [
        {
          "internalType": "uint256",
          "name": "",
          "type": "uint256"
        }
      ],
      "stateMutability": "view",
      "type": "function"
    },
    {
      "inputs": [],
      "name": "claimUnallocatedTokens",
      "outputs": [],
      "stateMutability": "nonpayable",
      "type": "function"
    },
    {
      "inputs": [],
      "name": "duration",
      "outputs": [
        {
          "internalType": "uint256",
          "name": "",
          "type": "uint256"
        }
      ],
      "stateMutability": "view",
      "type": "function"
    },
    {
      "inputs": [],
      "name": "owner",
      "outputs": [
        {
          "internalType": "address",
          "name": "",
          "type": "address"
        }
      ],
      "stateMutability": "view",
      "type": "function"
    },
    {
      "inputs": [
        {
          "internalType": "address",
          "name": "beneficiary",
          "type": "address"
        }
      ],
      "name": "releasableAmount",
      "outputs": [
        {
          "internalType": "uint256",
          "name": "",
          "type": "uint256"
        }
      ],
      "stateMutability": "view",
      "type": "function"
    },
    {
      "inputs": [
        {
          "internalType": "address",
          "name": "beneficiary",
          "type": "address"
        }
      ],
      "name": "release",
      "outputs": [],
      "stateMutability": "nonpayable",
      "type": "function"
    },
    {
      "inputs": [
        {
          "internalType": "address",
          "name": "",
          "type": "address"
        }
      ],
      "name": "released",
      "outputs": [
        {
          "internalType": "uint256",
          "name": "",
          "type": "uint256"
        }
      ],
      "stateMutability": "view",
      "type": "function"
    },
    {
      "inputs": [],
      "name": "renounceOwnership",
      "outputs": [],
      "stateMutability": "nonpayable",
      "type": "function"
    },
    {
      "inputs": [],
      "name": "start",
      "outputs": [
        {
          "internalType": "uint256",
          "name": "",
          "type": "uint256"
        }
      ],
      "stateMutability": "view",
      "type": "function"
    },
    {
      "inputs": [],
      "name": "token",
      "outputs": [
        {
          "internalType": "contract IERC20",
          "name": "",
          "type": "address"
        }
      ],
      "stateMutability": "view",
      "type": "function"
    },
    {
      "inputs": [
        {
          "internalType": "address",
          "name": "",
          "type": "address"
        }
      ],
      "name": "totalBalance",
      "outputs": [
        {
          "internalType": "uint256",
          "name": "",
          "type": "uint256"
        }
      ],
      "stateMutability": "view",
      "type": "function"
    },
    {
      "inputs": [
        {
          "internalType": "address",
          "name": "newOwner",
          "type": "address"
        }
      ],
      "name": "transferOwnership",
      "outputs": [],
      "stateMutability": "nonpayable",
      "type": "function"
    },
    {
      "inputs": [],
      "name": "unallocatedTokens",
      "outputs": [
        {
          "internalType": "uint256",
          "name": "",
          "type": "uint256"
        }
      ],
      "stateMutability": "view",
      "type": "function"
    },
    {
      "inputs": [
        {
          "internalType": "address",
          "name": "beneficiary",
          "type": "address"
        }
      ],
      "name": "vestedAmount",
      "outputs": [
        {
          "internalType": "uint256",
          "name": "",
          "type": "uint256"
        }
      ],
      "stateMutability": "view",
      "type": "function"
    }
  ],
  "bytecode": "0x608060405234801561001057600080fd5b50604051610c30380380610c3083398101604081905261002f916100ca565b6100383361007a565b6001600160a01b03831661004b57600080fd5b600180546001600160a01b0319166001600160a01b03949094169390931790925560039190915560025561010b565b600080546001600160a01b038381166001600160a01b0319831681178455604051919092169283917f8be0079c531659141344cd1fd0a4f28419497f9722a3daafe3b4186f6b6457e09190a35050565b6000806000606084860312156100de578283fd5b83516001600160a01b03811681146100f4578384fd5b602085015160409095015190969495509392505050565b610b168061011a6000396000f3fe608060405234801561001057600080fd5b50600436106100f55760003560e01c80638da5cb5b11610097578063b304b2e111610066578063b304b2e1146101e1578063be9a6555146101ea578063f2fde38b146101f3578063fc0c546a1461020657600080fd5b80638da5cb5b1461018157806396074e70146101a65780639852595c146101b9578063af209741146101d957600080fd5b8063296ee19f116100d3578063296ee19f1461013e578063384711cc146101465780636eacd39814610159578063715018a61461017957600080fd5b80630fb5a6b4146100fa5780631726cbc8146101165780631916558714610129575b600080fd5b61010360035481565b6040519081526020015b60405180910390f35b6101036101243660046109a5565b610219565b61013c6101373660046109a5565b61024b565b005b61010361035a565b6101036101543660046109a5565b6103ed565b6101036101673660046109a5565b60056020526000908152604090205481565b61013c610475565b6000546001600160a01b03165b6040516001600160a01b03909116815260200161010d565b61013c6101b43660046109c6565b6104ab565b6101036101c73660046109a5565b60066020526000908152604090205481565b61013c6106c0565b61010360045481565b61010360025481565b61013c6102013660046109a5565b6108a3565b60015461018e906001600160a01b031681565b6001600160a01b03811660009081526006602052604081205461023b836103ed565b6102459190610ab3565b92915050565b600061025682610219565b9050600081116102a25760405162461bcd60e51b81526020600482015260126024820152714e6f7468696e6720746f2072656c6561736560701b60448201526064015b60405180910390fd5b6001600160a01b038216600090815260066020526040812080548392906102ca908490610a5c565b909155505060015460405163a9059cbb60e01b81526001600160a01b038481166004830152602482018490529091169063a9059cbb90604401602060405180830381600087803b15801561031d57600080fd5b505af1158015610331573d6000803e3d6000fd5b505050506040513d601f19601f8201168201806040525081019061035591906109ef565b505050565b600480546001546040516370a0823160e01b815230938101939093526000926001600160a01b03909116906370a082319060240160206040518083038186803b1580156103a657600080fd5b505afa1580156103ba573d6000803e3d6000fd5b505050506040513d601f19601f820116820180604052508101906103de9190610a0f565b6103e89190610ab3565b905090565b600060025442101561040157506000919050565b6003546002546104119190610a5c565b421061043357506001600160a01b031660009081526005602052604090205490565b6003546002546104439042610ab3565b6001600160a01b0384166000908152600560205260409020546104669190610a94565b6102459190610a74565b919050565b6000546001600160a01b0316331461049f5760405162461bcd60e51b815260040161029990610a27565b6104a9600061093e565b565b6000546001600160a01b031633146104d55760405162461bcd60e51b815260040161029990610a27565b60025442106105375760405162461bcd60e51b815260206004820152602860248201527f56657374696e6720737461727465642e204d6f64696669636174696f6e73206660448201526737b93134b23232b760c11b6064820152608401610299565b6001600160a01b0382166000908152600560205260409020541561059d5760405162461bcd60e51b815260206004820152601d60248201527f42656e656669636961727920697320616c726561647920696e207573650000006044820152606401610299565b600480546001546040516370a0823160e01b8152309381019390935290916001600160a01b03909116906370a082319060240160206040518083038186803b1580156105e857600080fd5b505afa1580156105fc573d6000803e3d6000fd5b505050506040513d601f19601f820116820180604052508101906106209190610a0f565b61062a9190610ab3565b81111561068d5760405162461bcd60e51b815260206004820152602b60248201527f416d6f756e7420697320686967686572207468616e20617661696c61626c652060448201526a666f722076657374696e6760a81b6064820152608401610299565b806004600082825461069f9190610a5c565b90915550506001600160a01b03909116600090815260056020526040902055565b6000546001600160a01b031633146106ea5760405162461bcd60e51b815260040161029990610a27565b600254421161073b5760405162461bcd60e51b815260206004820152601b60248201527f56657374696e6720686173206e6f7420737461727465642079657400000000006044820152606401610299565b600480546001546040516370a0823160e01b815230938101939093526000926001600160a01b03909116906370a082319060240160206040518083038186803b15801561078757600080fd5b505afa15801561079b573d6000803e3d6000fd5b505050506040513d601f19601f820116820180604052508101906107bf9190610a0f565b6107c99190610ab3565b90506000811161081b5760405162461bcd60e51b815260206004820152601e60248201527f416c6c20746f6b656e732068617665206265656e20616c6c6f636174656400006044820152606401610299565b60015460405163a9059cbb60e01b8152336004820152602481018390526001600160a01b039091169063a9059cbb90604401602060405180830381600087803b15801561086757600080fd5b505af115801561087b573d6000803e3d6000fd5b505050506040513d601f19601f8201168201806040525081019061089f91906109ef565b5050565b6000546001600160a01b031633146108cd5760405162461bcd60e51b815260040161029990610a27565b6001600160a01b0381166109325760405162461bcd60e51b815260206004820152602660248201527f4f776e61626c653a206e6577206f776e657220697320746865207a65726f206160448201526564647265737360d01b6064820152608401610299565b61093b8161093e565b50565b600080546001600160a01b038381166001600160a01b0319831681178455604051919092169283917f8be0079c531659141344cd1fd0a4f28419497f9722a3daafe3b4186f6b6457e09190a35050565b80356001600160a01b038116811461047057600080fd5b6000602082840312156109b6578081fd5b6109bf8261098e565b9392505050565b600080604083850312156109d8578081fd5b6109e18361098e565b946020939093013593505050565b600060208284031215610a00578081fd5b815180151581146109bf578182fd5b600060208284031215610a20578081fd5b5051919050565b6020808252818101527f4f776e61626c653a2063616c6c6572206973206e6f7420746865206f776e6572604082015260600190565b60008219821115610a6f57610a6f610aca565b500190565b600082610a8f57634e487b7160e01b81526012600452602481fd5b500490565b6000816000190483118215151615610aae57610aae610aca565b500290565b600082821015610ac557610ac5610aca565b500390565b634e487b7160e01b600052601160045260246000fdfea26469706673582212200c0bac6f8d4ed281f6baa4168d86aed3238f585b4b95d82d71237740b935be4364736f6c63430008040033",
  "linkReferences": {},
  "deployedLinkReferences": {}
}